{
  "_format": "hh-sol-artifact-1",
  "contractName": "ERC20Token",
  "sourceName": "contracts/ERC20Token.sol",
  "abi": [
    {
      "inputs": [
        {
          "internalType": "string",
          "name": "token_name",
          "type": "string"
        },
        {
          "internalType": "string",
          "name": "token_code",
          "type": "string"
        },
        {
          "internalType": "uint256",
          "name": "_initial_amount",
          "type": "uint256"
        },
        {
          "internalType": "address",
          "name": "owner",
          "type": "address"
        },
        {
          "internalType": "address[]",
          "name": "minters",
          "type": "address[]"
        },
        {
          "internalType": "contract MinimalForwarder",
          "name": "forwarder",
          "type": "address"
        }
      ],
      "stateMutability": "nonpayable",
      "type": "constructor"
    },
    {
      "anonymous": false,
      "inputs": [
        {
          "indexed": true,
          "internalType": "address",
          "name": "owner",
          "type": "address"
        },
        {
          "indexed": true,
          "internalType": "address",
          "name": "spender",
          "type": "address"
        },
        {
          "indexed": false,
          "internalType": "uint256",
          "name": "value",
          "type": "uint256"
        }
      ],
      "name": "Approval",
      "type": "event"
    },
    {
      "anonymous": false,
      "inputs": [
        {
          "indexed": true,
          "internalType": "address",
          "name": "previousOwner",
          "type": "address"
        },
        {
          "indexed": true,
          "internalType": "address",
          "name": "newOwner",
          "type": "address"
        }
      ],
      "name": "OwnershipTransferred",
      "type": "event"
    },
    {
      "anonymous": false,
      "inputs": [
        {
          "indexed": true,
          "internalType": "bytes32",
          "name": "role",
          "type": "bytes32"
        },
        {
          "indexed": true,
          "internalType": "bytes32",
          "name": "previousAdminRole",
          "type": "bytes32"
        },
        {
          "indexed": true,
          "internalType": "bytes32",
          "name": "newAdminRole",
          "type": "bytes32"
        }
      ],
      "name": "RoleAdminChanged",
      "type": "event"
    },
    {
      "anonymous": false,
      "inputs": [
        {
          "indexed": true,
          "internalType": "bytes32",
          "name": "role",
          "type": "bytes32"
        },
        {
          "indexed": true,
          "internalType": "address",
          "name": "account",
          "type": "address"
        },
        {
          "indexed": true,
          "internalType": "address",
          "name": "sender",
          "type": "address"
        }
      ],
      "name": "RoleGranted",
      "type": "event"
    },
    {
      "anonymous": false,
      "inputs": [
        {
          "indexed": true,
          "internalType": "bytes32",
          "name": "role",
          "type": "bytes32"
        },
        {
          "indexed": true,
          "internalType": "address",
          "name": "account",
          "type": "address"
        },
        {
          "indexed": true,
          "internalType": "address",
          "name": "sender",
          "type": "address"
        }
      ],
      "name": "RoleRevoked",
      "type": "event"
    },
    {
      "anonymous": false,
      "inputs": [
        {
          "indexed": true,
          "internalType": "address",
          "name": "from",
          "type": "address"
        },
        {
          "indexed": true,
          "internalType": "address",
          "name": "to",
          "type": "address"
        },
        {
          "indexed": false,
          "internalType": "uint256",
          "name": "value",
          "type": "uint256"
        }
      ],
      "name": "Transfer",
      "type": "event"
    },
    {
      "inputs": [],
      "name": "BURNER_ROLE",
      "outputs": [
        {
          "internalType": "bytes32",
          "name": "",
          "type": "bytes32"
        }
      ],
      "stateMutability": "view",
      "type": "function"
    },
    {
      "inputs": [],
      "name": "DEFAULT_ADMIN_ROLE",
      "outputs": [
        {
          "internalType": "bytes32",
          "name": "",
          "type": "bytes32"
        }
      ],
      "stateMutability": "view",
      "type": "function"
    },
    {
      "inputs": [],
      "name": "MINTER_ROLE",
      "outputs": [
        {
          "internalType": "bytes32",
          "name": "",
          "type": "bytes32"
        }
      ],
      "stateMutability": "view",
      "type": "function"
    },
    {
      "inputs": [],
      "name": "TRANSFER_ROLE",
      "outputs": [
        {
          "internalType": "bytes32",
          "name": "",
          "type": "bytes32"
        }
      ],
      "stateMutability": "view",
      "type": "function"
    },
    {
      "inputs": [
        {
          "internalType": "address[]",
          "name": "burners",
          "type": "address[]"
        }
      ],
      "name": "addBurners",
      "outputs": [],
      "stateMutability": "nonpayable",
      "type": "function"
    },
    {
      "inputs": [
        {
          "internalType": "address[]",
          "name": "minters",
          "type": "address[]"
        }
      ],
      "name": "addMinters",
      "outputs": [],
      "stateMutability": "nonpayable",
      "type": "function"
    },
    {
      "inputs": [
        {
          "internalType": "address",
          "name": "owner",
          "type": "address"
        },
        {
          "internalType": "address",
          "name": "spender",
          "type": "address"
        }
      ],
      "name": "allowance",
      "outputs": [
        {
          "internalType": "uint256",
          "name": "",
          "type": "uint256"
        }
      ],
      "stateMutability": "view",
      "type": "function"
    },
    {
      "inputs": [
        {
          "internalType": "address",
          "name": "spender",
          "type": "address"
        },
        {
          "internalType": "uint256",
          "name": "amount",
          "type": "uint256"
        }
      ],
      "name": "approve",
      "outputs": [
        {
          "internalType": "bool",
          "name": "",
          "type": "bool"
        }
      ],
      "stateMutability": "nonpayable",
      "type": "function"
    },
    {
      "inputs": [
        {
          "internalType": "address",
          "name": "account",
          "type": "address"
        }
      ],
      "name": "balanceOf",
      "outputs": [
        {
          "internalType": "uint256",
          "name": "",
          "type": "uint256"
        }
      ],
      "stateMutability": "view",
      "type": "function"
    },
    {
      "inputs": [
        {
          "internalType": "address",
          "name": "from",
          "type": "address"
        },
        {
          "internalType": "uint256",
          "name": "amount",
          "type": "uint256"
        }
      ],
      "name": "burn",
      "outputs": [],
      "stateMutability": "nonpayable",
      "type": "function"
    },
    {
      "inputs": [],
      "name": "decimals",
      "outputs": [
        {
          "internalType": "uint8",
          "name": "",
          "type": "uint8"
        }
      ],
      "stateMutability": "view",
      "type": "function"
    },
    {
      "inputs": [
        {
          "internalType": "address",
          "name": "spender",
          "type": "address"
        },
        {
          "internalType": "uint256",
          "name": "subtractedValue",
          "type": "uint256"
        }
      ],
      "name": "decreaseAllowance",
      "outputs": [
        {
          "internalType": "bool",
          "name": "",
          "type": "bool"
        }
      ],
      "stateMutability": "nonpayable",
      "type": "function"
    },
    {
      "inputs": [
        {
          "internalType": "bytes32",
          "name": "role",
          "type": "bytes32"
        }
      ],
      "name": "getRoleAdmin",
      "outputs": [
        {
          "internalType": "bytes32",
          "name": "",
          "type": "bytes32"
        }
      ],
      "stateMutability": "view",
      "type": "function"
    },
    {
      "inputs": [
        {
          "internalType": "bytes32",
          "name": "role",
          "type": "bytes32"
        },
        {
          "internalType": "address",
          "name": "account",
          "type": "address"
        }
      ],
      "name": "grantRole",
      "outputs": [],
      "stateMutability": "nonpayable",
      "type": "function"
    },
    {
      "inputs": [],
      "name": "hasBurnerRole",
      "outputs": [
        {
          "internalType": "bool",
          "name": "",
          "type": "bool"
        }
      ],
      "stateMutability": "view",
      "type": "function"
    },
    {
      "inputs": [],
      "name": "hasMinterRole",
      "outputs": [
        {
          "internalType": "bool",
          "name": "",
          "type": "bool"
        }
      ],
      "stateMutability": "view",
      "type": "function"
    },
    {
      "inputs": [
        {
          "internalType": "bytes32",
          "name": "role",
          "type": "bytes32"
        },
        {
          "internalType": "address",
          "name": "account",
          "type": "address"
        }
      ],
      "name": "hasRole",
      "outputs": [
        {
          "internalType": "bool",
          "name": "",
          "type": "bool"
        }
      ],
      "stateMutability": "view",
      "type": "function"
    },
    {
      "inputs": [
        {
          "internalType": "address",
          "name": "spender",
          "type": "address"
        },
        {
          "internalType": "uint256",
          "name": "addedValue",
          "type": "uint256"
        }
      ],
      "name": "increaseAllowance",
      "outputs": [
        {
          "internalType": "bool",
          "name": "",
          "type": "bool"
        }
      ],
      "stateMutability": "nonpayable",
      "type": "function"
    },
    {
      "inputs": [],
      "name": "isOwner",
      "outputs": [
        {
          "internalType": "bool",
          "name": "",
          "type": "bool"
        }
      ],
      "stateMutability": "view",
      "type": "function"
    },
    {
      "inputs": [
        {
          "internalType": "address",
          "name": "forwarder",
          "type": "address"
        }
      ],
      "name": "isTrustedForwarder",
      "outputs": [
        {
          "internalType": "bool",
          "name": "",
          "type": "bool"
        }
      ],
      "stateMutability": "view",
      "type": "function"
    },
    {
      "inputs": [
        {
          "internalType": "uint256",
          "name": "amount",
          "type": "uint256"
        }
      ],
      "name": "mint",
      "outputs": [],
      "stateMutability": "nonpayable",
      "type": "function"
    },
    {
      "inputs": [],
      "name": "name",
      "outputs": [
        {
          "internalType": "string",
          "name": "",
          "type": "string"
        }
      ],
      "stateMutability": "view",
      "type": "function"
    },
    {
      "inputs": [],
      "name": "owner",
      "outputs": [
        {
          "internalType": "address",
          "name": "",
          "type": "address"
        }
      ],
      "stateMutability": "view",
      "type": "function"
    },
    {
      "inputs": [
        {
          "internalType": "address[]",
          "name": "burners",
          "type": "address[]"
        }
      ],
      "name": "removeBurners",
      "outputs": [],
      "stateMutability": "nonpayable",
      "type": "function"
    },
    {
      "inputs": [
        {
          "internalType": "address[]",
          "name": "minters",
          "type": "address[]"
        }
      ],
      "name": "removeMinters",
      "outputs": [],
      "stateMutability": "nonpayable",
      "type": "function"
    },
    {
      "inputs": [],
      "name": "renounceOwnership",
      "outputs": [],
      "stateMutability": "nonpayable",
      "type": "function"
    },
    {
      "inputs": [
        {
          "internalType": "bytes32",
          "name": "role",
          "type": "bytes32"
        },
        {
          "internalType": "address",
          "name": "account",
          "type": "address"
        }
      ],
      "name": "renounceRole",
      "outputs": [],
      "stateMutability": "nonpayable",
      "type": "function"
    },
    {
      "inputs": [
        {
          "internalType": "bytes32",
          "name": "role",
          "type": "bytes32"
        },
        {
          "internalType": "address",
          "name": "account",
          "type": "address"
        }
      ],
      "name": "revokeRole",
      "outputs": [],
      "stateMutability": "nonpayable",
      "type": "function"
    },
    {
      "inputs": [
        {
          "internalType": "bytes4",
          "name": "interfaceId",
          "type": "bytes4"
        }
      ],
      "name": "supportsInterface",
      "outputs": [
        {
          "internalType": "bool",
          "name": "",
          "type": "bool"
        }
      ],
      "stateMutability": "view",
      "type": "function"
    },
    {
      "inputs": [],
      "name": "symbol",
      "outputs": [
        {
          "internalType": "string",
          "name": "",
          "type": "string"
        }
      ],
      "stateMutability": "view",
      "type": "function"
    },
    {
      "inputs": [],
      "name": "totalSupply",
      "outputs": [
        {
          "internalType": "uint256",
          "name": "",
          "type": "uint256"
        }
      ],
      "stateMutability": "view",
      "type": "function"
    },
    {
      "inputs": [
        {
          "internalType": "address",
          "name": "to",
          "type": "address"
        },
        {
          "internalType": "uint256",
          "name": "amount",
          "type": "uint256"
        }
      ],
      "name": "transfer",
      "outputs": [
        {
          "internalType": "bool",
          "name": "",
          "type": "bool"
        }
      ],
      "stateMutability": "nonpayable",
      "type": "function"
    },
    {
      "inputs": [
        {
          "internalType": "address",
          "name": "from",
          "type": "address"
        },
        {
          "internalType": "address",
          "name": "to",
          "type": "address"
        },
        {
          "internalType": "uint256",
          "name": "amount",
          "type": "uint256"
        }
      ],
      "name": "transferFrom",
      "outputs": [
        {
          "internalType": "bool",
          "name": "",
          "type": "bool"
        }
      ],
      "stateMutability": "nonpayable",
      "type": "function"
    },
    {
      "inputs": [
        {
          "internalType": "address",
          "name": "newOwner",
          "type": "address"
        }
      ],
      "name": "transferOwnership",
      "outputs": [],
      "stateMutability": "nonpayable",
      "type": "function"
    }
  ],
  "bytecode": "0x60a06040523480156200001157600080fd5b50604051620046bf380380620046bf833981810160405281019062000037919062000f6e565b8585828073ffffffffffffffffffffffffffffffffffffffff1660808173ffffffffffffffffffffffffffffffffffffffff1681525050506200008f620000836200022360201b60201c565b6200023f60201b60201c565b8160049080519060200190620000a792919062000b61565b508060059080519060200190620000c092919062000b61565b505050600084905083600760006101000a81548173ffffffffffffffffffffffffffffffffffffffff021916908373ffffffffffffffffffffffffffffffffffffffff1602179055506200011a846200030360201b60201c565b6200012c84826200041960201b60201c565b620001416000801b856200059360201b60201c565b620001737f9f2df0fed2c77648de5860a4cc508cd0818c85b8b8a1ab4ceeef8d981c8956a6856200059360201b60201c565b620001a57f3c11d16cbaffd01df69ce1c404f6340ee057498f5f00246190ea54220576a848856200059360201b60201c565b60005b83518110156200021557620002017f9f2df0fed2c77648de5860a4cc508cd0818c85b8b8a1ab4ceeef8d981c8956a6858381518110620001ed57620001ec62001067565b5b6020026020010151620005a960201b60201c565b806200020d90620010c5565b9050620001a8565b505050505050505062001626565b60006200023a620005e260201b6200122f1760201c565b905090565b60008060009054906101000a900473ffffffffffffffffffffffffffffffffffffffff169050816000806101000a81548173ffffffffffffffffffffffffffffffffffffffff021916908373ffffffffffffffffffffffffffffffffffffffff1602179055508173ffffffffffffffffffffffffffffffffffffffff168173ffffffffffffffffffffffffffffffffffffffff167f8be0079c531659141344cd1fd0a4f28419497f9722a3daafe3b4186f6b6457e060405160405180910390a35050565b620003136200022360201b60201c565b73ffffffffffffffffffffffffffffffffffffffff16620003396200062c60201b60201c565b73ffffffffffffffffffffffffffffffffffffffff161462000392576040517f08c379a0000000000000000000000000000000000000000000000000000000008152600401620003899062001174565b60405180910390fd5b600073ffffffffffffffffffffffffffffffffffffffff168173ffffffffffffffffffffffffffffffffffffffff16141562000405576040517f08c379a0000000000000000000000000000000000000000000000000000000008152600401620003fc906200120c565b60405180910390fd5b62000416816200023f60201b60201c565b50565b600073ffffffffffffffffffffffffffffffffffffffff168273ffffffffffffffffffffffffffffffffffffffff1614156200048c576040517f08c379a000000000000000000000000000000000000000000000000000000000815260040162000483906200127e565b60405180910390fd5b620004a0600083836200065560201b60201c565b8060036000828254620004b49190620012a0565b9250508190555080600160008473ffffffffffffffffffffffffffffffffffffffff1673ffffffffffffffffffffffffffffffffffffffff16815260200190815260200160002060008282546200050c9190620012a0565b925050819055508173ffffffffffffffffffffffffffffffffffffffff16600073ffffffffffffffffffffffffffffffffffffffff167fddf252ad1be2c89b69c2b068fc378daa952ba7f163c4a11628f55a4df523b3ef836040516200057391906200130e565b60405180910390a36200058f600083836200065a60201b60201c565b5050565b620005a582826200065f60201b60201c565b5050565b620005ba826200075160201b60201c565b620005cb816200077160201b60201c565b620005dd83836200065f60201b60201c565b505050565b6000620005f5336200079560201b60201c565b156200060b57601436033560601c905062000628565b62000620620007cf60201b620012611760201c565b905062000629565b5b90565b60008060009054906101000a900473ffffffffffffffffffffffffffffffffffffffff16905090565b505050565b505050565b620006718282620007d760201b60201c565b6200074d5760016006600084815260200190815260200160002060000160008373ffffffffffffffffffffffffffffffffffffffff1673ffffffffffffffffffffffffffffffffffffffff16815260200190815260200160002060006101000a81548160ff021916908315150217905550620006f26200022360201b60201c565b73ffffffffffffffffffffffffffffffffffffffff168173ffffffffffffffffffffffffffffffffffffffff16837f2f8788117e7eff1d82e926ec794901d17c78024a50270940304540a733656f0d60405160405180910390a45b5050565b600060066000838152602001908152602001600020600101549050919050565b6200079281620007866200022360201b60201c565b6200084260201b60201c565b50565b600060805173ffffffffffffffffffffffffffffffffffffffff168273ffffffffffffffffffffffffffffffffffffffff16149050919050565b600033905090565b60006006600084815260200190815260200160002060000160008373ffffffffffffffffffffffffffffffffffffffff1673ffffffffffffffffffffffffffffffffffffffff16815260200190815260200160002060009054906101000a900460ff16905092915050565b620008548282620007d760201b60201c565b6200090257620008878173ffffffffffffffffffffffffffffffffffffffff1660146200090660201b620012691760201c565b620008a28360001c60206200090660201b620012691760201c565b604051602001620008b592919062001418565b6040516020818303038152906040526040517f08c379a0000000000000000000000000000000000000000000000000000000008152600401620008f991906200149b565b60405180910390fd5b5050565b6060600060028360026200091b9190620014bf565b620009279190620012a0565b67ffffffffffffffff81111562000943576200094262000c40565b5b6040519080825280601f01601f191660200182016040528015620009765781602001600182028036833780820191505090505b5090507f300000000000000000000000000000000000000000000000000000000000000081600081518110620009b157620009b062001067565b5b60200101907effffffffffffffffffffffffffffffffffffffffffffffffffffffffffffff1916908160001a9053507f78000000000000000000000000000000000000000000000000000000000000008160018151811062000a185762000a1762001067565b5b60200101907effffffffffffffffffffffffffffffffffffffffffffffffffffffffffffff1916908160001a9053506000600184600262000a5a9190620014bf565b62000a669190620012a0565b90505b600181111562000b10577f3031323334353637383961626364656600000000000000000000000000000000600f86166010811062000aac5762000aab62001067565b5b1a60f81b82828151811062000ac65762000ac562001067565b5b60200101907effffffffffffffffffffffffffffffffffffffffffffffffffffffffffffff1916908160001a905350600485901c94508062000b089062001520565b905062000a69565b506000841462000b57576040517f08c379a000000000000000000000000000000000000000000000000000000000815260040162000b4e906200159f565b60405180910390fd5b8091505092915050565b82805462000b6f90620015f0565b90600052602060002090601f01602090048101928262000b93576000855562000bdf565b82601f1062000bae57805160ff191683800117855562000bdf565b8280016001018555821562000bdf579182015b8281111562000bde57825182559160200191906001019062000bc1565b5b50905062000bee919062000bf2565b5090565b5b8082111562000c0d57600081600090555060010162000bf3565b5090565b6000604051905090565b600080fd5b600080fd5b600080fd5b600080fd5b6000601f19601f8301169050919050565b7f4e487b7100000000000000000000000000000000000000000000000000000000600052604160045260246000fd5b62000c7a8262000c2f565b810181811067ffffffffffffffff8211171562000c9c5762000c9b62000c40565b5b80604052505050565b600062000cb162000c11565b905062000cbf828262000c6f565b919050565b600067ffffffffffffffff82111562000ce25762000ce162000c40565b5b62000ced8262000c2f565b9050602081019050919050565b60005b8381101562000d1a57808201518184015260208101905062000cfd565b8381111562000d2a576000848401525b50505050565b600062000d4762000d418462000cc4565b62000ca5565b90508281526020810184848401111562000d665762000d6562000c2a565b5b62000d7384828562000cfa565b509392505050565b600082601f83011262000d935762000d9262000c25565b5b815162000da584826020860162000d30565b91505092915050565b6000819050919050565b62000dc38162000dae565b811462000dcf57600080fd5b50565b60008151905062000de38162000db8565b92915050565b600073ffffffffffffffffffffffffffffffffffffffff82169050919050565b600062000e168262000de9565b9050919050565b62000e288162000e09565b811462000e3457600080fd5b50565b60008151905062000e488162000e1d565b92915050565b600067ffffffffffffffff82111562000e6c5762000e6b62000c40565b5b602082029050602081019050919050565b600080fd5b600062000e9962000e938462000e4e565b62000ca5565b9050808382526020820190506020840283018581111562000ebf5762000ebe62000e7d565b5b835b8181101562000eec578062000ed7888262000e37565b84526020840193505060208101905062000ec1565b5050509392505050565b600082601f83011262000f0e5762000f0d62000c25565b5b815162000f2084826020860162000e82565b91505092915050565b600062000f368262000e09565b9050919050565b62000f488162000f29565b811462000f5457600080fd5b50565b60008151905062000f688162000f3d565b92915050565b60008060008060008060c0878903121562000f8e5762000f8d62000c1b565b5b600087015167ffffffffffffffff81111562000faf5762000fae62000c20565b5b62000fbd89828a0162000d7b565b965050602087015167ffffffffffffffff81111562000fe15762000fe062000c20565b5b62000fef89828a0162000d7b565b95505060406200100289828a0162000dd2565b94505060606200101589828a0162000e37565b935050608087015167ffffffffffffffff81111562001039576200103862000c20565b5b6200104789828a0162000ef6565b92505060a06200105a89828a0162000f57565b9150509295509295509295565b7f4e487b7100000000000000000000000000000000000000000000000000000000600052603260045260246000fd5b7f4e487b7100000000000000000000000000000000000000000000000000000000600052601160045260246000fd5b6000620010d28262000dae565b91507fffffffffffffffffffffffffffffffffffffffffffffffffffffffffffffffff82141562001108576200110762001096565b5b600182019050919050565b600082825260208201905092915050565b7f4f776e61626c653a2063616c6c6572206973206e6f7420746865206f776e6572600082015250565b60006200115c60208362001113565b9150620011698262001124565b602082019050919050565b600060208201905081810360008301526200118f816200114d565b9050919050565b7f4f776e61626c653a206e6577206f776e657220697320746865207a65726f206160008201527f6464726573730000000000000000000000000000000000000000000000000000602082015250565b6000620011f460268362001113565b9150620012018262001196565b604082019050919050565b600060208201905081810360008301526200122781620011e5565b9050919050565b7f45524332303a206d696e7420746f20746865207a65726f206164647265737300600082015250565b600062001266601f8362001113565b915062001273826200122e565b602082019050919050565b60006020820190508181036000830152620012998162001257565b9050919050565b6000620012ad8262000dae565b9150620012ba8362000dae565b9250827fffffffffffffffffffffffffffffffffffffffffffffffffffffffffffffffff03821115620012f257620012f162001096565b5b828201905092915050565b620013088162000dae565b82525050565b6000602082019050620013256000830184620012fd565b92915050565b600081905092915050565b7f416363657373436f6e74726f6c3a206163636f756e7420000000000000000000600082015250565b60006200136e6017836200132b565b91506200137b8262001336565b601782019050919050565b600081519050919050565b60006200139e8262001386565b620013aa81856200132b565b9350620013bc81856020860162000cfa565b80840191505092915050565b7f206973206d697373696e6720726f6c6520000000000000000000000000000000600082015250565b6000620014006011836200132b565b91506200140d82620013c8565b601182019050919050565b600062001425826200135f565b915062001433828562001391565b91506200144082620013f1565b91506200144e828462001391565b91508190509392505050565b6000620014678262001386565b62001473818562001113565b93506200148581856020860162000cfa565b620014908162000c2f565b840191505092915050565b60006020820190508181036000830152620014b781846200145a565b905092915050565b6000620014cc8262000dae565b9150620014d98362000dae565b9250817fffffffffffffffffffffffffffffffffffffffffffffffffffffffffffffffff048311821515161562001515576200151462001096565b5b828202905092915050565b60006200152d8262000dae565b9150600082141562001544576200154362001096565b5b600182039050919050565b7f537472696e67733a20686578206c656e67746820696e73756666696369656e74600082015250565b60006200158760208362001113565b915062001594826200154f565b602082019050919050565b60006020820190508181036000830152620015ba8162001578565b9050919050565b7f4e487b7100000000000000000000000000000000000000000000000000000000600052602260045260246000fd5b600060028204905060018216806200160957607f821691505b6020821081141562001620576200161f620015c1565b5b50919050565b60805161307d620016426000396000610a39015261307d6000f3fe608060405234801561001057600080fd5b50600436106102065760003560e01c8063715018a61161011a578063a0712d68116100ad578063d53913931161007c578063d539139314610603578063d547741f14610621578063dd62ed3e1461063d578063e47d419b1461066d578063f2fde38b1461068957610206565b8063a0712d6814610569578063a217fddf14610585578063a457c2d7146105a3578063a9059cbb146105d357610206565b80638f32d59b116100e95780638f32d59b146104e157806391d14854146104ff57806395d89b411461052f5780639dc29fac1461054d57610206565b8063715018a61461047f57806371e2a65714610489578063745fffbe146104a55780638da5cb5b146104c357610206565b8063282c51f31161019d578063395093511161016c57806339509351146103b75780633ab84dd9146103e7578063572b6c05146104035780635fc1964f1461043357806370a082311461044f57610206565b8063282c51f3146103435780632f2ff15d14610361578063313ce5671461037d57806336568abe1461039b57610206565b806318160ddd116101d957806318160ddd146102a7578063206b60f9146102c557806323b872dd146102e3578063248a9ca31461031357610206565b806301ffc9a71461020b57806306fdde031461023b578063095ea7b3146102595780631592b60714610289575b600080fd5b61022560048036038101906102209190612063565b6106a5565b60405161023291906120ab565b60405180910390f35b61024361071f565b604051610250919061215f565b60405180910390f35b610273600480360381019061026e9190612215565b6107b1565b60405161028091906120ab565b60405180910390f35b6102916107d4565b60405161029e91906120ab565b60405180910390f35b6102af61080c565b6040516102bc9190612264565b60405180910390f35b6102cd610816565b6040516102da9190612298565b60405180910390f35b6102fd60048036038101906102f891906122b3565b61083a565b60405161030a91906120ab565b60405180910390f35b61032d60048036038101906103289190612332565b61087d565b60405161033a9190612298565b60405180910390f35b61034b61089d565b6040516103589190612298565b60405180910390f35b61037b6004803603810190610376919061235f565b6108c1565b005b6103856108e2565b60405161039291906123bb565b60405180910390f35b6103b560048036038101906103b0919061235f565b6108eb565b005b6103d160048036038101906103cc9190612215565b61096e565b6040516103de91906120ab565b60405180910390f35b61040160048036038101906103fc919061251e565b6109a5565b005b61041d60048036038101906104189190612567565b610a35565b60405161042a91906120ab565b60405180910390f35b61044d6004803603810190610448919061251e565b610a8d565b005b61046960048036038101906104649190612567565b610b6e565b6040516104769190612264565b60405180910390f35b610487610bb7565b005b6104a3600480360381019061049e919061251e565b610c3f565b005b6104ad610ccf565b6040516104ba91906120ab565b60405180910390f35b6104cb610d07565b6040516104d891906125a3565b60405180910390f35b6104e9610d30565b6040516104f691906120ab565b60405180910390f35b6105196004803603810190610514919061235f565b610d74565b60405161052691906120ab565b60405180910390f35b610537610ddf565b604051610544919061215f565b60405180910390f35b61056760048036038101906105629190612215565b610e71565b005b610583600480360381019061057e91906125be565b610eaa565b005b61058d610ee9565b60405161059a9190612298565b60405180910390f35b6105bd60048036038101906105b89190612215565b610ef0565b6040516105ca91906120ab565b60405180910390f35b6105ed60048036038101906105e89190612215565b610f67565b6040516105fa91906120ab565b60405180910390f35b61060b610f8a565b6040516106189190612298565b60405180910390f35b61063b6004803603810190610636919061235f565b610fae565b005b610657600480360381019061065291906125eb565b610fcf565b6040516106649190612264565b60405180910390f35b6106876004803603810190610682919061251e565b611056565b005b6106a3600480360381019061069e9190612567565b611137565b005b60007f7965db0b000000000000000000000000000000000000000000000000000000007bffffffffffffffffffffffffffffffffffffffffffffffffffffffff1916827bffffffffffffffffffffffffffffffffffffffffffffffffffffffff191614806107185750610717826114a5565b5b9050919050565b60606004805461072e9061265a565b80601f016020809104026020016040519081016040528092919081815260200182805461075a9061265a565b80156107a75780601f1061077c576101008083540402835291602001916107a7565b820191906000526020600020905b81548152906001019060200180831161078a57829003601f168201915b5050505050905090565b6000806107bc61150f565b90506107c981858561151e565b600191505092915050565b60006108077f9f2df0fed2c77648de5860a4cc508cd0818c85b8b8a1ab4ceeef8d981c8956a661080261150f565b610d74565b905090565b6000600354905090565b7f8502233096d909befbda0999bb8ea2f3a6be3c138b9fbf003752a4c8bce86f6c81565b60007f8502233096d909befbda0999bb8ea2f3a6be3c138b9fbf003752a4c8bce86f6c610866816116e9565b6108718585856116fd565b60019150509392505050565b600060066000838152602001908152602001600020600101549050919050565b7f3c11d16cbaffd01df69ce1c404f6340ee057498f5f00246190ea54220576a84881565b6108ca8261087d565b6108d3816116e9565b6108dd8383611981565b505050565b60006012905090565b6108f361150f565b73ffffffffffffffffffffffffffffffffffffffff168173ffffffffffffffffffffffffffffffffffffffff1614610960576040517f08c379a0000000000000000000000000000000000000000000000000000000008152600401610957906126fe565b60405180910390fd5b61096a8282611a62565b5050565b60008061097961150f565b905061099a81858561098b8589610fcf565b610995919061274d565b61151e565b600191505092915050565b7f9f2df0fed2c77648de5860a4cc508cd0818c85b8b8a1ab4ceeef8d981c8956a66109cf816116e9565b60005b8251811015610a3057610a1f7f3c11d16cbaffd01df69ce1c404f6340ee057498f5f00246190ea54220576a848848381518110610a1257610a116127a3565b5b6020026020010151611b44565b80610a29906127d2565b90506109d2565b505050565b60007f000000000000000000000000000000000000000000000000000000000000000073ffffffffffffffffffffffffffffffffffffffff168273ffffffffffffffffffffffffffffffffffffffff16149050919050565b610a9561150f565b73ffffffffffffffffffffffffffffffffffffffff16610ab3610d07565b73ffffffffffffffffffffffffffffffffffffffff1614610b09576040517f08c379a0000000000000000000000000000000000000000000000000000000008152600401610b0090612867565b60405180910390fd5b60005b8151811015610b6a57610b597f9f2df0fed2c77648de5860a4cc508cd0818c85b8b8a1ab4ceeef8d981c8956a6838381518110610b4c57610b4b6127a3565b5b6020026020010151610fae565b80610b63906127d2565b9050610b0c565b5050565b6000600160008373ffffffffffffffffffffffffffffffffffffffff1673ffffffffffffffffffffffffffffffffffffffff168152602001908152602001600020549050919050565b610bbf61150f565b73ffffffffffffffffffffffffffffffffffffffff16610bdd610d07565b73ffffffffffffffffffffffffffffffffffffffff1614610c33576040517f08c379a0000000000000000000000000000000000000000000000000000000008152600401610c2a90612867565b60405180910390fd5b610c3d6000611b52565b565b7f9f2df0fed2c77648de5860a4cc508cd0818c85b8b8a1ab4ceeef8d981c8956a6610c69816116e9565b60005b8251811015610cca57610cb97f9f2df0fed2c77648de5860a4cc508cd0818c85b8b8a1ab4ceeef8d981c8956a6848381518110610cac57610cab6127a3565b5b6020026020010151611b44565b80610cc3906127d2565b9050610c6c565b505050565b6000610d027f3c11d16cbaffd01df69ce1c404f6340ee057498f5f00246190ea54220576a848610cfd61150f565b610d74565b905090565b60008060009054906101000a900473ffffffffffffffffffffffffffffffffffffffff16905090565b6000610d3a61150f565b73ffffffffffffffffffffffffffffffffffffffff16610d58610d07565b73ffffffffffffffffffffffffffffffffffffffff1614905090565b60006006600084815260200190815260200160002060000160008373ffffffffffffffffffffffffffffffffffffffff1673ffffffffffffffffffffffffffffffffffffffff16815260200190815260200160002060009054906101000a900460ff16905092915050565b606060058054610dee9061265a565b80601f0160208091040260200160405190810160405280929190818152602001828054610e1a9061265a565b8015610e675780601f10610e3c57610100808354040283529160200191610e67565b820191906000526020600020905b815481529060010190602001808311610e4a57829003601f168201915b5050505050905090565b7f3c11d16cbaffd01df69ce1c404f6340ee057498f5f00246190ea54220576a848610e9b816116e9565b610ea58383611c16565b505050565b7f9f2df0fed2c77648de5860a4cc508cd0818c85b8b8a1ab4ceeef8d981c8956a6610ed4816116e9565b610ee5610edf61150f565b83611def565b5050565b6000801b81565b600080610efb61150f565b90506000610f098286610fcf565b905083811015610f4e576040517f08c379a0000000000000000000000000000000000000000000000000000000008152600401610f45906128f9565b60405180910390fd5b610f5b828686840361151e565b60019250505092915050565b600080610f7261150f565b9050610f7f8185856116fd565b600191505092915050565b7f9f2df0fed2c77648de5860a4cc508cd0818c85b8b8a1ab4ceeef8d981c8956a681565b610fb78261087d565b610fc0816116e9565b610fca8383611a62565b505050565b6000600260008473ffffffffffffffffffffffffffffffffffffffff1673ffffffffffffffffffffffffffffffffffffffff16815260200190815260200160002060008373ffffffffffffffffffffffffffffffffffffffff1673ffffffffffffffffffffffffffffffffffffffff16815260200190815260200160002054905092915050565b61105e61150f565b73ffffffffffffffffffffffffffffffffffffffff1661107c610d07565b73ffffffffffffffffffffffffffffffffffffffff16146110d2576040517f08c379a00000000000000000000000000000000000000000000000000000000081526004016110c990612867565b60405180910390fd5b60005b8151811015611133576111227f3c11d16cbaffd01df69ce1c404f6340ee057498f5f00246190ea54220576a848838381518110611115576111146127a3565b5b6020026020010151610fae565b8061112c906127d2565b90506110d5565b5050565b61113f61150f565b73ffffffffffffffffffffffffffffffffffffffff1661115d610d07565b73ffffffffffffffffffffffffffffffffffffffff16146111b3576040517f08c379a00000000000000000000000000000000000000000000000000000000081526004016111aa90612867565b60405180910390fd5b600073ffffffffffffffffffffffffffffffffffffffff168173ffffffffffffffffffffffffffffffffffffffff161415611223576040517f08c379a000000000000000000000000000000000000000000000000000000000815260040161121a9061298b565b60405180910390fd5b61122c81611b52565b50565b600061123a33610a35565b1561124e57601436033560601c905061125d565b611256611261565b905061125e565b5b90565b600033905090565b60606000600283600261127c91906129ab565b611286919061274d565b67ffffffffffffffff81111561129f5761129e6123db565b5b6040519080825280601f01601f1916602001820160405280156112d15781602001600182028036833780820191505090505b5090507f300000000000000000000000000000000000000000000000000000000000000081600081518110611309576113086127a3565b5b60200101907effffffffffffffffffffffffffffffffffffffffffffffffffffffffffffff1916908160001a9053507f78000000000000000000000000000000000000000000000000000000000000008160018151811061136d5761136c6127a3565b5b60200101907effffffffffffffffffffffffffffffffffffffffffffffffffffffffffffff1916908160001a905350600060018460026113ad91906129ab565b6113b7919061274d565b90505b6001811115611457577f3031323334353637383961626364656600000000000000000000000000000000600f8616601081106113f9576113f86127a3565b5b1a60f81b8282815181106114105761140f6127a3565b5b60200101907effffffffffffffffffffffffffffffffffffffffffffffffffffffffffffff1916908160001a905350600485901c94508061145090612a05565b90506113ba565b506000841461149b576040517f08c379a000000000000000000000000000000000000000000000000000000000815260040161149290612a7b565b60405180910390fd5b8091505092915050565b60007f01ffc9a7000000000000000000000000000000000000000000000000000000007bffffffffffffffffffffffffffffffffffffffffffffffffffffffff1916827bffffffffffffffffffffffffffffffffffffffffffffffffffffffff1916149050919050565b600061151961122f565b905090565b600073ffffffffffffffffffffffffffffffffffffffff168373ffffffffffffffffffffffffffffffffffffffff16141561158e576040517f08c379a000000000000000000000000000000000000000000000000000000000815260040161158590612b0d565b60405180910390fd5b600073ffffffffffffffffffffffffffffffffffffffff168273ffffffffffffffffffffffffffffffffffffffff1614156115fe576040517f08c379a00000000000000000000000000000000000000000000000000000000081526004016115f590612b9f565b60405180910390fd5b80600260008573ffffffffffffffffffffffffffffffffffffffff1673ffffffffffffffffffffffffffffffffffffffff16815260200190815260200160002060008473ffffffffffffffffffffffffffffffffffffffff1673ffffffffffffffffffffffffffffffffffffffff168152602001908152602001600020819055508173ffffffffffffffffffffffffffffffffffffffff168373ffffffffffffffffffffffffffffffffffffffff167f8c5be1e5ebec7d5bd14f71427d1e84f3dd0314c0f7b2291e5b200ac8c7c3b925836040516116dc9190612264565b60405180910390a3505050565b6116fa816116f561150f565b611f50565b50565b600073ffffffffffffffffffffffffffffffffffffffff168373ffffffffffffffffffffffffffffffffffffffff16141561176d576040517f08c379a000000000000000000000000000000000000000000000000000000000815260040161176490612c31565b60405180910390fd5b600073ffffffffffffffffffffffffffffffffffffffff168273ffffffffffffffffffffffffffffffffffffffff1614156117dd576040517f08c379a00000000000000000000000000000000000000000000000000000000081526004016117d490612cc3565b60405180910390fd5b6117e8838383611fed565b6000600160008573ffffffffffffffffffffffffffffffffffffffff1673ffffffffffffffffffffffffffffffffffffffff1681526020019081526020016000205490508181101561186f576040517f08c379a000000000000000000000000000000000000000000000000000000000815260040161186690612d55565b60405180910390fd5b818103600160008673ffffffffffffffffffffffffffffffffffffffff1673ffffffffffffffffffffffffffffffffffffffff1681526020019081526020016000208190555081600160008573ffffffffffffffffffffffffffffffffffffffff1673ffffffffffffffffffffffffffffffffffffffff1681526020019081526020016000206000828254611904919061274d565b925050819055508273ffffffffffffffffffffffffffffffffffffffff168473ffffffffffffffffffffffffffffffffffffffff167fddf252ad1be2c89b69c2b068fc378daa952ba7f163c4a11628f55a4df523b3ef846040516119689190612264565b60405180910390a361197b848484611ff2565b50505050565b61198b8282610d74565b611a5e5760016006600084815260200190815260200160002060000160008373ffffffffffffffffffffffffffffffffffffffff1673ffffffffffffffffffffffffffffffffffffffff16815260200190815260200160002060006101000a81548160ff021916908315150217905550611a0361150f565b73ffffffffffffffffffffffffffffffffffffffff168173ffffffffffffffffffffffffffffffffffffffff16837f2f8788117e7eff1d82e926ec794901d17c78024a50270940304540a733656f0d60405160405180910390a45b5050565b611a6c8282610d74565b15611b405760006006600084815260200190815260200160002060000160008373ffffffffffffffffffffffffffffffffffffffff1673ffffffffffffffffffffffffffffffffffffffff16815260200190815260200160002060006101000a81548160ff021916908315150217905550611ae561150f565b73ffffffffffffffffffffffffffffffffffffffff168173ffffffffffffffffffffffffffffffffffffffff16837ff6391f5c32d9c69d2a47ea670b442974b53935d1edc7fd64eb21e047a839171b60405160405180910390a45b5050565b611b4e8282611981565b5050565b60008060009054906101000a900473ffffffffffffffffffffffffffffffffffffffff169050816000806101000a81548173ffffffffffffffffffffffffffffffffffffffff021916908373ffffffffffffffffffffffffffffffffffffffff1602179055508173ffffffffffffffffffffffffffffffffffffffff168173ffffffffffffffffffffffffffffffffffffffff167f8be0079c531659141344cd1fd0a4f28419497f9722a3daafe3b4186f6b6457e060405160405180910390a35050565b600073ffffffffffffffffffffffffffffffffffffffff168273ffffffffffffffffffffffffffffffffffffffff161415611c86576040517f08c379a0000000000000000000000000000000000000000000000000000000008152600401611c7d90612de7565b60405180910390fd5b611c9282600083611fed565b6000600160008473ffffffffffffffffffffffffffffffffffffffff1673ffffffffffffffffffffffffffffffffffffffff16815260200190815260200160002054905081811015611d19576040517f08c379a0000000000000000000000000000000000000000000000000000000008152600401611d1090612e79565b60405180910390fd5b818103600160008573ffffffffffffffffffffffffffffffffffffffff1673ffffffffffffffffffffffffffffffffffffffff168152602001908152602001600020819055508160036000828254611d719190612e99565b92505081905550600073ffffffffffffffffffffffffffffffffffffffff168373ffffffffffffffffffffffffffffffffffffffff167fddf252ad1be2c89b69c2b068fc378daa952ba7f163c4a11628f55a4df523b3ef84604051611dd69190612264565b60405180910390a3611dea83600084611ff2565b505050565b600073ffffffffffffffffffffffffffffffffffffffff168273ffffffffffffffffffffffffffffffffffffffff161415611e5f576040517f08c379a0000000000000000000000000000000000000000000000000000000008152600401611e5690612f19565b60405180910390fd5b611e6b60008383611fed565b8060036000828254611e7d919061274d565b9250508190555080600160008473ffffffffffffffffffffffffffffffffffffffff1673ffffffffffffffffffffffffffffffffffffffff1681526020019081526020016000206000828254611ed3919061274d565b925050819055508173ffffffffffffffffffffffffffffffffffffffff16600073ffffffffffffffffffffffffffffffffffffffff167fddf252ad1be2c89b69c2b068fc378daa952ba7f163c4a11628f55a4df523b3ef83604051611f389190612264565b60405180910390a3611f4c60008383611ff2565b5050565b611f5a8282610d74565b611fe957611f7f8173ffffffffffffffffffffffffffffffffffffffff166014611269565b611f8d8360001c6020611269565b604051602001611f9e92919061300d565b6040516020818303038152906040526040517f08c379a0000000000000000000000000000000000000000000000000000000008152600401611fe0919061215f565b60405180910390fd5b5050565b505050565b505050565b6000604051905090565b600080fd5b600080fd5b60007fffffffff0000000000000000000000000000000000000000000000000000000082169050919050565b6120408161200b565b811461204b57600080fd5b50565b60008135905061205d81612037565b92915050565b60006020828403121561207957612078612001565b5b60006120878482850161204e565b91505092915050565b60008115159050919050565b6120a581612090565b82525050565b60006020820190506120c0600083018461209c565b92915050565b600081519050919050565b600082825260208201905092915050565b60005b838110156121005780820151818401526020810190506120e5565b8381111561210f576000848401525b50505050565b6000601f19601f8301169050919050565b6000612131826120c6565b61213b81856120d1565b935061214b8185602086016120e2565b61215481612115565b840191505092915050565b600060208201905081810360008301526121798184612126565b905092915050565b600073ffffffffffffffffffffffffffffffffffffffff82169050919050565b60006121ac82612181565b9050919050565b6121bc816121a1565b81146121c757600080fd5b50565b6000813590506121d9816121b3565b92915050565b6000819050919050565b6121f2816121df565b81146121fd57600080fd5b50565b60008135905061220f816121e9565b92915050565b6000806040838503121561222c5761222b612001565b5b600061223a858286016121ca565b925050602061224b85828601612200565b9150509250929050565b61225e816121df565b82525050565b60006020820190506122796000830184612255565b92915050565b6000819050919050565b6122928161227f565b82525050565b60006020820190506122ad6000830184612289565b92915050565b6000806000606084860312156122cc576122cb612001565b5b60006122da868287016121ca565b93505060206122eb868287016121ca565b92505060406122fc86828701612200565b9150509250925092565b61230f8161227f565b811461231a57600080fd5b50565b60008135905061232c81612306565b92915050565b60006020828403121561234857612347612001565b5b60006123568482850161231d565b91505092915050565b6000806040838503121561237657612375612001565b5b60006123848582860161231d565b9250506020612395858286016121ca565b9150509250929050565b600060ff82169050919050565b6123b58161239f565b82525050565b60006020820190506123d060008301846123ac565b92915050565b600080fd5b7f4e487b7100000000000000000000000000000000000000000000000000000000600052604160045260246000fd5b61241382612115565b810181811067ffffffffffffffff82111715612432576124316123db565b5b80604052505050565b6000612445611ff7565b9050612451828261240a565b919050565b600067ffffffffffffffff821115612471576124706123db565b5b602082029050602081019050919050565b600080fd5b600061249a61249584612456565b61243b565b905080838252602082019050602084028301858111156124bd576124bc612482565b5b835b818110156124e657806124d288826121ca565b8452602084019350506020810190506124bf565b5050509392505050565b600082601f830112612505576125046123d6565b5b8135612515848260208601612487565b91505092915050565b60006020828403121561253457612533612001565b5b600082013567ffffffffffffffff81111561255257612551612006565b5b61255e848285016124f0565b91505092915050565b60006020828403121561257d5761257c612001565b5b600061258b848285016121ca565b91505092915050565b61259d816121a1565b82525050565b60006020820190506125b86000830184612594565b92915050565b6000602082840312156125d4576125d3612001565b5b60006125e284828501612200565b91505092915050565b6000806040838503121561260257612601612001565b5b6000612610858286016121ca565b9250506020612621858286016121ca565b9150509250929050565b7f4e487b7100000000000000000000000000000000000000000000000000000000600052602260045260246000fd5b6000600282049050600182168061267257607f821691505b602082108114156126865761268561262b565b5b50919050565b7f416363657373436f6e74726f6c3a2063616e206f6e6c792072656e6f756e636560008201527f20726f6c657320666f722073656c660000000000000000000000000000000000602082015250565b60006126e8602f836120d1565b91506126f38261268c565b604082019050919050565b60006020820190508181036000830152612717816126db565b9050919050565b7f4e487b7100000000000000000000000000000000000000000000000000000000600052601160045260246000fd5b6000612758826121df565b9150612763836121df565b9250827fffffffffffffffffffffffffffffffffffffffffffffffffffffffffffffffff038211156127985761279761271e565b5b828201905092915050565b7f4e487b7100000000000000000000000000000000000000000000000000000000600052603260045260246000fd5b60006127dd826121df565b91507fffffffffffffffffffffffffffffffffffffffffffffffffffffffffffffffff8214156128105761280f61271e565b5b600182019050919050565b7f4f776e61626c653a2063616c6c6572206973206e6f7420746865206f776e6572600082015250565b60006128516020836120d1565b915061285c8261281b565b602082019050919050565b6000602082019050818103600083015261288081612844565b9050919050565b7f45524332303a2064656372656173656420616c6c6f77616e63652062656c6f7760008201527f207a65726f000000000000000000000000000000000000000000000000000000602082015250565b60006128e36025836120d1565b91506128ee82612887565b604082019050919050565b60006020820190508181036000830152612912816128d6565b9050919050565b7f4f776e61626c653a206e6577206f776e657220697320746865207a65726f206160008201527f6464726573730000000000000000000000000000000000000000000000000000602082015250565b60006129756026836120d1565b915061298082612919565b604082019050919050565b600060208201905081810360008301526129a481612968565b9050919050565b60006129b6826121df565b91506129c1836121df565b9250817fffffffffffffffffffffffffffffffffffffffffffffffffffffffffffffffff04831182151516156129fa576129f961271e565b5b828202905092915050565b6000612a10826121df565b91506000821415612a2457612a2361271e565b5b600182039050919050565b7f537472696e67733a20686578206c656e67746820696e73756666696369656e74600082015250565b6000612a656020836120d1565b9150612a7082612a2f565b602082019050919050565b60006020820190508181036000830152612a9481612a58565b9050919050565b7f45524332303a20617070726f76652066726f6d20746865207a65726f2061646460008201527f7265737300000000000000000000000000000000000000000000000000000000602082015250565b6000612af76024836120d1565b9150612b0282612a9b565b604082019050919050565b60006020820190508181036000830152612b2681612aea565b9050919050565b7f45524332303a20617070726f766520746f20746865207a65726f20616464726560008201527f7373000000000000000000000000000000000000000000000000000000000000602082015250565b6000612b896022836120d1565b9150612b9482612b2d565b604082019050919050565b60006020820190508181036000830152612bb881612b7c565b9050919050565b7f45524332303a207472616e736665722066726f6d20746865207a65726f20616460008201527f6472657373000000000000000000000000000000000000000000000000000000602082015250565b6000612c1b6025836120d1565b9150612c2682612bbf565b604082019050919050565b60006020820190508181036000830152612c4a81612c0e565b9050919050565b7f45524332303a207472616e7366657220746f20746865207a65726f206164647260008201527f6573730000000000000000000000000000000000000000000000000000000000602082015250565b6000612cad6023836120d1565b9150612cb882612c51565b604082019050919050565b60006020820190508181036000830152612cdc81612ca0565b9050919050565b7f45524332303a207472616e7366657220616d6f756e742065786365656473206260008201527f616c616e63650000000000000000000000000000000000000000000000000000602082015250565b6000612d3f6026836120d1565b9150612d4a82612ce3565b604082019050919050565b60006020820190508181036000830152612d6e81612d32565b9050919050565b7f45524332303a206275726e2066726f6d20746865207a65726f2061646472657360008201527f7300000000000000000000000000000000000000000000000000000000000000602082015250565b6000612dd16021836120d1565b9150612ddc82612d75565b604082019050919050565b60006020820190508181036000830152612e0081612dc4565b9050919050565b7f45524332303a206275726e20616d6f756e7420657863656564732062616c616e60008201527f6365000000000000000000000000000000000000000000000000000000000000602082015250565b6000612e636022836120d1565b9150612e6e82612e07565b604082019050919050565b60006020820190508181036000830152612e9281612e56565b9050919050565b6000612ea4826121df565b9150612eaf836121df565b925082821015612ec257612ec161271e565b5b828203905092915050565b7f45524332303a206d696e7420746f20746865207a65726f206164647265737300600082015250565b6000612f03601f836120d1565b9150612f0e82612ecd565b602082019050919050565b60006020820190508181036000830152612f3281612ef6565b9050919050565b600081905092915050565b7f416363657373436f6e74726f6c3a206163636f756e7420000000000000000000600082015250565b6000612f7a601783612f39565b9150612f8582612f44565b601782019050919050565b6000612f9b826120c6565b612fa58185612f39565b9350612fb58185602086016120e2565b80840191505092915050565b7f206973206d697373696e6720726f6c6520000000000000000000000000000000600082015250565b6000612ff7601183612f39565b915061300282612fc1565b601182019050919050565b600061301882612f6d565b91506130248285612f90565b915061302f82612fea565b915061303b8284612f90565b9150819050939250505056fea26469706673582212202b55a337e2c40692310f639ae90b039fa964c00e7cf3735fbf3d83a0c47bd85364736f6c63430008090033",
  "linkReferences": {},
  "deployedLinkReferences": {}
}