{
  "_format": "hh-sol-artifact-1",
  "contractName": "ERC20Token",
  "sourceName": "contracts/ERC20Token.sol",
  "abi": [
    {
      "inputs": [
        {
          "internalType": "string",
          "name": "token_name",
          "type": "string"
        },
        {
          "internalType": "string",
          "name": "token_code",
          "type": "string"
        },
        {
          "internalType": "uint256",
          "name": "_initial_amount",
          "type": "uint256"
        },
        {
          "internalType": "address",
          "name": "owner",
          "type": "address"
        },
        {
          "internalType": "address[]",
          "name": "minters",
          "type": "address[]"
        }
      ],
      "stateMutability": "nonpayable",
      "type": "constructor"
    },
    {
      "anonymous": false,
      "inputs": [
        {
          "indexed": true,
          "internalType": "address",
          "name": "owner",
          "type": "address"
        },
        {
          "indexed": true,
          "internalType": "address",
          "name": "spender",
          "type": "address"
        },
        {
          "indexed": false,
          "internalType": "uint256",
          "name": "value",
          "type": "uint256"
        }
      ],
      "name": "Approval",
      "type": "event"
    },
    {
      "anonymous": false,
      "inputs": [
        {
          "indexed": true,
          "internalType": "address",
          "name": "previousOwner",
          "type": "address"
        },
        {
          "indexed": true,
          "internalType": "address",
          "name": "newOwner",
          "type": "address"
        }
      ],
      "name": "OwnershipTransferred",
      "type": "event"
    },
    {
      "anonymous": false,
      "inputs": [
        {
          "indexed": true,
          "internalType": "bytes32",
          "name": "role",
          "type": "bytes32"
        },
        {
          "indexed": true,
          "internalType": "bytes32",
          "name": "previousAdminRole",
          "type": "bytes32"
        },
        {
          "indexed": true,
          "internalType": "bytes32",
          "name": "newAdminRole",
          "type": "bytes32"
        }
      ],
      "name": "RoleAdminChanged",
      "type": "event"
    },
    {
      "anonymous": false,
      "inputs": [
        {
          "indexed": true,
          "internalType": "bytes32",
          "name": "role",
          "type": "bytes32"
        },
        {
          "indexed": true,
          "internalType": "address",
          "name": "account",
          "type": "address"
        },
        {
          "indexed": true,
          "internalType": "address",
          "name": "sender",
          "type": "address"
        }
      ],
      "name": "RoleGranted",
      "type": "event"
    },
    {
      "anonymous": false,
      "inputs": [
        {
          "indexed": true,
          "internalType": "bytes32",
          "name": "role",
          "type": "bytes32"
        },
        {
          "indexed": true,
          "internalType": "address",
          "name": "account",
          "type": "address"
        },
        {
          "indexed": true,
          "internalType": "address",
          "name": "sender",
          "type": "address"
        }
      ],
      "name": "RoleRevoked",
      "type": "event"
    },
    {
      "anonymous": false,
      "inputs": [
        {
          "indexed": true,
          "internalType": "address",
          "name": "from",
          "type": "address"
        },
        {
          "indexed": true,
          "internalType": "address",
          "name": "to",
          "type": "address"
        },
        {
          "indexed": false,
          "internalType": "uint256",
          "name": "value",
          "type": "uint256"
        }
      ],
      "name": "Transfer",
      "type": "event"
    },
    {
      "inputs": [],
      "name": "BURNER_ROLE",
      "outputs": [
        {
          "internalType": "bytes32",
          "name": "",
          "type": "bytes32"
        }
      ],
      "stateMutability": "view",
      "type": "function"
    },
    {
      "inputs": [],
      "name": "DEFAULT_ADMIN_ROLE",
      "outputs": [
        {
          "internalType": "bytes32",
          "name": "",
          "type": "bytes32"
        }
      ],
      "stateMutability": "view",
      "type": "function"
    },
    {
      "inputs": [],
      "name": "MINTER_ROLE",
      "outputs": [
        {
          "internalType": "bytes32",
          "name": "",
          "type": "bytes32"
        }
      ],
      "stateMutability": "view",
      "type": "function"
    },
    {
      "inputs": [],
      "name": "TRANSFER_ROLE",
      "outputs": [
        {
          "internalType": "bytes32",
          "name": "",
          "type": "bytes32"
        }
      ],
      "stateMutability": "view",
      "type": "function"
    },
    {
      "inputs": [
        {
          "internalType": "address[]",
          "name": "burners",
          "type": "address[]"
        }
      ],
      "name": "addBurners",
      "outputs": [],
      "stateMutability": "nonpayable",
      "type": "function"
    },
    {
      "inputs": [
        {
          "internalType": "address[]",
          "name": "minters",
          "type": "address[]"
        }
      ],
      "name": "addMinters",
      "outputs": [],
      "stateMutability": "nonpayable",
      "type": "function"
    },
    {
      "inputs": [
        {
          "internalType": "address",
          "name": "owner",
          "type": "address"
        },
        {
          "internalType": "address",
          "name": "spender",
          "type": "address"
        }
      ],
      "name": "allowance",
      "outputs": [
        {
          "internalType": "uint256",
          "name": "",
          "type": "uint256"
        }
      ],
      "stateMutability": "view",
      "type": "function"
    },
    {
      "inputs": [
        {
          "internalType": "address",
          "name": "spender",
          "type": "address"
        },
        {
          "internalType": "uint256",
          "name": "amount",
          "type": "uint256"
        }
      ],
      "name": "approve",
      "outputs": [
        {
          "internalType": "bool",
          "name": "",
          "type": "bool"
        }
      ],
      "stateMutability": "nonpayable",
      "type": "function"
    },
    {
      "inputs": [
        {
          "internalType": "address",
          "name": "account",
          "type": "address"
        }
      ],
      "name": "balanceOf",
      "outputs": [
        {
          "internalType": "uint256",
          "name": "",
          "type": "uint256"
        }
      ],
      "stateMutability": "view",
      "type": "function"
    },
    {
      "inputs": [
        {
          "internalType": "address",
          "name": "from",
          "type": "address"
        },
        {
          "internalType": "uint256",
          "name": "amount",
          "type": "uint256"
        }
      ],
      "name": "burn",
      "outputs": [],
      "stateMutability": "nonpayable",
      "type": "function"
    },
    {
      "inputs": [],
      "name": "decimals",
      "outputs": [
        {
          "internalType": "uint8",
          "name": "",
          "type": "uint8"
        }
      ],
      "stateMutability": "view",
      "type": "function"
    },
    {
      "inputs": [
        {
          "internalType": "address",
          "name": "spender",
          "type": "address"
        },
        {
          "internalType": "uint256",
          "name": "subtractedValue",
          "type": "uint256"
        }
      ],
      "name": "decreaseAllowance",
      "outputs": [
        {
          "internalType": "bool",
          "name": "",
          "type": "bool"
        }
      ],
      "stateMutability": "nonpayable",
      "type": "function"
    },
    {
      "inputs": [
        {
          "internalType": "bytes32",
          "name": "role",
          "type": "bytes32"
        }
      ],
      "name": "getRoleAdmin",
      "outputs": [
        {
          "internalType": "bytes32",
          "name": "",
          "type": "bytes32"
        }
      ],
      "stateMutability": "view",
      "type": "function"
    },
    {
      "inputs": [
        {
          "internalType": "bytes32",
          "name": "role",
          "type": "bytes32"
        },
        {
          "internalType": "address",
          "name": "account",
          "type": "address"
        }
      ],
      "name": "grantRole",
      "outputs": [],
      "stateMutability": "nonpayable",
      "type": "function"
    },
    {
      "inputs": [],
      "name": "hasBurnerRole",
      "outputs": [
        {
          "internalType": "bool",
          "name": "",
          "type": "bool"
        }
      ],
      "stateMutability": "view",
      "type": "function"
    },
    {
      "inputs": [],
      "name": "hasMinterRole",
      "outputs": [
        {
          "internalType": "bool",
          "name": "",
          "type": "bool"
        }
      ],
      "stateMutability": "view",
      "type": "function"
    },
    {
      "inputs": [
        {
          "internalType": "bytes32",
          "name": "role",
          "type": "bytes32"
        },
        {
          "internalType": "address",
          "name": "account",
          "type": "address"
        }
      ],
      "name": "hasRole",
      "outputs": [
        {
          "internalType": "bool",
          "name": "",
          "type": "bool"
        }
      ],
      "stateMutability": "view",
      "type": "function"
    },
    {
      "inputs": [
        {
          "internalType": "address",
          "name": "spender",
          "type": "address"
        },
        {
          "internalType": "uint256",
          "name": "addedValue",
          "type": "uint256"
        }
      ],
      "name": "increaseAllowance",
      "outputs": [
        {
          "internalType": "bool",
          "name": "",
          "type": "bool"
        }
      ],
      "stateMutability": "nonpayable",
      "type": "function"
    },
    {
      "inputs": [],
      "name": "isOwner",
      "outputs": [
        {
          "internalType": "bool",
          "name": "",
          "type": "bool"
        }
      ],
      "stateMutability": "view",
      "type": "function"
    },
    {
      "inputs": [
        {
          "internalType": "uint256",
          "name": "amount",
          "type": "uint256"
        }
      ],
      "name": "mint",
      "outputs": [],
      "stateMutability": "nonpayable",
      "type": "function"
    },
    {
      "inputs": [],
      "name": "name",
      "outputs": [
        {
          "internalType": "string",
          "name": "",
          "type": "string"
        }
      ],
      "stateMutability": "view",
      "type": "function"
    },
    {
      "inputs": [],
      "name": "owner",
      "outputs": [
        {
          "internalType": "address",
          "name": "",
          "type": "address"
        }
      ],
      "stateMutability": "view",
      "type": "function"
    },
    {
      "inputs": [
        {
          "internalType": "address[]",
          "name": "burners",
          "type": "address[]"
        }
      ],
      "name": "removeBurners",
      "outputs": [],
      "stateMutability": "nonpayable",
      "type": "function"
    },
    {
      "inputs": [
        {
          "internalType": "address[]",
          "name": "minters",
          "type": "address[]"
        }
      ],
      "name": "removeMinters",
      "outputs": [],
      "stateMutability": "nonpayable",
      "type": "function"
    },
    {
      "inputs": [],
      "name": "renounceOwnership",
      "outputs": [],
      "stateMutability": "nonpayable",
      "type": "function"
    },
    {
      "inputs": [
        {
          "internalType": "bytes32",
          "name": "role",
          "type": "bytes32"
        },
        {
          "internalType": "address",
          "name": "account",
          "type": "address"
        }
      ],
      "name": "renounceRole",
      "outputs": [],
      "stateMutability": "nonpayable",
      "type": "function"
    },
    {
      "inputs": [
        {
          "internalType": "bytes32",
          "name": "role",
          "type": "bytes32"
        },
        {
          "internalType": "address",
          "name": "account",
          "type": "address"
        }
      ],
      "name": "revokeRole",
      "outputs": [],
      "stateMutability": "nonpayable",
      "type": "function"
    },
    {
      "inputs": [
        {
          "internalType": "bytes4",
          "name": "interfaceId",
          "type": "bytes4"
        }
      ],
      "name": "supportsInterface",
      "outputs": [
        {
          "internalType": "bool",
          "name": "",
          "type": "bool"
        }
      ],
      "stateMutability": "view",
      "type": "function"
    },
    {
      "inputs": [],
      "name": "symbol",
      "outputs": [
        {
          "internalType": "string",
          "name": "",
          "type": "string"
        }
      ],
      "stateMutability": "view",
      "type": "function"
    },
    {
      "inputs": [],
      "name": "totalSupply",
      "outputs": [
        {
          "internalType": "uint256",
          "name": "",
          "type": "uint256"
        }
      ],
      "stateMutability": "view",
      "type": "function"
    },
    {
      "inputs": [
        {
          "internalType": "address",
          "name": "to",
          "type": "address"
        },
        {
          "internalType": "uint256",
          "name": "amount",
          "type": "uint256"
        }
      ],
      "name": "transfer",
      "outputs": [
        {
          "internalType": "bool",
          "name": "",
          "type": "bool"
        }
      ],
      "stateMutability": "nonpayable",
      "type": "function"
    },
    {
      "inputs": [
        {
          "internalType": "address",
          "name": "from",
          "type": "address"
        },
        {
          "internalType": "address",
          "name": "to",
          "type": "address"
        },
        {
          "internalType": "uint256",
          "name": "amount",
          "type": "uint256"
        }
      ],
      "name": "transferFrom",
      "outputs": [
        {
          "internalType": "bool",
          "name": "",
          "type": "bool"
        }
      ],
      "stateMutability": "nonpayable",
      "type": "function"
    },
    {
      "inputs": [
        {
          "internalType": "address",
          "name": "newOwner",
          "type": "address"
        }
      ],
      "name": "transferOwnership",
      "outputs": [],
      "stateMutability": "nonpayable",
      "type": "function"
    }
  ],
  "bytecode": "0x60806040523480156200001157600080fd5b50604051620041f0380380620041f0833981810160405281019062000037919062000ad1565b8484620000596200004d6200016860201b60201c565b6200017060201b60201c565b816004908051906020019062000071929190620008c7565b5080600590805190602001906200008a929190620008c7565b5050506000839050620000a483826200023460201b60201c565b620000b96000801b84620003ae60201b60201c565b620000eb7f9f2df0fed2c77648de5860a4cc508cd0818c85b8b8a1ab4ceeef8d981c8956a684620003ae60201b60201c565b60005b82518110156200015b57620001477f9f2df0fed2c77648de5860a4cc508cd0818c85b8b8a1ab4ceeef8d981c8956a6848381518110620001335762000132620010d0565b5b6020026020010151620003c460201b60201c565b80620001539062001024565b9050620000ee565b5050505050505062001230565b600033905090565b60008060009054906101000a900473ffffffffffffffffffffffffffffffffffffffff169050816000806101000a81548173ffffffffffffffffffffffffffffffffffffffff021916908373ffffffffffffffffffffffffffffffffffffffff1602179055508173ffffffffffffffffffffffffffffffffffffffff168173ffffffffffffffffffffffffffffffffffffffff167f8be0079c531659141344cd1fd0a4f28419497f9722a3daafe3b4186f6b6457e060405160405180910390a35050565b600073ffffffffffffffffffffffffffffffffffffffff168273ffffffffffffffffffffffffffffffffffffffff161415620002a7576040517f08c379a00000000000000000000000000000000000000000000000000000000081526004016200029e9062000d63565b60405180910390fd5b620002bb60008383620003fd60201b60201c565b8060036000828254620002cf919062000e57565b9250508190555080600160008473ffffffffffffffffffffffffffffffffffffffff1673ffffffffffffffffffffffffffffffffffffffff168152602001908152602001600020600082825462000327919062000e57565b925050819055508173ffffffffffffffffffffffffffffffffffffffff16600073ffffffffffffffffffffffffffffffffffffffff167fddf252ad1be2c89b69c2b068fc378daa952ba7f163c4a11628f55a4df523b3ef836040516200038e919062000d85565b60405180910390a3620003aa600083836200040260201b60201c565b5050565b620003c082826200040760201b60201c565b5050565b620003d582620004f960201b60201c565b620003e6816200051960201b60201c565b620003f883836200040760201b60201c565b505050565b505050565b505050565b6200041982826200053d60201b60201c565b620004f55760016006600084815260200190815260200160002060000160008373ffffffffffffffffffffffffffffffffffffffff1673ffffffffffffffffffffffffffffffffffffffff16815260200190815260200160002060006101000a81548160ff0219169083151502179055506200049a6200016860201b60201c565b73ffffffffffffffffffffffffffffffffffffffff168173ffffffffffffffffffffffffffffffffffffffff16837f2f8788117e7eff1d82e926ec794901d17c78024a50270940304540a733656f0d60405160405180910390a45b5050565b600060066000838152602001908152602001600020600101549050919050565b6200053a816200052e6200016860201b60201c565b620005a860201b60201c565b50565b60006006600084815260200190815260200160002060000160008373ffffffffffffffffffffffffffffffffffffffff1673ffffffffffffffffffffffffffffffffffffffff16815260200190815260200160002060009054906101000a900460ff16905092915050565b620005ba82826200053d60201b60201c565b6200066857620005ed8173ffffffffffffffffffffffffffffffffffffffff1660146200066c60201b6200119c1760201c565b620006088360001c60206200066c60201b6200119c1760201c565b6040516020016200061b92919062000cdb565b6040516020818303038152906040526040517f08c379a00000000000000000000000000000000000000000000000000000000081526004016200065f919062000d1d565b60405180910390fd5b5050565b60606000600283600262000681919062000eb4565b6200068d919062000e57565b67ffffffffffffffff811115620006a957620006a8620010ff565b5b6040519080825280601f01601f191660200182016040528015620006dc5781602001600182028036833780820191505090505b5090507f300000000000000000000000000000000000000000000000000000000000000081600081518110620007175762000716620010d0565b5b60200101907effffffffffffffffffffffffffffffffffffffffffffffffffffffffffffff1916908160001a9053507f7800000000000000000000000000000000000000000000000000000000000000816001815181106200077e576200077d620010d0565b5b60200101907effffffffffffffffffffffffffffffffffffffffffffffffffffffffffffff1916908160001a90535060006001846002620007c0919062000eb4565b620007cc919062000e57565b90505b600181111562000876577f3031323334353637383961626364656600000000000000000000000000000000600f861660108110620008125762000811620010d0565b5b1a60f81b8282815181106200082c576200082b620010d0565b5b60200101907effffffffffffffffffffffffffffffffffffffffffffffffffffffffffffff1916908160001a905350600485901c9450806200086e9062000f89565b9050620007cf565b5060008414620008bd576040517f08c379a0000000000000000000000000000000000000000000000000000000008152600401620008b49062000d41565b60405180910390fd5b8091505092915050565b828054620008d59062000fb8565b90600052602060002090601f016020900481019282620008f9576000855562000945565b82601f106200091457805160ff191683800117855562000945565b8280016001018555821562000945579182015b828111156200094457825182559160200191906001019062000927565b5b50905062000954919062000958565b5090565b5b808211156200097357600081600090555060010162000959565b5090565b60006200098e620009888462000dcb565b62000da2565b90508083825260208201905082856020860282011115620009b457620009b362001133565b5b60005b85811015620009e85781620009cd888262000a3d565b845260208401935060208301925050600181019050620009b7565b5050509392505050565b600062000a0962000a038462000dfa565b62000da2565b90508281526020810184848401111562000a285762000a2762001138565b5b62000a3584828562000f53565b509392505050565b60008151905062000a4e81620011fc565b92915050565b600082601f83011262000a6c5762000a6b6200112e565b5b815162000a7e84826020860162000977565b91505092915050565b600082601f83011262000a9f5762000a9e6200112e565b5b815162000ab1848260208601620009f2565b91505092915050565b60008151905062000acb8162001216565b92915050565b600080600080600060a0868803121562000af05762000aef62001142565b5b600086015167ffffffffffffffff81111562000b115762000b106200113d565b5b62000b1f8882890162000a87565b955050602086015167ffffffffffffffff81111562000b435762000b426200113d565b5b62000b518882890162000a87565b945050604062000b648882890162000aba565b935050606062000b778882890162000a3d565b925050608086015167ffffffffffffffff81111562000b9b5762000b9a6200113d565b5b62000ba98882890162000a54565b9150509295509295909350565b600062000bc38262000e30565b62000bcf818562000e3b565b935062000be181856020860162000f53565b62000bec8162001147565b840191505092915050565b600062000c048262000e30565b62000c10818562000e4c565b935062000c2281856020860162000f53565b80840191505092915050565b600062000c3d60208362000e3b565b915062000c4a8262001158565b602082019050919050565b600062000c6460178362000e4c565b915062000c718262001181565b601782019050919050565b600062000c8b60118362000e4c565b915062000c9882620011aa565b601182019050919050565b600062000cb2601f8362000e3b565b915062000cbf82620011d3565b602082019050919050565b62000cd58162000f49565b82525050565b600062000ce88262000c55565b915062000cf6828562000bf7565b915062000d038262000c7c565b915062000d11828462000bf7565b91508190509392505050565b6000602082019050818103600083015262000d39818462000bb6565b905092915050565b6000602082019050818103600083015262000d5c8162000c2e565b9050919050565b6000602082019050818103600083015262000d7e8162000ca3565b9050919050565b600060208201905062000d9c600083018462000cca565b92915050565b600062000dae62000dc1565b905062000dbc828262000fee565b919050565b6000604051905090565b600067ffffffffffffffff82111562000de95762000de8620010ff565b5b602082029050602081019050919050565b600067ffffffffffffffff82111562000e185762000e17620010ff565b5b62000e238262001147565b9050602081019050919050565b600081519050919050565b600082825260208201905092915050565b600081905092915050565b600062000e648262000f49565b915062000e718362000f49565b9250827fffffffffffffffffffffffffffffffffffffffffffffffffffffffffffffffff0382111562000ea95762000ea862001072565b5b828201905092915050565b600062000ec18262000f49565b915062000ece8362000f49565b9250817fffffffffffffffffffffffffffffffffffffffffffffffffffffffffffffffff048311821515161562000f0a5762000f0962001072565b5b828202905092915050565b600062000f228262000f29565b9050919050565b600073ffffffffffffffffffffffffffffffffffffffff82169050919050565b6000819050919050565b60005b8381101562000f7357808201518184015260208101905062000f56565b8381111562000f83576000848401525b50505050565b600062000f968262000f49565b9150600082141562000fad5762000fac62001072565b5b600182039050919050565b6000600282049050600182168062000fd157607f821691505b6020821081141562000fe85762000fe7620010a1565b5b50919050565b62000ff98262001147565b810181811067ffffffffffffffff821117156200101b576200101a620010ff565b5b80604052505050565b6000620010318262000f49565b91507fffffffffffffffffffffffffffffffffffffffffffffffffffffffffffffffff82141562001067576200106662001072565b5b600182019050919050565b7f4e487b7100000000000000000000000000000000000000000000000000000000600052601160045260246000fd5b7f4e487b7100000000000000000000000000000000000000000000000000000000600052602260045260246000fd5b7f4e487b7100000000000000000000000000000000000000000000000000000000600052603260045260246000fd5b7f4e487b7100000000000000000000000000000000000000000000000000000000600052604160045260246000fd5b600080fd5b600080fd5b600080fd5b600080fd5b600080fd5b6000601f19601f8301169050919050565b7f537472696e67733a20686578206c656e67746820696e73756666696369656e74600082015250565b7f416363657373436f6e74726f6c3a206163636f756e7420000000000000000000600082015250565b7f206973206d697373696e6720726f6c6520000000000000000000000000000000600082015250565b7f45524332303a206d696e7420746f20746865207a65726f206164647265737300600082015250565b620012078162000f15565b81146200121357600080fd5b50565b620012218162000f49565b81146200122d57600080fd5b50565b612fb080620012406000396000f3fe608060405234801561001057600080fd5b50600436106101fb5760003560e01c8063715018a61161011a578063a0712d68116100ad578063d53913931161007c578063d5391393146105c8578063d547741f146105e6578063dd62ed3e14610602578063e47d419b14610632578063f2fde38b1461064e576101fb565b8063a0712d681461052e578063a217fddf1461054a578063a457c2d714610568578063a9059cbb14610598576101fb565b80638f32d59b116100e95780638f32d59b146104a657806391d14854146104c457806395d89b41146104f45780639dc29fac14610512576101fb565b8063715018a61461044457806371e2a6571461044e578063745fffbe1461046a5780638da5cb5b14610488576101fb565b8063282c51f311610192578063395093511161016157806339509351146103ac5780633ab84dd9146103dc5780635fc1964f146103f857806370a0823114610414576101fb565b8063282c51f3146103385780632f2ff15d14610356578063313ce5671461037257806336568abe14610390576101fb565b806318160ddd116101ce57806318160ddd1461029c578063206b60f9146102ba57806323b872dd146102d8578063248a9ca314610308576101fb565b806301ffc9a71461020057806306fdde0314610230578063095ea7b31461024e5780631592b6071461027e575b600080fd5b61021a600480360381019061021591906121cb565b61066a565b604051610227919061253c565b60405180910390f35b6102386106e4565b6040516102459190612572565b60405180910390f35b610268600480360381019061026391906120d5565b610776565b604051610275919061253c565b60405180910390f35b610286610799565b604051610293919061253c565b60405180910390f35b6102a46107d1565b6040516102b19190612734565b60405180910390f35b6102c26107db565b6040516102cf9190612557565b60405180910390f35b6102f260048036038101906102ed9190612082565b6107ff565b6040516102ff919061253c565b60405180910390f35b610322600480360381019061031d919061215e565b610842565b60405161032f9190612557565b60405180910390f35b610340610862565b60405161034d9190612557565b60405180910390f35b610370600480360381019061036b919061218b565b610886565b005b61037a6108a7565b604051610387919061274f565b60405180910390f35b6103aa60048036038101906103a5919061218b565b6108b0565b005b6103c660048036038101906103c191906120d5565b610933565b6040516103d3919061253c565b60405180910390f35b6103f660048036038101906103f19190612115565b61096a565b005b610412600480360381019061040d9190612115565b6109fa565b005b61042e60048036038101906104299190612015565b610adb565b60405161043b9190612734565b60405180910390f35b61044c610b24565b005b61046860048036038101906104639190612115565b610bac565b005b610472610c3c565b60405161047f919061253c565b60405180910390f35b610490610c74565b60405161049d9190612521565b60405180910390f35b6104ae610c9d565b6040516104bb919061253c565b60405180910390f35b6104de60048036038101906104d9919061218b565b610ce1565b6040516104eb919061253c565b60405180910390f35b6104fc610d4c565b6040516105099190612572565b60405180910390f35b61052c600480360381019061052791906120d5565b610dde565b005b610548600480360381019061054391906121f8565b610e17565b005b610552610e56565b60405161055f9190612557565b60405180910390f35b610582600480360381019061057d91906120d5565b610e5d565b60405161058f919061253c565b60405180910390f35b6105b260048036038101906105ad91906120d5565b610ed4565b6040516105bf919061253c565b60405180910390f35b6105d0610ef7565b6040516105dd9190612557565b60405180910390f35b61060060048036038101906105fb919061218b565b610f1b565b005b61061c60048036038101906106179190612042565b610f3c565b6040516106299190612734565b60405180910390f35b61064c60048036038101906106479190612115565b610fc3565b005b61066860048036038101906106639190612015565b6110a4565b005b60007f7965db0b000000000000000000000000000000000000000000000000000000007bffffffffffffffffffffffffffffffffffffffffffffffffffffffff1916827bffffffffffffffffffffffffffffffffffffffffffffffffffffffff191614806106dd57506106dc826113d8565b5b9050919050565b6060600480546106f3906129ae565b80601f016020809104026020016040519081016040528092919081815260200182805461071f906129ae565b801561076c5780601f106107415761010080835404028352916020019161076c565b820191906000526020600020905b81548152906001019060200180831161074f57829003601f168201915b5050505050905090565b600080610781611442565b905061078e81858561144a565b600191505092915050565b60006107cc7f9f2df0fed2c77648de5860a4cc508cd0818c85b8b8a1ab4ceeef8d981c8956a66107c7611442565b610ce1565b905090565b6000600354905090565b7f8502233096d909befbda0999bb8ea2f3a6be3c138b9fbf003752a4c8bce86f6c81565b60007f8502233096d909befbda0999bb8ea2f3a6be3c138b9fbf003752a4c8bce86f6c61082b81611615565b610836858585611629565b60019150509392505050565b600060066000838152602001908152602001600020600101549050919050565b7f3c11d16cbaffd01df69ce1c404f6340ee057498f5f00246190ea54220576a84881565b61088f82610842565b61089881611615565b6108a283836118ad565b505050565b60006012905090565b6108b8611442565b73ffffffffffffffffffffffffffffffffffffffff168173ffffffffffffffffffffffffffffffffffffffff1614610925576040517f08c379a000000000000000000000000000000000000000000000000000000000815260040161091c906126f4565b60405180910390fd5b61092f828261198e565b5050565b60008061093e611442565b905061095f8185856109508589610f3c565b61095a91906127e2565b61144a565b600191505092915050565b7f9f2df0fed2c77648de5860a4cc508cd0818c85b8b8a1ab4ceeef8d981c8956a661099481611615565b60005b82518110156109f5576109e47f3c11d16cbaffd01df69ce1c404f6340ee057498f5f00246190ea54220576a8488483815181106109d7576109d6612ab8565b5b6020026020010151611a70565b806109ee90612a11565b9050610997565b505050565b610a02611442565b73ffffffffffffffffffffffffffffffffffffffff16610a20610c74565b73ffffffffffffffffffffffffffffffffffffffff1614610a76576040517f08c379a0000000000000000000000000000000000000000000000000000000008152600401610a6d90612654565b60405180910390fd5b60005b8151811015610ad757610ac67f9f2df0fed2c77648de5860a4cc508cd0818c85b8b8a1ab4ceeef8d981c8956a6838381518110610ab957610ab8612ab8565b5b6020026020010151610f1b565b80610ad090612a11565b9050610a79565b5050565b6000600160008373ffffffffffffffffffffffffffffffffffffffff1673ffffffffffffffffffffffffffffffffffffffff168152602001908152602001600020549050919050565b610b2c611442565b73ffffffffffffffffffffffffffffffffffffffff16610b4a610c74565b73ffffffffffffffffffffffffffffffffffffffff1614610ba0576040517f08c379a0000000000000000000000000000000000000000000000000000000008152600401610b9790612654565b60405180910390fd5b610baa6000611a7e565b565b7f9f2df0fed2c77648de5860a4cc508cd0818c85b8b8a1ab4ceeef8d981c8956a6610bd681611615565b60005b8251811015610c3757610c267f9f2df0fed2c77648de5860a4cc508cd0818c85b8b8a1ab4ceeef8d981c8956a6848381518110610c1957610c18612ab8565b5b6020026020010151611a70565b80610c3090612a11565b9050610bd9565b505050565b6000610c6f7f3c11d16cbaffd01df69ce1c404f6340ee057498f5f00246190ea54220576a848610c6a611442565b610ce1565b905090565b60008060009054906101000a900473ffffffffffffffffffffffffffffffffffffffff16905090565b6000610ca7611442565b73ffffffffffffffffffffffffffffffffffffffff16610cc5610c74565b73ffffffffffffffffffffffffffffffffffffffff1614905090565b60006006600084815260200190815260200160002060000160008373ffffffffffffffffffffffffffffffffffffffff1673ffffffffffffffffffffffffffffffffffffffff16815260200190815260200160002060009054906101000a900460ff16905092915050565b606060058054610d5b906129ae565b80601f0160208091040260200160405190810160405280929190818152602001828054610d87906129ae565b8015610dd45780601f10610da957610100808354040283529160200191610dd4565b820191906000526020600020905b815481529060010190602001808311610db757829003601f168201915b5050505050905090565b7f3c11d16cbaffd01df69ce1c404f6340ee057498f5f00246190ea54220576a848610e0881611615565b610e128383611b42565b505050565b7f9f2df0fed2c77648de5860a4cc508cd0818c85b8b8a1ab4ceeef8d981c8956a6610e4181611615565b610e52610e4c611442565b83611d1b565b5050565b6000801b81565b600080610e68611442565b90506000610e768286610f3c565b905083811015610ebb576040517f08c379a0000000000000000000000000000000000000000000000000000000008152600401610eb2906126d4565b60405180910390fd5b610ec8828686840361144a565b60019250505092915050565b600080610edf611442565b9050610eec818585611629565b600191505092915050565b7f9f2df0fed2c77648de5860a4cc508cd0818c85b8b8a1ab4ceeef8d981c8956a681565b610f2482610842565b610f2d81611615565b610f37838361198e565b505050565b6000600260008473ffffffffffffffffffffffffffffffffffffffff1673ffffffffffffffffffffffffffffffffffffffff16815260200190815260200160002060008373ffffffffffffffffffffffffffffffffffffffff1673ffffffffffffffffffffffffffffffffffffffff16815260200190815260200160002054905092915050565b610fcb611442565b73ffffffffffffffffffffffffffffffffffffffff16610fe9610c74565b73ffffffffffffffffffffffffffffffffffffffff161461103f576040517f08c379a000000000000000000000000000000000000000000000000000000000815260040161103690612654565b60405180910390fd5b60005b81518110156110a05761108f7f3c11d16cbaffd01df69ce1c404f6340ee057498f5f00246190ea54220576a84883838151811061108257611081612ab8565b5b6020026020010151610f1b565b8061109990612a11565b9050611042565b5050565b6110ac611442565b73ffffffffffffffffffffffffffffffffffffffff166110ca610c74565b73ffffffffffffffffffffffffffffffffffffffff1614611120576040517f08c379a000000000000000000000000000000000000000000000000000000000815260040161111790612654565b60405180910390fd5b600073ffffffffffffffffffffffffffffffffffffffff168173ffffffffffffffffffffffffffffffffffffffff161415611190576040517f08c379a0000000000000000000000000000000000000000000000000000000008152600401611187906125f4565b60405180910390fd5b61119981611a7e565b50565b6060600060028360026111af9190612838565b6111b991906127e2565b67ffffffffffffffff8111156111d2576111d1612ae7565b5b6040519080825280601f01601f1916602001820160405280156112045781602001600182028036833780820191505090505b5090507f30000000000000000000000000000000000000000000000000000000000000008160008151811061123c5761123b612ab8565b5b60200101907effffffffffffffffffffffffffffffffffffffffffffffffffffffffffffff1916908160001a9053507f7800000000000000000000000000000000000000000000000000000000000000816001815181106112a05761129f612ab8565b5b60200101907effffffffffffffffffffffffffffffffffffffffffffffffffffffffffffff1916908160001a905350600060018460026112e09190612838565b6112ea91906127e2565b90505b600181111561138a577f3031323334353637383961626364656600000000000000000000000000000000600f86166010811061132c5761132b612ab8565b5b1a60f81b82828151811061134357611342612ab8565b5b60200101907effffffffffffffffffffffffffffffffffffffffffffffffffffffffffffff1916908160001a905350600485901c94508061138390612984565b90506112ed565b50600084146113ce576040517f08c379a00000000000000000000000000000000000000000000000000000000081526004016113c590612594565b60405180910390fd5b8091505092915050565b60007f01ffc9a7000000000000000000000000000000000000000000000000000000007bffffffffffffffffffffffffffffffffffffffffffffffffffffffff1916827bffffffffffffffffffffffffffffffffffffffffffffffffffffffff1916149050919050565b600033905090565b600073ffffffffffffffffffffffffffffffffffffffff168373ffffffffffffffffffffffffffffffffffffffff1614156114ba576040517f08c379a00000000000000000000000000000000000000000000000000000000081526004016114b1906126b4565b60405180910390fd5b600073ffffffffffffffffffffffffffffffffffffffff168273ffffffffffffffffffffffffffffffffffffffff16141561152a576040517f08c379a000000000000000000000000000000000000000000000000000000000815260040161152190612614565b60405180910390fd5b80600260008573ffffffffffffffffffffffffffffffffffffffff1673ffffffffffffffffffffffffffffffffffffffff16815260200190815260200160002060008473ffffffffffffffffffffffffffffffffffffffff1673ffffffffffffffffffffffffffffffffffffffff168152602001908152602001600020819055508173ffffffffffffffffffffffffffffffffffffffff168373ffffffffffffffffffffffffffffffffffffffff167f8c5be1e5ebec7d5bd14f71427d1e84f3dd0314c0f7b2291e5b200ac8c7c3b925836040516116089190612734565b60405180910390a3505050565b61162681611621611442565b611e7c565b50565b600073ffffffffffffffffffffffffffffffffffffffff168373ffffffffffffffffffffffffffffffffffffffff161415611699576040517f08c379a000000000000000000000000000000000000000000000000000000000815260040161169090612694565b60405180910390fd5b600073ffffffffffffffffffffffffffffffffffffffff168273ffffffffffffffffffffffffffffffffffffffff161415611709576040517f08c379a0000000000000000000000000000000000000000000000000000000008152600401611700906125b4565b60405180910390fd5b611714838383611f19565b6000600160008573ffffffffffffffffffffffffffffffffffffffff1673ffffffffffffffffffffffffffffffffffffffff1681526020019081526020016000205490508181101561179b576040517f08c379a000000000000000000000000000000000000000000000000000000000815260040161179290612634565b60405180910390fd5b818103600160008673ffffffffffffffffffffffffffffffffffffffff1673ffffffffffffffffffffffffffffffffffffffff1681526020019081526020016000208190555081600160008573ffffffffffffffffffffffffffffffffffffffff1673ffffffffffffffffffffffffffffffffffffffff168152602001908152602001600020600082825461183091906127e2565b925050819055508273ffffffffffffffffffffffffffffffffffffffff168473ffffffffffffffffffffffffffffffffffffffff167fddf252ad1be2c89b69c2b068fc378daa952ba7f163c4a11628f55a4df523b3ef846040516118949190612734565b60405180910390a36118a7848484611f1e565b50505050565b6118b78282610ce1565b61198a5760016006600084815260200190815260200160002060000160008373ffffffffffffffffffffffffffffffffffffffff1673ffffffffffffffffffffffffffffffffffffffff16815260200190815260200160002060006101000a81548160ff02191690831515021790555061192f611442565b73ffffffffffffffffffffffffffffffffffffffff168173ffffffffffffffffffffffffffffffffffffffff16837f2f8788117e7eff1d82e926ec794901d17c78024a50270940304540a733656f0d60405160405180910390a45b5050565b6119988282610ce1565b15611a6c5760006006600084815260200190815260200160002060000160008373ffffffffffffffffffffffffffffffffffffffff1673ffffffffffffffffffffffffffffffffffffffff16815260200190815260200160002060006101000a81548160ff021916908315150217905550611a11611442565b73ffffffffffffffffffffffffffffffffffffffff168173ffffffffffffffffffffffffffffffffffffffff16837ff6391f5c32d9c69d2a47ea670b442974b53935d1edc7fd64eb21e047a839171b60405160405180910390a45b5050565b611a7a82826118ad565b5050565b60008060009054906101000a900473ffffffffffffffffffffffffffffffffffffffff169050816000806101000a81548173ffffffffffffffffffffffffffffffffffffffff021916908373ffffffffffffffffffffffffffffffffffffffff1602179055508173ffffffffffffffffffffffffffffffffffffffff168173ffffffffffffffffffffffffffffffffffffffff167f8be0079c531659141344cd1fd0a4f28419497f9722a3daafe3b4186f6b6457e060405160405180910390a35050565b600073ffffffffffffffffffffffffffffffffffffffff168273ffffffffffffffffffffffffffffffffffffffff161415611bb2576040517f08c379a0000000000000000000000000000000000000000000000000000000008152600401611ba990612674565b60405180910390fd5b611bbe82600083611f19565b6000600160008473ffffffffffffffffffffffffffffffffffffffff1673ffffffffffffffffffffffffffffffffffffffff16815260200190815260200160002054905081811015611c45576040517f08c379a0000000000000000000000000000000000000000000000000000000008152600401611c3c906125d4565b60405180910390fd5b818103600160008573ffffffffffffffffffffffffffffffffffffffff1673ffffffffffffffffffffffffffffffffffffffff168152602001908152602001600020819055508160036000828254611c9d9190612892565b92505081905550600073ffffffffffffffffffffffffffffffffffffffff168373ffffffffffffffffffffffffffffffffffffffff167fddf252ad1be2c89b69c2b068fc378daa952ba7f163c4a11628f55a4df523b3ef84604051611d029190612734565b60405180910390a3611d1683600084611f1e565b505050565b600073ffffffffffffffffffffffffffffffffffffffff168273ffffffffffffffffffffffffffffffffffffffff161415611d8b576040517f08c379a0000000000000000000000000000000000000000000000000000000008152600401611d8290612714565b60405180910390fd5b611d9760008383611f19565b8060036000828254611da991906127e2565b9250508190555080600160008473ffffffffffffffffffffffffffffffffffffffff1673ffffffffffffffffffffffffffffffffffffffff1681526020019081526020016000206000828254611dff91906127e2565b925050819055508173ffffffffffffffffffffffffffffffffffffffff16600073ffffffffffffffffffffffffffffffffffffffff167fddf252ad1be2c89b69c2b068fc378daa952ba7f163c4a11628f55a4df523b3ef83604051611e649190612734565b60405180910390a3611e7860008383611f1e565b5050565b611e868282610ce1565b611f1557611eab8173ffffffffffffffffffffffffffffffffffffffff16601461119c565b611eb98360001c602061119c565b604051602001611eca9291906124e7565b6040516020818303038152906040526040517f08c379a0000000000000000000000000000000000000000000000000000000008152600401611f0c9190612572565b60405180910390fd5b5050565b505050565b505050565b6000611f36611f318461278f565b61276a565b90508083825260208201905082856020860282011115611f5957611f58612b1b565b5b60005b85811015611f895781611f6f8882611f93565b845260208401935060208301925050600181019050611f5c565b5050509392505050565b600081359050611fa281612f1e565b92915050565b600082601f830112611fbd57611fbc612b16565b5b8135611fcd848260208601611f23565b91505092915050565b600081359050611fe581612f35565b92915050565b600081359050611ffa81612f4c565b92915050565b60008135905061200f81612f63565b92915050565b60006020828403121561202b5761202a612b25565b5b600061203984828501611f93565b91505092915050565b6000806040838503121561205957612058612b25565b5b600061206785828601611f93565b925050602061207885828601611f93565b9150509250929050565b60008060006060848603121561209b5761209a612b25565b5b60006120a986828701611f93565b93505060206120ba86828701611f93565b92505060406120cb86828701612000565b9150509250925092565b600080604083850312156120ec576120eb612b25565b5b60006120fa85828601611f93565b925050602061210b85828601612000565b9150509250929050565b60006020828403121561212b5761212a612b25565b5b600082013567ffffffffffffffff81111561214957612148612b20565b5b61215584828501611fa8565b91505092915050565b60006020828403121561217457612173612b25565b5b600061218284828501611fd6565b91505092915050565b600080604083850312156121a2576121a1612b25565b5b60006121b085828601611fd6565b92505060206121c185828601611f93565b9150509250929050565b6000602082840312156121e1576121e0612b25565b5b60006121ef84828501611feb565b91505092915050565b60006020828403121561220e5761220d612b25565b5b600061221c84828501612000565b91505092915050565b61222e816128c6565b82525050565b61223d816128d8565b82525050565b61224c816128e4565b82525050565b600061225d826127bb565b61226781856127c6565b9350612277818560208601612951565b61228081612b2a565b840191505092915050565b6000612296826127bb565b6122a081856127d7565b93506122b0818560208601612951565b80840191505092915050565b60006122c96020836127c6565b91506122d482612b3b565b602082019050919050565b60006122ec6023836127c6565b91506122f782612b64565b604082019050919050565b600061230f6022836127c6565b915061231a82612bb3565b604082019050919050565b60006123326026836127c6565b915061233d82612c02565b604082019050919050565b60006123556022836127c6565b915061236082612c51565b604082019050919050565b60006123786026836127c6565b915061238382612ca0565b604082019050919050565b600061239b6020836127c6565b91506123a682612cef565b602082019050919050565b60006123be6021836127c6565b91506123c982612d18565b604082019050919050565b60006123e16025836127c6565b91506123ec82612d67565b604082019050919050565b60006124046024836127c6565b915061240f82612db6565b604082019050919050565b60006124276017836127d7565b915061243282612e05565b601782019050919050565b600061244a6025836127c6565b915061245582612e2e565b604082019050919050565b600061246d6011836127d7565b915061247882612e7d565b601182019050919050565b6000612490602f836127c6565b915061249b82612ea6565b604082019050919050565b60006124b3601f836127c6565b91506124be82612ef5565b602082019050919050565b6124d28161293a565b82525050565b6124e181612944565b82525050565b60006124f28261241a565b91506124fe828561228b565b915061250982612460565b9150612515828461228b565b91508190509392505050565b60006020820190506125366000830184612225565b92915050565b60006020820190506125516000830184612234565b92915050565b600060208201905061256c6000830184612243565b92915050565b6000602082019050818103600083015261258c8184612252565b905092915050565b600060208201905081810360008301526125ad816122bc565b9050919050565b600060208201905081810360008301526125cd816122df565b9050919050565b600060208201905081810360008301526125ed81612302565b9050919050565b6000602082019050818103600083015261260d81612325565b9050919050565b6000602082019050818103600083015261262d81612348565b9050919050565b6000602082019050818103600083015261264d8161236b565b9050919050565b6000602082019050818103600083015261266d8161238e565b9050919050565b6000602082019050818103600083015261268d816123b1565b9050919050565b600060208201905081810360008301526126ad816123d4565b9050919050565b600060208201905081810360008301526126cd816123f7565b9050919050565b600060208201905081810360008301526126ed8161243d565b9050919050565b6000602082019050818103600083015261270d81612483565b9050919050565b6000602082019050818103600083015261272d816124a6565b9050919050565b600060208201905061274960008301846124c9565b92915050565b600060208201905061276460008301846124d8565b92915050565b6000612774612785565b905061278082826129e0565b919050565b6000604051905090565b600067ffffffffffffffff8211156127aa576127a9612ae7565b5b602082029050602081019050919050565b600081519050919050565b600082825260208201905092915050565b600081905092915050565b60006127ed8261293a565b91506127f88361293a565b9250827fffffffffffffffffffffffffffffffffffffffffffffffffffffffffffffffff0382111561282d5761282c612a5a565b5b828201905092915050565b60006128438261293a565b915061284e8361293a565b9250817fffffffffffffffffffffffffffffffffffffffffffffffffffffffffffffffff048311821515161561288757612886612a5a565b5b828202905092915050565b600061289d8261293a565b91506128a88361293a565b9250828210156128bb576128ba612a5a565b5b828203905092915050565b60006128d18261291a565b9050919050565b60008115159050919050565b6000819050919050565b60007fffffffff0000000000000000000000000000000000000000000000000000000082169050919050565b600073ffffffffffffffffffffffffffffffffffffffff82169050919050565b6000819050919050565b600060ff82169050919050565b60005b8381101561296f578082015181840152602081019050612954565b8381111561297e576000848401525b50505050565b600061298f8261293a565b915060008214156129a3576129a2612a5a565b5b600182039050919050565b600060028204905060018216806129c657607f821691505b602082108114156129da576129d9612a89565b5b50919050565b6129e982612b2a565b810181811067ffffffffffffffff82111715612a0857612a07612ae7565b5b80604052505050565b6000612a1c8261293a565b91507fffffffffffffffffffffffffffffffffffffffffffffffffffffffffffffffff821415612a4f57612a4e612a5a565b5b600182019050919050565b7f4e487b7100000000000000000000000000000000000000000000000000000000600052601160045260246000fd5b7f4e487b7100000000000000000000000000000000000000000000000000000000600052602260045260246000fd5b7f4e487b7100000000000000000000000000000000000000000000000000000000600052603260045260246000fd5b7f4e487b7100000000000000000000000000000000000000000000000000000000600052604160045260246000fd5b600080fd5b600080fd5b600080fd5b600080fd5b6000601f19601f8301169050919050565b7f537472696e67733a20686578206c656e67746820696e73756666696369656e74600082015250565b7f45524332303a207472616e7366657220746f20746865207a65726f206164647260008201527f6573730000000000000000000000000000000000000000000000000000000000602082015250565b7f45524332303a206275726e20616d6f756e7420657863656564732062616c616e60008201527f6365000000000000000000000000000000000000000000000000000000000000602082015250565b7f4f776e61626c653a206e6577206f776e657220697320746865207a65726f206160008201527f6464726573730000000000000000000000000000000000000000000000000000602082015250565b7f45524332303a20617070726f766520746f20746865207a65726f20616464726560008201527f7373000000000000000000000000000000000000000000000000000000000000602082015250565b7f45524332303a207472616e7366657220616d6f756e742065786365656473206260008201527f616c616e63650000000000000000000000000000000000000000000000000000602082015250565b7f4f776e61626c653a2063616c6c6572206973206e6f7420746865206f776e6572600082015250565b7f45524332303a206275726e2066726f6d20746865207a65726f2061646472657360008201527f7300000000000000000000000000000000000000000000000000000000000000602082015250565b7f45524332303a207472616e736665722066726f6d20746865207a65726f20616460008201527f6472657373000000000000000000000000000000000000000000000000000000602082015250565b7f45524332303a20617070726f76652066726f6d20746865207a65726f2061646460008201527f7265737300000000000000000000000000000000000000000000000000000000602082015250565b7f416363657373436f6e74726f6c3a206163636f756e7420000000000000000000600082015250565b7f45524332303a2064656372656173656420616c6c6f77616e63652062656c6f7760008201527f207a65726f000000000000000000000000000000000000000000000000000000602082015250565b7f206973206d697373696e6720726f6c6520000000000000000000000000000000600082015250565b7f416363657373436f6e74726f6c3a2063616e206f6e6c792072656e6f756e636560008201527f20726f6c657320666f722073656c660000000000000000000000000000000000602082015250565b7f45524332303a206d696e7420746f20746865207a65726f206164647265737300600082015250565b612f27816128c6565b8114612f3257600080fd5b50565b612f3e816128e4565b8114612f4957600080fd5b50565b612f55816128ee565b8114612f6057600080fd5b50565b612f6c8161293a565b8114612f7757600080fd5b5056fea2646970667358221220798a19e82b8c27abbe925e25b3c5aec000283ff878c6d3a4c00f818336d93ffe64736f6c63430008070033",
  "linkReferences": {},
  "deployedLinkReferences": {}
}