{
  "_format": "hh-sol-artifact-1",
  "contractName": "ERC20Token",
  "sourceName": "contracts/ERC20Token.sol",
  "abi": [
    {
      "inputs": [
        {
          "internalType": "string",
          "name": "token_name",
          "type": "string"
        },
        {
          "internalType": "string",
          "name": "token_code",
          "type": "string"
        },
        {
          "internalType": "uint256",
          "name": "_initial_amount",
          "type": "uint256"
        },
        {
          "internalType": "address",
          "name": "owner",
          "type": "address"
        },
        {
          "internalType": "address[]",
          "name": "minters",
          "type": "address[]"
        },
        {
          "internalType": "contract MinimalForwarder",
          "name": "forwarder",
          "type": "address"
        }
      ],
      "stateMutability": "nonpayable",
      "type": "constructor"
    },
    {
      "anonymous": false,
      "inputs": [
        {
          "indexed": true,
          "internalType": "address",
          "name": "owner",
          "type": "address"
        },
        {
          "indexed": true,
          "internalType": "address",
          "name": "spender",
          "type": "address"
        },
        {
          "indexed": false,
          "internalType": "uint256",
          "name": "value",
          "type": "uint256"
        }
      ],
      "name": "Approval",
      "type": "event"
    },
    {
      "anonymous": false,
      "inputs": [
        {
          "indexed": true,
          "internalType": "address",
          "name": "previousOwner",
          "type": "address"
        },
        {
          "indexed": true,
          "internalType": "address",
          "name": "newOwner",
          "type": "address"
        }
      ],
      "name": "OwnershipTransferred",
      "type": "event"
    },
    {
      "anonymous": false,
      "inputs": [
        {
          "indexed": true,
          "internalType": "bytes32",
          "name": "role",
          "type": "bytes32"
        },
        {
          "indexed": true,
          "internalType": "bytes32",
          "name": "previousAdminRole",
          "type": "bytes32"
        },
        {
          "indexed": true,
          "internalType": "bytes32",
          "name": "newAdminRole",
          "type": "bytes32"
        }
      ],
      "name": "RoleAdminChanged",
      "type": "event"
    },
    {
      "anonymous": false,
      "inputs": [
        {
          "indexed": true,
          "internalType": "bytes32",
          "name": "role",
          "type": "bytes32"
        },
        {
          "indexed": true,
          "internalType": "address",
          "name": "account",
          "type": "address"
        },
        {
          "indexed": true,
          "internalType": "address",
          "name": "sender",
          "type": "address"
        }
      ],
      "name": "RoleGranted",
      "type": "event"
    },
    {
      "anonymous": false,
      "inputs": [
        {
          "indexed": true,
          "internalType": "bytes32",
          "name": "role",
          "type": "bytes32"
        },
        {
          "indexed": true,
          "internalType": "address",
          "name": "account",
          "type": "address"
        },
        {
          "indexed": true,
          "internalType": "address",
          "name": "sender",
          "type": "address"
        }
      ],
      "name": "RoleRevoked",
      "type": "event"
    },
    {
      "anonymous": false,
      "inputs": [
        {
          "indexed": true,
          "internalType": "address",
          "name": "from",
          "type": "address"
        },
        {
          "indexed": true,
          "internalType": "address",
          "name": "to",
          "type": "address"
        },
        {
          "indexed": false,
          "internalType": "uint256",
          "name": "value",
          "type": "uint256"
        }
      ],
      "name": "Transfer",
      "type": "event"
    },
    {
      "inputs": [],
      "name": "BURNER_ROLE",
      "outputs": [
        {
          "internalType": "bytes32",
          "name": "",
          "type": "bytes32"
        }
      ],
      "stateMutability": "view",
      "type": "function"
    },
    {
      "inputs": [],
      "name": "DEFAULT_ADMIN_ROLE",
      "outputs": [
        {
          "internalType": "bytes32",
          "name": "",
          "type": "bytes32"
        }
      ],
      "stateMutability": "view",
      "type": "function"
    },
    {
      "inputs": [],
      "name": "MINTER_ROLE",
      "outputs": [
        {
          "internalType": "bytes32",
          "name": "",
          "type": "bytes32"
        }
      ],
      "stateMutability": "view",
      "type": "function"
    },
    {
      "inputs": [],
      "name": "TRANSFER_ROLE",
      "outputs": [
        {
          "internalType": "bytes32",
          "name": "",
          "type": "bytes32"
        }
      ],
      "stateMutability": "view",
      "type": "function"
    },
    {
      "inputs": [
        {
          "internalType": "address[]",
          "name": "burners",
          "type": "address[]"
        }
      ],
      "name": "addBurners",
      "outputs": [],
      "stateMutability": "nonpayable",
      "type": "function"
    },
    {
      "inputs": [
        {
          "internalType": "address[]",
          "name": "minters",
          "type": "address[]"
        }
      ],
      "name": "addMinters",
      "outputs": [],
      "stateMutability": "nonpayable",
      "type": "function"
    },
    {
      "inputs": [
        {
          "internalType": "address",
          "name": "owner",
          "type": "address"
        },
        {
          "internalType": "address",
          "name": "spender",
          "type": "address"
        }
      ],
      "name": "allowance",
      "outputs": [
        {
          "internalType": "uint256",
          "name": "",
          "type": "uint256"
        }
      ],
      "stateMutability": "view",
      "type": "function"
    },
    {
      "inputs": [
        {
          "internalType": "address",
          "name": "spender",
          "type": "address"
        },
        {
          "internalType": "uint256",
          "name": "amount",
          "type": "uint256"
        }
      ],
      "name": "approve",
      "outputs": [
        {
          "internalType": "bool",
          "name": "",
          "type": "bool"
        }
      ],
      "stateMutability": "nonpayable",
      "type": "function"
    },
    {
      "inputs": [
        {
          "internalType": "address",
          "name": "account",
          "type": "address"
        }
      ],
      "name": "balanceOf",
      "outputs": [
        {
          "internalType": "uint256",
          "name": "",
          "type": "uint256"
        }
      ],
      "stateMutability": "view",
      "type": "function"
    },
    {
      "inputs": [
        {
          "internalType": "address",
          "name": "from",
          "type": "address"
        },
        {
          "internalType": "uint256",
          "name": "amount",
          "type": "uint256"
        }
      ],
      "name": "burn",
      "outputs": [],
      "stateMutability": "nonpayable",
      "type": "function"
    },
    {
      "inputs": [],
      "name": "decimals",
      "outputs": [
        {
          "internalType": "uint8",
          "name": "",
          "type": "uint8"
        }
      ],
      "stateMutability": "view",
      "type": "function"
    },
    {
      "inputs": [
        {
          "internalType": "address",
          "name": "spender",
          "type": "address"
        },
        {
          "internalType": "uint256",
          "name": "subtractedValue",
          "type": "uint256"
        }
      ],
      "name": "decreaseAllowance",
      "outputs": [
        {
          "internalType": "bool",
          "name": "",
          "type": "bool"
        }
      ],
      "stateMutability": "nonpayable",
      "type": "function"
    },
    {
      "inputs": [
        {
          "internalType": "bytes32",
          "name": "role",
          "type": "bytes32"
        }
      ],
      "name": "getRoleAdmin",
      "outputs": [
        {
          "internalType": "bytes32",
          "name": "",
          "type": "bytes32"
        }
      ],
      "stateMutability": "view",
      "type": "function"
    },
    {
      "inputs": [
        {
          "internalType": "bytes32",
          "name": "role",
          "type": "bytes32"
        },
        {
          "internalType": "address",
          "name": "account",
          "type": "address"
        }
      ],
      "name": "grantRole",
      "outputs": [],
      "stateMutability": "nonpayable",
      "type": "function"
    },
    {
      "inputs": [],
      "name": "hasBurnerRole",
      "outputs": [
        {
          "internalType": "bool",
          "name": "",
          "type": "bool"
        }
      ],
      "stateMutability": "view",
      "type": "function"
    },
    {
      "inputs": [],
      "name": "hasMinterRole",
      "outputs": [
        {
          "internalType": "bool",
          "name": "",
          "type": "bool"
        }
      ],
      "stateMutability": "view",
      "type": "function"
    },
    {
      "inputs": [
        {
          "internalType": "bytes32",
          "name": "role",
          "type": "bytes32"
        },
        {
          "internalType": "address",
          "name": "account",
          "type": "address"
        }
      ],
      "name": "hasRole",
      "outputs": [
        {
          "internalType": "bool",
          "name": "",
          "type": "bool"
        }
      ],
      "stateMutability": "view",
      "type": "function"
    },
    {
      "inputs": [
        {
          "internalType": "address",
          "name": "spender",
          "type": "address"
        },
        {
          "internalType": "uint256",
          "name": "addedValue",
          "type": "uint256"
        }
      ],
      "name": "increaseAllowance",
      "outputs": [
        {
          "internalType": "bool",
          "name": "",
          "type": "bool"
        }
      ],
      "stateMutability": "nonpayable",
      "type": "function"
    },
    {
      "inputs": [],
      "name": "isOwner",
      "outputs": [
        {
          "internalType": "bool",
          "name": "",
          "type": "bool"
        }
      ],
      "stateMutability": "view",
      "type": "function"
    },
    {
      "inputs": [
        {
          "internalType": "address",
          "name": "forwarder",
          "type": "address"
        }
      ],
      "name": "isTrustedForwarder",
      "outputs": [
        {
          "internalType": "bool",
          "name": "",
          "type": "bool"
        }
      ],
      "stateMutability": "view",
      "type": "function"
    },
    {
      "inputs": [
        {
          "internalType": "uint256",
          "name": "amount",
          "type": "uint256"
        }
      ],
      "name": "mint",
      "outputs": [],
      "stateMutability": "nonpayable",
      "type": "function"
    },
    {
      "inputs": [],
      "name": "name",
      "outputs": [
        {
          "internalType": "string",
          "name": "",
          "type": "string"
        }
      ],
      "stateMutability": "view",
      "type": "function"
    },
    {
      "inputs": [],
      "name": "owner",
      "outputs": [
        {
          "internalType": "address",
          "name": "",
          "type": "address"
        }
      ],
      "stateMutability": "view",
      "type": "function"
    },
    {
      "inputs": [
        {
          "internalType": "address[]",
          "name": "burners",
          "type": "address[]"
        }
      ],
      "name": "removeBurners",
      "outputs": [],
      "stateMutability": "nonpayable",
      "type": "function"
    },
    {
      "inputs": [
        {
          "internalType": "address[]",
          "name": "minters",
          "type": "address[]"
        }
      ],
      "name": "removeMinters",
      "outputs": [],
      "stateMutability": "nonpayable",
      "type": "function"
    },
    {
      "inputs": [],
      "name": "renounceOwnership",
      "outputs": [],
      "stateMutability": "nonpayable",
      "type": "function"
    },
    {
      "inputs": [
        {
          "internalType": "bytes32",
          "name": "role",
          "type": "bytes32"
        },
        {
          "internalType": "address",
          "name": "account",
          "type": "address"
        }
      ],
      "name": "renounceRole",
      "outputs": [],
      "stateMutability": "nonpayable",
      "type": "function"
    },
    {
      "inputs": [
        {
          "internalType": "bytes32",
          "name": "role",
          "type": "bytes32"
        },
        {
          "internalType": "address",
          "name": "account",
          "type": "address"
        }
      ],
      "name": "revokeRole",
      "outputs": [],
      "stateMutability": "nonpayable",
      "type": "function"
    },
    {
      "inputs": [
        {
          "internalType": "bytes4",
          "name": "interfaceId",
          "type": "bytes4"
        }
      ],
      "name": "supportsInterface",
      "outputs": [
        {
          "internalType": "bool",
          "name": "",
          "type": "bool"
        }
      ],
      "stateMutability": "view",
      "type": "function"
    },
    {
      "inputs": [],
      "name": "symbol",
      "outputs": [
        {
          "internalType": "string",
          "name": "",
          "type": "string"
        }
      ],
      "stateMutability": "view",
      "type": "function"
    },
    {
      "inputs": [],
      "name": "totalSupply",
      "outputs": [
        {
          "internalType": "uint256",
          "name": "",
          "type": "uint256"
        }
      ],
      "stateMutability": "view",
      "type": "function"
    },
    {
      "inputs": [
        {
          "internalType": "address",
          "name": "to",
          "type": "address"
        },
        {
          "internalType": "uint256",
          "name": "amount",
          "type": "uint256"
        }
      ],
      "name": "transfer",
      "outputs": [
        {
          "internalType": "bool",
          "name": "",
          "type": "bool"
        }
      ],
      "stateMutability": "nonpayable",
      "type": "function"
    },
    {
      "inputs": [
        {
          "internalType": "address",
          "name": "from",
          "type": "address"
        },
        {
          "internalType": "address",
          "name": "to",
          "type": "address"
        },
        {
          "internalType": "uint256",
          "name": "amount",
          "type": "uint256"
        }
      ],
      "name": "transferFrom",
      "outputs": [
        {
          "internalType": "bool",
          "name": "",
          "type": "bool"
        }
      ],
      "stateMutability": "nonpayable",
      "type": "function"
    },
    {
      "inputs": [
        {
          "internalType": "address",
          "name": "newOwner",
          "type": "address"
        }
      ],
      "name": "transferOwnership",
      "outputs": [],
      "stateMutability": "nonpayable",
      "type": "function"
    }
  ],
  "bytecode": "0x60a06040523480156200001157600080fd5b506040516200467438038062004674833981810160405281019062000037919062001075565b8585828073ffffffffffffffffffffffffffffffffffffffff1660808173ffffffffffffffffffffffffffffffffffffffff1681525050506200008f620000836200031860201b60201c565b6200033460201b60201c565b8160049080519060200190620000a792919062000c68565b508060059080519060200190620000c092919062000c68565b505050600084905083600760006101000a81548173ffffffffffffffffffffffffffffffffffffffff021916908373ffffffffffffffffffffffffffffffffffffffff1602179055506200011a84620003f860201b60201c565b6200012c84826200048f60201b60201c565b620001416000801b856200060960201b60201c565b620001737f9f2df0fed2c77648de5860a4cc508cd0818c85b8b8a1ab4ceeef8d981c8956a6856200060960201b60201c565b620001a57f3c11d16cbaffd01df69ce1c404f6340ee057498f5f00246190ea54220576a848856200060960201b60201c565b620001d77f8502233096d909befbda0999bb8ea2f3a6be3c138b9fbf003752a4c8bce86f6c856200060960201b60201c565b620002187f9f2df0fed2c77648de5860a4cc508cd0818c85b8b8a1ab4ceeef8d981c8956a66200020c6200031860201b60201c565b6200060960201b60201c565b620002597f3c11d16cbaffd01df69ce1c404f6340ee057498f5f00246190ea54220576a8486200024d6200031860201b60201c565b6200060960201b60201c565b6200029a7f8502233096d909befbda0999bb8ea2f3a6be3c138b9fbf003752a4c8bce86f6c6200028e6200031860201b60201c565b6200060960201b60201c565b60005b83518110156200030a57620002f67f9f2df0fed2c77648de5860a4cc508cd0818c85b8b8a1ab4ceeef8d981c8956a6858381518110620002e257620002e16200116e565b5b60200260200101516200061f60201b60201c565b806200030290620011cc565b90506200029d565b50505050505050506200172d565b60006200032f6200065860201b6200105f1760201c565b905090565b60008060009054906101000a900473ffffffffffffffffffffffffffffffffffffffff169050816000806101000a81548173ffffffffffffffffffffffffffffffffffffffff021916908373ffffffffffffffffffffffffffffffffffffffff1602179055508173ffffffffffffffffffffffffffffffffffffffff168173ffffffffffffffffffffffffffffffffffffffff167f8be0079c531659141344cd1fd0a4f28419497f9722a3daafe3b4186f6b6457e060405160405180910390a35050565b62000408620006a260201b60201c565b600073ffffffffffffffffffffffffffffffffffffffff168173ffffffffffffffffffffffffffffffffffffffff1614156200047b576040517f08c379a00000000000000000000000000000000000000000000000000000000081526004016200047290620012a1565b60405180910390fd5b6200048c816200033460201b60201c565b50565b600073ffffffffffffffffffffffffffffffffffffffff168273ffffffffffffffffffffffffffffffffffffffff16141562000502576040517f08c379a0000000000000000000000000000000000000000000000000000000008152600401620004f99062001313565b60405180910390fd5b62000516600083836200073360201b60201c565b80600360008282546200052a919062001335565b9250508190555080600160008473ffffffffffffffffffffffffffffffffffffffff1673ffffffffffffffffffffffffffffffffffffffff168152602001908152602001600020600082825462000582919062001335565b925050819055508173ffffffffffffffffffffffffffffffffffffffff16600073ffffffffffffffffffffffffffffffffffffffff167fddf252ad1be2c89b69c2b068fc378daa952ba7f163c4a11628f55a4df523b3ef83604051620005e99190620013a3565b60405180910390a362000605600083836200073860201b60201c565b5050565b6200061b82826200073d60201b60201c565b5050565b62000630826200082f60201b60201c565b62000641816200084f60201b60201c565b6200065383836200073d60201b60201c565b505050565b60006200066b336200087360201b60201c565b156200068157601436033560601c90506200069e565b62000696620008ad60201b620010911760201c565b90506200069f565b5b90565b620006b26200031860201b60201c565b73ffffffffffffffffffffffffffffffffffffffff16620006d8620008b560201b60201c565b73ffffffffffffffffffffffffffffffffffffffff161462000731576040517f08c379a0000000000000000000000000000000000000000000000000000000008152600401620007289062001410565b60405180910390fd5b565b505050565b505050565b6200074f8282620008de60201b60201c565b6200082b5760016006600084815260200190815260200160002060000160008373ffffffffffffffffffffffffffffffffffffffff1673ffffffffffffffffffffffffffffffffffffffff16815260200190815260200160002060006101000a81548160ff021916908315150217905550620007d06200031860201b60201c565b73ffffffffffffffffffffffffffffffffffffffff168173ffffffffffffffffffffffffffffffffffffffff16837f2f8788117e7eff1d82e926ec794901d17c78024a50270940304540a733656f0d60405160405180910390a45b5050565b600060066000838152602001908152602001600020600101549050919050565b6200087081620008646200031860201b60201c565b6200094960201b60201c565b50565b600060805173ffffffffffffffffffffffffffffffffffffffff168273ffffffffffffffffffffffffffffffffffffffff16149050919050565b600033905090565b60008060009054906101000a900473ffffffffffffffffffffffffffffffffffffffff16905090565b60006006600084815260200190815260200160002060000160008373ffffffffffffffffffffffffffffffffffffffff1673ffffffffffffffffffffffffffffffffffffffff16815260200190815260200160002060009054906101000a900460ff16905092915050565b6200095b8282620008de60201b60201c565b62000a09576200098e8173ffffffffffffffffffffffffffffffffffffffff16601462000a0d60201b620010991760201c565b620009a98360001c602062000a0d60201b620010991760201c565b604051602001620009bc9291906200151f565b6040516020818303038152906040526040517f08c379a000000000000000000000000000000000000000000000000000000000815260040162000a009190620015a2565b60405180910390fd5b5050565b60606000600283600262000a229190620015c6565b62000a2e919062001335565b67ffffffffffffffff81111562000a4a5762000a4962000d47565b5b6040519080825280601f01601f19166020018201604052801562000a7d5781602001600182028036833780820191505090505b5090507f30000000000000000000000000000000000000000000000000000000000000008160008151811062000ab85762000ab76200116e565b5b60200101907effffffffffffffffffffffffffffffffffffffffffffffffffffffffffffff1916908160001a9053507f78000000000000000000000000000000000000000000000000000000000000008160018151811062000b1f5762000b1e6200116e565b5b60200101907effffffffffffffffffffffffffffffffffffffffffffffffffffffffffffff1916908160001a9053506000600184600262000b619190620015c6565b62000b6d919062001335565b90505b600181111562000c17577f3031323334353637383961626364656600000000000000000000000000000000600f86166010811062000bb35762000bb26200116e565b5b1a60f81b82828151811062000bcd5762000bcc6200116e565b5b60200101907effffffffffffffffffffffffffffffffffffffffffffffffffffffffffffff1916908160001a905350600485901c94508062000c0f9062001627565b905062000b70565b506000841462000c5e576040517f08c379a000000000000000000000000000000000000000000000000000000000815260040162000c5590620016a6565b60405180910390fd5b8091505092915050565b82805462000c7690620016f7565b90600052602060002090601f01602090048101928262000c9a576000855562000ce6565b82601f1062000cb557805160ff191683800117855562000ce6565b8280016001018555821562000ce6579182015b8281111562000ce557825182559160200191906001019062000cc8565b5b50905062000cf5919062000cf9565b5090565b5b8082111562000d1457600081600090555060010162000cfa565b5090565b6000604051905090565b600080fd5b600080fd5b600080fd5b600080fd5b6000601f19601f8301169050919050565b7f4e487b7100000000000000000000000000000000000000000000000000000000600052604160045260246000fd5b62000d818262000d36565b810181811067ffffffffffffffff8211171562000da35762000da262000d47565b5b80604052505050565b600062000db862000d18565b905062000dc6828262000d76565b919050565b600067ffffffffffffffff82111562000de95762000de862000d47565b5b62000df48262000d36565b9050602081019050919050565b60005b8381101562000e2157808201518184015260208101905062000e04565b8381111562000e31576000848401525b50505050565b600062000e4e62000e488462000dcb565b62000dac565b90508281526020810184848401111562000e6d5762000e6c62000d31565b5b62000e7a84828562000e01565b509392505050565b600082601f83011262000e9a5762000e9962000d2c565b5b815162000eac84826020860162000e37565b91505092915050565b6000819050919050565b62000eca8162000eb5565b811462000ed657600080fd5b50565b60008151905062000eea8162000ebf565b92915050565b600073ffffffffffffffffffffffffffffffffffffffff82169050919050565b600062000f1d8262000ef0565b9050919050565b62000f2f8162000f10565b811462000f3b57600080fd5b50565b60008151905062000f4f8162000f24565b92915050565b600067ffffffffffffffff82111562000f735762000f7262000d47565b5b602082029050602081019050919050565b600080fd5b600062000fa062000f9a8462000f55565b62000dac565b9050808382526020820190506020840283018581111562000fc65762000fc562000f84565b5b835b8181101562000ff3578062000fde888262000f3e565b84526020840193505060208101905062000fc8565b5050509392505050565b600082601f83011262001015576200101462000d2c565b5b81516200102784826020860162000f89565b91505092915050565b60006200103d8262000f10565b9050919050565b6200104f8162001030565b81146200105b57600080fd5b50565b6000815190506200106f8162001044565b92915050565b60008060008060008060c0878903121562001095576200109462000d22565b5b600087015167ffffffffffffffff811115620010b657620010b562000d27565b5b620010c489828a0162000e82565b965050602087015167ffffffffffffffff811115620010e857620010e762000d27565b5b620010f689828a0162000e82565b95505060406200110989828a0162000ed9565b94505060606200111c89828a0162000f3e565b935050608087015167ffffffffffffffff81111562001140576200113f62000d27565b5b6200114e89828a0162000ffd565b92505060a06200116189828a016200105e565b9150509295509295509295565b7f4e487b7100000000000000000000000000000000000000000000000000000000600052603260045260246000fd5b7f4e487b7100000000000000000000000000000000000000000000000000000000600052601160045260246000fd5b6000620011d98262000eb5565b91507fffffffffffffffffffffffffffffffffffffffffffffffffffffffffffffffff8214156200120f576200120e6200119d565b5b600182019050919050565b600082825260208201905092915050565b7f4f776e61626c653a206e6577206f776e657220697320746865207a65726f206160008201527f6464726573730000000000000000000000000000000000000000000000000000602082015250565b6000620012896026836200121a565b915062001296826200122b565b604082019050919050565b60006020820190508181036000830152620012bc816200127a565b9050919050565b7f45524332303a206d696e7420746f20746865207a65726f206164647265737300600082015250565b6000620012fb601f836200121a565b91506200130882620012c3565b602082019050919050565b600060208201905081810360008301526200132e81620012ec565b9050919050565b6000620013428262000eb5565b91506200134f8362000eb5565b9250827fffffffffffffffffffffffffffffffffffffffffffffffffffffffffffffffff038211156200138757620013866200119d565b5b828201905092915050565b6200139d8162000eb5565b82525050565b6000602082019050620013ba600083018462001392565b92915050565b7f4f776e61626c653a2063616c6c6572206973206e6f7420746865206f776e6572600082015250565b6000620013f86020836200121a565b91506200140582620013c0565b602082019050919050565b600060208201905081810360008301526200142b81620013e9565b9050919050565b600081905092915050565b7f416363657373436f6e74726f6c3a206163636f756e7420000000000000000000600082015250565b60006200147560178362001432565b915062001482826200143d565b601782019050919050565b600081519050919050565b6000620014a5826200148d565b620014b1818562001432565b9350620014c381856020860162000e01565b80840191505092915050565b7f206973206d697373696e6720726f6c6520000000000000000000000000000000600082015250565b60006200150760118362001432565b91506200151482620014cf565b601182019050919050565b60006200152c8262001466565b91506200153a828562001498565b91506200154782620014f8565b915062001555828462001498565b91508190509392505050565b60006200156e826200148d565b6200157a81856200121a565b93506200158c81856020860162000e01565b620015978162000d36565b840191505092915050565b60006020820190508181036000830152620015be818462001561565b905092915050565b6000620015d38262000eb5565b9150620015e08362000eb5565b9250817fffffffffffffffffffffffffffffffffffffffffffffffffffffffffffffffff04831182151516156200161c576200161b6200119d565b5b828202905092915050565b6000620016348262000eb5565b915060008214156200164b576200164a6200119d565b5b600182039050919050565b7f537472696e67733a20686578206c656e67746820696e73756666696369656e74600082015250565b60006200168e6020836200121a565b91506200169b8262001656565b602082019050919050565b60006020820190508181036000830152620016c1816200167f565b9050919050565b7f4e487b7100000000000000000000000000000000000000000000000000000000600052602260045260246000fd5b600060028204905060018216806200171057607f821691505b60208210811415620017275762001726620016c8565b5b50919050565b608051612f2b620017496000396000610a390152612f2b6000f3fe608060405234801561001057600080fd5b50600436106102065760003560e01c8063715018a61161011a578063a0712d68116100ad578063d53913931161007c578063d539139314610603578063d547741f14610621578063dd62ed3e1461063d578063e47d419b1461066d578063f2fde38b1461068957610206565b8063a0712d6814610569578063a217fddf14610585578063a457c2d7146105a3578063a9059cbb146105d357610206565b80638f32d59b116100e95780638f32d59b146104e157806391d14854146104ff57806395d89b411461052f5780639dc29fac1461054d57610206565b8063715018a61461047f57806371e2a65714610489578063745fffbe146104a55780638da5cb5b146104c357610206565b8063282c51f31161019d578063395093511161016c57806339509351146103b75780633ab84dd9146103e7578063572b6c05146104035780635fc1964f1461043357806370a082311461044f57610206565b8063282c51f3146103435780632f2ff15d14610361578063313ce5671461037d57806336568abe1461039b57610206565b806318160ddd116101d957806318160ddd146102a7578063206b60f9146102c557806323b872dd146102e3578063248a9ca31461031357610206565b806301ffc9a71461020b57806306fdde031461023b578063095ea7b3146102595780631592b60714610289575b600080fd5b61022560048036038101906102209190611f11565b6106a5565b6040516102329190611f59565b60405180910390f35b61024361071f565b604051610250919061200d565b60405180910390f35b610273600480360381019061026e91906120c3565b6107b1565b6040516102809190611f59565b60405180910390f35b6102916107d4565b60405161029e9190611f59565b60405180910390f35b6102af61080c565b6040516102bc9190612112565b60405180910390f35b6102cd610816565b6040516102da9190612146565b60405180910390f35b6102fd60048036038101906102f89190612161565b61083a565b60405161030a9190611f59565b60405180910390f35b61032d600480360381019061032891906121e0565b61087d565b60405161033a9190612146565b60405180910390f35b61034b61089d565b6040516103589190612146565b60405180910390f35b61037b6004803603810190610376919061220d565b6108c1565b005b6103856108e2565b6040516103929190612269565b60405180910390f35b6103b560048036038101906103b0919061220d565b6108eb565b005b6103d160048036038101906103cc91906120c3565b61096e565b6040516103de9190611f59565b60405180910390f35b61040160048036038101906103fc91906123cc565b6109a5565b005b61041d60048036038101906104189190612415565b610a35565b60405161042a9190611f59565b60405180910390f35b61044d600480360381019061044891906123cc565b610a8d565b005b61046960048036038101906104649190612415565b610afa565b6040516104769190612112565b60405180910390f35b610487610b43565b005b6104a3600480360381019061049e91906123cc565b610b57565b005b6104ad610be7565b6040516104ba9190611f59565b60405180910390f35b6104cb610c1f565b6040516104d89190612451565b60405180910390f35b6104e9610c48565b6040516104f69190611f59565b60405180910390f35b6105196004803603810190610514919061220d565b610c8c565b6040516105269190611f59565b60405180910390f35b610537610cf7565b604051610544919061200d565b60405180910390f35b610567600480360381019061056291906120c3565b610d89565b005b610583600480360381019061057e919061246c565b610dc2565b005b61058d610e01565b60405161059a9190612146565b60405180910390f35b6105bd60048036038101906105b891906120c3565b610e08565b6040516105ca9190611f59565b60405180910390f35b6105ed60048036038101906105e891906120c3565b610e7f565b6040516105fa9190611f59565b60405180910390f35b61060b610ea2565b6040516106189190612146565b60405180910390f35b61063b6004803603810190610636919061220d565b610ec6565b005b61065760048036038101906106529190612499565b610ee7565b6040516106649190612112565b60405180910390f35b610687600480360381019061068291906123cc565b610f6e565b005b6106a3600480360381019061069e9190612415565b610fdb565b005b60007f7965db0b000000000000000000000000000000000000000000000000000000007bffffffffffffffffffffffffffffffffffffffffffffffffffffffff1916827bffffffffffffffffffffffffffffffffffffffffffffffffffffffff191614806107185750610717826112d5565b5b9050919050565b60606004805461072e90612508565b80601f016020809104026020016040519081016040528092919081815260200182805461075a90612508565b80156107a75780601f1061077c576101008083540402835291602001916107a7565b820191906000526020600020905b81548152906001019060200180831161078a57829003601f168201915b5050505050905090565b6000806107bc61133f565b90506107c981858561134e565b600191505092915050565b60006108077f9f2df0fed2c77648de5860a4cc508cd0818c85b8b8a1ab4ceeef8d981c8956a661080261133f565b610c8c565b905090565b6000600354905090565b7f8502233096d909befbda0999bb8ea2f3a6be3c138b9fbf003752a4c8bce86f6c81565b60007f8502233096d909befbda0999bb8ea2f3a6be3c138b9fbf003752a4c8bce86f6c61086681611519565b61087185858561152d565b60019150509392505050565b600060066000838152602001908152602001600020600101549050919050565b7f3c11d16cbaffd01df69ce1c404f6340ee057498f5f00246190ea54220576a84881565b6108ca8261087d565b6108d381611519565b6108dd83836117b1565b505050565b60006012905090565b6108f361133f565b73ffffffffffffffffffffffffffffffffffffffff168173ffffffffffffffffffffffffffffffffffffffff1614610960576040517f08c379a0000000000000000000000000000000000000000000000000000000008152600401610957906125ac565b60405180910390fd5b61096a8282611892565b5050565b60008061097961133f565b905061099a81858561098b8589610ee7565b61099591906125fb565b61134e565b600191505092915050565b7f3c11d16cbaffd01df69ce1c404f6340ee057498f5f00246190ea54220576a8486109cf81611519565b60005b8251811015610a3057610a1f7f3c11d16cbaffd01df69ce1c404f6340ee057498f5f00246190ea54220576a848848381518110610a1257610a11612651565b5b6020026020010151611974565b80610a2990612680565b90506109d2565b505050565b60007f000000000000000000000000000000000000000000000000000000000000000073ffffffffffffffffffffffffffffffffffffffff168273ffffffffffffffffffffffffffffffffffffffff16149050919050565b610a95611982565b60005b8151811015610af657610ae57f9f2df0fed2c77648de5860a4cc508cd0818c85b8b8a1ab4ceeef8d981c8956a6838381518110610ad857610ad7612651565b5b6020026020010151610ec6565b80610aef90612680565b9050610a98565b5050565b6000600160008373ffffffffffffffffffffffffffffffffffffffff1673ffffffffffffffffffffffffffffffffffffffff168152602001908152602001600020549050919050565b610b4b611982565b610b556000611a00565b565b7f9f2df0fed2c77648de5860a4cc508cd0818c85b8b8a1ab4ceeef8d981c8956a6610b8181611519565b60005b8251811015610be257610bd17f9f2df0fed2c77648de5860a4cc508cd0818c85b8b8a1ab4ceeef8d981c8956a6848381518110610bc457610bc3612651565b5b6020026020010151611974565b80610bdb90612680565b9050610b84565b505050565b6000610c1a7f3c11d16cbaffd01df69ce1c404f6340ee057498f5f00246190ea54220576a848610c1561133f565b610c8c565b905090565b60008060009054906101000a900473ffffffffffffffffffffffffffffffffffffffff16905090565b6000610c5261133f565b73ffffffffffffffffffffffffffffffffffffffff16610c70610c1f565b73ffffffffffffffffffffffffffffffffffffffff1614905090565b60006006600084815260200190815260200160002060000160008373ffffffffffffffffffffffffffffffffffffffff1673ffffffffffffffffffffffffffffffffffffffff16815260200190815260200160002060009054906101000a900460ff16905092915050565b606060058054610d0690612508565b80601f0160208091040260200160405190810160405280929190818152602001828054610d3290612508565b8015610d7f5780601f10610d5457610100808354040283529160200191610d7f565b820191906000526020600020905b815481529060010190602001808311610d6257829003601f168201915b5050505050905090565b7f3c11d16cbaffd01df69ce1c404f6340ee057498f5f00246190ea54220576a848610db381611519565b610dbd8383611ac4565b505050565b7f9f2df0fed2c77648de5860a4cc508cd0818c85b8b8a1ab4ceeef8d981c8956a6610dec81611519565b610dfd610df761133f565b83611c9d565b5050565b6000801b81565b600080610e1361133f565b90506000610e218286610ee7565b905083811015610e66576040517f08c379a0000000000000000000000000000000000000000000000000000000008152600401610e5d9061273b565b60405180910390fd5b610e73828686840361134e565b60019250505092915050565b600080610e8a61133f565b9050610e9781858561152d565b600191505092915050565b7f9f2df0fed2c77648de5860a4cc508cd0818c85b8b8a1ab4ceeef8d981c8956a681565b610ecf8261087d565b610ed881611519565b610ee28383611892565b505050565b6000600260008473ffffffffffffffffffffffffffffffffffffffff1673ffffffffffffffffffffffffffffffffffffffff16815260200190815260200160002060008373ffffffffffffffffffffffffffffffffffffffff1673ffffffffffffffffffffffffffffffffffffffff16815260200190815260200160002054905092915050565b610f76611982565b60005b8151811015610fd757610fc67f3c11d16cbaffd01df69ce1c404f6340ee057498f5f00246190ea54220576a848838381518110610fb957610fb8612651565b5b6020026020010151610ec6565b80610fd090612680565b9050610f79565b5050565b610fe3611982565b600073ffffffffffffffffffffffffffffffffffffffff168173ffffffffffffffffffffffffffffffffffffffff161415611053576040517f08c379a000000000000000000000000000000000000000000000000000000000815260040161104a906127cd565b60405180910390fd5b61105c81611a00565b50565b600061106a33610a35565b1561107e57601436033560601c905061108d565b611086611091565b905061108e565b5b90565b600033905090565b6060600060028360026110ac91906127ed565b6110b691906125fb565b67ffffffffffffffff8111156110cf576110ce612289565b5b6040519080825280601f01601f1916602001820160405280156111015781602001600182028036833780820191505090505b5090507f30000000000000000000000000000000000000000000000000000000000000008160008151811061113957611138612651565b5b60200101907effffffffffffffffffffffffffffffffffffffffffffffffffffffffffffff1916908160001a9053507f78000000000000000000000000000000000000000000000000000000000000008160018151811061119d5761119c612651565b5b60200101907effffffffffffffffffffffffffffffffffffffffffffffffffffffffffffff1916908160001a905350600060018460026111dd91906127ed565b6111e791906125fb565b90505b6001811115611287577f3031323334353637383961626364656600000000000000000000000000000000600f86166010811061122957611228612651565b5b1a60f81b8282815181106112405761123f612651565b5b60200101907effffffffffffffffffffffffffffffffffffffffffffffffffffffffffffff1916908160001a905350600485901c94508061128090612847565b90506111ea565b50600084146112cb576040517f08c379a00000000000000000000000000000000000000000000000000000000081526004016112c2906128bd565b60405180910390fd5b8091505092915050565b60007f01ffc9a7000000000000000000000000000000000000000000000000000000007bffffffffffffffffffffffffffffffffffffffffffffffffffffffff1916827bffffffffffffffffffffffffffffffffffffffffffffffffffffffff1916149050919050565b600061134961105f565b905090565b600073ffffffffffffffffffffffffffffffffffffffff168373ffffffffffffffffffffffffffffffffffffffff1614156113be576040517f08c379a00000000000000000000000000000000000000000000000000000000081526004016113b59061294f565b60405180910390fd5b600073ffffffffffffffffffffffffffffffffffffffff168273ffffffffffffffffffffffffffffffffffffffff16141561142e576040517f08c379a0000000000000000000000000000000000000000000000000000000008152600401611425906129e1565b60405180910390fd5b80600260008573ffffffffffffffffffffffffffffffffffffffff1673ffffffffffffffffffffffffffffffffffffffff16815260200190815260200160002060008473ffffffffffffffffffffffffffffffffffffffff1673ffffffffffffffffffffffffffffffffffffffff168152602001908152602001600020819055508173ffffffffffffffffffffffffffffffffffffffff168373ffffffffffffffffffffffffffffffffffffffff167f8c5be1e5ebec7d5bd14f71427d1e84f3dd0314c0f7b2291e5b200ac8c7c3b9258360405161150c9190612112565b60405180910390a3505050565b61152a8161152561133f565b611dfe565b50565b600073ffffffffffffffffffffffffffffffffffffffff168373ffffffffffffffffffffffffffffffffffffffff16141561159d576040517f08c379a000000000000000000000000000000000000000000000000000000000815260040161159490612a73565b60405180910390fd5b600073ffffffffffffffffffffffffffffffffffffffff168273ffffffffffffffffffffffffffffffffffffffff16141561160d576040517f08c379a000000000000000000000000000000000000000000000000000000000815260040161160490612b05565b60405180910390fd5b611618838383611e9b565b6000600160008573ffffffffffffffffffffffffffffffffffffffff1673ffffffffffffffffffffffffffffffffffffffff1681526020019081526020016000205490508181101561169f576040517f08c379a000000000000000000000000000000000000000000000000000000000815260040161169690612b97565b60405180910390fd5b818103600160008673ffffffffffffffffffffffffffffffffffffffff1673ffffffffffffffffffffffffffffffffffffffff1681526020019081526020016000208190555081600160008573ffffffffffffffffffffffffffffffffffffffff1673ffffffffffffffffffffffffffffffffffffffff168152602001908152602001600020600082825461173491906125fb565b925050819055508273ffffffffffffffffffffffffffffffffffffffff168473ffffffffffffffffffffffffffffffffffffffff167fddf252ad1be2c89b69c2b068fc378daa952ba7f163c4a11628f55a4df523b3ef846040516117989190612112565b60405180910390a36117ab848484611ea0565b50505050565b6117bb8282610c8c565b61188e5760016006600084815260200190815260200160002060000160008373ffffffffffffffffffffffffffffffffffffffff1673ffffffffffffffffffffffffffffffffffffffff16815260200190815260200160002060006101000a81548160ff02191690831515021790555061183361133f565b73ffffffffffffffffffffffffffffffffffffffff168173ffffffffffffffffffffffffffffffffffffffff16837f2f8788117e7eff1d82e926ec794901d17c78024a50270940304540a733656f0d60405160405180910390a45b5050565b61189c8282610c8c565b156119705760006006600084815260200190815260200160002060000160008373ffffffffffffffffffffffffffffffffffffffff1673ffffffffffffffffffffffffffffffffffffffff16815260200190815260200160002060006101000a81548160ff02191690831515021790555061191561133f565b73ffffffffffffffffffffffffffffffffffffffff168173ffffffffffffffffffffffffffffffffffffffff16837ff6391f5c32d9c69d2a47ea670b442974b53935d1edc7fd64eb21e047a839171b60405160405180910390a45b5050565b61197e82826117b1565b5050565b61198a61133f565b73ffffffffffffffffffffffffffffffffffffffff166119a8610c1f565b73ffffffffffffffffffffffffffffffffffffffff16146119fe576040517f08c379a00000000000000000000000000000000000000000000000000000000081526004016119f590612c03565b60405180910390fd5b565b60008060009054906101000a900473ffffffffffffffffffffffffffffffffffffffff169050816000806101000a81548173ffffffffffffffffffffffffffffffffffffffff021916908373ffffffffffffffffffffffffffffffffffffffff1602179055508173ffffffffffffffffffffffffffffffffffffffff168173ffffffffffffffffffffffffffffffffffffffff167f8be0079c531659141344cd1fd0a4f28419497f9722a3daafe3b4186f6b6457e060405160405180910390a35050565b600073ffffffffffffffffffffffffffffffffffffffff168273ffffffffffffffffffffffffffffffffffffffff161415611b34576040517f08c379a0000000000000000000000000000000000000000000000000000000008152600401611b2b90612c95565b60405180910390fd5b611b4082600083611e9b565b6000600160008473ffffffffffffffffffffffffffffffffffffffff1673ffffffffffffffffffffffffffffffffffffffff16815260200190815260200160002054905081811015611bc7576040517f08c379a0000000000000000000000000000000000000000000000000000000008152600401611bbe90612d27565b60405180910390fd5b818103600160008573ffffffffffffffffffffffffffffffffffffffff1673ffffffffffffffffffffffffffffffffffffffff168152602001908152602001600020819055508160036000828254611c1f9190612d47565b92505081905550600073ffffffffffffffffffffffffffffffffffffffff168373ffffffffffffffffffffffffffffffffffffffff167fddf252ad1be2c89b69c2b068fc378daa952ba7f163c4a11628f55a4df523b3ef84604051611c849190612112565b60405180910390a3611c9883600084611ea0565b505050565b600073ffffffffffffffffffffffffffffffffffffffff168273ffffffffffffffffffffffffffffffffffffffff161415611d0d576040517f08c379a0000000000000000000000000000000000000000000000000000000008152600401611d0490612dc7565b60405180910390fd5b611d1960008383611e9b565b8060036000828254611d2b91906125fb565b9250508190555080600160008473ffffffffffffffffffffffffffffffffffffffff1673ffffffffffffffffffffffffffffffffffffffff1681526020019081526020016000206000828254611d8191906125fb565b925050819055508173ffffffffffffffffffffffffffffffffffffffff16600073ffffffffffffffffffffffffffffffffffffffff167fddf252ad1be2c89b69c2b068fc378daa952ba7f163c4a11628f55a4df523b3ef83604051611de69190612112565b60405180910390a3611dfa60008383611ea0565b5050565b611e088282610c8c565b611e9757611e2d8173ffffffffffffffffffffffffffffffffffffffff166014611099565b611e3b8360001c6020611099565b604051602001611e4c929190612ebb565b6040516020818303038152906040526040517f08c379a0000000000000000000000000000000000000000000000000000000008152600401611e8e919061200d565b60405180910390fd5b5050565b505050565b505050565b6000604051905090565b600080fd5b600080fd5b60007fffffffff0000000000000000000000000000000000000000000000000000000082169050919050565b611eee81611eb9565b8114611ef957600080fd5b50565b600081359050611f0b81611ee5565b92915050565b600060208284031215611f2757611f26611eaf565b5b6000611f3584828501611efc565b91505092915050565b60008115159050919050565b611f5381611f3e565b82525050565b6000602082019050611f6e6000830184611f4a565b92915050565b600081519050919050565b600082825260208201905092915050565b60005b83811015611fae578082015181840152602081019050611f93565b83811115611fbd576000848401525b50505050565b6000601f19601f8301169050919050565b6000611fdf82611f74565b611fe98185611f7f565b9350611ff9818560208601611f90565b61200281611fc3565b840191505092915050565b600060208201905081810360008301526120278184611fd4565b905092915050565b600073ffffffffffffffffffffffffffffffffffffffff82169050919050565b600061205a8261202f565b9050919050565b61206a8161204f565b811461207557600080fd5b50565b60008135905061208781612061565b92915050565b6000819050919050565b6120a08161208d565b81146120ab57600080fd5b50565b6000813590506120bd81612097565b92915050565b600080604083850312156120da576120d9611eaf565b5b60006120e885828601612078565b92505060206120f9858286016120ae565b9150509250929050565b61210c8161208d565b82525050565b60006020820190506121276000830184612103565b92915050565b6000819050919050565b6121408161212d565b82525050565b600060208201905061215b6000830184612137565b92915050565b60008060006060848603121561217a57612179611eaf565b5b600061218886828701612078565b935050602061219986828701612078565b92505060406121aa868287016120ae565b9150509250925092565b6121bd8161212d565b81146121c857600080fd5b50565b6000813590506121da816121b4565b92915050565b6000602082840312156121f6576121f5611eaf565b5b6000612204848285016121cb565b91505092915050565b6000806040838503121561222457612223611eaf565b5b6000612232858286016121cb565b925050602061224385828601612078565b9150509250929050565b600060ff82169050919050565b6122638161224d565b82525050565b600060208201905061227e600083018461225a565b92915050565b600080fd5b7f4e487b7100000000000000000000000000000000000000000000000000000000600052604160045260246000fd5b6122c182611fc3565b810181811067ffffffffffffffff821117156122e0576122df612289565b5b80604052505050565b60006122f3611ea5565b90506122ff82826122b8565b919050565b600067ffffffffffffffff82111561231f5761231e612289565b5b602082029050602081019050919050565b600080fd5b600061234861234384612304565b6122e9565b9050808382526020820190506020840283018581111561236b5761236a612330565b5b835b8181101561239457806123808882612078565b84526020840193505060208101905061236d565b5050509392505050565b600082601f8301126123b3576123b2612284565b5b81356123c3848260208601612335565b91505092915050565b6000602082840312156123e2576123e1611eaf565b5b600082013567ffffffffffffffff811115612400576123ff611eb4565b5b61240c8482850161239e565b91505092915050565b60006020828403121561242b5761242a611eaf565b5b600061243984828501612078565b91505092915050565b61244b8161204f565b82525050565b60006020820190506124666000830184612442565b92915050565b60006020828403121561248257612481611eaf565b5b6000612490848285016120ae565b91505092915050565b600080604083850312156124b0576124af611eaf565b5b60006124be85828601612078565b92505060206124cf85828601612078565b9150509250929050565b7f4e487b7100000000000000000000000000000000000000000000000000000000600052602260045260246000fd5b6000600282049050600182168061252057607f821691505b60208210811415612534576125336124d9565b5b50919050565b7f416363657373436f6e74726f6c3a2063616e206f6e6c792072656e6f756e636560008201527f20726f6c657320666f722073656c660000000000000000000000000000000000602082015250565b6000612596602f83611f7f565b91506125a18261253a565b604082019050919050565b600060208201905081810360008301526125c581612589565b9050919050565b7f4e487b7100000000000000000000000000000000000000000000000000000000600052601160045260246000fd5b60006126068261208d565b91506126118361208d565b9250827fffffffffffffffffffffffffffffffffffffffffffffffffffffffffffffffff03821115612646576126456125cc565b5b828201905092915050565b7f4e487b7100000000000000000000000000000000000000000000000000000000600052603260045260246000fd5b600061268b8261208d565b91507fffffffffffffffffffffffffffffffffffffffffffffffffffffffffffffffff8214156126be576126bd6125cc565b5b600182019050919050565b7f45524332303a2064656372656173656420616c6c6f77616e63652062656c6f7760008201527f207a65726f000000000000000000000000000000000000000000000000000000602082015250565b6000612725602583611f7f565b9150612730826126c9565b604082019050919050565b6000602082019050818103600083015261275481612718565b9050919050565b7f4f776e61626c653a206e6577206f776e657220697320746865207a65726f206160008201527f6464726573730000000000000000000000000000000000000000000000000000602082015250565b60006127b7602683611f7f565b91506127c28261275b565b604082019050919050565b600060208201905081810360008301526127e6816127aa565b9050919050565b60006127f88261208d565b91506128038361208d565b9250817fffffffffffffffffffffffffffffffffffffffffffffffffffffffffffffffff048311821515161561283c5761283b6125cc565b5b828202905092915050565b60006128528261208d565b91506000821415612866576128656125cc565b5b600182039050919050565b7f537472696e67733a20686578206c656e67746820696e73756666696369656e74600082015250565b60006128a7602083611f7f565b91506128b282612871565b602082019050919050565b600060208201905081810360008301526128d68161289a565b9050919050565b7f45524332303a20617070726f76652066726f6d20746865207a65726f2061646460008201527f7265737300000000000000000000000000000000000000000000000000000000602082015250565b6000612939602483611f7f565b9150612944826128dd565b604082019050919050565b600060208201905081810360008301526129688161292c565b9050919050565b7f45524332303a20617070726f766520746f20746865207a65726f20616464726560008201527f7373000000000000000000000000000000000000000000000000000000000000602082015250565b60006129cb602283611f7f565b91506129d68261296f565b604082019050919050565b600060208201905081810360008301526129fa816129be565b9050919050565b7f45524332303a207472616e736665722066726f6d20746865207a65726f20616460008201527f6472657373000000000000000000000000000000000000000000000000000000602082015250565b6000612a5d602583611f7f565b9150612a6882612a01565b604082019050919050565b60006020820190508181036000830152612a8c81612a50565b9050919050565b7f45524332303a207472616e7366657220746f20746865207a65726f206164647260008201527f6573730000000000000000000000000000000000000000000000000000000000602082015250565b6000612aef602383611f7f565b9150612afa82612a93565b604082019050919050565b60006020820190508181036000830152612b1e81612ae2565b9050919050565b7f45524332303a207472616e7366657220616d6f756e742065786365656473206260008201527f616c616e63650000000000000000000000000000000000000000000000000000602082015250565b6000612b81602683611f7f565b9150612b8c82612b25565b604082019050919050565b60006020820190508181036000830152612bb081612b74565b9050919050565b7f4f776e61626c653a2063616c6c6572206973206e6f7420746865206f776e6572600082015250565b6000612bed602083611f7f565b9150612bf882612bb7565b602082019050919050565b60006020820190508181036000830152612c1c81612be0565b9050919050565b7f45524332303a206275726e2066726f6d20746865207a65726f2061646472657360008201527f7300000000000000000000000000000000000000000000000000000000000000602082015250565b6000612c7f602183611f7f565b9150612c8a82612c23565b604082019050919050565b60006020820190508181036000830152612cae81612c72565b9050919050565b7f45524332303a206275726e20616d6f756e7420657863656564732062616c616e60008201527f6365000000000000000000000000000000000000000000000000000000000000602082015250565b6000612d11602283611f7f565b9150612d1c82612cb5565b604082019050919050565b60006020820190508181036000830152612d4081612d04565b9050919050565b6000612d528261208d565b9150612d5d8361208d565b925082821015612d7057612d6f6125cc565b5b828203905092915050565b7f45524332303a206d696e7420746f20746865207a65726f206164647265737300600082015250565b6000612db1601f83611f7f565b9150612dbc82612d7b565b602082019050919050565b60006020820190508181036000830152612de081612da4565b9050919050565b600081905092915050565b7f416363657373436f6e74726f6c3a206163636f756e7420000000000000000000600082015250565b6000612e28601783612de7565b9150612e3382612df2565b601782019050919050565b6000612e4982611f74565b612e538185612de7565b9350612e63818560208601611f90565b80840191505092915050565b7f206973206d697373696e6720726f6c6520000000000000000000000000000000600082015250565b6000612ea5601183612de7565b9150612eb082612e6f565b601182019050919050565b6000612ec682612e1b565b9150612ed28285612e3e565b9150612edd82612e98565b9150612ee98284612e3e565b9150819050939250505056fea264697066735822122010e5ee13d2a07854f8607a1f4d5894ed2273efee4b63af079a2004e2802bc1c664736f6c63430008090033",
  "linkReferences": {},
  "deployedLinkReferences": {}
}