{
  "_format": "hh-sol-artifact-1",
  "contractName": "ERC721Token",
  "sourceName": "contracts/ERC721Token.sol",
  "abi": [
    {
      "inputs": [
        {
          "internalType": "string",
          "name": "token_name",
          "type": "string"
        },
        {
          "internalType": "string",
          "name": "token_symbol",
          "type": "string"
        },
        {
          "internalType": "address",
          "name": "default_owner",
          "type": "address"
        },
        {
          "internalType": "contract MinimalForwarder",
          "name": "forwarder",
          "type": "address"
        }
      ],
      "stateMutability": "nonpayable",
      "type": "constructor"
    },
    {
      "anonymous": false,
      "inputs": [
        {
          "indexed": true,
          "internalType": "address",
          "name": "owner",
          "type": "address"
        },
        {
          "indexed": true,
          "internalType": "address",
          "name": "approved",
          "type": "address"
        },
        {
          "indexed": true,
          "internalType": "uint256",
          "name": "tokenId",
          "type": "uint256"
        }
      ],
      "name": "Approval",
      "type": "event"
    },
    {
      "anonymous": false,
      "inputs": [
        {
          "indexed": true,
          "internalType": "address",
          "name": "owner",
          "type": "address"
        },
        {
          "indexed": true,
          "internalType": "address",
          "name": "operator",
          "type": "address"
        },
        {
          "indexed": false,
          "internalType": "bool",
          "name": "approved",
          "type": "bool"
        }
      ],
      "name": "ApprovalForAll",
      "type": "event"
    },
    {
      "anonymous": false,
      "inputs": [
        {
          "indexed": true,
          "internalType": "address",
          "name": "previousOwner",
          "type": "address"
        },
        {
          "indexed": true,
          "internalType": "address",
          "name": "newOwner",
          "type": "address"
        }
      ],
      "name": "OwnershipTransferred",
      "type": "event"
    },
    {
      "anonymous": false,
      "inputs": [
        {
          "indexed": true,
          "internalType": "bytes32",
          "name": "role",
          "type": "bytes32"
        },
        {
          "indexed": true,
          "internalType": "bytes32",
          "name": "previousAdminRole",
          "type": "bytes32"
        },
        {
          "indexed": true,
          "internalType": "bytes32",
          "name": "newAdminRole",
          "type": "bytes32"
        }
      ],
      "name": "RoleAdminChanged",
      "type": "event"
    },
    {
      "anonymous": false,
      "inputs": [
        {
          "indexed": true,
          "internalType": "bytes32",
          "name": "role",
          "type": "bytes32"
        },
        {
          "indexed": true,
          "internalType": "address",
          "name": "account",
          "type": "address"
        },
        {
          "indexed": true,
          "internalType": "address",
          "name": "sender",
          "type": "address"
        }
      ],
      "name": "RoleGranted",
      "type": "event"
    },
    {
      "anonymous": false,
      "inputs": [
        {
          "indexed": true,
          "internalType": "bytes32",
          "name": "role",
          "type": "bytes32"
        },
        {
          "indexed": true,
          "internalType": "address",
          "name": "account",
          "type": "address"
        },
        {
          "indexed": true,
          "internalType": "address",
          "name": "sender",
          "type": "address"
        }
      ],
      "name": "RoleRevoked",
      "type": "event"
    },
    {
      "anonymous": false,
      "inputs": [
        {
          "indexed": true,
          "internalType": "address",
          "name": "from",
          "type": "address"
        },
        {
          "indexed": true,
          "internalType": "address",
          "name": "to",
          "type": "address"
        },
        {
          "indexed": true,
          "internalType": "uint256",
          "name": "tokenId",
          "type": "uint256"
        }
      ],
      "name": "Transfer",
      "type": "event"
    },
    {
      "inputs": [],
      "name": "BURNER_ROLE",
      "outputs": [
        {
          "internalType": "bytes32",
          "name": "",
          "type": "bytes32"
        }
      ],
      "stateMutability": "view",
      "type": "function"
    },
    {
      "inputs": [],
      "name": "DEFAULT_ADMIN_ROLE",
      "outputs": [
        {
          "internalType": "bytes32",
          "name": "",
          "type": "bytes32"
        }
      ],
      "stateMutability": "view",
      "type": "function"
    },
    {
      "inputs": [
        {
          "internalType": "address[]",
          "name": "burners",
          "type": "address[]"
        }
      ],
      "name": "addBurners",
      "outputs": [],
      "stateMutability": "nonpayable",
      "type": "function"
    },
    {
      "inputs": [
        {
          "internalType": "address[]",
          "name": "minters",
          "type": "address[]"
        }
      ],
      "name": "addMinters",
      "outputs": [],
      "stateMutability": "nonpayable",
      "type": "function"
    },
    {
      "inputs": [
        {
          "internalType": "address",
          "name": "to",
          "type": "address"
        },
        {
          "internalType": "uint256",
          "name": "tokenId",
          "type": "uint256"
        }
      ],
      "name": "approve",
      "outputs": [],
      "stateMutability": "nonpayable",
      "type": "function"
    },
    {
      "inputs": [
        {
          "internalType": "address",
          "name": "owner",
          "type": "address"
        }
      ],
      "name": "balanceOf",
      "outputs": [
        {
          "internalType": "uint256",
          "name": "",
          "type": "uint256"
        }
      ],
      "stateMutability": "view",
      "type": "function"
    },
    {
      "inputs": [
        {
          "internalType": "uint256",
          "name": "tokenId",
          "type": "uint256"
        }
      ],
      "name": "burn",
      "outputs": [],
      "stateMutability": "nonpayable",
      "type": "function"
    },
    {
      "inputs": [],
      "name": "contractType",
      "outputs": [
        {
          "internalType": "bytes32",
          "name": "",
          "type": "bytes32"
        }
      ],
      "stateMutability": "pure",
      "type": "function"
    },
    {
      "inputs": [],
      "name": "contractVersion",
      "outputs": [
        {
          "internalType": "uint8",
          "name": "",
          "type": "uint8"
        }
      ],
      "stateMutability": "pure",
      "type": "function"
    },
    {
      "inputs": [
        {
          "internalType": "uint256",
          "name": "",
          "type": "uint256"
        }
      ],
      "name": "encryptedData",
      "outputs": [
        {
          "internalType": "bytes",
          "name": "",
          "type": "bytes"
        }
      ],
      "stateMutability": "view",
      "type": "function"
    },
    {
      "inputs": [
        {
          "internalType": "uint256",
          "name": "tokenId",
          "type": "uint256"
        }
      ],
      "name": "getApproved",
      "outputs": [
        {
          "internalType": "address",
          "name": "",
          "type": "address"
        }
      ],
      "stateMutability": "view",
      "type": "function"
    },
    {
      "inputs": [
        {
          "internalType": "bytes32",
          "name": "role",
          "type": "bytes32"
        }
      ],
      "name": "getRoleAdmin",
      "outputs": [
        {
          "internalType": "bytes32",
          "name": "",
          "type": "bytes32"
        }
      ],
      "stateMutability": "view",
      "type": "function"
    },
    {
      "inputs": [
        {
          "internalType": "bytes32",
          "name": "role",
          "type": "bytes32"
        },
        {
          "internalType": "address",
          "name": "account",
          "type": "address"
        }
      ],
      "name": "grantRole",
      "outputs": [],
      "stateMutability": "nonpayable",
      "type": "function"
    },
    {
      "inputs": [],
      "name": "hasBurnerRole",
      "outputs": [
        {
          "internalType": "bool",
          "name": "",
          "type": "bool"
        }
      ],
      "stateMutability": "view",
      "type": "function"
    },
    {
      "inputs": [],
      "name": "hasMinterRole",
      "outputs": [
        {
          "internalType": "bool",
          "name": "",
          "type": "bool"
        }
      ],
      "stateMutability": "view",
      "type": "function"
    },
    {
      "inputs": [
        {
          "internalType": "bytes32",
          "name": "role",
          "type": "bytes32"
        },
        {
          "internalType": "address",
          "name": "account",
          "type": "address"
        }
      ],
      "name": "hasRole",
      "outputs": [
        {
          "internalType": "bool",
          "name": "",
          "type": "bool"
        }
      ],
      "stateMutability": "view",
      "type": "function"
    },
    {
      "inputs": [
        {
          "internalType": "address",
          "name": "owner",
          "type": "address"
        },
        {
          "internalType": "address",
          "name": "operator",
          "type": "address"
        }
      ],
      "name": "isApprovedForAll",
      "outputs": [
        {
          "internalType": "bool",
          "name": "",
          "type": "bool"
        }
      ],
      "stateMutability": "view",
      "type": "function"
    },
    {
      "inputs": [],
      "name": "isOwner",
      "outputs": [
        {
          "internalType": "bool",
          "name": "",
          "type": "bool"
        }
      ],
      "stateMutability": "view",
      "type": "function"
    },
    {
      "inputs": [
        {
          "internalType": "address",
          "name": "forwarder",
          "type": "address"
        }
      ],
      "name": "isTrustedForwarder",
      "outputs": [
        {
          "internalType": "bool",
          "name": "",
          "type": "bool"
        }
      ],
      "stateMutability": "view",
      "type": "function"
    },
    {
      "inputs": [
        {
          "internalType": "string",
          "name": "_tokenURI",
          "type": "string"
        },
        {
          "internalType": "uint256",
          "name": "_price",
          "type": "uint256"
        }
      ],
      "name": "mint",
      "outputs": [
        {
          "internalType": "uint256",
          "name": "",
          "type": "uint256"
        }
      ],
      "stateMutability": "nonpayable",
      "type": "function"
    },
    {
      "inputs": [],
      "name": "name",
      "outputs": [
        {
          "internalType": "string",
          "name": "",
          "type": "string"
        }
      ],
      "stateMutability": "view",
      "type": "function"
    },
    {
      "inputs": [],
      "name": "owner",
      "outputs": [
        {
          "internalType": "address",
          "name": "",
          "type": "address"
        }
      ],
      "stateMutability": "view",
      "type": "function"
    },
    {
      "inputs": [
        {
          "internalType": "uint256",
          "name": "tokenId",
          "type": "uint256"
        }
      ],
      "name": "ownerOf",
      "outputs": [
        {
          "internalType": "address",
          "name": "",
          "type": "address"
        }
      ],
      "stateMutability": "view",
      "type": "function"
    },
    {
      "inputs": [
        {
          "internalType": "uint256",
          "name": "",
          "type": "uint256"
        }
      ],
      "name": "price",
      "outputs": [
        {
          "internalType": "uint256",
          "name": "",
          "type": "uint256"
        }
      ],
      "stateMutability": "view",
      "type": "function"
    },
    {
      "inputs": [
        {
          "internalType": "address[]",
          "name": "burners",
          "type": "address[]"
        }
      ],
      "name": "removeBurners",
      "outputs": [],
      "stateMutability": "nonpayable",
      "type": "function"
    },
    {
      "inputs": [
        {
          "internalType": "address[]",
          "name": "minters",
          "type": "address[]"
        }
      ],
      "name": "removeMinters",
      "outputs": [],
      "stateMutability": "nonpayable",
      "type": "function"
    },
    {
      "inputs": [],
      "name": "renounceOwnership",
      "outputs": [],
      "stateMutability": "nonpayable",
      "type": "function"
    },
    {
      "inputs": [
        {
          "internalType": "bytes32",
          "name": "role",
          "type": "bytes32"
        },
        {
          "internalType": "address",
          "name": "account",
          "type": "address"
        }
      ],
      "name": "renounceRole",
      "outputs": [],
      "stateMutability": "nonpayable",
      "type": "function"
    },
    {
      "inputs": [
        {
          "internalType": "bytes32",
          "name": "role",
          "type": "bytes32"
        },
        {
          "internalType": "address",
          "name": "account",
          "type": "address"
        }
      ],
      "name": "revokeRole",
      "outputs": [],
      "stateMutability": "nonpayable",
      "type": "function"
    },
    {
      "inputs": [
        {
          "internalType": "address",
          "name": "from",
          "type": "address"
        },
        {
          "internalType": "address",
          "name": "to",
          "type": "address"
        },
        {
          "internalType": "uint256",
          "name": "tokenId",
          "type": "uint256"
        }
      ],
      "name": "safeTransferFrom",
      "outputs": [],
      "stateMutability": "nonpayable",
      "type": "function"
    },
    {
      "inputs": [
        {
          "internalType": "address",
          "name": "from",
          "type": "address"
        },
        {
          "internalType": "address",
          "name": "to",
          "type": "address"
        },
        {
          "internalType": "uint256",
          "name": "tokenId",
          "type": "uint256"
        },
        {
          "internalType": "bytes",
          "name": "data",
          "type": "bytes"
        }
      ],
      "name": "safeTransferFrom",
      "outputs": [],
      "stateMutability": "nonpayable",
      "type": "function"
    },
    {
      "inputs": [
        {
          "internalType": "address",
          "name": "operator",
          "type": "address"
        },
        {
          "internalType": "bool",
          "name": "approved",
          "type": "bool"
        }
      ],
      "name": "setApprovalForAll",
      "outputs": [],
      "stateMutability": "nonpayable",
      "type": "function"
    },
    {
      "inputs": [
        {
          "internalType": "address",
          "name": "_newOwner",
          "type": "address"
        }
      ],
      "name": "setOwner",
      "outputs": [],
      "stateMutability": "nonpayable",
      "type": "function"
    },
    {
      "inputs": [
        {
          "internalType": "bytes4",
          "name": "interfaceId",
          "type": "bytes4"
        }
      ],
      "name": "supportsInterface",
      "outputs": [
        {
          "internalType": "bool",
          "name": "",
          "type": "bool"
        }
      ],
      "stateMutability": "view",
      "type": "function"
    },
    {
      "inputs": [],
      "name": "symbol",
      "outputs": [
        {
          "internalType": "string",
          "name": "",
          "type": "string"
        }
      ],
      "stateMutability": "view",
      "type": "function"
    },
    {
      "inputs": [
        {
          "internalType": "uint256",
          "name": "tokenId",
          "type": "uint256"
        }
      ],
      "name": "tokenURI",
      "outputs": [
        {
          "internalType": "string",
          "name": "",
          "type": "string"
        }
      ],
      "stateMutability": "view",
      "type": "function"
    },
    {
      "inputs": [
        {
          "internalType": "address",
          "name": "from",
          "type": "address"
        },
        {
          "internalType": "address",
          "name": "to",
          "type": "address"
        },
        {
          "internalType": "uint256",
          "name": "tokenId",
          "type": "uint256"
        }
      ],
      "name": "transferFrom",
      "outputs": [],
      "stateMutability": "nonpayable",
      "type": "function"
    },
    {
      "inputs": [
        {
          "internalType": "uint256",
          "name": "_id",
          "type": "uint256"
        },
        {
          "internalType": "address",
          "name": "to",
          "type": "address"
        }
      ],
      "name": "transferNFT",
      "outputs": [],
      "stateMutability": "payable",
      "type": "function"
    },
    {
      "inputs": [
        {
          "internalType": "uint256",
          "name": "_id",
          "type": "uint256"
        },
        {
          "internalType": "address",
          "name": "from",
          "type": "address"
        },
        {
          "internalType": "address",
          "name": "to",
          "type": "address"
        }
      ],
      "name": "transferNFTFrom",
      "outputs": [],
      "stateMutability": "payable",
      "type": "function"
    },
    {
      "inputs": [
        {
          "internalType": "address",
          "name": "newOwner",
          "type": "address"
        }
      ],
      "name": "transferOwnership",
      "outputs": [],
      "stateMutability": "nonpayable",
      "type": "function"
    },
    {
      "inputs": [
        {
          "internalType": "address",
          "name": "",
          "type": "address"
        }
      ],
      "name": "walletClaimCount",
      "outputs": [
        {
          "internalType": "uint256",
          "name": "",
          "type": "uint256"
        }
      ],
      "stateMutability": "view",
      "type": "function"
    }
  ],
  "bytecode": "0x60a06040523480156200001157600080fd5b506040516200548438038062005484833981810160405281019062000037919062000a30565b8383828073ffffffffffffffffffffffffffffffffffffffff1660808173ffffffffffffffffffffffffffffffffffffffff1681525050506200008f62000083620002c260201b60201c565b620002de60201b60201c565b8160019080519060200190620000a792919062000739565b508060029080519060200190620000c092919062000739565b50505081600a60006101000a81548173ffffffffffffffffffffffffffffffffffffffff021916908373ffffffffffffffffffffffffffffffffffffffff160217905550620001196000801b83620003a260201b60201c565b6200014b7f9f2df0fed2c77648de5860a4cc508cd0818c85b8b8a1ab4ceeef8d981c8956a683620003a260201b60201c565b6200017d7f8502233096d909befbda0999bb8ea2f3a6be3c138b9fbf003752a4c8bce86f6c83620003a260201b60201c565b620001af7f3c11d16cbaffd01df69ce1c404f6340ee057498f5f00246190ea54220576a84883620003a260201b60201c565b620001e27f8502233096d909befbda0999bb8ea2f3a6be3c138b9fbf003752a4c8bce86f6c6000620003a260201b60201c565b620002237f9f2df0fed2c77648de5860a4cc508cd0818c85b8b8a1ab4ceeef8d981c8956a662000217620002c260201b60201c565b620003a260201b60201c565b620002647f3c11d16cbaffd01df69ce1c404f6340ee057498f5f00246190ea54220576a84862000258620002c260201b60201c565b620003a260201b60201c565b620002a57f8502233096d909befbda0999bb8ea2f3a6be3c138b9fbf003752a4c8bce86f6c62000299620002c260201b60201c565b620003a260201b60201c565b620002b8826001620003b860201b60201c565b5050505062000c02565b6000620002d9620003de60201b620018db1760201c565b905090565b60008060009054906101000a900473ffffffffffffffffffffffffffffffffffffffff169050816000806101000a81548173ffffffffffffffffffffffffffffffffffffffff021916908373ffffffffffffffffffffffffffffffffffffffff1602179055508173ffffffffffffffffffffffffffffffffffffffff168173ffffffffffffffffffffffffffffffffffffffff167f8be0079c531659141344cd1fd0a4f28419497f9722a3daafe3b4186f6b6457e060405160405180910390a35050565b620003b482826200042860201b60201c565b5050565b620003da620003cc620002c260201b60201c565b83836200051a60201b60201c565b5050565b6000620003f1336200068c60201b60201c565b156200040757601436033560601c905062000424565b6200041c620006c660201b6200190d1760201c565b905062000425565b5b90565b6200043a8282620006ce60201b60201c565b620005165760016008600084815260200190815260200160002060000160008373ffffffffffffffffffffffffffffffffffffffff1673ffffffffffffffffffffffffffffffffffffffff16815260200190815260200160002060006101000a81548160ff021916908315150217905550620004bb620002c260201b60201c565b73ffffffffffffffffffffffffffffffffffffffff168173ffffffffffffffffffffffffffffffffffffffff16837f2f8788117e7eff1d82e926ec794901d17c78024a50270940304540a733656f0d60405160405180910390a45b5050565b8173ffffffffffffffffffffffffffffffffffffffff168373ffffffffffffffffffffffffffffffffffffffff1614156200058c576040517f08c379a0000000000000000000000000000000000000000000000000000000008152600401620005839062000b41565b60405180910390fd5b80600660008573ffffffffffffffffffffffffffffffffffffffff1673ffffffffffffffffffffffffffffffffffffffff16815260200190815260200160002060008473ffffffffffffffffffffffffffffffffffffffff1673ffffffffffffffffffffffffffffffffffffffff16815260200190815260200160002060006101000a81548160ff0219169083151502179055508173ffffffffffffffffffffffffffffffffffffffff168373ffffffffffffffffffffffffffffffffffffffff167f17307eab39ab6107e8899845ad3d59bd9653f200f220920489ca2b5937696c31836040516200067f919062000b80565b60405180910390a3505050565b600060805173ffffffffffffffffffffffffffffffffffffffff168273ffffffffffffffffffffffffffffffffffffffff16149050919050565b600033905090565b60006008600084815260200190815260200160002060000160008373ffffffffffffffffffffffffffffffffffffffff1673ffffffffffffffffffffffffffffffffffffffff16815260200190815260200160002060009054906101000a900460ff16905092915050565b828054620007479062000bcc565b90600052602060002090601f0160209004810192826200076b5760008555620007b7565b82601f106200078657805160ff1916838001178555620007b7565b82800160010185558215620007b7579182015b82811115620007b657825182559160200191906001019062000799565b5b509050620007c69190620007ca565b5090565b5b80821115620007e5576000816000905550600101620007cb565b5090565b6000604051905090565b600080fd5b600080fd5b600080fd5b600080fd5b6000601f19601f8301169050919050565b7f4e487b7100000000000000000000000000000000000000000000000000000000600052604160045260246000fd5b620008528262000807565b810181811067ffffffffffffffff8211171562000874576200087362000818565b5b80604052505050565b600062000889620007e9565b905062000897828262000847565b919050565b600067ffffffffffffffff821115620008ba57620008b962000818565b5b620008c58262000807565b9050602081019050919050565b60005b83811015620008f2578082015181840152602081019050620008d5565b8381111562000902576000848401525b50505050565b60006200091f62000919846200089c565b6200087d565b9050828152602081018484840111156200093e576200093d62000802565b5b6200094b848285620008d2565b509392505050565b600082601f8301126200096b576200096a620007fd565b5b81516200097d84826020860162000908565b91505092915050565b600073ffffffffffffffffffffffffffffffffffffffff82169050919050565b6000620009b38262000986565b9050919050565b620009c581620009a6565b8114620009d157600080fd5b50565b600081519050620009e581620009ba565b92915050565b6000620009f882620009a6565b9050919050565b62000a0a81620009eb565b811462000a1657600080fd5b50565b60008151905062000a2a81620009ff565b92915050565b6000806000806080858703121562000a4d5762000a4c620007f3565b5b600085015167ffffffffffffffff81111562000a6e5762000a6d620007f8565b5b62000a7c8782880162000953565b945050602085015167ffffffffffffffff81111562000aa05762000a9f620007f8565b5b62000aae8782880162000953565b935050604062000ac187828801620009d4565b925050606062000ad48782880162000a19565b91505092959194509250565b600082825260208201905092915050565b7f4552433732313a20617070726f766520746f2063616c6c657200000000000000600082015250565b600062000b2960198362000ae0565b915062000b368262000af1565b602082019050919050565b6000602082019050818103600083015262000b5c8162000b1a565b9050919050565b60008115159050919050565b62000b7a8162000b63565b82525050565b600060208201905062000b97600083018462000b6f565b92915050565b7f4e487b7100000000000000000000000000000000000000000000000000000000600052602260045260246000fd5b6000600282049050600182168062000be557607f821691505b6020821081141562000bfc5762000bfb62000b9d565b5b50919050565b60805161486662000c1e6000396000610fa901526148666000f3fe6080604052600436106102465760003560e01c806370a0823111610139578063a05112fc116100b6578063c87b56dd1161007a578063c87b56dd146108a8578063cb2ef6f7146108e5578063d547741f14610910578063e47d419b14610939578063e985e9c514610962578063f2fde38b1461099f57610246565b8063a05112fc146107c3578063a0a8e46014610800578063a217fddf1461082b578063a22cb46514610856578063b88d4fde1461087f57610246565b80638da5cb5b116100fd5780638da5cb5b146106e95780638f32d59b146107145780639036c0501461073f57806391d148541461075b57806395d89b411461079857610246565b806370a0823114610625578063715018a61461066257806371e2a65714610679578063745fffbe146106a25780638c71db58146106cd57610246565b8063282c51f3116101c757806342966c681161018b57806342966c681461051c5780634352ab4114610545578063572b6c05146105825780635fc1964f146105bf5780636352211e146105e857610246565b8063282c51f31461044d5780632f2ff15d1461047857806336568abe146104a15780633ab84dd9146104ca57806342842e0e146104f357610246565b806313af40351161020e57806313af4035146103565780631592b6071461037f57806323b872dd146103aa578063248a9ca3146103d357806326a49e371461041057610246565b806301ffc9a71461024b578063056b01ce1461028857806306fdde03146102c5578063081812fc146102f0578063095ea7b31461032d575b600080fd5b34801561025757600080fd5b50610272600480360381019061026d9190613142565b6109c8565b60405161027f919061318a565b60405180910390f35b34801561029457600080fd5b506102af60048036038101906102aa9190613321565b6109da565b6040516102bc919061338c565b60405180910390f35b3480156102d157600080fd5b506102da610a55565b6040516102e7919061342f565b60405180910390f35b3480156102fc57600080fd5b5061031760048036038101906103129190613451565b610ae7565b60405161032491906134bf565b60405180910390f35b34801561033957600080fd5b50610354600480360381019061034f9190613506565b610b2d565b005b34801561036257600080fd5b5061037d60048036038101906103789190613546565b610c45565b005b34801561038b57600080fd5b50610394610d0e565b6040516103a1919061318a565b60405180910390f35b3480156103b657600080fd5b506103d160048036038101906103cc9190613573565b610d46565b005b3480156103df57600080fd5b506103fa60048036038101906103f591906135fc565b610da6565b6040516104079190613638565b60405180910390f35b34801561041c57600080fd5b5061043760048036038101906104329190613451565b610dc6565b604051610444919061338c565b60405180910390f35b34801561045957600080fd5b50610462610dde565b60405161046f9190613638565b60405180910390f35b34801561048457600080fd5b5061049f600480360381019061049a9190613653565b610e02565b005b3480156104ad57600080fd5b506104c860048036038101906104c39190613653565b610e23565b005b3480156104d657600080fd5b506104f160048036038101906104ec919061375b565b610ea6565b005b3480156104ff57600080fd5b5061051a60048036038101906105159190613573565b610f36565b005b34801561052857600080fd5b50610543600480360381019061053e9190613451565b610f56565b005b34801561055157600080fd5b5061056c60048036038101906105679190613546565b610f8d565b604051610579919061338c565b60405180910390f35b34801561058e57600080fd5b506105a960048036038101906105a49190613546565b610fa5565b6040516105b6919061318a565b60405180910390f35b3480156105cb57600080fd5b506105e660048036038101906105e1919061375b565b610ffd565b005b3480156105f457600080fd5b5061060f600480360381019061060a9190613451565b61106a565b60405161061c91906134bf565b60405180910390f35b34801561063157600080fd5b5061064c60048036038101906106479190613546565b61111c565b604051610659919061338c565b60405180910390f35b34801561066e57600080fd5b506106776111d4565b005b34801561068557600080fd5b506106a0600480360381019061069b919061375b565b6111e8565b005b3480156106ae57600080fd5b506106b7611278565b6040516106c4919061318a565b60405180910390f35b6106e760048036038101906106e291906137a4565b6112b0565b005b3480156106f557600080fd5b506106fe6112eb565b60405161070b91906134bf565b60405180910390f35b34801561072057600080fd5b50610729611350565b604051610736919061318a565b60405180910390f35b610759600480360381019061075491906137f7565b611394565b005b34801561076757600080fd5b50610782600480360381019061077d9190613653565b6113d5565b60405161078f919061318a565b60405180910390f35b3480156107a457600080fd5b506107ad611440565b6040516107ba919061342f565b60405180910390f35b3480156107cf57600080fd5b506107ea60048036038101906107e59190613451565b6114d2565b6040516107f7919061388c565b60405180910390f35b34801561080c57600080fd5b50610815611572565b60405161082291906138ca565b60405180910390f35b34801561083757600080fd5b5061084061157b565b60405161084d9190613638565b60405180910390f35b34801561086257600080fd5b5061087d60048036038101906108789190613911565b611582565b005b34801561088b57600080fd5b506108a660048036038101906108a191906139f2565b611598565b005b3480156108b457600080fd5b506108cf60048036038101906108ca9190613451565b6115fa565b6040516108dc919061342f565b60405180910390f35b3480156108f157600080fd5b506108fa61170d565b6040516109079190613638565b60405180910390f35b34801561091c57600080fd5b5061093760048036038101906109329190613653565b611735565b005b34801561094557600080fd5b50610960600480360381019061095b919061375b565b611756565b005b34801561096e57600080fd5b5061098960048036038101906109849190613a75565b6117c3565b604051610996919061318a565b60405180910390f35b3480156109ab57600080fd5b506109c660048036038101906109c19190613546565b611857565b005b60006109d382611915565b9050919050565b60007f9f2df0fed2c77648de5860a4cc508cd0818c85b8b8a1ab4ceeef8d981c8956a6610a068161198f565b610a1060096119a3565b6000610a1c60096119b9565b905083600e600083815260200190815260200160002081905550610a4030826119c7565b610a4a8186611ba1565b809250505092915050565b606060018054610a6490613ae4565b80601f0160208091040260200160405190810160405280929190818152602001828054610a9090613ae4565b8015610add5780601f10610ab257610100808354040283529160200191610add565b820191906000526020600020905b815481529060010190602001808311610ac057829003601f168201915b5050505050905090565b6000610af282611c15565b6005600083815260200190815260200160002060009054906101000a900473ffffffffffffffffffffffffffffffffffffffff169050919050565b6000610b388261106a565b90508073ffffffffffffffffffffffffffffffffffffffff168373ffffffffffffffffffffffffffffffffffffffff161415610ba9576040517f08c379a0000000000000000000000000000000000000000000000000000000008152600401610ba090613b88565b60405180910390fd5b8073ffffffffffffffffffffffffffffffffffffffff16610bc8611c60565b73ffffffffffffffffffffffffffffffffffffffff161480610bf75750610bf681610bf1611c60565b6117c3565b5b610c36576040517f08c379a0000000000000000000000000000000000000000000000000000000008152600401610c2d90613c1a565b60405180910390fd5b610c408383611c6f565b505050565b6000801b610c528161198f565b610c5f6000801b836113d5565b610c9e576040517f08c379a0000000000000000000000000000000000000000000000000000000008152600401610c9590613c86565b60405180910390fd5b81600a60006101000a81548173ffffffffffffffffffffffffffffffffffffffff021916908373ffffffffffffffffffffffffffffffffffffffff160217905550610d0a600a60009054906101000a900473ffffffffffffffffffffffffffffffffffffffff16611857565b5050565b6000610d417f9f2df0fed2c77648de5860a4cc508cd0818c85b8b8a1ab4ceeef8d981c8956a6610d3c611c60565b6113d5565b905090565b610d57610d51611c60565b82611d28565b610d96576040517f08c379a0000000000000000000000000000000000000000000000000000000008152600401610d8d90613d18565b60405180910390fd5b610da1838383611dbd565b505050565b600060086000838152602001908152602001600020600101549050919050565b600e6020528060005260406000206000915090505481565b7f3c11d16cbaffd01df69ce1c404f6340ee057498f5f00246190ea54220576a84881565b610e0b82610da6565b610e148161198f565b610e1e8383612024565b505050565b610e2b611c60565b73ffffffffffffffffffffffffffffffffffffffff168173ffffffffffffffffffffffffffffffffffffffff1614610e98576040517f08c379a0000000000000000000000000000000000000000000000000000000008152600401610e8f90613daa565b60405180910390fd5b610ea28282612105565b5050565b7f3c11d16cbaffd01df69ce1c404f6340ee057498f5f00246190ea54220576a848610ed08161198f565b60005b8251811015610f3157610f207f3c11d16cbaffd01df69ce1c404f6340ee057498f5f00246190ea54220576a848848381518110610f1357610f12613dca565b5b60200260200101516121e7565b80610f2a90613e28565b9050610ed3565b505050565b610f5183838360405180602001604052806000815250611598565b505050565b7f3c11d16cbaffd01df69ce1c404f6340ee057498f5f00246190ea54220576a848610f808161198f565b610f89826121f5565b5050565b600d6020528060005260406000206000915090505481565b60007f000000000000000000000000000000000000000000000000000000000000000073ffffffffffffffffffffffffffffffffffffffff168273ffffffffffffffffffffffffffffffffffffffff16149050919050565b611005612248565b60005b8151811015611066576110557f9f2df0fed2c77648de5860a4cc508cd0818c85b8b8a1ab4ceeef8d981c8956a683838151811061104857611047613dca565b5b6020026020010151611735565b8061105f90613e28565b9050611008565b5050565b6000806003600084815260200190815260200160002060009054906101000a900473ffffffffffffffffffffffffffffffffffffffff169050600073ffffffffffffffffffffffffffffffffffffffff168173ffffffffffffffffffffffffffffffffffffffff161415611113576040517f08c379a000000000000000000000000000000000000000000000000000000000815260040161110a90613ebd565b60405180910390fd5b80915050919050565b60008073ffffffffffffffffffffffffffffffffffffffff168273ffffffffffffffffffffffffffffffffffffffff16141561118d576040517f08c379a000000000000000000000000000000000000000000000000000000000815260040161118490613f4f565b60405180910390fd5b600460008373ffffffffffffffffffffffffffffffffffffffff1673ffffffffffffffffffffffffffffffffffffffff168152602001908152602001600020549050919050565b6111dc612248565b6111e660006122c6565b565b7f9f2df0fed2c77648de5860a4cc508cd0818c85b8b8a1ab4ceeef8d981c8956a66112128161198f565b60005b8251811015611273576112627f9f2df0fed2c77648de5860a4cc508cd0818c85b8b8a1ab4ceeef8d981c8956a684838151811061125557611254613dca565b5b60200260200101516121e7565b8061126c90613e28565b9050611215565b505050565b60006112ab7f3c11d16cbaffd01df69ce1c404f6340ee057498f5f00246190ea54220576a8486112a6611c60565b6113d5565b905090565b7f8502233096d909befbda0999bb8ea2f3a6be3c138b9fbf003752a4c8bce86f6c6112da8161198f565b6112e5838386610d46565b50505050565b600061131c6000801b600a60009054906101000a900473ffffffffffffffffffffffffffffffffffffffff166113d5565b61132757600061134b565b600a60009054906101000a900473ffffffffffffffffffffffffffffffffffffffff165b905090565b600061135a611c60565b73ffffffffffffffffffffffffffffffffffffffff166113786112eb565b73ffffffffffffffffffffffffffffffffffffffff1614905090565b7f8502233096d909befbda0999bb8ea2f3a6be3c138b9fbf003752a4c8bce86f6c6113be8161198f565b6113d06113c9611c60565b8385611dbd565b505050565b60006008600084815260200190815260200160002060000160008373ffffffffffffffffffffffffffffffffffffffff1673ffffffffffffffffffffffffffffffffffffffff16815260200190815260200160002060009054906101000a900460ff16905092915050565b60606002805461144f90613ae4565b80601f016020809104026020016040519081016040528092919081815260200182805461147b90613ae4565b80156114c85780601f1061149d576101008083540402835291602001916114c8565b820191906000526020600020905b8154815290600101906020018083116114ab57829003601f168201915b5050505050905090565b600c60205280600052604060002060009150905080546114f190613ae4565b80601f016020809104026020016040519081016040528092919081815260200182805461151d90613ae4565b801561156a5780601f1061153f5761010080835404028352916020019161156a565b820191906000526020600020905b81548152906001019060200180831161154d57829003601f168201915b505050505081565b60006001905090565b6000801b81565b61159461158d611c60565b838361238a565b5050565b6115a96115a3611c60565b83611d28565b6115e8576040517f08c379a00000000000000000000000000000000000000000000000000000000081526004016115df90613d18565b60405180910390fd5b6115f4848484846124f7565b50505050565b606061160582611c15565b600060076000848152602001908152602001600020805461162590613ae4565b80601f016020809104026020016040519081016040528092919081815260200182805461165190613ae4565b801561169e5780601f106116735761010080835404028352916020019161169e565b820191906000526020600020905b81548152906001019060200180831161168157829003601f168201915b5050505050905060006116af612553565b90506000815114156116c5578192505050611708565b6000825111156116fa5780826040516020016116e2929190613fab565b60405160208183030381529060405292505050611708565b6117038461256a565b925050505b919050565b60007f455243373231546f6b656e000000000000000000000000000000000000000000905090565b61173e82610da6565b6117478161198f565b6117518383612105565b505050565b61175e612248565b60005b81518110156117bf576117ae7f3c11d16cbaffd01df69ce1c404f6340ee057498f5f00246190ea54220576a8488383815181106117a1576117a0613dca565b5b6020026020010151611735565b806117b890613e28565b9050611761565b5050565b6000600660008473ffffffffffffffffffffffffffffffffffffffff1673ffffffffffffffffffffffffffffffffffffffff16815260200190815260200160002060008373ffffffffffffffffffffffffffffffffffffffff1673ffffffffffffffffffffffffffffffffffffffff16815260200190815260200160002060009054906101000a900460ff16905092915050565b61185f612248565b600073ffffffffffffffffffffffffffffffffffffffff168173ffffffffffffffffffffffffffffffffffffffff1614156118cf576040517f08c379a00000000000000000000000000000000000000000000000000000000081526004016118c690614041565b60405180910390fd5b6118d8816122c6565b50565b60006118e633610fa5565b156118fa57601436033560601c9050611909565b61190261190d565b905061190a565b5b90565b600033905090565b60007f7965db0b000000000000000000000000000000000000000000000000000000007bffffffffffffffffffffffffffffffffffffffffffffffffffffffff1916827bffffffffffffffffffffffffffffffffffffffffffffffffffffffff191614806119885750611987826125d2565b5b9050919050565b6119a08161199b611c60565b6126b4565b50565b6001816000016000828254019250508190555050565b600081600001549050919050565b600073ffffffffffffffffffffffffffffffffffffffff168273ffffffffffffffffffffffffffffffffffffffff161415611a37576040517f08c379a0000000000000000000000000000000000000000000000000000000008152600401611a2e906140ad565b60405180910390fd5b611a4081612751565b15611a80576040517f08c379a0000000000000000000000000000000000000000000000000000000008152600401611a7790614119565b60405180910390fd5b611a8c600083836127bd565b6001600460008473ffffffffffffffffffffffffffffffffffffffff1673ffffffffffffffffffffffffffffffffffffffff1681526020019081526020016000206000828254611adc9190614139565b92505081905550816003600083815260200190815260200160002060006101000a81548173ffffffffffffffffffffffffffffffffffffffff021916908373ffffffffffffffffffffffffffffffffffffffff160217905550808273ffffffffffffffffffffffffffffffffffffffff16600073ffffffffffffffffffffffffffffffffffffffff167fddf252ad1be2c89b69c2b068fc378daa952ba7f163c4a11628f55a4df523b3ef60405160405180910390a4611b9d6000838361290b565b5050565b611baa82612751565b611be9576040517f08c379a0000000000000000000000000000000000000000000000000000000008152600401611be090614201565b60405180910390fd5b80600760008481526020019081526020016000209080519060200190611c10929190612ff3565b505050565b611c1e81612751565b611c5d576040517f08c379a0000000000000000000000000000000000000000000000000000000008152600401611c5490613ebd565b60405180910390fd5b50565b6000611c6a6118db565b905090565b816005600083815260200190815260200160002060006101000a81548173ffffffffffffffffffffffffffffffffffffffff021916908373ffffffffffffffffffffffffffffffffffffffff160217905550808273ffffffffffffffffffffffffffffffffffffffff16611ce28361106a565b73ffffffffffffffffffffffffffffffffffffffff167f8c5be1e5ebec7d5bd14f71427d1e84f3dd0314c0f7b2291e5b200ac8c7c3b92560405160405180910390a45050565b600080611d348361106a565b90508073ffffffffffffffffffffffffffffffffffffffff168473ffffffffffffffffffffffffffffffffffffffff161480611d765750611d7581856117c3565b5b80611db457508373ffffffffffffffffffffffffffffffffffffffff16611d9c84610ae7565b73ffffffffffffffffffffffffffffffffffffffff16145b91505092915050565b8273ffffffffffffffffffffffffffffffffffffffff16611ddd8261106a565b73ffffffffffffffffffffffffffffffffffffffff1614611e33576040517f08c379a0000000000000000000000000000000000000000000000000000000008152600401611e2a90614293565b60405180910390fd5b600073ffffffffffffffffffffffffffffffffffffffff168273ffffffffffffffffffffffffffffffffffffffff161415611ea3576040517f08c379a0000000000000000000000000000000000000000000000000000000008152600401611e9a90614325565b60405180910390fd5b611eae8383836127bd565b611eb9600082611c6f565b6001600460008573ffffffffffffffffffffffffffffffffffffffff1673ffffffffffffffffffffffffffffffffffffffff1681526020019081526020016000206000828254611f099190614345565b925050819055506001600460008473ffffffffffffffffffffffffffffffffffffffff1673ffffffffffffffffffffffffffffffffffffffff1681526020019081526020016000206000828254611f609190614139565b92505081905550816003600083815260200190815260200160002060006101000a81548173ffffffffffffffffffffffffffffffffffffffff021916908373ffffffffffffffffffffffffffffffffffffffff160217905550808273ffffffffffffffffffffffffffffffffffffffff168473ffffffffffffffffffffffffffffffffffffffff167fddf252ad1be2c89b69c2b068fc378daa952ba7f163c4a11628f55a4df523b3ef60405160405180910390a461201f83838361290b565b505050565b61202e82826113d5565b6121015760016008600084815260200190815260200160002060000160008373ffffffffffffffffffffffffffffffffffffffff1673ffffffffffffffffffffffffffffffffffffffff16815260200190815260200160002060006101000a81548160ff0219169083151502179055506120a6611c60565b73ffffffffffffffffffffffffffffffffffffffff168173ffffffffffffffffffffffffffffffffffffffff16837f2f8788117e7eff1d82e926ec794901d17c78024a50270940304540a733656f0d60405160405180910390a45b5050565b61210f82826113d5565b156121e35760006008600084815260200190815260200160002060000160008373ffffffffffffffffffffffffffffffffffffffff1673ffffffffffffffffffffffffffffffffffffffff16815260200190815260200160002060006101000a81548160ff021916908315150217905550612188611c60565b73ffffffffffffffffffffffffffffffffffffffff168173ffffffffffffffffffffffffffffffffffffffff16837ff6391f5c32d9c69d2a47ea670b442974b53935d1edc7fd64eb21e047a839171b60405160405180910390a45b5050565b6121f18282612024565b5050565b6121fe81612910565b600060076000838152602001908152602001600020805461221e90613ae4565b905014612245576007600082815260200190815260200160002060006122449190613079565b5b50565b612250611c60565b73ffffffffffffffffffffffffffffffffffffffff1661226e6112eb565b73ffffffffffffffffffffffffffffffffffffffff16146122c4576040517f08c379a00000000000000000000000000000000000000000000000000000000081526004016122bb906143c5565b60405180910390fd5b565b60008060009054906101000a900473ffffffffffffffffffffffffffffffffffffffff169050816000806101000a81548173ffffffffffffffffffffffffffffffffffffffff021916908373ffffffffffffffffffffffffffffffffffffffff1602179055508173ffffffffffffffffffffffffffffffffffffffff168173ffffffffffffffffffffffffffffffffffffffff167f8be0079c531659141344cd1fd0a4f28419497f9722a3daafe3b4186f6b6457e060405160405180910390a35050565b8173ffffffffffffffffffffffffffffffffffffffff168373ffffffffffffffffffffffffffffffffffffffff1614156123f9576040517f08c379a00000000000000000000000000000000000000000000000000000000081526004016123f090614431565b60405180910390fd5b80600660008573ffffffffffffffffffffffffffffffffffffffff1673ffffffffffffffffffffffffffffffffffffffff16815260200190815260200160002060008473ffffffffffffffffffffffffffffffffffffffff1673ffffffffffffffffffffffffffffffffffffffff16815260200190815260200160002060006101000a81548160ff0219169083151502179055508173ffffffffffffffffffffffffffffffffffffffff168373ffffffffffffffffffffffffffffffffffffffff167f17307eab39ab6107e8899845ad3d59bd9653f200f220920489ca2b5937696c31836040516124ea919061318a565b60405180910390a3505050565b612502848484611dbd565b61250e84848484612a2d565b61254d576040517f08c379a0000000000000000000000000000000000000000000000000000000008152600401612544906144c3565b60405180910390fd5b50505050565b606060405180602001604052806000815250905090565b606061257582611c15565b600061257f612553565b9050600081511161259f57604051806020016040528060008152506125ca565b806125a984612bc4565b6040516020016125ba929190613fab565b6040516020818303038152906040525b915050919050565b60007f80ac58cd000000000000000000000000000000000000000000000000000000007bffffffffffffffffffffffffffffffffffffffffffffffffffffffff1916827bffffffffffffffffffffffffffffffffffffffffffffffffffffffff1916148061269d57507f5b5e139f000000000000000000000000000000000000000000000000000000007bffffffffffffffffffffffffffffffffffffffffffffffffffffffff1916827bffffffffffffffffffffffffffffffffffffffffffffffffffffffff1916145b806126ad57506126ac82612d25565b5b9050919050565b6126be82826113d5565b61274d576126e38173ffffffffffffffffffffffffffffffffffffffff166014612d8f565b6126f18360001c6020612d8f565b60405160200161270292919061457b565b6040516020818303038152906040526040517f08c379a0000000000000000000000000000000000000000000000000000000008152600401612744919061342f565b60405180910390fd5b5050565b60008073ffffffffffffffffffffffffffffffffffffffff166003600084815260200190815260200160002060009054906101000a900473ffffffffffffffffffffffffffffffffffffffff1673ffffffffffffffffffffffffffffffffffffffff1614159050919050565b6127c8838383612fcb565b6127f37f8502233096d909befbda0999bb8ea2f3a6be3c138b9fbf003752a4c8bce86f6c60006113d5565b15801561282d5750600073ffffffffffffffffffffffffffffffffffffffff168373ffffffffffffffffffffffffffffffffffffffff1614155b80156128665750600073ffffffffffffffffffffffffffffffffffffffff168273ffffffffffffffffffffffffffffffffffffffff1614155b15612906576128957f8502233096d909befbda0999bb8ea2f3a6be3c138b9fbf003752a4c8bce86f6c846113d5565b806128c657506128c57f8502233096d909befbda0999bb8ea2f3a6be3c138b9fbf003752a4c8bce86f6c836113d5565b5b612905576040517f08c379a00000000000000000000000000000000000000000000000000000000081526004016128fc90614601565b60405180910390fd5b5b505050565b505050565b600061291b8261106a565b9050612929816000846127bd565b612934600083611c6f565b6001600460008373ffffffffffffffffffffffffffffffffffffffff1673ffffffffffffffffffffffffffffffffffffffff16815260200190815260200160002060008282546129849190614345565b925050819055506003600083815260200190815260200160002060006101000a81549073ffffffffffffffffffffffffffffffffffffffff021916905581600073ffffffffffffffffffffffffffffffffffffffff168273ffffffffffffffffffffffffffffffffffffffff167fddf252ad1be2c89b69c2b068fc378daa952ba7f163c4a11628f55a4df523b3ef60405160405180910390a4612a298160008461290b565b5050565b6000612a4e8473ffffffffffffffffffffffffffffffffffffffff16612fd0565b15612bb7578373ffffffffffffffffffffffffffffffffffffffff1663150b7a02612a77611c60565b8786866040518563ffffffff1660e01b8152600401612a999493929190614621565b602060405180830381600087803b158015612ab357600080fd5b505af1925050508015612ae457506040513d601f19601f82011682018060405250810190612ae19190614682565b60015b612b67573d8060008114612b14576040519150601f19603f3d011682016040523d82523d6000602084013e612b19565b606091505b50600081511415612b5f576040517f08c379a0000000000000000000000000000000000000000000000000000000008152600401612b56906144c3565b60405180910390fd5b805181602001fd5b63150b7a0260e01b7bffffffffffffffffffffffffffffffffffffffffffffffffffffffff1916817bffffffffffffffffffffffffffffffffffffffffffffffffffffffff191614915050612bbc565b600190505b949350505050565b60606000821415612c0c576040518060400160405280600181526020017f30000000000000000000000000000000000000000000000000000000000000008152509050612d20565b600082905060005b60008214612c3e578080612c2790613e28565b915050600a82612c3791906146de565b9150612c14565b60008167ffffffffffffffff811115612c5a57612c596131c0565b5b6040519080825280601f01601f191660200182016040528015612c8c5781602001600182028036833780820191505090505b5090505b60008514612d1957600182612ca59190614345565b9150600a85612cb4919061470f565b6030612cc09190614139565b60f81b818381518110612cd657612cd5613dca565b5b60200101907effffffffffffffffffffffffffffffffffffffffffffffffffffffffffffff1916908160001a905350600a85612d1291906146de565b9450612c90565b8093505050505b919050565b60007f01ffc9a7000000000000000000000000000000000000000000000000000000007bffffffffffffffffffffffffffffffffffffffffffffffffffffffff1916827bffffffffffffffffffffffffffffffffffffffffffffffffffffffff1916149050919050565b606060006002836002612da29190614740565b612dac9190614139565b67ffffffffffffffff811115612dc557612dc46131c0565b5b6040519080825280601f01601f191660200182016040528015612df75781602001600182028036833780820191505090505b5090507f300000000000000000000000000000000000000000000000000000000000000081600081518110612e2f57612e2e613dca565b5b60200101907effffffffffffffffffffffffffffffffffffffffffffffffffffffffffffff1916908160001a9053507f780000000000000000000000000000000000000000000000000000000000000081600181518110612e9357612e92613dca565b5b60200101907effffffffffffffffffffffffffffffffffffffffffffffffffffffffffffff1916908160001a90535060006001846002612ed39190614740565b612edd9190614139565b90505b6001811115612f7d577f3031323334353637383961626364656600000000000000000000000000000000600f861660108110612f1f57612f1e613dca565b5b1a60f81b828281518110612f3657612f35613dca565b5b60200101907effffffffffffffffffffffffffffffffffffffffffffffffffffffffffffff1916908160001a905350600485901c945080612f769061479a565b9050612ee0565b5060008414612fc1576040517f08c379a0000000000000000000000000000000000000000000000000000000008152600401612fb890614810565b60405180910390fd5b8091505092915050565b505050565b6000808273ffffffffffffffffffffffffffffffffffffffff163b119050919050565b828054612fff90613ae4565b90600052602060002090601f0160209004810192826130215760008555613068565b82601f1061303a57805160ff1916838001178555613068565b82800160010185558215613068579182015b8281111561306757825182559160200191906001019061304c565b5b50905061307591906130b9565b5090565b50805461308590613ae4565b6000825580601f1061309757506130b6565b601f0160209004906000526020600020908101906130b591906130b9565b5b50565b5b808211156130d25760008160009055506001016130ba565b5090565b6000604051905090565b600080fd5b600080fd5b60007fffffffff0000000000000000000000000000000000000000000000000000000082169050919050565b61311f816130ea565b811461312a57600080fd5b50565b60008135905061313c81613116565b92915050565b600060208284031215613158576131576130e0565b5b60006131668482850161312d565b91505092915050565b60008115159050919050565b6131848161316f565b82525050565b600060208201905061319f600083018461317b565b92915050565b600080fd5b600080fd5b6000601f19601f8301169050919050565b7f4e487b7100000000000000000000000000000000000000000000000000000000600052604160045260246000fd5b6131f8826131af565b810181811067ffffffffffffffff82111715613217576132166131c0565b5b80604052505050565b600061322a6130d6565b905061323682826131ef565b919050565b600067ffffffffffffffff821115613256576132556131c0565b5b61325f826131af565b9050602081019050919050565b82818337600083830152505050565b600061328e6132898461323b565b613220565b9050828152602081018484840111156132aa576132a96131aa565b5b6132b584828561326c565b509392505050565b600082601f8301126132d2576132d16131a5565b5b81356132e284826020860161327b565b91505092915050565b6000819050919050565b6132fe816132eb565b811461330957600080fd5b50565b60008135905061331b816132f5565b92915050565b60008060408385031215613338576133376130e0565b5b600083013567ffffffffffffffff811115613356576133556130e5565b5b613362858286016132bd565b92505060206133738582860161330c565b9150509250929050565b613386816132eb565b82525050565b60006020820190506133a1600083018461337d565b92915050565b600081519050919050565b600082825260208201905092915050565b60005b838110156133e15780820151818401526020810190506133c6565b838111156133f0576000848401525b50505050565b6000613401826133a7565b61340b81856133b2565b935061341b8185602086016133c3565b613424816131af565b840191505092915050565b6000602082019050818103600083015261344981846133f6565b905092915050565b600060208284031215613467576134666130e0565b5b60006134758482850161330c565b91505092915050565b600073ffffffffffffffffffffffffffffffffffffffff82169050919050565b60006134a98261347e565b9050919050565b6134b98161349e565b82525050565b60006020820190506134d460008301846134b0565b92915050565b6134e38161349e565b81146134ee57600080fd5b50565b600081359050613500816134da565b92915050565b6000806040838503121561351d5761351c6130e0565b5b600061352b858286016134f1565b925050602061353c8582860161330c565b9150509250929050565b60006020828403121561355c5761355b6130e0565b5b600061356a848285016134f1565b91505092915050565b60008060006060848603121561358c5761358b6130e0565b5b600061359a868287016134f1565b93505060206135ab868287016134f1565b92505060406135bc8682870161330c565b9150509250925092565b6000819050919050565b6135d9816135c6565b81146135e457600080fd5b50565b6000813590506135f6816135d0565b92915050565b600060208284031215613612576136116130e0565b5b6000613620848285016135e7565b91505092915050565b613632816135c6565b82525050565b600060208201905061364d6000830184613629565b92915050565b6000806040838503121561366a576136696130e0565b5b6000613678858286016135e7565b9250506020613689858286016134f1565b9150509250929050565b600067ffffffffffffffff8211156136ae576136ad6131c0565b5b602082029050602081019050919050565b600080fd5b60006136d76136d284613693565b613220565b905080838252602082019050602084028301858111156136fa576136f96136bf565b5b835b81811015613723578061370f88826134f1565b8452602084019350506020810190506136fc565b5050509392505050565b600082601f830112613742576137416131a5565b5b81356137528482602086016136c4565b91505092915050565b600060208284031215613771576137706130e0565b5b600082013567ffffffffffffffff81111561378f5761378e6130e5565b5b61379b8482850161372d565b91505092915050565b6000806000606084860312156137bd576137bc6130e0565b5b60006137cb8682870161330c565b93505060206137dc868287016134f1565b92505060406137ed868287016134f1565b9150509250925092565b6000806040838503121561380e5761380d6130e0565b5b600061381c8582860161330c565b925050602061382d858286016134f1565b9150509250929050565b600081519050919050565b600082825260208201905092915050565b600061385e82613837565b6138688185613842565b93506138788185602086016133c3565b613881816131af565b840191505092915050565b600060208201905081810360008301526138a68184613853565b905092915050565b600060ff82169050919050565b6138c4816138ae565b82525050565b60006020820190506138df60008301846138bb565b92915050565b6138ee8161316f565b81146138f957600080fd5b50565b60008135905061390b816138e5565b92915050565b60008060408385031215613928576139276130e0565b5b6000613936858286016134f1565b9250506020613947858286016138fc565b9150509250929050565b600067ffffffffffffffff82111561396c5761396b6131c0565b5b613975826131af565b9050602081019050919050565b600061399561399084613951565b613220565b9050828152602081018484840111156139b1576139b06131aa565b5b6139bc84828561326c565b509392505050565b600082601f8301126139d9576139d86131a5565b5b81356139e9848260208601613982565b91505092915050565b60008060008060808587031215613a0c57613a0b6130e0565b5b6000613a1a878288016134f1565b9450506020613a2b878288016134f1565b9350506040613a3c8782880161330c565b925050606085013567ffffffffffffffff811115613a5d57613a5c6130e5565b5b613a69878288016139c4565b91505092959194509250565b60008060408385031215613a8c57613a8b6130e0565b5b6000613a9a858286016134f1565b9250506020613aab858286016134f1565b9150509250929050565b7f4e487b7100000000000000000000000000000000000000000000000000000000600052602260045260246000fd5b60006002820490506001821680613afc57607f821691505b60208210811415613b1057613b0f613ab5565b5b50919050565b7f4552433732313a20617070726f76616c20746f2063757272656e74206f776e6560008201527f7200000000000000000000000000000000000000000000000000000000000000602082015250565b6000613b726021836133b2565b9150613b7d82613b16565b604082019050919050565b60006020820190508181036000830152613ba181613b65565b9050919050565b7f4552433732313a20617070726f76652063616c6c6572206973206e6f7420746f60008201527f6b656e206f776e6572206e6f7220617070726f76656420666f7220616c6c0000602082015250565b6000613c04603e836133b2565b9150613c0f82613ba8565b604082019050919050565b60006020820190508181036000830152613c3381613bf7565b9050919050565b7f2141444d494e0000000000000000000000000000000000000000000000000000600082015250565b6000613c706006836133b2565b9150613c7b82613c3a565b602082019050919050565b60006020820190508181036000830152613c9f81613c63565b9050919050565b7f4552433732313a2063616c6c6572206973206e6f7420746f6b656e206f776e6560008201527f72206e6f7220617070726f766564000000000000000000000000000000000000602082015250565b6000613d02602e836133b2565b9150613d0d82613ca6565b604082019050919050565b60006020820190508181036000830152613d3181613cf5565b9050919050565b7f416363657373436f6e74726f6c3a2063616e206f6e6c792072656e6f756e636560008201527f20726f6c657320666f722073656c660000000000000000000000000000000000602082015250565b6000613d94602f836133b2565b9150613d9f82613d38565b604082019050919050565b60006020820190508181036000830152613dc381613d87565b9050919050565b7f4e487b7100000000000000000000000000000000000000000000000000000000600052603260045260246000fd5b7f4e487b7100000000000000000000000000000000000000000000000000000000600052601160045260246000fd5b6000613e33826132eb565b91507fffffffffffffffffffffffffffffffffffffffffffffffffffffffffffffffff821415613e6657613e65613df9565b5b600182019050919050565b7f4552433732313a20696e76616c696420746f6b656e2049440000000000000000600082015250565b6000613ea76018836133b2565b9150613eb282613e71565b602082019050919050565b60006020820190508181036000830152613ed681613e9a565b9050919050565b7f4552433732313a2061646472657373207a65726f206973206e6f74206120766160008201527f6c6964206f776e65720000000000000000000000000000000000000000000000602082015250565b6000613f396029836133b2565b9150613f4482613edd565b604082019050919050565b60006020820190508181036000830152613f6881613f2c565b9050919050565b600081905092915050565b6000613f85826133a7565b613f8f8185613f6f565b9350613f9f8185602086016133c3565b80840191505092915050565b6000613fb78285613f7a565b9150613fc38284613f7a565b91508190509392505050565b7f4f776e61626c653a206e6577206f776e657220697320746865207a65726f206160008201527f6464726573730000000000000000000000000000000000000000000000000000602082015250565b600061402b6026836133b2565b915061403682613fcf565b604082019050919050565b6000602082019050818103600083015261405a8161401e565b9050919050565b7f4552433732313a206d696e7420746f20746865207a65726f2061646472657373600082015250565b60006140976020836133b2565b91506140a282614061565b602082019050919050565b600060208201905081810360008301526140c68161408a565b9050919050565b7f4552433732313a20746f6b656e20616c7265616479206d696e74656400000000600082015250565b6000614103601c836133b2565b915061410e826140cd565b602082019050919050565b60006020820190508181036000830152614132816140f6565b9050919050565b6000614144826132eb565b915061414f836132eb565b9250827fffffffffffffffffffffffffffffffffffffffffffffffffffffffffffffffff0382111561418457614183613df9565b5b828201905092915050565b7f45524337323155524953746f726167653a2055524920736574206f66206e6f6e60008201527f6578697374656e7420746f6b656e000000000000000000000000000000000000602082015250565b60006141eb602e836133b2565b91506141f68261418f565b604082019050919050565b6000602082019050818103600083015261421a816141de565b9050919050565b7f4552433732313a207472616e736665722066726f6d20696e636f72726563742060008201527f6f776e6572000000000000000000000000000000000000000000000000000000602082015250565b600061427d6025836133b2565b915061428882614221565b604082019050919050565b600060208201905081810360008301526142ac81614270565b9050919050565b7f4552433732313a207472616e7366657220746f20746865207a65726f2061646460008201527f7265737300000000000000000000000000000000000000000000000000000000602082015250565b600061430f6024836133b2565b915061431a826142b3565b604082019050919050565b6000602082019050818103600083015261433e81614302565b9050919050565b6000614350826132eb565b915061435b836132eb565b92508282101561436e5761436d613df9565b5b828203905092915050565b7f4f776e61626c653a2063616c6c6572206973206e6f7420746865206f776e6572600082015250565b60006143af6020836133b2565b91506143ba82614379565b602082019050919050565b600060208201905081810360008301526143de816143a2565b9050919050565b7f4552433732313a20617070726f766520746f2063616c6c657200000000000000600082015250565b600061441b6019836133b2565b9150614426826143e5565b602082019050919050565b6000602082019050818103600083015261444a8161440e565b9050919050565b7f4552433732313a207472616e7366657220746f206e6f6e20455243373231526560008201527f63656976657220696d706c656d656e7465720000000000000000000000000000602082015250565b60006144ad6032836133b2565b91506144b882614451565b604082019050919050565b600060208201905081810360008301526144dc816144a0565b9050919050565b7f416363657373436f6e74726f6c3a206163636f756e7420000000000000000000600082015250565b6000614519601783613f6f565b9150614524826144e3565b601782019050919050565b7f206973206d697373696e6720726f6c6520000000000000000000000000000000600082015250565b6000614565601183613f6f565b91506145708261452f565b601182019050919050565b60006145868261450c565b91506145928285613f7a565b915061459d82614558565b91506145a98284613f7a565b91508190509392505050565b7f215452414e534645525f524f4c45000000000000000000000000000000000000600082015250565b60006145eb600e836133b2565b91506145f6826145b5565b602082019050919050565b6000602082019050818103600083015261461a816145de565b9050919050565b600060808201905061463660008301876134b0565b61464360208301866134b0565b614650604083018561337d565b81810360608301526146628184613853565b905095945050505050565b60008151905061467c81613116565b92915050565b600060208284031215614698576146976130e0565b5b60006146a68482850161466d565b91505092915050565b7f4e487b7100000000000000000000000000000000000000000000000000000000600052601260045260246000fd5b60006146e9826132eb565b91506146f4836132eb565b925082614704576147036146af565b5b828204905092915050565b600061471a826132eb565b9150614725836132eb565b925082614735576147346146af565b5b828206905092915050565b600061474b826132eb565b9150614756836132eb565b9250817fffffffffffffffffffffffffffffffffffffffffffffffffffffffffffffffff048311821515161561478f5761478e613df9565b5b828202905092915050565b60006147a5826132eb565b915060008214156147b9576147b8613df9565b5b600182039050919050565b7f537472696e67733a20686578206c656e67746820696e73756666696369656e74600082015250565b60006147fa6020836133b2565b9150614805826147c4565b602082019050919050565b60006020820190508181036000830152614829816147ed565b905091905056fea264697066735822122026564acf489d23e13d13621adba5d44a0263a934563b6cfbbd503827b79acd3e64736f6c63430008090033",
  "linkReferences": {},
  "deployedLinkReferences": {}
}