{
  "_format": "hh-sol-artifact-1",
  "contractName": "ERC721Token",
  "sourceName": "contracts/ERC721Token.sol",
  "abi": [
    {
      "inputs": [
        {
          "internalType": "string",
          "name": "token_name",
          "type": "string"
        },
        {
          "internalType": "string",
          "name": "token_symbol",
          "type": "string"
        },
        {
          "internalType": "address",
          "name": "default_owner",
          "type": "address"
        },
        {
          "internalType": "contract MinimalForwarder",
          "name": "forwarder",
          "type": "address"
        }
      ],
      "stateMutability": "nonpayable",
      "type": "constructor"
    },
    {
      "anonymous": false,
      "inputs": [
        {
          "indexed": true,
          "internalType": "address",
          "name": "owner",
          "type": "address"
        },
        {
          "indexed": true,
          "internalType": "address",
          "name": "approved",
          "type": "address"
        },
        {
          "indexed": true,
          "internalType": "uint256",
          "name": "tokenId",
          "type": "uint256"
        }
      ],
      "name": "Approval",
      "type": "event"
    },
    {
      "anonymous": false,
      "inputs": [
        {
          "indexed": true,
          "internalType": "address",
          "name": "owner",
          "type": "address"
        },
        {
          "indexed": true,
          "internalType": "address",
          "name": "operator",
          "type": "address"
        },
        {
          "indexed": false,
          "internalType": "bool",
          "name": "approved",
          "type": "bool"
        }
      ],
      "name": "ApprovalForAll",
      "type": "event"
    },
    {
      "anonymous": false,
      "inputs": [
        {
          "indexed": true,
          "internalType": "address",
          "name": "previousOwner",
          "type": "address"
        },
        {
          "indexed": true,
          "internalType": "address",
          "name": "newOwner",
          "type": "address"
        }
      ],
      "name": "OwnershipTransferred",
      "type": "event"
    },
    {
      "anonymous": false,
      "inputs": [
        {
          "indexed": true,
          "internalType": "bytes32",
          "name": "role",
          "type": "bytes32"
        },
        {
          "indexed": true,
          "internalType": "bytes32",
          "name": "previousAdminRole",
          "type": "bytes32"
        },
        {
          "indexed": true,
          "internalType": "bytes32",
          "name": "newAdminRole",
          "type": "bytes32"
        }
      ],
      "name": "RoleAdminChanged",
      "type": "event"
    },
    {
      "anonymous": false,
      "inputs": [
        {
          "indexed": true,
          "internalType": "bytes32",
          "name": "role",
          "type": "bytes32"
        },
        {
          "indexed": true,
          "internalType": "address",
          "name": "account",
          "type": "address"
        },
        {
          "indexed": true,
          "internalType": "address",
          "name": "sender",
          "type": "address"
        }
      ],
      "name": "RoleGranted",
      "type": "event"
    },
    {
      "anonymous": false,
      "inputs": [
        {
          "indexed": true,
          "internalType": "bytes32",
          "name": "role",
          "type": "bytes32"
        },
        {
          "indexed": true,
          "internalType": "address",
          "name": "account",
          "type": "address"
        },
        {
          "indexed": true,
          "internalType": "address",
          "name": "sender",
          "type": "address"
        }
      ],
      "name": "RoleRevoked",
      "type": "event"
    },
    {
      "anonymous": false,
      "inputs": [
        {
          "indexed": true,
          "internalType": "address",
          "name": "from",
          "type": "address"
        },
        {
          "indexed": true,
          "internalType": "address",
          "name": "to",
          "type": "address"
        },
        {
          "indexed": true,
          "internalType": "uint256",
          "name": "tokenId",
          "type": "uint256"
        }
      ],
      "name": "Transfer",
      "type": "event"
    },
    {
      "inputs": [],
      "name": "BURNER_ROLE",
      "outputs": [
        {
          "internalType": "bytes32",
          "name": "",
          "type": "bytes32"
        }
      ],
      "stateMutability": "view",
      "type": "function"
    },
    {
      "inputs": [],
      "name": "DEFAULT_ADMIN_ROLE",
      "outputs": [
        {
          "internalType": "bytes32",
          "name": "",
          "type": "bytes32"
        }
      ],
      "stateMutability": "view",
      "type": "function"
    },
    {
      "inputs": [
        {
          "internalType": "address[]",
          "name": "burners",
          "type": "address[]"
        }
      ],
      "name": "addBurners",
      "outputs": [],
      "stateMutability": "nonpayable",
      "type": "function"
    },
    {
      "inputs": [
        {
          "internalType": "address[]",
          "name": "minters",
          "type": "address[]"
        }
      ],
      "name": "addMinters",
      "outputs": [],
      "stateMutability": "nonpayable",
      "type": "function"
    },
    {
      "inputs": [
        {
          "internalType": "address",
          "name": "to",
          "type": "address"
        },
        {
          "internalType": "uint256",
          "name": "tokenId",
          "type": "uint256"
        }
      ],
      "name": "approve",
      "outputs": [],
      "stateMutability": "nonpayable",
      "type": "function"
    },
    {
      "inputs": [
        {
          "internalType": "address",
          "name": "owner",
          "type": "address"
        }
      ],
      "name": "balanceOf",
      "outputs": [
        {
          "internalType": "uint256",
          "name": "",
          "type": "uint256"
        }
      ],
      "stateMutability": "view",
      "type": "function"
    },
    {
      "inputs": [
        {
          "internalType": "uint256",
          "name": "tokenId",
          "type": "uint256"
        }
      ],
      "name": "burn",
      "outputs": [],
      "stateMutability": "nonpayable",
      "type": "function"
    },
    {
      "inputs": [],
      "name": "contractType",
      "outputs": [
        {
          "internalType": "bytes32",
          "name": "",
          "type": "bytes32"
        }
      ],
      "stateMutability": "pure",
      "type": "function"
    },
    {
      "inputs": [],
      "name": "contractVersion",
      "outputs": [
        {
          "internalType": "uint8",
          "name": "",
          "type": "uint8"
        }
      ],
      "stateMutability": "pure",
      "type": "function"
    },
    {
      "inputs": [
        {
          "internalType": "uint256",
          "name": "",
          "type": "uint256"
        }
      ],
      "name": "encryptedData",
      "outputs": [
        {
          "internalType": "bytes",
          "name": "",
          "type": "bytes"
        }
      ],
      "stateMutability": "view",
      "type": "function"
    },
    {
      "inputs": [],
      "name": "fetchAllNFTs",
      "outputs": [
        {
          "components": [
            {
              "internalType": "uint256",
              "name": "tokenId",
              "type": "uint256"
            },
            {
              "internalType": "address",
              "name": "owner",
              "type": "address"
            },
            {
              "internalType": "uint256",
              "name": "price",
              "type": "uint256"
            }
          ],
          "internalType": "struct ERC721Token.MarketItem[]",
          "name": "",
          "type": "tuple[]"
        }
      ],
      "stateMutability": "view",
      "type": "function"
    },
    {
      "inputs": [
        {
          "internalType": "uint256",
          "name": "tokenId",
          "type": "uint256"
        }
      ],
      "name": "getApproved",
      "outputs": [
        {
          "internalType": "address",
          "name": "",
          "type": "address"
        }
      ],
      "stateMutability": "view",
      "type": "function"
    },
    {
      "inputs": [
        {
          "internalType": "bytes32",
          "name": "role",
          "type": "bytes32"
        }
      ],
      "name": "getRoleAdmin",
      "outputs": [
        {
          "internalType": "bytes32",
          "name": "",
          "type": "bytes32"
        }
      ],
      "stateMutability": "view",
      "type": "function"
    },
    {
      "inputs": [
        {
          "internalType": "bytes32",
          "name": "role",
          "type": "bytes32"
        },
        {
          "internalType": "address",
          "name": "account",
          "type": "address"
        }
      ],
      "name": "grantRole",
      "outputs": [],
      "stateMutability": "nonpayable",
      "type": "function"
    },
    {
      "inputs": [],
      "name": "hasBurnerRole",
      "outputs": [
        {
          "internalType": "bool",
          "name": "",
          "type": "bool"
        }
      ],
      "stateMutability": "view",
      "type": "function"
    },
    {
      "inputs": [],
      "name": "hasMinterRole",
      "outputs": [
        {
          "internalType": "bool",
          "name": "",
          "type": "bool"
        }
      ],
      "stateMutability": "view",
      "type": "function"
    },
    {
      "inputs": [
        {
          "internalType": "bytes32",
          "name": "role",
          "type": "bytes32"
        },
        {
          "internalType": "address",
          "name": "account",
          "type": "address"
        }
      ],
      "name": "hasRole",
      "outputs": [
        {
          "internalType": "bool",
          "name": "",
          "type": "bool"
        }
      ],
      "stateMutability": "view",
      "type": "function"
    },
    {
      "inputs": [
        {
          "internalType": "address",
          "name": "owner",
          "type": "address"
        },
        {
          "internalType": "address",
          "name": "operator",
          "type": "address"
        }
      ],
      "name": "isApprovedForAll",
      "outputs": [
        {
          "internalType": "bool",
          "name": "",
          "type": "bool"
        }
      ],
      "stateMutability": "view",
      "type": "function"
    },
    {
      "inputs": [],
      "name": "isOwner",
      "outputs": [
        {
          "internalType": "bool",
          "name": "",
          "type": "bool"
        }
      ],
      "stateMutability": "view",
      "type": "function"
    },
    {
      "inputs": [
        {
          "internalType": "address",
          "name": "forwarder",
          "type": "address"
        }
      ],
      "name": "isTrustedForwarder",
      "outputs": [
        {
          "internalType": "bool",
          "name": "",
          "type": "bool"
        }
      ],
      "stateMutability": "view",
      "type": "function"
    },
    {
      "inputs": [
        {
          "internalType": "string",
          "name": "_tokenURI",
          "type": "string"
        },
        {
          "internalType": "uint256",
          "name": "_price",
          "type": "uint256"
        }
      ],
      "name": "mint",
      "outputs": [
        {
          "internalType": "uint256",
          "name": "",
          "type": "uint256"
        }
      ],
      "stateMutability": "nonpayable",
      "type": "function"
    },
    {
      "inputs": [],
      "name": "name",
      "outputs": [
        {
          "internalType": "string",
          "name": "",
          "type": "string"
        }
      ],
      "stateMutability": "view",
      "type": "function"
    },
    {
      "inputs": [],
      "name": "owner",
      "outputs": [
        {
          "internalType": "address",
          "name": "",
          "type": "address"
        }
      ],
      "stateMutability": "view",
      "type": "function"
    },
    {
      "inputs": [
        {
          "internalType": "uint256",
          "name": "tokenId",
          "type": "uint256"
        }
      ],
      "name": "ownerOf",
      "outputs": [
        {
          "internalType": "address",
          "name": "",
          "type": "address"
        }
      ],
      "stateMutability": "view",
      "type": "function"
    },
    {
      "inputs": [
        {
          "internalType": "uint256",
          "name": "",
          "type": "uint256"
        }
      ],
      "name": "price",
      "outputs": [
        {
          "internalType": "uint256",
          "name": "",
          "type": "uint256"
        }
      ],
      "stateMutability": "view",
      "type": "function"
    },
    {
      "inputs": [
        {
          "internalType": "address[]",
          "name": "burners",
          "type": "address[]"
        }
      ],
      "name": "removeBurners",
      "outputs": [],
      "stateMutability": "nonpayable",
      "type": "function"
    },
    {
      "inputs": [
        {
          "internalType": "address[]",
          "name": "minters",
          "type": "address[]"
        }
      ],
      "name": "removeMinters",
      "outputs": [],
      "stateMutability": "nonpayable",
      "type": "function"
    },
    {
      "inputs": [],
      "name": "renounceOwnership",
      "outputs": [],
      "stateMutability": "nonpayable",
      "type": "function"
    },
    {
      "inputs": [
        {
          "internalType": "bytes32",
          "name": "role",
          "type": "bytes32"
        },
        {
          "internalType": "address",
          "name": "account",
          "type": "address"
        }
      ],
      "name": "renounceRole",
      "outputs": [],
      "stateMutability": "nonpayable",
      "type": "function"
    },
    {
      "inputs": [
        {
          "internalType": "bytes32",
          "name": "role",
          "type": "bytes32"
        },
        {
          "internalType": "address",
          "name": "account",
          "type": "address"
        }
      ],
      "name": "revokeRole",
      "outputs": [],
      "stateMutability": "nonpayable",
      "type": "function"
    },
    {
      "inputs": [
        {
          "internalType": "address",
          "name": "from",
          "type": "address"
        },
        {
          "internalType": "address",
          "name": "to",
          "type": "address"
        },
        {
          "internalType": "uint256",
          "name": "tokenId",
          "type": "uint256"
        }
      ],
      "name": "safeTransferFrom",
      "outputs": [],
      "stateMutability": "nonpayable",
      "type": "function"
    },
    {
      "inputs": [
        {
          "internalType": "address",
          "name": "from",
          "type": "address"
        },
        {
          "internalType": "address",
          "name": "to",
          "type": "address"
        },
        {
          "internalType": "uint256",
          "name": "tokenId",
          "type": "uint256"
        },
        {
          "internalType": "bytes",
          "name": "data",
          "type": "bytes"
        }
      ],
      "name": "safeTransferFrom",
      "outputs": [],
      "stateMutability": "nonpayable",
      "type": "function"
    },
    {
      "inputs": [
        {
          "internalType": "address",
          "name": "operator",
          "type": "address"
        },
        {
          "internalType": "bool",
          "name": "approved",
          "type": "bool"
        }
      ],
      "name": "setApprovalForAll",
      "outputs": [],
      "stateMutability": "nonpayable",
      "type": "function"
    },
    {
      "inputs": [
        {
          "internalType": "address",
          "name": "_newOwner",
          "type": "address"
        }
      ],
      "name": "setOwner",
      "outputs": [],
      "stateMutability": "nonpayable",
      "type": "function"
    },
    {
      "inputs": [
        {
          "internalType": "bytes4",
          "name": "interfaceId",
          "type": "bytes4"
        }
      ],
      "name": "supportsInterface",
      "outputs": [
        {
          "internalType": "bool",
          "name": "",
          "type": "bool"
        }
      ],
      "stateMutability": "view",
      "type": "function"
    },
    {
      "inputs": [],
      "name": "symbol",
      "outputs": [
        {
          "internalType": "string",
          "name": "",
          "type": "string"
        }
      ],
      "stateMutability": "view",
      "type": "function"
    },
    {
      "inputs": [
        {
          "internalType": "uint256",
          "name": "tokenId",
          "type": "uint256"
        }
      ],
      "name": "tokenURI",
      "outputs": [
        {
          "internalType": "string",
          "name": "",
          "type": "string"
        }
      ],
      "stateMutability": "view",
      "type": "function"
    },
    {
      "inputs": [
        {
          "internalType": "address",
          "name": "from",
          "type": "address"
        },
        {
          "internalType": "address",
          "name": "to",
          "type": "address"
        },
        {
          "internalType": "uint256",
          "name": "tokenId",
          "type": "uint256"
        }
      ],
      "name": "transferFrom",
      "outputs": [],
      "stateMutability": "nonpayable",
      "type": "function"
    },
    {
      "inputs": [
        {
          "internalType": "uint256",
          "name": "_id",
          "type": "uint256"
        },
        {
          "internalType": "address",
          "name": "to",
          "type": "address"
        }
      ],
      "name": "transferNFT",
      "outputs": [],
      "stateMutability": "payable",
      "type": "function"
    },
    {
      "inputs": [
        {
          "internalType": "uint256",
          "name": "_id",
          "type": "uint256"
        },
        {
          "internalType": "address",
          "name": "from",
          "type": "address"
        },
        {
          "internalType": "address",
          "name": "to",
          "type": "address"
        }
      ],
      "name": "transferNFTFrom",
      "outputs": [],
      "stateMutability": "payable",
      "type": "function"
    },
    {
      "inputs": [
        {
          "internalType": "address",
          "name": "newOwner",
          "type": "address"
        }
      ],
      "name": "transferOwnership",
      "outputs": [],
      "stateMutability": "nonpayable",
      "type": "function"
    },
    {
      "inputs": [
        {
          "internalType": "address",
          "name": "",
          "type": "address"
        }
      ],
      "name": "walletClaimCount",
      "outputs": [
        {
          "internalType": "uint256",
          "name": "",
          "type": "uint256"
        }
      ],
      "stateMutability": "view",
      "type": "function"
    }
  ],
  "bytecode": "0x60a06040523480156200001157600080fd5b506040516200577c3803806200577c833981810160405281019062000037919062000a30565b8383828073ffffffffffffffffffffffffffffffffffffffff1660808173ffffffffffffffffffffffffffffffffffffffff1681525050506200008f62000083620002c260201b60201c565b620002de60201b60201c565b8160019080519060200190620000a792919062000739565b508060029080519060200190620000c092919062000739565b50505081600a60006101000a81548173ffffffffffffffffffffffffffffffffffffffff021916908373ffffffffffffffffffffffffffffffffffffffff160217905550620001196000801b83620003a260201b60201c565b6200014b7f9f2df0fed2c77648de5860a4cc508cd0818c85b8b8a1ab4ceeef8d981c8956a683620003a260201b60201c565b6200017d7f8502233096d909befbda0999bb8ea2f3a6be3c138b9fbf003752a4c8bce86f6c83620003a260201b60201c565b620001af7f3c11d16cbaffd01df69ce1c404f6340ee057498f5f00246190ea54220576a84883620003a260201b60201c565b620001e27f8502233096d909befbda0999bb8ea2f3a6be3c138b9fbf003752a4c8bce86f6c6000620003a260201b60201c565b620002237f9f2df0fed2c77648de5860a4cc508cd0818c85b8b8a1ab4ceeef8d981c8956a662000217620002c260201b60201c565b620003a260201b60201c565b620002647f3c11d16cbaffd01df69ce1c404f6340ee057498f5f00246190ea54220576a84862000258620002c260201b60201c565b620003a260201b60201c565b620002a57f8502233096d909befbda0999bb8ea2f3a6be3c138b9fbf003752a4c8bce86f6c62000299620002c260201b60201c565b620003a260201b60201c565b620002b8826001620003b860201b60201c565b5050505062000c02565b6000620002d9620003de60201b62001a6b1760201c565b905090565b60008060009054906101000a900473ffffffffffffffffffffffffffffffffffffffff169050816000806101000a81548173ffffffffffffffffffffffffffffffffffffffff021916908373ffffffffffffffffffffffffffffffffffffffff1602179055508173ffffffffffffffffffffffffffffffffffffffff168173ffffffffffffffffffffffffffffffffffffffff167f8be0079c531659141344cd1fd0a4f28419497f9722a3daafe3b4186f6b6457e060405160405180910390a35050565b620003b482826200042860201b60201c565b5050565b620003da620003cc620002c260201b60201c565b83836200051a60201b60201c565b5050565b6000620003f1336200068c60201b60201c565b156200040757601436033560601c905062000424565b6200041c620006c660201b62001a9d1760201c565b905062000425565b5b90565b6200043a8282620006ce60201b60201c565b620005165760016008600084815260200190815260200160002060000160008373ffffffffffffffffffffffffffffffffffffffff1673ffffffffffffffffffffffffffffffffffffffff16815260200190815260200160002060006101000a81548160ff021916908315150217905550620004bb620002c260201b60201c565b73ffffffffffffffffffffffffffffffffffffffff168173ffffffffffffffffffffffffffffffffffffffff16837f2f8788117e7eff1d82e926ec794901d17c78024a50270940304540a733656f0d60405160405180910390a45b5050565b8173ffffffffffffffffffffffffffffffffffffffff168373ffffffffffffffffffffffffffffffffffffffff1614156200058c576040517f08c379a0000000000000000000000000000000000000000000000000000000008152600401620005839062000b41565b60405180910390fd5b80600660008573ffffffffffffffffffffffffffffffffffffffff1673ffffffffffffffffffffffffffffffffffffffff16815260200190815260200160002060008473ffffffffffffffffffffffffffffffffffffffff1673ffffffffffffffffffffffffffffffffffffffff16815260200190815260200160002060006101000a81548160ff0219169083151502179055508173ffffffffffffffffffffffffffffffffffffffff168373ffffffffffffffffffffffffffffffffffffffff167f17307eab39ab6107e8899845ad3d59bd9653f200f220920489ca2b5937696c31836040516200067f919062000b80565b60405180910390a3505050565b600060805173ffffffffffffffffffffffffffffffffffffffff168273ffffffffffffffffffffffffffffffffffffffff16149050919050565b600033905090565b60006008600084815260200190815260200160002060000160008373ffffffffffffffffffffffffffffffffffffffff1673ffffffffffffffffffffffffffffffffffffffff16815260200190815260200160002060009054906101000a900460ff16905092915050565b828054620007479062000bcc565b90600052602060002090601f0160209004810192826200076b5760008555620007b7565b82601f106200078657805160ff1916838001178555620007b7565b82800160010185558215620007b7579182015b82811115620007b657825182559160200191906001019062000799565b5b509050620007c69190620007ca565b5090565b5b80821115620007e5576000816000905550600101620007cb565b5090565b6000604051905090565b600080fd5b600080fd5b600080fd5b600080fd5b6000601f19601f8301169050919050565b7f4e487b7100000000000000000000000000000000000000000000000000000000600052604160045260246000fd5b620008528262000807565b810181811067ffffffffffffffff8211171562000874576200087362000818565b5b80604052505050565b600062000889620007e9565b905062000897828262000847565b919050565b600067ffffffffffffffff821115620008ba57620008b962000818565b5b620008c58262000807565b9050602081019050919050565b60005b83811015620008f2578082015181840152602081019050620008d5565b8381111562000902576000848401525b50505050565b60006200091f62000919846200089c565b6200087d565b9050828152602081018484840111156200093e576200093d62000802565b5b6200094b848285620008d2565b509392505050565b600082601f8301126200096b576200096a620007fd565b5b81516200097d84826020860162000908565b91505092915050565b600073ffffffffffffffffffffffffffffffffffffffff82169050919050565b6000620009b38262000986565b9050919050565b620009c581620009a6565b8114620009d157600080fd5b50565b600081519050620009e581620009ba565b92915050565b6000620009f882620009a6565b9050919050565b62000a0a81620009eb565b811462000a1657600080fd5b50565b60008151905062000a2a81620009ff565b92915050565b6000806000806080858703121562000a4d5762000a4c620007f3565b5b600085015167ffffffffffffffff81111562000a6e5762000a6d620007f8565b5b62000a7c8782880162000953565b945050602085015167ffffffffffffffff81111562000aa05762000a9f620007f8565b5b62000aae8782880162000953565b935050604062000ac187828801620009d4565b925050606062000ad48782880162000a19565b91505092959194509250565b600082825260208201905092915050565b7f4552433732313a20617070726f766520746f2063616c6c657200000000000000600082015250565b600062000b2960198362000ae0565b915062000b368262000af1565b602082019050919050565b6000602082019050818103600083015262000b5c8162000b1a565b9050919050565b60008115159050919050565b62000b7a8162000b63565b82525050565b600060208201905062000b97600083018462000b6f565b92915050565b7f4e487b7100000000000000000000000000000000000000000000000000000000600052602260045260246000fd5b6000600282049050600182168062000be557607f821691505b6020821081141562000bfc5762000bfb62000b9d565b5b50919050565b608051614b5e62000c1e60003960006111390152614b5e6000f3fe6080604052600436106102515760003560e01c806370a0823111610139578063a05112fc116100b6578063c87b56dd1161007a578063c87b56dd146108de578063cb2ef6f71461091b578063d547741f14610946578063e47d419b1461096f578063e985e9c514610998578063f2fde38b146109d557610251565b8063a05112fc146107f9578063a0a8e46014610836578063a217fddf14610861578063a22cb4651461088c578063b88d4fde146108b557610251565b80638da5cb5b116100fd5780638da5cb5b1461071f5780638f32d59b1461074a5780639036c0501461077557806391d148541461079157806395d89b41146107ce57610251565b806370a082311461065b578063715018a61461069857806371e2a657146106af578063745fffbe146106d85780638c71db581461070357610251565b8063282c51f3116101d257806342842e0e1161019657806342842e0e1461052957806342966c68146105525780634352ab411461057b578063572b6c05146105b85780635fc1964f146105f55780636352211e1461061e57610251565b8063282c51f3146104585780632f2ff15d1461048357806336568abe146104ac5780633ab84dd9146104d55780633f0e317b146104fe57610251565b806313af40351161021957806313af4035146103615780631592b6071461038a57806323b872dd146103b5578063248a9ca3146103de57806326a49e371461041b57610251565b806301ffc9a714610256578063056b01ce1461029357806306fdde03146102d0578063081812fc146102fb578063095ea7b314610338575b600080fd5b34801561026257600080fd5b5061027d60048036038101906102789190613309565b6109fe565b60405161028a9190613351565b60405180910390f35b34801561029f57600080fd5b506102ba60048036038101906102b591906134e8565b610a10565b6040516102c79190613553565b60405180910390f35b3480156102dc57600080fd5b506102e5610a8b565b6040516102f291906135f6565b60405180910390f35b34801561030757600080fd5b50610322600480360381019061031d9190613618565b610b1d565b60405161032f9190613686565b60405180910390f35b34801561034457600080fd5b5061035f600480360381019061035a91906136cd565b610b63565b005b34801561036d57600080fd5b506103886004803603810190610383919061370d565b610c7b565b005b34801561039657600080fd5b5061039f610d44565b6040516103ac9190613351565b60405180910390f35b3480156103c157600080fd5b506103dc60048036038101906103d7919061373a565b610d7c565b005b3480156103ea57600080fd5b50610405600480360381019061040091906137c3565b610ddc565b60405161041291906137ff565b60405180910390f35b34801561042757600080fd5b50610442600480360381019061043d9190613618565b610dfc565b60405161044f9190613553565b60405180910390f35b34801561046457600080fd5b5061046d610e14565b60405161047a91906137ff565b60405180910390f35b34801561048f57600080fd5b506104aa60048036038101906104a5919061381a565b610e38565b005b3480156104b857600080fd5b506104d360048036038101906104ce919061381a565b610e59565b005b3480156104e157600080fd5b506104fc60048036038101906104f79190613922565b610edc565b005b34801561050a57600080fd5b50610513610f6c565b6040516105209190613a7a565b60405180910390f35b34801561053557600080fd5b50610550600480360381019061054b919061373a565b6110c6565b005b34801561055e57600080fd5b5061057960048036038101906105749190613618565b6110e6565b005b34801561058757600080fd5b506105a2600480360381019061059d919061370d565b61111d565b6040516105af9190613553565b60405180910390f35b3480156105c457600080fd5b506105df60048036038101906105da919061370d565b611135565b6040516105ec9190613351565b60405180910390f35b34801561060157600080fd5b5061061c60048036038101906106179190613922565b61118d565b005b34801561062a57600080fd5b5061064560048036038101906106409190613618565b6111fa565b6040516106529190613686565b60405180910390f35b34801561066757600080fd5b50610682600480360381019061067d919061370d565b6112ac565b60405161068f9190613553565b60405180910390f35b3480156106a457600080fd5b506106ad611364565b005b3480156106bb57600080fd5b506106d660048036038101906106d19190613922565b611378565b005b3480156106e457600080fd5b506106ed611408565b6040516106fa9190613351565b60405180910390f35b61071d60048036038101906107189190613a9c565b611440565b005b34801561072b57600080fd5b5061073461147b565b6040516107419190613686565b60405180910390f35b34801561075657600080fd5b5061075f6114e0565b60405161076c9190613351565b60405180910390f35b61078f600480360381019061078a9190613aef565b611524565b005b34801561079d57600080fd5b506107b860048036038101906107b3919061381a565b611565565b6040516107c59190613351565b60405180910390f35b3480156107da57600080fd5b506107e36115d0565b6040516107f091906135f6565b60405180910390f35b34801561080557600080fd5b50610820600480360381019061081b9190613618565b611662565b60405161082d9190613b84565b60405180910390f35b34801561084257600080fd5b5061084b611702565b6040516108589190613bc2565b60405180910390f35b34801561086d57600080fd5b5061087661170b565b60405161088391906137ff565b60405180910390f35b34801561089857600080fd5b506108b360048036038101906108ae9190613c09565b611712565b005b3480156108c157600080fd5b506108dc60048036038101906108d79190613cea565b611728565b005b3480156108ea57600080fd5b5061090560048036038101906109009190613618565b61178a565b60405161091291906135f6565b60405180910390f35b34801561092757600080fd5b5061093061189d565b60405161093d91906137ff565b60405180910390f35b34801561095257600080fd5b5061096d6004803603810190610968919061381a565b6118c5565b005b34801561097b57600080fd5b5061099660048036038101906109919190613922565b6118e6565b005b3480156109a457600080fd5b506109bf60048036038101906109ba9190613d6d565b611953565b6040516109cc9190613351565b60405180910390f35b3480156109e157600080fd5b506109fc60048036038101906109f7919061370d565b6119e7565b005b6000610a0982611aa5565b9050919050565b60007f9f2df0fed2c77648de5860a4cc508cd0818c85b8b8a1ab4ceeef8d981c8956a6610a3c81611b1f565b610a466009611b33565b6000610a526009611b49565b905083600e600083815260200190815260200160002081905550610a763082611b57565b610a808186611d31565b809250505092915050565b606060018054610a9a90613ddc565b80601f0160208091040260200160405190810160405280929190818152602001828054610ac690613ddc565b8015610b135780601f10610ae857610100808354040283529160200191610b13565b820191906000526020600020905b815481529060010190602001808311610af657829003601f168201915b5050505050905090565b6000610b2882611da5565b6005600083815260200190815260200160002060009054906101000a900473ffffffffffffffffffffffffffffffffffffffff169050919050565b6000610b6e826111fa565b90508073ffffffffffffffffffffffffffffffffffffffff168373ffffffffffffffffffffffffffffffffffffffff161415610bdf576040517f08c379a0000000000000000000000000000000000000000000000000000000008152600401610bd690613e80565b60405180910390fd5b8073ffffffffffffffffffffffffffffffffffffffff16610bfe611df0565b73ffffffffffffffffffffffffffffffffffffffff161480610c2d5750610c2c81610c27611df0565b611953565b5b610c6c576040517f08c379a0000000000000000000000000000000000000000000000000000000008152600401610c6390613f12565b60405180910390fd5b610c768383611dff565b505050565b6000801b610c8881611b1f565b610c956000801b83611565565b610cd4576040517f08c379a0000000000000000000000000000000000000000000000000000000008152600401610ccb90613f7e565b60405180910390fd5b81600a60006101000a81548173ffffffffffffffffffffffffffffffffffffffff021916908373ffffffffffffffffffffffffffffffffffffffff160217905550610d40600a60009054906101000a900473ffffffffffffffffffffffffffffffffffffffff166119e7565b5050565b6000610d777f9f2df0fed2c77648de5860a4cc508cd0818c85b8b8a1ab4ceeef8d981c8956a6610d72611df0565b611565565b905090565b610d8d610d87611df0565b82611eb8565b610dcc576040517f08c379a0000000000000000000000000000000000000000000000000000000008152600401610dc390614010565b60405180910390fd5b610dd7838383611f4d565b505050565b600060086000838152602001908152602001600020600101549050919050565b600e6020528060005260406000206000915090505481565b7f3c11d16cbaffd01df69ce1c404f6340ee057498f5f00246190ea54220576a84881565b610e4182610ddc565b610e4a81611b1f565b610e5483836121b4565b505050565b610e61611df0565b73ffffffffffffffffffffffffffffffffffffffff168173ffffffffffffffffffffffffffffffffffffffff1614610ece576040517f08c379a0000000000000000000000000000000000000000000000000000000008152600401610ec5906140a2565b60405180910390fd5b610ed88282612295565b5050565b7f3c11d16cbaffd01df69ce1c404f6340ee057498f5f00246190ea54220576a848610f0681611b1f565b60005b8251811015610f6757610f567f3c11d16cbaffd01df69ce1c404f6340ee057498f5f00246190ea54220576a848848381518110610f4957610f486140c2565b5b6020026020010151612377565b80610f6090614120565b9050610f09565b505050565b60606000610f7a6009611b49565b90506000805b82811015610fb957610f9181612385565b15610fa657600182610fa39190614169565b91505b8080610fb190614120565b915050610f80565b5060008167ffffffffffffffff811115610fd657610fd5613387565b5b60405190808252806020026020018201604052801561100f57816020015b610ffc613183565b815260200190600190039081610ff45790505b5090506000915060005b838110156110bc5761102a81612385565b156110a95760018361103c9190614169565b92506040518060600160405280828152602001611058836111fa565b73ffffffffffffffffffffffffffffffffffffffff168152602001600e60008481526020019081526020016000205481525082848151811061109d5761109c6140c2565b5b60200260200101819052505b80806110b490614120565b915050611019565b5080935050505090565b6110e183838360405180602001604052806000815250611728565b505050565b7f3c11d16cbaffd01df69ce1c404f6340ee057498f5f00246190ea54220576a84861111081611b1f565b611119826123f1565b5050565b600d6020528060005260406000206000915090505481565b60007f000000000000000000000000000000000000000000000000000000000000000073ffffffffffffffffffffffffffffffffffffffff168273ffffffffffffffffffffffffffffffffffffffff16149050919050565b611195612444565b60005b81518110156111f6576111e57f9f2df0fed2c77648de5860a4cc508cd0818c85b8b8a1ab4ceeef8d981c8956a68383815181106111d8576111d76140c2565b5b60200260200101516118c5565b806111ef90614120565b9050611198565b5050565b6000806003600084815260200190815260200160002060009054906101000a900473ffffffffffffffffffffffffffffffffffffffff169050600073ffffffffffffffffffffffffffffffffffffffff168173ffffffffffffffffffffffffffffffffffffffff1614156112a3576040517f08c379a000000000000000000000000000000000000000000000000000000000815260040161129a9061420b565b60405180910390fd5b80915050919050565b60008073ffffffffffffffffffffffffffffffffffffffff168273ffffffffffffffffffffffffffffffffffffffff16141561131d576040517f08c379a00000000000000000000000000000000000000000000000000000000081526004016113149061429d565b60405180910390fd5b600460008373ffffffffffffffffffffffffffffffffffffffff1673ffffffffffffffffffffffffffffffffffffffff168152602001908152602001600020549050919050565b61136c612444565b61137660006124c2565b565b7f9f2df0fed2c77648de5860a4cc508cd0818c85b8b8a1ab4ceeef8d981c8956a66113a281611b1f565b60005b8251811015611403576113f27f9f2df0fed2c77648de5860a4cc508cd0818c85b8b8a1ab4ceeef8d981c8956a68483815181106113e5576113e46140c2565b5b6020026020010151612377565b806113fc90614120565b90506113a5565b505050565b600061143b7f3c11d16cbaffd01df69ce1c404f6340ee057498f5f00246190ea54220576a848611436611df0565b611565565b905090565b7f8502233096d909befbda0999bb8ea2f3a6be3c138b9fbf003752a4c8bce86f6c61146a81611b1f565b611475838386610d7c565b50505050565b60006114ac6000801b600a60009054906101000a900473ffffffffffffffffffffffffffffffffffffffff16611565565b6114b75760006114db565b600a60009054906101000a900473ffffffffffffffffffffffffffffffffffffffff165b905090565b60006114ea611df0565b73ffffffffffffffffffffffffffffffffffffffff1661150861147b565b73ffffffffffffffffffffffffffffffffffffffff1614905090565b7f8502233096d909befbda0999bb8ea2f3a6be3c138b9fbf003752a4c8bce86f6c61154e81611b1f565b611560611559611df0565b8385611f4d565b505050565b60006008600084815260200190815260200160002060000160008373ffffffffffffffffffffffffffffffffffffffff1673ffffffffffffffffffffffffffffffffffffffff16815260200190815260200160002060009054906101000a900460ff16905092915050565b6060600280546115df90613ddc565b80601f016020809104026020016040519081016040528092919081815260200182805461160b90613ddc565b80156116585780601f1061162d57610100808354040283529160200191611658565b820191906000526020600020905b81548152906001019060200180831161163b57829003601f168201915b5050505050905090565b600c602052806000526040600020600091509050805461168190613ddc565b80601f01602080910402602001604051908101604052809291908181526020018280546116ad90613ddc565b80156116fa5780601f106116cf576101008083540402835291602001916116fa565b820191906000526020600020905b8154815290600101906020018083116116dd57829003601f168201915b505050505081565b60006001905090565b6000801b81565b61172461171d611df0565b8383612586565b5050565b611739611733611df0565b83611eb8565b611778576040517f08c379a000000000000000000000000000000000000000000000000000000000815260040161176f90614010565b60405180910390fd5b611784848484846126f3565b50505050565b606061179582611da5565b60006007600084815260200190815260200160002080546117b590613ddc565b80601f01602080910402602001604051908101604052809291908181526020018280546117e190613ddc565b801561182e5780601f106118035761010080835404028352916020019161182e565b820191906000526020600020905b81548152906001019060200180831161181157829003601f168201915b50505050509050600061183f61274f565b9050600081511415611855578192505050611898565b60008251111561188a5780826040516020016118729291906142f9565b60405160208183030381529060405292505050611898565b61189384612766565b925050505b919050565b60007f455243373231546f6b656e000000000000000000000000000000000000000000905090565b6118ce82610ddc565b6118d781611b1f565b6118e18383612295565b505050565b6118ee612444565b60005b815181101561194f5761193e7f3c11d16cbaffd01df69ce1c404f6340ee057498f5f00246190ea54220576a848838381518110611931576119306140c2565b5b60200260200101516118c5565b8061194890614120565b90506118f1565b5050565b6000600660008473ffffffffffffffffffffffffffffffffffffffff1673ffffffffffffffffffffffffffffffffffffffff16815260200190815260200160002060008373ffffffffffffffffffffffffffffffffffffffff1673ffffffffffffffffffffffffffffffffffffffff16815260200190815260200160002060009054906101000a900460ff16905092915050565b6119ef612444565b600073ffffffffffffffffffffffffffffffffffffffff168173ffffffffffffffffffffffffffffffffffffffff161415611a5f576040517f08c379a0000000000000000000000000000000000000000000000000000000008152600401611a569061438f565b60405180910390fd5b611a68816124c2565b50565b6000611a7633611135565b15611a8a57601436033560601c9050611a99565b611a92611a9d565b9050611a9a565b5b90565b600033905090565b60007f7965db0b000000000000000000000000000000000000000000000000000000007bffffffffffffffffffffffffffffffffffffffffffffffffffffffff1916827bffffffffffffffffffffffffffffffffffffffffffffffffffffffff19161480611b185750611b17826127ce565b5b9050919050565b611b3081611b2b611df0565b6128b0565b50565b6001816000016000828254019250508190555050565b600081600001549050919050565b600073ffffffffffffffffffffffffffffffffffffffff168273ffffffffffffffffffffffffffffffffffffffff161415611bc7576040517f08c379a0000000000000000000000000000000000000000000000000000000008152600401611bbe906143fb565b60405180910390fd5b611bd081612385565b15611c10576040517f08c379a0000000000000000000000000000000000000000000000000000000008152600401611c0790614467565b60405180910390fd5b611c1c6000838361294d565b6001600460008473ffffffffffffffffffffffffffffffffffffffff1673ffffffffffffffffffffffffffffffffffffffff1681526020019081526020016000206000828254611c6c9190614169565b92505081905550816003600083815260200190815260200160002060006101000a81548173ffffffffffffffffffffffffffffffffffffffff021916908373ffffffffffffffffffffffffffffffffffffffff160217905550808273ffffffffffffffffffffffffffffffffffffffff16600073ffffffffffffffffffffffffffffffffffffffff167fddf252ad1be2c89b69c2b068fc378daa952ba7f163c4a11628f55a4df523b3ef60405160405180910390a4611d2d60008383612a9b565b5050565b611d3a82612385565b611d79576040517f08c379a0000000000000000000000000000000000000000000000000000000008152600401611d70906144f9565b60405180910390fd5b80600760008481526020019081526020016000209080519060200190611da09291906131ba565b505050565b611dae81612385565b611ded576040517f08c379a0000000000000000000000000000000000000000000000000000000008152600401611de49061420b565b60405180910390fd5b50565b6000611dfa611a6b565b905090565b816005600083815260200190815260200160002060006101000a81548173ffffffffffffffffffffffffffffffffffffffff021916908373ffffffffffffffffffffffffffffffffffffffff160217905550808273ffffffffffffffffffffffffffffffffffffffff16611e72836111fa565b73ffffffffffffffffffffffffffffffffffffffff167f8c5be1e5ebec7d5bd14f71427d1e84f3dd0314c0f7b2291e5b200ac8c7c3b92560405160405180910390a45050565b600080611ec4836111fa565b90508073ffffffffffffffffffffffffffffffffffffffff168473ffffffffffffffffffffffffffffffffffffffff161480611f065750611f058185611953565b5b80611f4457508373ffffffffffffffffffffffffffffffffffffffff16611f2c84610b1d565b73ffffffffffffffffffffffffffffffffffffffff16145b91505092915050565b8273ffffffffffffffffffffffffffffffffffffffff16611f6d826111fa565b73ffffffffffffffffffffffffffffffffffffffff1614611fc3576040517f08c379a0000000000000000000000000000000000000000000000000000000008152600401611fba9061458b565b60405180910390fd5b600073ffffffffffffffffffffffffffffffffffffffff168273ffffffffffffffffffffffffffffffffffffffff161415612033576040517f08c379a000000000000000000000000000000000000000000000000000000000815260040161202a9061461d565b60405180910390fd5b61203e83838361294d565b612049600082611dff565b6001600460008573ffffffffffffffffffffffffffffffffffffffff1673ffffffffffffffffffffffffffffffffffffffff1681526020019081526020016000206000828254612099919061463d565b925050819055506001600460008473ffffffffffffffffffffffffffffffffffffffff1673ffffffffffffffffffffffffffffffffffffffff16815260200190815260200160002060008282546120f09190614169565b92505081905550816003600083815260200190815260200160002060006101000a81548173ffffffffffffffffffffffffffffffffffffffff021916908373ffffffffffffffffffffffffffffffffffffffff160217905550808273ffffffffffffffffffffffffffffffffffffffff168473ffffffffffffffffffffffffffffffffffffffff167fddf252ad1be2c89b69c2b068fc378daa952ba7f163c4a11628f55a4df523b3ef60405160405180910390a46121af838383612a9b565b505050565b6121be8282611565565b6122915760016008600084815260200190815260200160002060000160008373ffffffffffffffffffffffffffffffffffffffff1673ffffffffffffffffffffffffffffffffffffffff16815260200190815260200160002060006101000a81548160ff021916908315150217905550612236611df0565b73ffffffffffffffffffffffffffffffffffffffff168173ffffffffffffffffffffffffffffffffffffffff16837f2f8788117e7eff1d82e926ec794901d17c78024a50270940304540a733656f0d60405160405180910390a45b5050565b61229f8282611565565b156123735760006008600084815260200190815260200160002060000160008373ffffffffffffffffffffffffffffffffffffffff1673ffffffffffffffffffffffffffffffffffffffff16815260200190815260200160002060006101000a81548160ff021916908315150217905550612318611df0565b73ffffffffffffffffffffffffffffffffffffffff168173ffffffffffffffffffffffffffffffffffffffff16837ff6391f5c32d9c69d2a47ea670b442974b53935d1edc7fd64eb21e047a839171b60405160405180910390a45b5050565b61238182826121b4565b5050565b60008073ffffffffffffffffffffffffffffffffffffffff166003600084815260200190815260200160002060009054906101000a900473ffffffffffffffffffffffffffffffffffffffff1673ffffffffffffffffffffffffffffffffffffffff1614159050919050565b6123fa81612aa0565b600060076000838152602001908152602001600020805461241a90613ddc565b905014612441576007600082815260200190815260200160002060006124409190613240565b5b50565b61244c611df0565b73ffffffffffffffffffffffffffffffffffffffff1661246a61147b565b73ffffffffffffffffffffffffffffffffffffffff16146124c0576040517f08c379a00000000000000000000000000000000000000000000000000000000081526004016124b7906146bd565b60405180910390fd5b565b60008060009054906101000a900473ffffffffffffffffffffffffffffffffffffffff169050816000806101000a81548173ffffffffffffffffffffffffffffffffffffffff021916908373ffffffffffffffffffffffffffffffffffffffff1602179055508173ffffffffffffffffffffffffffffffffffffffff168173ffffffffffffffffffffffffffffffffffffffff167f8be0079c531659141344cd1fd0a4f28419497f9722a3daafe3b4186f6b6457e060405160405180910390a35050565b8173ffffffffffffffffffffffffffffffffffffffff168373ffffffffffffffffffffffffffffffffffffffff1614156125f5576040517f08c379a00000000000000000000000000000000000000000000000000000000081526004016125ec90614729565b60405180910390fd5b80600660008573ffffffffffffffffffffffffffffffffffffffff1673ffffffffffffffffffffffffffffffffffffffff16815260200190815260200160002060008473ffffffffffffffffffffffffffffffffffffffff1673ffffffffffffffffffffffffffffffffffffffff16815260200190815260200160002060006101000a81548160ff0219169083151502179055508173ffffffffffffffffffffffffffffffffffffffff168373ffffffffffffffffffffffffffffffffffffffff167f17307eab39ab6107e8899845ad3d59bd9653f200f220920489ca2b5937696c31836040516126e69190613351565b60405180910390a3505050565b6126fe848484611f4d565b61270a84848484612bbd565b612749576040517f08c379a0000000000000000000000000000000000000000000000000000000008152600401612740906147bb565b60405180910390fd5b50505050565b606060405180602001604052806000815250905090565b606061277182611da5565b600061277b61274f565b9050600081511161279b57604051806020016040528060008152506127c6565b806127a584612d54565b6040516020016127b69291906142f9565b6040516020818303038152906040525b915050919050565b60007f80ac58cd000000000000000000000000000000000000000000000000000000007bffffffffffffffffffffffffffffffffffffffffffffffffffffffff1916827bffffffffffffffffffffffffffffffffffffffffffffffffffffffff1916148061289957507f5b5e139f000000000000000000000000000000000000000000000000000000007bffffffffffffffffffffffffffffffffffffffffffffffffffffffff1916827bffffffffffffffffffffffffffffffffffffffffffffffffffffffff1916145b806128a957506128a882612eb5565b5b9050919050565b6128ba8282611565565b612949576128df8173ffffffffffffffffffffffffffffffffffffffff166014612f1f565b6128ed8360001c6020612f1f565b6040516020016128fe929190614873565b6040516020818303038152906040526040517f08c379a000000000000000000000000000000000000000000000000000000000815260040161294091906135f6565b60405180910390fd5b5050565b61295883838361315b565b6129837f8502233096d909befbda0999bb8ea2f3a6be3c138b9fbf003752a4c8bce86f6c6000611565565b1580156129bd5750600073ffffffffffffffffffffffffffffffffffffffff168373ffffffffffffffffffffffffffffffffffffffff1614155b80156129f65750600073ffffffffffffffffffffffffffffffffffffffff168273ffffffffffffffffffffffffffffffffffffffff1614155b15612a9657612a257f8502233096d909befbda0999bb8ea2f3a6be3c138b9fbf003752a4c8bce86f6c84611565565b80612a565750612a557f8502233096d909befbda0999bb8ea2f3a6be3c138b9fbf003752a4c8bce86f6c83611565565b5b612a95576040517f08c379a0000000000000000000000000000000000000000000000000000000008152600401612a8c906148f9565b60405180910390fd5b5b505050565b505050565b6000612aab826111fa565b9050612ab98160008461294d565b612ac4600083611dff565b6001600460008373ffffffffffffffffffffffffffffffffffffffff1673ffffffffffffffffffffffffffffffffffffffff1681526020019081526020016000206000828254612b14919061463d565b925050819055506003600083815260200190815260200160002060006101000a81549073ffffffffffffffffffffffffffffffffffffffff021916905581600073ffffffffffffffffffffffffffffffffffffffff168273ffffffffffffffffffffffffffffffffffffffff167fddf252ad1be2c89b69c2b068fc378daa952ba7f163c4a11628f55a4df523b3ef60405160405180910390a4612bb981600084612a9b565b5050565b6000612bde8473ffffffffffffffffffffffffffffffffffffffff16613160565b15612d47578373ffffffffffffffffffffffffffffffffffffffff1663150b7a02612c07611df0565b8786866040518563ffffffff1660e01b8152600401612c299493929190614919565b602060405180830381600087803b158015612c4357600080fd5b505af1925050508015612c7457506040513d601f19601f82011682018060405250810190612c71919061497a565b60015b612cf7573d8060008114612ca4576040519150601f19603f3d011682016040523d82523d6000602084013e612ca9565b606091505b50600081511415612cef576040517f08c379a0000000000000000000000000000000000000000000000000000000008152600401612ce6906147bb565b60405180910390fd5b805181602001fd5b63150b7a0260e01b7bffffffffffffffffffffffffffffffffffffffffffffffffffffffff1916817bffffffffffffffffffffffffffffffffffffffffffffffffffffffff191614915050612d4c565b600190505b949350505050565b60606000821415612d9c576040518060400160405280600181526020017f30000000000000000000000000000000000000000000000000000000000000008152509050612eb0565b600082905060005b60008214612dce578080612db790614120565b915050600a82612dc791906149d6565b9150612da4565b60008167ffffffffffffffff811115612dea57612de9613387565b5b6040519080825280601f01601f191660200182016040528015612e1c5781602001600182028036833780820191505090505b5090505b60008514612ea957600182612e35919061463d565b9150600a85612e449190614a07565b6030612e509190614169565b60f81b818381518110612e6657612e656140c2565b5b60200101907effffffffffffffffffffffffffffffffffffffffffffffffffffffffffffff1916908160001a905350600a85612ea291906149d6565b9450612e20565b8093505050505b919050565b60007f01ffc9a7000000000000000000000000000000000000000000000000000000007bffffffffffffffffffffffffffffffffffffffffffffffffffffffff1916827bffffffffffffffffffffffffffffffffffffffffffffffffffffffff1916149050919050565b606060006002836002612f329190614a38565b612f3c9190614169565b67ffffffffffffffff811115612f5557612f54613387565b5b6040519080825280601f01601f191660200182016040528015612f875781602001600182028036833780820191505090505b5090507f300000000000000000000000000000000000000000000000000000000000000081600081518110612fbf57612fbe6140c2565b5b60200101907effffffffffffffffffffffffffffffffffffffffffffffffffffffffffffff1916908160001a9053507f780000000000000000000000000000000000000000000000000000000000000081600181518110613023576130226140c2565b5b60200101907effffffffffffffffffffffffffffffffffffffffffffffffffffffffffffff1916908160001a905350600060018460026130639190614a38565b61306d9190614169565b90505b600181111561310d577f3031323334353637383961626364656600000000000000000000000000000000600f8616601081106130af576130ae6140c2565b5b1a60f81b8282815181106130c6576130c56140c2565b5b60200101907effffffffffffffffffffffffffffffffffffffffffffffffffffffffffffff1916908160001a905350600485901c94508061310690614a92565b9050613070565b5060008414613151576040517f08c379a000000000000000000000000000000000000000000000000000000000815260040161314890614b08565b60405180910390fd5b8091505092915050565b505050565b6000808273ffffffffffffffffffffffffffffffffffffffff163b119050919050565b604051806060016040528060008152602001600073ffffffffffffffffffffffffffffffffffffffff168152602001600081525090565b8280546131c690613ddc565b90600052602060002090601f0160209004810192826131e8576000855561322f565b82601f1061320157805160ff191683800117855561322f565b8280016001018555821561322f579182015b8281111561322e578251825591602001919060010190613213565b5b50905061323c9190613280565b5090565b50805461324c90613ddc565b6000825580601f1061325e575061327d565b601f01602090049060005260206000209081019061327c9190613280565b5b50565b5b80821115613299576000816000905550600101613281565b5090565b6000604051905090565b600080fd5b600080fd5b60007fffffffff0000000000000000000000000000000000000000000000000000000082169050919050565b6132e6816132b1565b81146132f157600080fd5b50565b600081359050613303816132dd565b92915050565b60006020828403121561331f5761331e6132a7565b5b600061332d848285016132f4565b91505092915050565b60008115159050919050565b61334b81613336565b82525050565b60006020820190506133666000830184613342565b92915050565b600080fd5b600080fd5b6000601f19601f8301169050919050565b7f4e487b7100000000000000000000000000000000000000000000000000000000600052604160045260246000fd5b6133bf82613376565b810181811067ffffffffffffffff821117156133de576133dd613387565b5b80604052505050565b60006133f161329d565b90506133fd82826133b6565b919050565b600067ffffffffffffffff82111561341d5761341c613387565b5b61342682613376565b9050602081019050919050565b82818337600083830152505050565b600061345561345084613402565b6133e7565b90508281526020810184848401111561347157613470613371565b5b61347c848285613433565b509392505050565b600082601f8301126134995761349861336c565b5b81356134a9848260208601613442565b91505092915050565b6000819050919050565b6134c5816134b2565b81146134d057600080fd5b50565b6000813590506134e2816134bc565b92915050565b600080604083850312156134ff576134fe6132a7565b5b600083013567ffffffffffffffff81111561351d5761351c6132ac565b5b61352985828601613484565b925050602061353a858286016134d3565b9150509250929050565b61354d816134b2565b82525050565b60006020820190506135686000830184613544565b92915050565b600081519050919050565b600082825260208201905092915050565b60005b838110156135a857808201518184015260208101905061358d565b838111156135b7576000848401525b50505050565b60006135c88261356e565b6135d28185613579565b93506135e281856020860161358a565b6135eb81613376565b840191505092915050565b6000602082019050818103600083015261361081846135bd565b905092915050565b60006020828403121561362e5761362d6132a7565b5b600061363c848285016134d3565b91505092915050565b600073ffffffffffffffffffffffffffffffffffffffff82169050919050565b600061367082613645565b9050919050565b61368081613665565b82525050565b600060208201905061369b6000830184613677565b92915050565b6136aa81613665565b81146136b557600080fd5b50565b6000813590506136c7816136a1565b92915050565b600080604083850312156136e4576136e36132a7565b5b60006136f2858286016136b8565b9250506020613703858286016134d3565b9150509250929050565b600060208284031215613723576137226132a7565b5b6000613731848285016136b8565b91505092915050565b600080600060608486031215613753576137526132a7565b5b6000613761868287016136b8565b9350506020613772868287016136b8565b9250506040613783868287016134d3565b9150509250925092565b6000819050919050565b6137a08161378d565b81146137ab57600080fd5b50565b6000813590506137bd81613797565b92915050565b6000602082840312156137d9576137d86132a7565b5b60006137e7848285016137ae565b91505092915050565b6137f98161378d565b82525050565b600060208201905061381460008301846137f0565b92915050565b60008060408385031215613831576138306132a7565b5b600061383f858286016137ae565b9250506020613850858286016136b8565b9150509250929050565b600067ffffffffffffffff82111561387557613874613387565b5b602082029050602081019050919050565b600080fd5b600061389e6138998461385a565b6133e7565b905080838252602082019050602084028301858111156138c1576138c0613886565b5b835b818110156138ea57806138d688826136b8565b8452602084019350506020810190506138c3565b5050509392505050565b600082601f8301126139095761390861336c565b5b813561391984826020860161388b565b91505092915050565b600060208284031215613938576139376132a7565b5b600082013567ffffffffffffffff811115613956576139556132ac565b5b613962848285016138f4565b91505092915050565b600081519050919050565b600082825260208201905092915050565b6000819050602082019050919050565b6139a0816134b2565b82525050565b6139af81613665565b82525050565b6060820160008201516139cb6000850182613997565b5060208201516139de60208501826139a6565b5060408201516139f16040850182613997565b50505050565b6000613a0383836139b5565b60608301905092915050565b6000602082019050919050565b6000613a278261396b565b613a318185613976565b9350613a3c83613987565b8060005b83811015613a6d578151613a5488826139f7565b9750613a5f83613a0f565b925050600181019050613a40565b5085935050505092915050565b60006020820190508181036000830152613a948184613a1c565b905092915050565b600080600060608486031215613ab557613ab46132a7565b5b6000613ac3868287016134d3565b9350506020613ad4868287016136b8565b9250506040613ae5868287016136b8565b9150509250925092565b60008060408385031215613b0657613b056132a7565b5b6000613b14858286016134d3565b9250506020613b25858286016136b8565b9150509250929050565b600081519050919050565b600082825260208201905092915050565b6000613b5682613b2f565b613b608185613b3a565b9350613b7081856020860161358a565b613b7981613376565b840191505092915050565b60006020820190508181036000830152613b9e8184613b4b565b905092915050565b600060ff82169050919050565b613bbc81613ba6565b82525050565b6000602082019050613bd76000830184613bb3565b92915050565b613be681613336565b8114613bf157600080fd5b50565b600081359050613c0381613bdd565b92915050565b60008060408385031215613c2057613c1f6132a7565b5b6000613c2e858286016136b8565b9250506020613c3f85828601613bf4565b9150509250929050565b600067ffffffffffffffff821115613c6457613c63613387565b5b613c6d82613376565b9050602081019050919050565b6000613c8d613c8884613c49565b6133e7565b905082815260208101848484011115613ca957613ca8613371565b5b613cb4848285613433565b509392505050565b600082601f830112613cd157613cd061336c565b5b8135613ce1848260208601613c7a565b91505092915050565b60008060008060808587031215613d0457613d036132a7565b5b6000613d12878288016136b8565b9450506020613d23878288016136b8565b9350506040613d34878288016134d3565b925050606085013567ffffffffffffffff811115613d5557613d546132ac565b5b613d6187828801613cbc565b91505092959194509250565b60008060408385031215613d8457613d836132a7565b5b6000613d92858286016136b8565b9250506020613da3858286016136b8565b9150509250929050565b7f4e487b7100000000000000000000000000000000000000000000000000000000600052602260045260246000fd5b60006002820490506001821680613df457607f821691505b60208210811415613e0857613e07613dad565b5b50919050565b7f4552433732313a20617070726f76616c20746f2063757272656e74206f776e6560008201527f7200000000000000000000000000000000000000000000000000000000000000602082015250565b6000613e6a602183613579565b9150613e7582613e0e565b604082019050919050565b60006020820190508181036000830152613e9981613e5d565b9050919050565b7f4552433732313a20617070726f76652063616c6c6572206973206e6f7420746f60008201527f6b656e206f776e6572206e6f7220617070726f76656420666f7220616c6c0000602082015250565b6000613efc603e83613579565b9150613f0782613ea0565b604082019050919050565b60006020820190508181036000830152613f2b81613eef565b9050919050565b7f2141444d494e0000000000000000000000000000000000000000000000000000600082015250565b6000613f68600683613579565b9150613f7382613f32565b602082019050919050565b60006020820190508181036000830152613f9781613f5b565b9050919050565b7f4552433732313a2063616c6c6572206973206e6f7420746f6b656e206f776e6560008201527f72206e6f7220617070726f766564000000000000000000000000000000000000602082015250565b6000613ffa602e83613579565b915061400582613f9e565b604082019050919050565b6000602082019050818103600083015261402981613fed565b9050919050565b7f416363657373436f6e74726f6c3a2063616e206f6e6c792072656e6f756e636560008201527f20726f6c657320666f722073656c660000000000000000000000000000000000602082015250565b600061408c602f83613579565b915061409782614030565b604082019050919050565b600060208201905081810360008301526140bb8161407f565b9050919050565b7f4e487b7100000000000000000000000000000000000000000000000000000000600052603260045260246000fd5b7f4e487b7100000000000000000000000000000000000000000000000000000000600052601160045260246000fd5b600061412b826134b2565b91507fffffffffffffffffffffffffffffffffffffffffffffffffffffffffffffffff82141561415e5761415d6140f1565b5b600182019050919050565b6000614174826134b2565b915061417f836134b2565b9250827fffffffffffffffffffffffffffffffffffffffffffffffffffffffffffffffff038211156141b4576141b36140f1565b5b828201905092915050565b7f4552433732313a20696e76616c696420746f6b656e2049440000000000000000600082015250565b60006141f5601883613579565b9150614200826141bf565b602082019050919050565b60006020820190508181036000830152614224816141e8565b9050919050565b7f4552433732313a2061646472657373207a65726f206973206e6f74206120766160008201527f6c6964206f776e65720000000000000000000000000000000000000000000000602082015250565b6000614287602983613579565b91506142928261422b565b604082019050919050565b600060208201905081810360008301526142b68161427a565b9050919050565b600081905092915050565b60006142d38261356e565b6142dd81856142bd565b93506142ed81856020860161358a565b80840191505092915050565b600061430582856142c8565b915061431182846142c8565b91508190509392505050565b7f4f776e61626c653a206e6577206f776e657220697320746865207a65726f206160008201527f6464726573730000000000000000000000000000000000000000000000000000602082015250565b6000614379602683613579565b91506143848261431d565b604082019050919050565b600060208201905081810360008301526143a88161436c565b9050919050565b7f4552433732313a206d696e7420746f20746865207a65726f2061646472657373600082015250565b60006143e5602083613579565b91506143f0826143af565b602082019050919050565b60006020820190508181036000830152614414816143d8565b9050919050565b7f4552433732313a20746f6b656e20616c7265616479206d696e74656400000000600082015250565b6000614451601c83613579565b915061445c8261441b565b602082019050919050565b6000602082019050818103600083015261448081614444565b9050919050565b7f45524337323155524953746f726167653a2055524920736574206f66206e6f6e60008201527f6578697374656e7420746f6b656e000000000000000000000000000000000000602082015250565b60006144e3602e83613579565b91506144ee82614487565b604082019050919050565b60006020820190508181036000830152614512816144d6565b9050919050565b7f4552433732313a207472616e736665722066726f6d20696e636f72726563742060008201527f6f776e6572000000000000000000000000000000000000000000000000000000602082015250565b6000614575602583613579565b915061458082614519565b604082019050919050565b600060208201905081810360008301526145a481614568565b9050919050565b7f4552433732313a207472616e7366657220746f20746865207a65726f2061646460008201527f7265737300000000000000000000000000000000000000000000000000000000602082015250565b6000614607602483613579565b9150614612826145ab565b604082019050919050565b60006020820190508181036000830152614636816145fa565b9050919050565b6000614648826134b2565b9150614653836134b2565b925082821015614666576146656140f1565b5b828203905092915050565b7f4f776e61626c653a2063616c6c6572206973206e6f7420746865206f776e6572600082015250565b60006146a7602083613579565b91506146b282614671565b602082019050919050565b600060208201905081810360008301526146d68161469a565b9050919050565b7f4552433732313a20617070726f766520746f2063616c6c657200000000000000600082015250565b6000614713601983613579565b915061471e826146dd565b602082019050919050565b6000602082019050818103600083015261474281614706565b9050919050565b7f4552433732313a207472616e7366657220746f206e6f6e20455243373231526560008201527f63656976657220696d706c656d656e7465720000000000000000000000000000602082015250565b60006147a5603283613579565b91506147b082614749565b604082019050919050565b600060208201905081810360008301526147d481614798565b9050919050565b7f416363657373436f6e74726f6c3a206163636f756e7420000000000000000000600082015250565b60006148116017836142bd565b915061481c826147db565b601782019050919050565b7f206973206d697373696e6720726f6c6520000000000000000000000000000000600082015250565b600061485d6011836142bd565b915061486882614827565b601182019050919050565b600061487e82614804565b915061488a82856142c8565b915061489582614850565b91506148a182846142c8565b91508190509392505050565b7f215452414e534645525f524f4c45000000000000000000000000000000000000600082015250565b60006148e3600e83613579565b91506148ee826148ad565b602082019050919050565b60006020820190508181036000830152614912816148d6565b9050919050565b600060808201905061492e6000830187613677565b61493b6020830186613677565b6149486040830185613544565b818103606083015261495a8184613b4b565b905095945050505050565b600081519050614974816132dd565b92915050565b6000602082840312156149905761498f6132a7565b5b600061499e84828501614965565b91505092915050565b7f4e487b7100000000000000000000000000000000000000000000000000000000600052601260045260246000fd5b60006149e1826134b2565b91506149ec836134b2565b9250826149fc576149fb6149a7565b5b828204905092915050565b6000614a12826134b2565b9150614a1d836134b2565b925082614a2d57614a2c6149a7565b5b828206905092915050565b6000614a43826134b2565b9150614a4e836134b2565b9250817fffffffffffffffffffffffffffffffffffffffffffffffffffffffffffffffff0483118215151615614a8757614a866140f1565b5b828202905092915050565b6000614a9d826134b2565b91506000821415614ab157614ab06140f1565b5b600182039050919050565b7f537472696e67733a20686578206c656e67746820696e73756666696369656e74600082015250565b6000614af2602083613579565b9150614afd82614abc565b602082019050919050565b60006020820190508181036000830152614b2181614ae5565b905091905056fea2646970667358221220131bc7fb60e62560e86e1dc2e04035f54998c9ec0415eb01ed84eeb34bb0d84064736f6c63430008090033",
  "linkReferences": {},
  "deployedLinkReferences": {}
}