{
  "_format": "hh-sol-artifact-1",
  "contractName": "ERC721Token",
  "sourceName": "contracts/ERC721Token.sol",
  "abi": [
    {
      "inputs": [
        {
          "internalType": "string",
          "name": "token_name",
          "type": "string"
        },
        {
          "internalType": "string",
          "name": "token_symbol",
          "type": "string"
        },
        {
          "internalType": "address",
          "name": "default_owner",
          "type": "address"
        },
        {
          "internalType": "contract MinimalForwarder",
          "name": "forwarder",
          "type": "address"
        }
      ],
      "stateMutability": "nonpayable",
      "type": "constructor"
    },
    {
      "anonymous": false,
      "inputs": [
        {
          "indexed": true,
          "internalType": "address",
          "name": "owner",
          "type": "address"
        },
        {
          "indexed": true,
          "internalType": "address",
          "name": "approved",
          "type": "address"
        },
        {
          "indexed": true,
          "internalType": "uint256",
          "name": "tokenId",
          "type": "uint256"
        }
      ],
      "name": "Approval",
      "type": "event"
    },
    {
      "anonymous": false,
      "inputs": [
        {
          "indexed": true,
          "internalType": "address",
          "name": "owner",
          "type": "address"
        },
        {
          "indexed": true,
          "internalType": "address",
          "name": "operator",
          "type": "address"
        },
        {
          "indexed": false,
          "internalType": "bool",
          "name": "approved",
          "type": "bool"
        }
      ],
      "name": "ApprovalForAll",
      "type": "event"
    },
    {
      "anonymous": false,
      "inputs": [
        {
          "indexed": true,
          "internalType": "address",
          "name": "previousOwner",
          "type": "address"
        },
        {
          "indexed": true,
          "internalType": "address",
          "name": "newOwner",
          "type": "address"
        }
      ],
      "name": "OwnershipTransferred",
      "type": "event"
    },
    {
      "anonymous": false,
      "inputs": [
        {
          "indexed": true,
          "internalType": "bytes32",
          "name": "role",
          "type": "bytes32"
        },
        {
          "indexed": true,
          "internalType": "bytes32",
          "name": "previousAdminRole",
          "type": "bytes32"
        },
        {
          "indexed": true,
          "internalType": "bytes32",
          "name": "newAdminRole",
          "type": "bytes32"
        }
      ],
      "name": "RoleAdminChanged",
      "type": "event"
    },
    {
      "anonymous": false,
      "inputs": [
        {
          "indexed": true,
          "internalType": "bytes32",
          "name": "role",
          "type": "bytes32"
        },
        {
          "indexed": true,
          "internalType": "address",
          "name": "account",
          "type": "address"
        },
        {
          "indexed": true,
          "internalType": "address",
          "name": "sender",
          "type": "address"
        }
      ],
      "name": "RoleGranted",
      "type": "event"
    },
    {
      "anonymous": false,
      "inputs": [
        {
          "indexed": true,
          "internalType": "bytes32",
          "name": "role",
          "type": "bytes32"
        },
        {
          "indexed": true,
          "internalType": "address",
          "name": "account",
          "type": "address"
        },
        {
          "indexed": true,
          "internalType": "address",
          "name": "sender",
          "type": "address"
        }
      ],
      "name": "RoleRevoked",
      "type": "event"
    },
    {
      "anonymous": false,
      "inputs": [
        {
          "indexed": true,
          "internalType": "address",
          "name": "from",
          "type": "address"
        },
        {
          "indexed": true,
          "internalType": "address",
          "name": "to",
          "type": "address"
        },
        {
          "indexed": true,
          "internalType": "uint256",
          "name": "tokenId",
          "type": "uint256"
        }
      ],
      "name": "Transfer",
      "type": "event"
    },
    {
      "inputs": [],
      "name": "BURNER_ROLE",
      "outputs": [
        {
          "internalType": "bytes32",
          "name": "",
          "type": "bytes32"
        }
      ],
      "stateMutability": "view",
      "type": "function"
    },
    {
      "inputs": [],
      "name": "DEFAULT_ADMIN_ROLE",
      "outputs": [
        {
          "internalType": "bytes32",
          "name": "",
          "type": "bytes32"
        }
      ],
      "stateMutability": "view",
      "type": "function"
    },
    {
      "inputs": [
        {
          "internalType": "address[]",
          "name": "burners",
          "type": "address[]"
        }
      ],
      "name": "addBurners",
      "outputs": [],
      "stateMutability": "nonpayable",
      "type": "function"
    },
    {
      "inputs": [
        {
          "internalType": "address[]",
          "name": "minters",
          "type": "address[]"
        }
      ],
      "name": "addMinters",
      "outputs": [],
      "stateMutability": "nonpayable",
      "type": "function"
    },
    {
      "inputs": [
        {
          "internalType": "address",
          "name": "to",
          "type": "address"
        },
        {
          "internalType": "uint256",
          "name": "tokenId",
          "type": "uint256"
        }
      ],
      "name": "approve",
      "outputs": [],
      "stateMutability": "nonpayable",
      "type": "function"
    },
    {
      "inputs": [
        {
          "internalType": "address",
          "name": "owner",
          "type": "address"
        }
      ],
      "name": "balanceOf",
      "outputs": [
        {
          "internalType": "uint256",
          "name": "",
          "type": "uint256"
        }
      ],
      "stateMutability": "view",
      "type": "function"
    },
    {
      "inputs": [
        {
          "internalType": "uint256",
          "name": "tokenId",
          "type": "uint256"
        }
      ],
      "name": "burn",
      "outputs": [],
      "stateMutability": "nonpayable",
      "type": "function"
    },
    {
      "inputs": [],
      "name": "contractType",
      "outputs": [
        {
          "internalType": "bytes32",
          "name": "",
          "type": "bytes32"
        }
      ],
      "stateMutability": "pure",
      "type": "function"
    },
    {
      "inputs": [],
      "name": "contractVersion",
      "outputs": [
        {
          "internalType": "uint8",
          "name": "",
          "type": "uint8"
        }
      ],
      "stateMutability": "pure",
      "type": "function"
    },
    {
      "inputs": [
        {
          "internalType": "uint256",
          "name": "",
          "type": "uint256"
        }
      ],
      "name": "encryptedData",
      "outputs": [
        {
          "internalType": "bytes",
          "name": "",
          "type": "bytes"
        }
      ],
      "stateMutability": "view",
      "type": "function"
    },
    {
      "inputs": [],
      "name": "fetchAllNFTs",
      "outputs": [
        {
          "components": [
            {
              "internalType": "uint256",
              "name": "tokenId",
              "type": "uint256"
            },
            {
              "internalType": "address",
              "name": "owner",
              "type": "address"
            },
            {
              "internalType": "uint256",
              "name": "price",
              "type": "uint256"
            }
          ],
          "internalType": "struct ERC721Token.MarketItem[]",
          "name": "",
          "type": "tuple[]"
        }
      ],
      "stateMutability": "view",
      "type": "function"
    },
    {
      "inputs": [
        {
          "internalType": "uint256",
          "name": "tokenId",
          "type": "uint256"
        }
      ],
      "name": "getApproved",
      "outputs": [
        {
          "internalType": "address",
          "name": "",
          "type": "address"
        }
      ],
      "stateMutability": "view",
      "type": "function"
    },
    {
      "inputs": [
        {
          "internalType": "bytes32",
          "name": "role",
          "type": "bytes32"
        }
      ],
      "name": "getRoleAdmin",
      "outputs": [
        {
          "internalType": "bytes32",
          "name": "",
          "type": "bytes32"
        }
      ],
      "stateMutability": "view",
      "type": "function"
    },
    {
      "inputs": [
        {
          "internalType": "bytes32",
          "name": "role",
          "type": "bytes32"
        },
        {
          "internalType": "address",
          "name": "account",
          "type": "address"
        }
      ],
      "name": "grantRole",
      "outputs": [],
      "stateMutability": "nonpayable",
      "type": "function"
    },
    {
      "inputs": [],
      "name": "hasBurnerRole",
      "outputs": [
        {
          "internalType": "bool",
          "name": "",
          "type": "bool"
        }
      ],
      "stateMutability": "view",
      "type": "function"
    },
    {
      "inputs": [],
      "name": "hasMinterRole",
      "outputs": [
        {
          "internalType": "bool",
          "name": "",
          "type": "bool"
        }
      ],
      "stateMutability": "view",
      "type": "function"
    },
    {
      "inputs": [
        {
          "internalType": "bytes32",
          "name": "role",
          "type": "bytes32"
        },
        {
          "internalType": "address",
          "name": "account",
          "type": "address"
        }
      ],
      "name": "hasRole",
      "outputs": [
        {
          "internalType": "bool",
          "name": "",
          "type": "bool"
        }
      ],
      "stateMutability": "view",
      "type": "function"
    },
    {
      "inputs": [
        {
          "internalType": "address",
          "name": "owner",
          "type": "address"
        },
        {
          "internalType": "address",
          "name": "operator",
          "type": "address"
        }
      ],
      "name": "isApprovedForAll",
      "outputs": [
        {
          "internalType": "bool",
          "name": "",
          "type": "bool"
        }
      ],
      "stateMutability": "view",
      "type": "function"
    },
    {
      "inputs": [],
      "name": "isOwner",
      "outputs": [
        {
          "internalType": "bool",
          "name": "",
          "type": "bool"
        }
      ],
      "stateMutability": "view",
      "type": "function"
    },
    {
      "inputs": [
        {
          "internalType": "address",
          "name": "forwarder",
          "type": "address"
        }
      ],
      "name": "isTrustedForwarder",
      "outputs": [
        {
          "internalType": "bool",
          "name": "",
          "type": "bool"
        }
      ],
      "stateMutability": "view",
      "type": "function"
    },
    {
      "inputs": [
        {
          "internalType": "string",
          "name": "_tokenURI",
          "type": "string"
        },
        {
          "internalType": "uint256",
          "name": "_price",
          "type": "uint256"
        }
      ],
      "name": "mint",
      "outputs": [
        {
          "internalType": "uint256",
          "name": "",
          "type": "uint256"
        }
      ],
      "stateMutability": "nonpayable",
      "type": "function"
    },
    {
      "inputs": [],
      "name": "name",
      "outputs": [
        {
          "internalType": "string",
          "name": "",
          "type": "string"
        }
      ],
      "stateMutability": "view",
      "type": "function"
    },
    {
      "inputs": [],
      "name": "owner",
      "outputs": [
        {
          "internalType": "address",
          "name": "",
          "type": "address"
        }
      ],
      "stateMutability": "view",
      "type": "function"
    },
    {
      "inputs": [
        {
          "internalType": "uint256",
          "name": "tokenId",
          "type": "uint256"
        }
      ],
      "name": "ownerOf",
      "outputs": [
        {
          "internalType": "address",
          "name": "",
          "type": "address"
        }
      ],
      "stateMutability": "view",
      "type": "function"
    },
    {
      "inputs": [
        {
          "internalType": "uint256",
          "name": "",
          "type": "uint256"
        }
      ],
      "name": "price",
      "outputs": [
        {
          "internalType": "uint256",
          "name": "",
          "type": "uint256"
        }
      ],
      "stateMutability": "view",
      "type": "function"
    },
    {
      "inputs": [
        {
          "internalType": "address[]",
          "name": "burners",
          "type": "address[]"
        }
      ],
      "name": "removeBurners",
      "outputs": [],
      "stateMutability": "nonpayable",
      "type": "function"
    },
    {
      "inputs": [
        {
          "internalType": "address[]",
          "name": "minters",
          "type": "address[]"
        }
      ],
      "name": "removeMinters",
      "outputs": [],
      "stateMutability": "nonpayable",
      "type": "function"
    },
    {
      "inputs": [],
      "name": "renounceOwnership",
      "outputs": [],
      "stateMutability": "nonpayable",
      "type": "function"
    },
    {
      "inputs": [
        {
          "internalType": "bytes32",
          "name": "role",
          "type": "bytes32"
        },
        {
          "internalType": "address",
          "name": "account",
          "type": "address"
        }
      ],
      "name": "renounceRole",
      "outputs": [],
      "stateMutability": "nonpayable",
      "type": "function"
    },
    {
      "inputs": [
        {
          "internalType": "bytes32",
          "name": "role",
          "type": "bytes32"
        },
        {
          "internalType": "address",
          "name": "account",
          "type": "address"
        }
      ],
      "name": "revokeRole",
      "outputs": [],
      "stateMutability": "nonpayable",
      "type": "function"
    },
    {
      "inputs": [
        {
          "internalType": "address",
          "name": "from",
          "type": "address"
        },
        {
          "internalType": "address",
          "name": "to",
          "type": "address"
        },
        {
          "internalType": "uint256",
          "name": "tokenId",
          "type": "uint256"
        }
      ],
      "name": "safeTransferFrom",
      "outputs": [],
      "stateMutability": "nonpayable",
      "type": "function"
    },
    {
      "inputs": [
        {
          "internalType": "address",
          "name": "from",
          "type": "address"
        },
        {
          "internalType": "address",
          "name": "to",
          "type": "address"
        },
        {
          "internalType": "uint256",
          "name": "tokenId",
          "type": "uint256"
        },
        {
          "internalType": "bytes",
          "name": "data",
          "type": "bytes"
        }
      ],
      "name": "safeTransferFrom",
      "outputs": [],
      "stateMutability": "nonpayable",
      "type": "function"
    },
    {
      "inputs": [
        {
          "internalType": "address",
          "name": "operator",
          "type": "address"
        },
        {
          "internalType": "bool",
          "name": "approved",
          "type": "bool"
        }
      ],
      "name": "setApprovalForAll",
      "outputs": [],
      "stateMutability": "nonpayable",
      "type": "function"
    },
    {
      "inputs": [
        {
          "internalType": "address",
          "name": "_newOwner",
          "type": "address"
        }
      ],
      "name": "setOwner",
      "outputs": [],
      "stateMutability": "nonpayable",
      "type": "function"
    },
    {
      "inputs": [
        {
          "internalType": "bytes4",
          "name": "interfaceId",
          "type": "bytes4"
        }
      ],
      "name": "supportsInterface",
      "outputs": [
        {
          "internalType": "bool",
          "name": "",
          "type": "bool"
        }
      ],
      "stateMutability": "view",
      "type": "function"
    },
    {
      "inputs": [],
      "name": "symbol",
      "outputs": [
        {
          "internalType": "string",
          "name": "",
          "type": "string"
        }
      ],
      "stateMutability": "view",
      "type": "function"
    },
    {
      "inputs": [
        {
          "internalType": "uint256",
          "name": "tokenId",
          "type": "uint256"
        }
      ],
      "name": "tokenURI",
      "outputs": [
        {
          "internalType": "string",
          "name": "",
          "type": "string"
        }
      ],
      "stateMutability": "view",
      "type": "function"
    },
    {
      "inputs": [
        {
          "internalType": "address",
          "name": "from",
          "type": "address"
        },
        {
          "internalType": "address",
          "name": "to",
          "type": "address"
        },
        {
          "internalType": "uint256",
          "name": "tokenId",
          "type": "uint256"
        }
      ],
      "name": "transferFrom",
      "outputs": [],
      "stateMutability": "nonpayable",
      "type": "function"
    },
    {
      "inputs": [
        {
          "internalType": "uint256",
          "name": "_id",
          "type": "uint256"
        },
        {
          "internalType": "address",
          "name": "to",
          "type": "address"
        }
      ],
      "name": "transferNFT",
      "outputs": [],
      "stateMutability": "payable",
      "type": "function"
    },
    {
      "inputs": [
        {
          "internalType": "uint256",
          "name": "_id",
          "type": "uint256"
        },
        {
          "internalType": "address",
          "name": "from",
          "type": "address"
        },
        {
          "internalType": "address",
          "name": "to",
          "type": "address"
        }
      ],
      "name": "transferNFTFrom",
      "outputs": [],
      "stateMutability": "payable",
      "type": "function"
    },
    {
      "inputs": [
        {
          "internalType": "address",
          "name": "newOwner",
          "type": "address"
        }
      ],
      "name": "transferOwnership",
      "outputs": [],
      "stateMutability": "nonpayable",
      "type": "function"
    },
    {
      "inputs": [
        {
          "internalType": "address",
          "name": "",
          "type": "address"
        }
      ],
      "name": "walletClaimCount",
      "outputs": [
        {
          "internalType": "uint256",
          "name": "",
          "type": "uint256"
        }
      ],
      "stateMutability": "view",
      "type": "function"
    }
  ],
  "bytecode": "0x60a06040523480156200001157600080fd5b506040516200578238038062005782833981810160405281019062000037919062000a30565b8383828073ffffffffffffffffffffffffffffffffffffffff1660808173ffffffffffffffffffffffffffffffffffffffff1681525050506200008f62000083620002c260201b60201c565b620002de60201b60201c565b8160019080519060200190620000a792919062000739565b508060029080519060200190620000c092919062000739565b50505081600a60006101000a81548173ffffffffffffffffffffffffffffffffffffffff021916908373ffffffffffffffffffffffffffffffffffffffff160217905550620001196000801b83620003a260201b60201c565b6200014b7f9f2df0fed2c77648de5860a4cc508cd0818c85b8b8a1ab4ceeef8d981c8956a683620003a260201b60201c565b6200017d7f8502233096d909befbda0999bb8ea2f3a6be3c138b9fbf003752a4c8bce86f6c83620003a260201b60201c565b620001af7f3c11d16cbaffd01df69ce1c404f6340ee057498f5f00246190ea54220576a84883620003a260201b60201c565b620001e27f8502233096d909befbda0999bb8ea2f3a6be3c138b9fbf003752a4c8bce86f6c6000620003a260201b60201c565b620002237f9f2df0fed2c77648de5860a4cc508cd0818c85b8b8a1ab4ceeef8d981c8956a662000217620002c260201b60201c565b620003a260201b60201c565b620002647f3c11d16cbaffd01df69ce1c404f6340ee057498f5f00246190ea54220576a84862000258620002c260201b60201c565b620003a260201b60201c565b620002a57f8502233096d909befbda0999bb8ea2f3a6be3c138b9fbf003752a4c8bce86f6c62000299620002c260201b60201c565b620003a260201b60201c565b620002b8826001620003b860201b60201c565b5050505062000c02565b6000620002d9620003de60201b62001a711760201c565b905090565b60008060009054906101000a900473ffffffffffffffffffffffffffffffffffffffff169050816000806101000a81548173ffffffffffffffffffffffffffffffffffffffff021916908373ffffffffffffffffffffffffffffffffffffffff1602179055508173ffffffffffffffffffffffffffffffffffffffff168173ffffffffffffffffffffffffffffffffffffffff167f8be0079c531659141344cd1fd0a4f28419497f9722a3daafe3b4186f6b6457e060405160405180910390a35050565b620003b482826200042860201b60201c565b5050565b620003da620003cc620002c260201b60201c565b83836200051a60201b60201c565b5050565b6000620003f1336200068c60201b60201c565b156200040757601436033560601c905062000424565b6200041c620006c660201b62001aa31760201c565b905062000425565b5b90565b6200043a8282620006ce60201b60201c565b620005165760016008600084815260200190815260200160002060000160008373ffffffffffffffffffffffffffffffffffffffff1673ffffffffffffffffffffffffffffffffffffffff16815260200190815260200160002060006101000a81548160ff021916908315150217905550620004bb620002c260201b60201c565b73ffffffffffffffffffffffffffffffffffffffff168173ffffffffffffffffffffffffffffffffffffffff16837f2f8788117e7eff1d82e926ec794901d17c78024a50270940304540a733656f0d60405160405180910390a45b5050565b8173ffffffffffffffffffffffffffffffffffffffff168373ffffffffffffffffffffffffffffffffffffffff1614156200058c576040517f08c379a0000000000000000000000000000000000000000000000000000000008152600401620005839062000b41565b60405180910390fd5b80600660008573ffffffffffffffffffffffffffffffffffffffff1673ffffffffffffffffffffffffffffffffffffffff16815260200190815260200160002060008473ffffffffffffffffffffffffffffffffffffffff1673ffffffffffffffffffffffffffffffffffffffff16815260200190815260200160002060006101000a81548160ff0219169083151502179055508173ffffffffffffffffffffffffffffffffffffffff168373ffffffffffffffffffffffffffffffffffffffff167f17307eab39ab6107e8899845ad3d59bd9653f200f220920489ca2b5937696c31836040516200067f919062000b80565b60405180910390a3505050565b600060805173ffffffffffffffffffffffffffffffffffffffff168273ffffffffffffffffffffffffffffffffffffffff16149050919050565b600033905090565b60006008600084815260200190815260200160002060000160008373ffffffffffffffffffffffffffffffffffffffff1673ffffffffffffffffffffffffffffffffffffffff16815260200190815260200160002060009054906101000a900460ff16905092915050565b828054620007479062000bcc565b90600052602060002090601f0160209004810192826200076b5760008555620007b7565b82601f106200078657805160ff1916838001178555620007b7565b82800160010185558215620007b7579182015b82811115620007b657825182559160200191906001019062000799565b5b509050620007c69190620007ca565b5090565b5b80821115620007e5576000816000905550600101620007cb565b5090565b6000604051905090565b600080fd5b600080fd5b600080fd5b600080fd5b6000601f19601f8301169050919050565b7f4e487b7100000000000000000000000000000000000000000000000000000000600052604160045260246000fd5b620008528262000807565b810181811067ffffffffffffffff8211171562000874576200087362000818565b5b80604052505050565b600062000889620007e9565b905062000897828262000847565b919050565b600067ffffffffffffffff821115620008ba57620008b962000818565b5b620008c58262000807565b9050602081019050919050565b60005b83811015620008f2578082015181840152602081019050620008d5565b8381111562000902576000848401525b50505050565b60006200091f62000919846200089c565b6200087d565b9050828152602081018484840111156200093e576200093d62000802565b5b6200094b848285620008d2565b509392505050565b600082601f8301126200096b576200096a620007fd565b5b81516200097d84826020860162000908565b91505092915050565b600073ffffffffffffffffffffffffffffffffffffffff82169050919050565b6000620009b38262000986565b9050919050565b620009c581620009a6565b8114620009d157600080fd5b50565b600081519050620009e581620009ba565b92915050565b6000620009f882620009a6565b9050919050565b62000a0a81620009eb565b811462000a1657600080fd5b50565b60008151905062000a2a81620009ff565b92915050565b6000806000806080858703121562000a4d5762000a4c620007f3565b5b600085015167ffffffffffffffff81111562000a6e5762000a6d620007f8565b5b62000a7c8782880162000953565b945050602085015167ffffffffffffffff81111562000aa05762000a9f620007f8565b5b62000aae8782880162000953565b935050604062000ac187828801620009d4565b925050606062000ad48782880162000a19565b91505092959194509250565b600082825260208201905092915050565b7f4552433732313a20617070726f766520746f2063616c6c657200000000000000600082015250565b600062000b2960198362000ae0565b915062000b368262000af1565b602082019050919050565b6000602082019050818103600083015262000b5c8162000b1a565b9050919050565b60008115159050919050565b62000b7a8162000b63565b82525050565b600060208201905062000b97600083018462000b6f565b92915050565b7f4e487b7100000000000000000000000000000000000000000000000000000000600052602260045260246000fd5b6000600282049050600182168062000be557607f821691505b6020821081141562000bfc5762000bfb62000b9d565b5b50919050565b608051614b6462000c1e600039600061113f0152614b646000f3fe6080604052600436106102515760003560e01c806370a0823111610139578063a05112fc116100b6578063c87b56dd1161007a578063c87b56dd146108de578063cb2ef6f71461091b578063d547741f14610946578063e47d419b1461096f578063e985e9c514610998578063f2fde38b146109d557610251565b8063a05112fc146107f9578063a0a8e46014610836578063a217fddf14610861578063a22cb4651461088c578063b88d4fde146108b557610251565b80638da5cb5b116100fd5780638da5cb5b1461071f5780638f32d59b1461074a5780639036c0501461077557806391d148541461079157806395d89b41146107ce57610251565b806370a082311461065b578063715018a61461069857806371e2a657146106af578063745fffbe146106d85780638c71db581461070357610251565b8063282c51f3116101d257806342842e0e1161019657806342842e0e1461052957806342966c68146105525780634352ab411461057b578063572b6c05146105b85780635fc1964f146105f55780636352211e1461061e57610251565b8063282c51f3146104585780632f2ff15d1461048357806336568abe146104ac5780633ab84dd9146104d55780633f0e317b146104fe57610251565b806313af40351161021957806313af4035146103615780631592b6071461038a57806323b872dd146103b5578063248a9ca3146103de57806326a49e371461041b57610251565b806301ffc9a714610256578063056b01ce1461029357806306fdde03146102d0578063081812fc146102fb578063095ea7b314610338575b600080fd5b34801561026257600080fd5b5061027d6004803603810190610278919061330f565b6109fe565b60405161028a9190613357565b60405180910390f35b34801561029f57600080fd5b506102ba60048036038101906102b591906134ee565b610a10565b6040516102c79190613559565b60405180910390f35b3480156102dc57600080fd5b506102e5610a8b565b6040516102f291906135fc565b60405180910390f35b34801561030757600080fd5b50610322600480360381019061031d919061361e565b610b1d565b60405161032f919061368c565b60405180910390f35b34801561034457600080fd5b5061035f600480360381019061035a91906136d3565b610b63565b005b34801561036d57600080fd5b5061038860048036038101906103839190613713565b610c7b565b005b34801561039657600080fd5b5061039f610d44565b6040516103ac9190613357565b60405180910390f35b3480156103c157600080fd5b506103dc60048036038101906103d79190613740565b610d7c565b005b3480156103ea57600080fd5b50610405600480360381019061040091906137c9565b610ddc565b6040516104129190613805565b60405180910390f35b34801561042757600080fd5b50610442600480360381019061043d919061361e565b610dfc565b60405161044f9190613559565b60405180910390f35b34801561046457600080fd5b5061046d610e14565b60405161047a9190613805565b60405180910390f35b34801561048f57600080fd5b506104aa60048036038101906104a59190613820565b610e38565b005b3480156104b857600080fd5b506104d360048036038101906104ce9190613820565b610e59565b005b3480156104e157600080fd5b506104fc60048036038101906104f79190613928565b610edc565b005b34801561050a57600080fd5b50610513610f6c565b6040516105209190613a80565b60405180910390f35b34801561053557600080fd5b50610550600480360381019061054b9190613740565b6110cc565b005b34801561055e57600080fd5b506105796004803603810190610574919061361e565b6110ec565b005b34801561058757600080fd5b506105a2600480360381019061059d9190613713565b611123565b6040516105af9190613559565b60405180910390f35b3480156105c457600080fd5b506105df60048036038101906105da9190613713565b61113b565b6040516105ec9190613357565b60405180910390f35b34801561060157600080fd5b5061061c60048036038101906106179190613928565b611193565b005b34801561062a57600080fd5b506106456004803603810190610640919061361e565b611200565b604051610652919061368c565b60405180910390f35b34801561066757600080fd5b50610682600480360381019061067d9190613713565b6112b2565b60405161068f9190613559565b60405180910390f35b3480156106a457600080fd5b506106ad61136a565b005b3480156106bb57600080fd5b506106d660048036038101906106d19190613928565b61137e565b005b3480156106e457600080fd5b506106ed61140e565b6040516106fa9190613357565b60405180910390f35b61071d60048036038101906107189190613aa2565b611446565b005b34801561072b57600080fd5b50610734611481565b604051610741919061368c565b60405180910390f35b34801561075657600080fd5b5061075f6114e6565b60405161076c9190613357565b60405180910390f35b61078f600480360381019061078a9190613af5565b61152a565b005b34801561079d57600080fd5b506107b860048036038101906107b39190613820565b61156b565b6040516107c59190613357565b60405180910390f35b3480156107da57600080fd5b506107e36115d6565b6040516107f091906135fc565b60405180910390f35b34801561080557600080fd5b50610820600480360381019061081b919061361e565b611668565b60405161082d9190613b8a565b60405180910390f35b34801561084257600080fd5b5061084b611708565b6040516108589190613bc8565b60405180910390f35b34801561086d57600080fd5b50610876611711565b6040516108839190613805565b60405180910390f35b34801561089857600080fd5b506108b360048036038101906108ae9190613c0f565b611718565b005b3480156108c157600080fd5b506108dc60048036038101906108d79190613cf0565b61172e565b005b3480156108ea57600080fd5b506109056004803603810190610900919061361e565b611790565b60405161091291906135fc565b60405180910390f35b34801561092757600080fd5b506109306118a3565b60405161093d9190613805565b60405180910390f35b34801561095257600080fd5b5061096d60048036038101906109689190613820565b6118cb565b005b34801561097b57600080fd5b5061099660048036038101906109919190613928565b6118ec565b005b3480156109a457600080fd5b506109bf60048036038101906109ba9190613d73565b611959565b6040516109cc9190613357565b60405180910390f35b3480156109e157600080fd5b506109fc60048036038101906109f79190613713565b6119ed565b005b6000610a0982611aab565b9050919050565b60007f9f2df0fed2c77648de5860a4cc508cd0818c85b8b8a1ab4ceeef8d981c8956a6610a3c81611b25565b610a466009611b39565b6000610a526009611b4f565b905083600e600083815260200190815260200160002081905550610a763082611b5d565b610a808186611d37565b809250505092915050565b606060018054610a9a90613de2565b80601f0160208091040260200160405190810160405280929190818152602001828054610ac690613de2565b8015610b135780601f10610ae857610100808354040283529160200191610b13565b820191906000526020600020905b815481529060010190602001808311610af657829003601f168201915b5050505050905090565b6000610b2882611dab565b6005600083815260200190815260200160002060009054906101000a900473ffffffffffffffffffffffffffffffffffffffff169050919050565b6000610b6e82611200565b90508073ffffffffffffffffffffffffffffffffffffffff168373ffffffffffffffffffffffffffffffffffffffff161415610bdf576040517f08c379a0000000000000000000000000000000000000000000000000000000008152600401610bd690613e86565b60405180910390fd5b8073ffffffffffffffffffffffffffffffffffffffff16610bfe611df6565b73ffffffffffffffffffffffffffffffffffffffff161480610c2d5750610c2c81610c27611df6565b611959565b5b610c6c576040517f08c379a0000000000000000000000000000000000000000000000000000000008152600401610c6390613f18565b60405180910390fd5b610c768383611e05565b505050565b6000801b610c8881611b25565b610c956000801b8361156b565b610cd4576040517f08c379a0000000000000000000000000000000000000000000000000000000008152600401610ccb90613f84565b60405180910390fd5b81600a60006101000a81548173ffffffffffffffffffffffffffffffffffffffff021916908373ffffffffffffffffffffffffffffffffffffffff160217905550610d40600a60009054906101000a900473ffffffffffffffffffffffffffffffffffffffff166119ed565b5050565b6000610d777f9f2df0fed2c77648de5860a4cc508cd0818c85b8b8a1ab4ceeef8d981c8956a6610d72611df6565b61156b565b905090565b610d8d610d87611df6565b82611ebe565b610dcc576040517f08c379a0000000000000000000000000000000000000000000000000000000008152600401610dc390614016565b60405180910390fd5b610dd7838383611f53565b505050565b600060086000838152602001908152602001600020600101549050919050565b600e6020528060005260406000206000915090505481565b7f3c11d16cbaffd01df69ce1c404f6340ee057498f5f00246190ea54220576a84881565b610e4182610ddc565b610e4a81611b25565b610e5483836121ba565b505050565b610e61611df6565b73ffffffffffffffffffffffffffffffffffffffff168173ffffffffffffffffffffffffffffffffffffffff1614610ece576040517f08c379a0000000000000000000000000000000000000000000000000000000008152600401610ec5906140a8565b60405180910390fd5b610ed8828261229b565b5050565b7f3c11d16cbaffd01df69ce1c404f6340ee057498f5f00246190ea54220576a848610f0681611b25565b60005b8251811015610f6757610f567f3c11d16cbaffd01df69ce1c404f6340ee057498f5f00246190ea54220576a848848381518110610f4957610f486140c8565b5b602002602001015161237d565b80610f6090614126565b9050610f09565b505050565b60606000610f7a6009611b4f565b9050600080600190505b828111610fbc57610f948161238b565b15610fa957600182610fa6919061416f565b91505b8080610fb490614126565b915050610f84565b5060008167ffffffffffffffff811115610fd957610fd861338d565b5b60405190808252806020026020018201604052801561101257816020015b610fff613189565b815260200190600190039081610ff75790505b509050600091506000600190505b8381116110c2576110308161238b565b156110af57604051806060016040528082815260200161104f83611200565b73ffffffffffffffffffffffffffffffffffffffff168152602001600e600084815260200190815260200160002054815250828481518110611094576110936140c8565b5b60200260200101819052506001836110ac919061416f565b92505b80806110ba90614126565b915050611020565b5080935050505090565b6110e78383836040518060200160405280600081525061172e565b505050565b7f3c11d16cbaffd01df69ce1c404f6340ee057498f5f00246190ea54220576a84861111681611b25565b61111f826123f7565b5050565b600d6020528060005260406000206000915090505481565b60007f000000000000000000000000000000000000000000000000000000000000000073ffffffffffffffffffffffffffffffffffffffff168273ffffffffffffffffffffffffffffffffffffffff16149050919050565b61119b61244a565b60005b81518110156111fc576111eb7f9f2df0fed2c77648de5860a4cc508cd0818c85b8b8a1ab4ceeef8d981c8956a68383815181106111de576111dd6140c8565b5b60200260200101516118cb565b806111f590614126565b905061119e565b5050565b6000806003600084815260200190815260200160002060009054906101000a900473ffffffffffffffffffffffffffffffffffffffff169050600073ffffffffffffffffffffffffffffffffffffffff168173ffffffffffffffffffffffffffffffffffffffff1614156112a9576040517f08c379a00000000000000000000000000000000000000000000000000000000081526004016112a090614211565b60405180910390fd5b80915050919050565b60008073ffffffffffffffffffffffffffffffffffffffff168273ffffffffffffffffffffffffffffffffffffffff161415611323576040517f08c379a000000000000000000000000000000000000000000000000000000000815260040161131a906142a3565b60405180910390fd5b600460008373ffffffffffffffffffffffffffffffffffffffff1673ffffffffffffffffffffffffffffffffffffffff168152602001908152602001600020549050919050565b61137261244a565b61137c60006124c8565b565b7f9f2df0fed2c77648de5860a4cc508cd0818c85b8b8a1ab4ceeef8d981c8956a66113a881611b25565b60005b8251811015611409576113f87f9f2df0fed2c77648de5860a4cc508cd0818c85b8b8a1ab4ceeef8d981c8956a68483815181106113eb576113ea6140c8565b5b602002602001015161237d565b8061140290614126565b90506113ab565b505050565b60006114417f3c11d16cbaffd01df69ce1c404f6340ee057498f5f00246190ea54220576a84861143c611df6565b61156b565b905090565b7f8502233096d909befbda0999bb8ea2f3a6be3c138b9fbf003752a4c8bce86f6c61147081611b25565b61147b838386610d7c565b50505050565b60006114b26000801b600a60009054906101000a900473ffffffffffffffffffffffffffffffffffffffff1661156b565b6114bd5760006114e1565b600a60009054906101000a900473ffffffffffffffffffffffffffffffffffffffff165b905090565b60006114f0611df6565b73ffffffffffffffffffffffffffffffffffffffff1661150e611481565b73ffffffffffffffffffffffffffffffffffffffff1614905090565b7f8502233096d909befbda0999bb8ea2f3a6be3c138b9fbf003752a4c8bce86f6c61155481611b25565b61156661155f611df6565b8385611f53565b505050565b60006008600084815260200190815260200160002060000160008373ffffffffffffffffffffffffffffffffffffffff1673ffffffffffffffffffffffffffffffffffffffff16815260200190815260200160002060009054906101000a900460ff16905092915050565b6060600280546115e590613de2565b80601f016020809104026020016040519081016040528092919081815260200182805461161190613de2565b801561165e5780601f106116335761010080835404028352916020019161165e565b820191906000526020600020905b81548152906001019060200180831161164157829003601f168201915b5050505050905090565b600c602052806000526040600020600091509050805461168790613de2565b80601f01602080910402602001604051908101604052809291908181526020018280546116b390613de2565b80156117005780601f106116d557610100808354040283529160200191611700565b820191906000526020600020905b8154815290600101906020018083116116e357829003601f168201915b505050505081565b60006001905090565b6000801b81565b61172a611723611df6565b838361258c565b5050565b61173f611739611df6565b83611ebe565b61177e576040517f08c379a000000000000000000000000000000000000000000000000000000000815260040161177590614016565b60405180910390fd5b61178a848484846126f9565b50505050565b606061179b82611dab565b60006007600084815260200190815260200160002080546117bb90613de2565b80601f01602080910402602001604051908101604052809291908181526020018280546117e790613de2565b80156118345780601f1061180957610100808354040283529160200191611834565b820191906000526020600020905b81548152906001019060200180831161181757829003601f168201915b505050505090506000611845612755565b905060008151141561185b57819250505061189e565b6000825111156118905780826040516020016118789291906142ff565b6040516020818303038152906040529250505061189e565b6118998461276c565b925050505b919050565b60007f455243373231546f6b656e000000000000000000000000000000000000000000905090565b6118d482610ddc565b6118dd81611b25565b6118e7838361229b565b505050565b6118f461244a565b60005b8151811015611955576119447f3c11d16cbaffd01df69ce1c404f6340ee057498f5f00246190ea54220576a848838381518110611937576119366140c8565b5b60200260200101516118cb565b8061194e90614126565b90506118f7565b5050565b6000600660008473ffffffffffffffffffffffffffffffffffffffff1673ffffffffffffffffffffffffffffffffffffffff16815260200190815260200160002060008373ffffffffffffffffffffffffffffffffffffffff1673ffffffffffffffffffffffffffffffffffffffff16815260200190815260200160002060009054906101000a900460ff16905092915050565b6119f561244a565b600073ffffffffffffffffffffffffffffffffffffffff168173ffffffffffffffffffffffffffffffffffffffff161415611a65576040517f08c379a0000000000000000000000000000000000000000000000000000000008152600401611a5c90614395565b60405180910390fd5b611a6e816124c8565b50565b6000611a7c3361113b565b15611a9057601436033560601c9050611a9f565b611a98611aa3565b9050611aa0565b5b90565b600033905090565b60007f7965db0b000000000000000000000000000000000000000000000000000000007bffffffffffffffffffffffffffffffffffffffffffffffffffffffff1916827bffffffffffffffffffffffffffffffffffffffffffffffffffffffff19161480611b1e5750611b1d826127d4565b5b9050919050565b611b3681611b31611df6565b6128b6565b50565b6001816000016000828254019250508190555050565b600081600001549050919050565b600073ffffffffffffffffffffffffffffffffffffffff168273ffffffffffffffffffffffffffffffffffffffff161415611bcd576040517f08c379a0000000000000000000000000000000000000000000000000000000008152600401611bc490614401565b60405180910390fd5b611bd68161238b565b15611c16576040517f08c379a0000000000000000000000000000000000000000000000000000000008152600401611c0d9061446d565b60405180910390fd5b611c2260008383612953565b6001600460008473ffffffffffffffffffffffffffffffffffffffff1673ffffffffffffffffffffffffffffffffffffffff1681526020019081526020016000206000828254611c72919061416f565b92505081905550816003600083815260200190815260200160002060006101000a81548173ffffffffffffffffffffffffffffffffffffffff021916908373ffffffffffffffffffffffffffffffffffffffff160217905550808273ffffffffffffffffffffffffffffffffffffffff16600073ffffffffffffffffffffffffffffffffffffffff167fddf252ad1be2c89b69c2b068fc378daa952ba7f163c4a11628f55a4df523b3ef60405160405180910390a4611d3360008383612aa1565b5050565b611d408261238b565b611d7f576040517f08c379a0000000000000000000000000000000000000000000000000000000008152600401611d76906144ff565b60405180910390fd5b80600760008481526020019081526020016000209080519060200190611da69291906131c0565b505050565b611db48161238b565b611df3576040517f08c379a0000000000000000000000000000000000000000000000000000000008152600401611dea90614211565b60405180910390fd5b50565b6000611e00611a71565b905090565b816005600083815260200190815260200160002060006101000a81548173ffffffffffffffffffffffffffffffffffffffff021916908373ffffffffffffffffffffffffffffffffffffffff160217905550808273ffffffffffffffffffffffffffffffffffffffff16611e7883611200565b73ffffffffffffffffffffffffffffffffffffffff167f8c5be1e5ebec7d5bd14f71427d1e84f3dd0314c0f7b2291e5b200ac8c7c3b92560405160405180910390a45050565b600080611eca83611200565b90508073ffffffffffffffffffffffffffffffffffffffff168473ffffffffffffffffffffffffffffffffffffffff161480611f0c5750611f0b8185611959565b5b80611f4a57508373ffffffffffffffffffffffffffffffffffffffff16611f3284610b1d565b73ffffffffffffffffffffffffffffffffffffffff16145b91505092915050565b8273ffffffffffffffffffffffffffffffffffffffff16611f7382611200565b73ffffffffffffffffffffffffffffffffffffffff1614611fc9576040517f08c379a0000000000000000000000000000000000000000000000000000000008152600401611fc090614591565b60405180910390fd5b600073ffffffffffffffffffffffffffffffffffffffff168273ffffffffffffffffffffffffffffffffffffffff161415612039576040517f08c379a000000000000000000000000000000000000000000000000000000000815260040161203090614623565b60405180910390fd5b612044838383612953565b61204f600082611e05565b6001600460008573ffffffffffffffffffffffffffffffffffffffff1673ffffffffffffffffffffffffffffffffffffffff168152602001908152602001600020600082825461209f9190614643565b925050819055506001600460008473ffffffffffffffffffffffffffffffffffffffff1673ffffffffffffffffffffffffffffffffffffffff16815260200190815260200160002060008282546120f6919061416f565b92505081905550816003600083815260200190815260200160002060006101000a81548173ffffffffffffffffffffffffffffffffffffffff021916908373ffffffffffffffffffffffffffffffffffffffff160217905550808273ffffffffffffffffffffffffffffffffffffffff168473ffffffffffffffffffffffffffffffffffffffff167fddf252ad1be2c89b69c2b068fc378daa952ba7f163c4a11628f55a4df523b3ef60405160405180910390a46121b5838383612aa1565b505050565b6121c4828261156b565b6122975760016008600084815260200190815260200160002060000160008373ffffffffffffffffffffffffffffffffffffffff1673ffffffffffffffffffffffffffffffffffffffff16815260200190815260200160002060006101000a81548160ff02191690831515021790555061223c611df6565b73ffffffffffffffffffffffffffffffffffffffff168173ffffffffffffffffffffffffffffffffffffffff16837f2f8788117e7eff1d82e926ec794901d17c78024a50270940304540a733656f0d60405160405180910390a45b5050565b6122a5828261156b565b156123795760006008600084815260200190815260200160002060000160008373ffffffffffffffffffffffffffffffffffffffff1673ffffffffffffffffffffffffffffffffffffffff16815260200190815260200160002060006101000a81548160ff02191690831515021790555061231e611df6565b73ffffffffffffffffffffffffffffffffffffffff168173ffffffffffffffffffffffffffffffffffffffff16837ff6391f5c32d9c69d2a47ea670b442974b53935d1edc7fd64eb21e047a839171b60405160405180910390a45b5050565b61238782826121ba565b5050565b60008073ffffffffffffffffffffffffffffffffffffffff166003600084815260200190815260200160002060009054906101000a900473ffffffffffffffffffffffffffffffffffffffff1673ffffffffffffffffffffffffffffffffffffffff1614159050919050565b61240081612aa6565b600060076000838152602001908152602001600020805461242090613de2565b905014612447576007600082815260200190815260200160002060006124469190613246565b5b50565b612452611df6565b73ffffffffffffffffffffffffffffffffffffffff16612470611481565b73ffffffffffffffffffffffffffffffffffffffff16146124c6576040517f08c379a00000000000000000000000000000000000000000000000000000000081526004016124bd906146c3565b60405180910390fd5b565b60008060009054906101000a900473ffffffffffffffffffffffffffffffffffffffff169050816000806101000a81548173ffffffffffffffffffffffffffffffffffffffff021916908373ffffffffffffffffffffffffffffffffffffffff1602179055508173ffffffffffffffffffffffffffffffffffffffff168173ffffffffffffffffffffffffffffffffffffffff167f8be0079c531659141344cd1fd0a4f28419497f9722a3daafe3b4186f6b6457e060405160405180910390a35050565b8173ffffffffffffffffffffffffffffffffffffffff168373ffffffffffffffffffffffffffffffffffffffff1614156125fb576040517f08c379a00000000000000000000000000000000000000000000000000000000081526004016125f29061472f565b60405180910390fd5b80600660008573ffffffffffffffffffffffffffffffffffffffff1673ffffffffffffffffffffffffffffffffffffffff16815260200190815260200160002060008473ffffffffffffffffffffffffffffffffffffffff1673ffffffffffffffffffffffffffffffffffffffff16815260200190815260200160002060006101000a81548160ff0219169083151502179055508173ffffffffffffffffffffffffffffffffffffffff168373ffffffffffffffffffffffffffffffffffffffff167f17307eab39ab6107e8899845ad3d59bd9653f200f220920489ca2b5937696c31836040516126ec9190613357565b60405180910390a3505050565b612704848484611f53565b61271084848484612bc3565b61274f576040517f08c379a0000000000000000000000000000000000000000000000000000000008152600401612746906147c1565b60405180910390fd5b50505050565b606060405180602001604052806000815250905090565b606061277782611dab565b6000612781612755565b905060008151116127a157604051806020016040528060008152506127cc565b806127ab84612d5a565b6040516020016127bc9291906142ff565b6040516020818303038152906040525b915050919050565b60007f80ac58cd000000000000000000000000000000000000000000000000000000007bffffffffffffffffffffffffffffffffffffffffffffffffffffffff1916827bffffffffffffffffffffffffffffffffffffffffffffffffffffffff1916148061289f57507f5b5e139f000000000000000000000000000000000000000000000000000000007bffffffffffffffffffffffffffffffffffffffffffffffffffffffff1916827bffffffffffffffffffffffffffffffffffffffffffffffffffffffff1916145b806128af57506128ae82612ebb565b5b9050919050565b6128c0828261156b565b61294f576128e58173ffffffffffffffffffffffffffffffffffffffff166014612f25565b6128f38360001c6020612f25565b604051602001612904929190614879565b6040516020818303038152906040526040517f08c379a000000000000000000000000000000000000000000000000000000000815260040161294691906135fc565b60405180910390fd5b5050565b61295e838383613161565b6129897f8502233096d909befbda0999bb8ea2f3a6be3c138b9fbf003752a4c8bce86f6c600061156b565b1580156129c35750600073ffffffffffffffffffffffffffffffffffffffff168373ffffffffffffffffffffffffffffffffffffffff1614155b80156129fc5750600073ffffffffffffffffffffffffffffffffffffffff168273ffffffffffffffffffffffffffffffffffffffff1614155b15612a9c57612a2b7f8502233096d909befbda0999bb8ea2f3a6be3c138b9fbf003752a4c8bce86f6c8461156b565b80612a5c5750612a5b7f8502233096d909befbda0999bb8ea2f3a6be3c138b9fbf003752a4c8bce86f6c8361156b565b5b612a9b576040517f08c379a0000000000000000000000000000000000000000000000000000000008152600401612a92906148ff565b60405180910390fd5b5b505050565b505050565b6000612ab182611200565b9050612abf81600084612953565b612aca600083611e05565b6001600460008373ffffffffffffffffffffffffffffffffffffffff1673ffffffffffffffffffffffffffffffffffffffff1681526020019081526020016000206000828254612b1a9190614643565b925050819055506003600083815260200190815260200160002060006101000a81549073ffffffffffffffffffffffffffffffffffffffff021916905581600073ffffffffffffffffffffffffffffffffffffffff168273ffffffffffffffffffffffffffffffffffffffff167fddf252ad1be2c89b69c2b068fc378daa952ba7f163c4a11628f55a4df523b3ef60405160405180910390a4612bbf81600084612aa1565b5050565b6000612be48473ffffffffffffffffffffffffffffffffffffffff16613166565b15612d4d578373ffffffffffffffffffffffffffffffffffffffff1663150b7a02612c0d611df6565b8786866040518563ffffffff1660e01b8152600401612c2f949392919061491f565b602060405180830381600087803b158015612c4957600080fd5b505af1925050508015612c7a57506040513d601f19601f82011682018060405250810190612c779190614980565b60015b612cfd573d8060008114612caa576040519150601f19603f3d011682016040523d82523d6000602084013e612caf565b606091505b50600081511415612cf5576040517f08c379a0000000000000000000000000000000000000000000000000000000008152600401612cec906147c1565b60405180910390fd5b805181602001fd5b63150b7a0260e01b7bffffffffffffffffffffffffffffffffffffffffffffffffffffffff1916817bffffffffffffffffffffffffffffffffffffffffffffffffffffffff191614915050612d52565b600190505b949350505050565b60606000821415612da2576040518060400160405280600181526020017f30000000000000000000000000000000000000000000000000000000000000008152509050612eb6565b600082905060005b60008214612dd4578080612dbd90614126565b915050600a82612dcd91906149dc565b9150612daa565b60008167ffffffffffffffff811115612df057612def61338d565b5b6040519080825280601f01601f191660200182016040528015612e225781602001600182028036833780820191505090505b5090505b60008514612eaf57600182612e3b9190614643565b9150600a85612e4a9190614a0d565b6030612e56919061416f565b60f81b818381518110612e6c57612e6b6140c8565b5b60200101907effffffffffffffffffffffffffffffffffffffffffffffffffffffffffffff1916908160001a905350600a85612ea891906149dc565b9450612e26565b8093505050505b919050565b60007f01ffc9a7000000000000000000000000000000000000000000000000000000007bffffffffffffffffffffffffffffffffffffffffffffffffffffffff1916827bffffffffffffffffffffffffffffffffffffffffffffffffffffffff1916149050919050565b606060006002836002612f389190614a3e565b612f42919061416f565b67ffffffffffffffff811115612f5b57612f5a61338d565b5b6040519080825280601f01601f191660200182016040528015612f8d5781602001600182028036833780820191505090505b5090507f300000000000000000000000000000000000000000000000000000000000000081600081518110612fc557612fc46140c8565b5b60200101907effffffffffffffffffffffffffffffffffffffffffffffffffffffffffffff1916908160001a9053507f780000000000000000000000000000000000000000000000000000000000000081600181518110613029576130286140c8565b5b60200101907effffffffffffffffffffffffffffffffffffffffffffffffffffffffffffff1916908160001a905350600060018460026130699190614a3e565b613073919061416f565b90505b6001811115613113577f3031323334353637383961626364656600000000000000000000000000000000600f8616601081106130b5576130b46140c8565b5b1a60f81b8282815181106130cc576130cb6140c8565b5b60200101907effffffffffffffffffffffffffffffffffffffffffffffffffffffffffffff1916908160001a905350600485901c94508061310c90614a98565b9050613076565b5060008414613157576040517f08c379a000000000000000000000000000000000000000000000000000000000815260040161314e90614b0e565b60405180910390fd5b8091505092915050565b505050565b6000808273ffffffffffffffffffffffffffffffffffffffff163b119050919050565b604051806060016040528060008152602001600073ffffffffffffffffffffffffffffffffffffffff168152602001600081525090565b8280546131cc90613de2565b90600052602060002090601f0160209004810192826131ee5760008555613235565b82601f1061320757805160ff1916838001178555613235565b82800160010185558215613235579182015b82811115613234578251825591602001919060010190613219565b5b5090506132429190613286565b5090565b50805461325290613de2565b6000825580601f106132645750613283565b601f0160209004906000526020600020908101906132829190613286565b5b50565b5b8082111561329f576000816000905550600101613287565b5090565b6000604051905090565b600080fd5b600080fd5b60007fffffffff0000000000000000000000000000000000000000000000000000000082169050919050565b6132ec816132b7565b81146132f757600080fd5b50565b600081359050613309816132e3565b92915050565b600060208284031215613325576133246132ad565b5b6000613333848285016132fa565b91505092915050565b60008115159050919050565b6133518161333c565b82525050565b600060208201905061336c6000830184613348565b92915050565b600080fd5b600080fd5b6000601f19601f8301169050919050565b7f4e487b7100000000000000000000000000000000000000000000000000000000600052604160045260246000fd5b6133c58261337c565b810181811067ffffffffffffffff821117156133e4576133e361338d565b5b80604052505050565b60006133f76132a3565b905061340382826133bc565b919050565b600067ffffffffffffffff8211156134235761342261338d565b5b61342c8261337c565b9050602081019050919050565b82818337600083830152505050565b600061345b61345684613408565b6133ed565b90508281526020810184848401111561347757613476613377565b5b613482848285613439565b509392505050565b600082601f83011261349f5761349e613372565b5b81356134af848260208601613448565b91505092915050565b6000819050919050565b6134cb816134b8565b81146134d657600080fd5b50565b6000813590506134e8816134c2565b92915050565b60008060408385031215613505576135046132ad565b5b600083013567ffffffffffffffff811115613523576135226132b2565b5b61352f8582860161348a565b9250506020613540858286016134d9565b9150509250929050565b613553816134b8565b82525050565b600060208201905061356e600083018461354a565b92915050565b600081519050919050565b600082825260208201905092915050565b60005b838110156135ae578082015181840152602081019050613593565b838111156135bd576000848401525b50505050565b60006135ce82613574565b6135d8818561357f565b93506135e8818560208601613590565b6135f18161337c565b840191505092915050565b6000602082019050818103600083015261361681846135c3565b905092915050565b600060208284031215613634576136336132ad565b5b6000613642848285016134d9565b91505092915050565b600073ffffffffffffffffffffffffffffffffffffffff82169050919050565b60006136768261364b565b9050919050565b6136868161366b565b82525050565b60006020820190506136a1600083018461367d565b92915050565b6136b08161366b565b81146136bb57600080fd5b50565b6000813590506136cd816136a7565b92915050565b600080604083850312156136ea576136e96132ad565b5b60006136f8858286016136be565b9250506020613709858286016134d9565b9150509250929050565b600060208284031215613729576137286132ad565b5b6000613737848285016136be565b91505092915050565b600080600060608486031215613759576137586132ad565b5b6000613767868287016136be565b9350506020613778868287016136be565b9250506040613789868287016134d9565b9150509250925092565b6000819050919050565b6137a681613793565b81146137b157600080fd5b50565b6000813590506137c38161379d565b92915050565b6000602082840312156137df576137de6132ad565b5b60006137ed848285016137b4565b91505092915050565b6137ff81613793565b82525050565b600060208201905061381a60008301846137f6565b92915050565b60008060408385031215613837576138366132ad565b5b6000613845858286016137b4565b9250506020613856858286016136be565b9150509250929050565b600067ffffffffffffffff82111561387b5761387a61338d565b5b602082029050602081019050919050565b600080fd5b60006138a461389f84613860565b6133ed565b905080838252602082019050602084028301858111156138c7576138c661388c565b5b835b818110156138f057806138dc88826136be565b8452602084019350506020810190506138c9565b5050509392505050565b600082601f83011261390f5761390e613372565b5b813561391f848260208601613891565b91505092915050565b60006020828403121561393e5761393d6132ad565b5b600082013567ffffffffffffffff81111561395c5761395b6132b2565b5b613968848285016138fa565b91505092915050565b600081519050919050565b600082825260208201905092915050565b6000819050602082019050919050565b6139a6816134b8565b82525050565b6139b58161366b565b82525050565b6060820160008201516139d1600085018261399d565b5060208201516139e460208501826139ac565b5060408201516139f7604085018261399d565b50505050565b6000613a0983836139bb565b60608301905092915050565b6000602082019050919050565b6000613a2d82613971565b613a37818561397c565b9350613a428361398d565b8060005b83811015613a73578151613a5a88826139fd565b9750613a6583613a15565b925050600181019050613a46565b5085935050505092915050565b60006020820190508181036000830152613a9a8184613a22565b905092915050565b600080600060608486031215613abb57613aba6132ad565b5b6000613ac9868287016134d9565b9350506020613ada868287016136be565b9250506040613aeb868287016136be565b9150509250925092565b60008060408385031215613b0c57613b0b6132ad565b5b6000613b1a858286016134d9565b9250506020613b2b858286016136be565b9150509250929050565b600081519050919050565b600082825260208201905092915050565b6000613b5c82613b35565b613b668185613b40565b9350613b76818560208601613590565b613b7f8161337c565b840191505092915050565b60006020820190508181036000830152613ba48184613b51565b905092915050565b600060ff82169050919050565b613bc281613bac565b82525050565b6000602082019050613bdd6000830184613bb9565b92915050565b613bec8161333c565b8114613bf757600080fd5b50565b600081359050613c0981613be3565b92915050565b60008060408385031215613c2657613c256132ad565b5b6000613c34858286016136be565b9250506020613c4585828601613bfa565b9150509250929050565b600067ffffffffffffffff821115613c6a57613c6961338d565b5b613c738261337c565b9050602081019050919050565b6000613c93613c8e84613c4f565b6133ed565b905082815260208101848484011115613caf57613cae613377565b5b613cba848285613439565b509392505050565b600082601f830112613cd757613cd6613372565b5b8135613ce7848260208601613c80565b91505092915050565b60008060008060808587031215613d0a57613d096132ad565b5b6000613d18878288016136be565b9450506020613d29878288016136be565b9350506040613d3a878288016134d9565b925050606085013567ffffffffffffffff811115613d5b57613d5a6132b2565b5b613d6787828801613cc2565b91505092959194509250565b60008060408385031215613d8a57613d896132ad565b5b6000613d98858286016136be565b9250506020613da9858286016136be565b9150509250929050565b7f4e487b7100000000000000000000000000000000000000000000000000000000600052602260045260246000fd5b60006002820490506001821680613dfa57607f821691505b60208210811415613e0e57613e0d613db3565b5b50919050565b7f4552433732313a20617070726f76616c20746f2063757272656e74206f776e6560008201527f7200000000000000000000000000000000000000000000000000000000000000602082015250565b6000613e7060218361357f565b9150613e7b82613e14565b604082019050919050565b60006020820190508181036000830152613e9f81613e63565b9050919050565b7f4552433732313a20617070726f76652063616c6c6572206973206e6f7420746f60008201527f6b656e206f776e6572206e6f7220617070726f76656420666f7220616c6c0000602082015250565b6000613f02603e8361357f565b9150613f0d82613ea6565b604082019050919050565b60006020820190508181036000830152613f3181613ef5565b9050919050565b7f2141444d494e0000000000000000000000000000000000000000000000000000600082015250565b6000613f6e60068361357f565b9150613f7982613f38565b602082019050919050565b60006020820190508181036000830152613f9d81613f61565b9050919050565b7f4552433732313a2063616c6c6572206973206e6f7420746f6b656e206f776e6560008201527f72206e6f7220617070726f766564000000000000000000000000000000000000602082015250565b6000614000602e8361357f565b915061400b82613fa4565b604082019050919050565b6000602082019050818103600083015261402f81613ff3565b9050919050565b7f416363657373436f6e74726f6c3a2063616e206f6e6c792072656e6f756e636560008201527f20726f6c657320666f722073656c660000000000000000000000000000000000602082015250565b6000614092602f8361357f565b915061409d82614036565b604082019050919050565b600060208201905081810360008301526140c181614085565b9050919050565b7f4e487b7100000000000000000000000000000000000000000000000000000000600052603260045260246000fd5b7f4e487b7100000000000000000000000000000000000000000000000000000000600052601160045260246000fd5b6000614131826134b8565b91507fffffffffffffffffffffffffffffffffffffffffffffffffffffffffffffffff821415614164576141636140f7565b5b600182019050919050565b600061417a826134b8565b9150614185836134b8565b9250827fffffffffffffffffffffffffffffffffffffffffffffffffffffffffffffffff038211156141ba576141b96140f7565b5b828201905092915050565b7f4552433732313a20696e76616c696420746f6b656e2049440000000000000000600082015250565b60006141fb60188361357f565b9150614206826141c5565b602082019050919050565b6000602082019050818103600083015261422a816141ee565b9050919050565b7f4552433732313a2061646472657373207a65726f206973206e6f74206120766160008201527f6c6964206f776e65720000000000000000000000000000000000000000000000602082015250565b600061428d60298361357f565b915061429882614231565b604082019050919050565b600060208201905081810360008301526142bc81614280565b9050919050565b600081905092915050565b60006142d982613574565b6142e381856142c3565b93506142f3818560208601613590565b80840191505092915050565b600061430b82856142ce565b915061431782846142ce565b91508190509392505050565b7f4f776e61626c653a206e6577206f776e657220697320746865207a65726f206160008201527f6464726573730000000000000000000000000000000000000000000000000000602082015250565b600061437f60268361357f565b915061438a82614323565b604082019050919050565b600060208201905081810360008301526143ae81614372565b9050919050565b7f4552433732313a206d696e7420746f20746865207a65726f2061646472657373600082015250565b60006143eb60208361357f565b91506143f6826143b5565b602082019050919050565b6000602082019050818103600083015261441a816143de565b9050919050565b7f4552433732313a20746f6b656e20616c7265616479206d696e74656400000000600082015250565b6000614457601c8361357f565b915061446282614421565b602082019050919050565b600060208201905081810360008301526144868161444a565b9050919050565b7f45524337323155524953746f726167653a2055524920736574206f66206e6f6e60008201527f6578697374656e7420746f6b656e000000000000000000000000000000000000602082015250565b60006144e9602e8361357f565b91506144f48261448d565b604082019050919050565b60006020820190508181036000830152614518816144dc565b9050919050565b7f4552433732313a207472616e736665722066726f6d20696e636f72726563742060008201527f6f776e6572000000000000000000000000000000000000000000000000000000602082015250565b600061457b60258361357f565b91506145868261451f565b604082019050919050565b600060208201905081810360008301526145aa8161456e565b9050919050565b7f4552433732313a207472616e7366657220746f20746865207a65726f2061646460008201527f7265737300000000000000000000000000000000000000000000000000000000602082015250565b600061460d60248361357f565b9150614618826145b1565b604082019050919050565b6000602082019050818103600083015261463c81614600565b9050919050565b600061464e826134b8565b9150614659836134b8565b92508282101561466c5761466b6140f7565b5b828203905092915050565b7f4f776e61626c653a2063616c6c6572206973206e6f7420746865206f776e6572600082015250565b60006146ad60208361357f565b91506146b882614677565b602082019050919050565b600060208201905081810360008301526146dc816146a0565b9050919050565b7f4552433732313a20617070726f766520746f2063616c6c657200000000000000600082015250565b600061471960198361357f565b9150614724826146e3565b602082019050919050565b600060208201905081810360008301526147488161470c565b9050919050565b7f4552433732313a207472616e7366657220746f206e6f6e20455243373231526560008201527f63656976657220696d706c656d656e7465720000000000000000000000000000602082015250565b60006147ab60328361357f565b91506147b68261474f565b604082019050919050565b600060208201905081810360008301526147da8161479e565b9050919050565b7f416363657373436f6e74726f6c3a206163636f756e7420000000000000000000600082015250565b60006148176017836142c3565b9150614822826147e1565b601782019050919050565b7f206973206d697373696e6720726f6c6520000000000000000000000000000000600082015250565b60006148636011836142c3565b915061486e8261482d565b601182019050919050565b60006148848261480a565b915061489082856142ce565b915061489b82614856565b91506148a782846142ce565b91508190509392505050565b7f215452414e534645525f524f4c45000000000000000000000000000000000000600082015250565b60006148e9600e8361357f565b91506148f4826148b3565b602082019050919050565b60006020820190508181036000830152614918816148dc565b9050919050565b6000608082019050614934600083018761367d565b614941602083018661367d565b61494e604083018561354a565b81810360608301526149608184613b51565b905095945050505050565b60008151905061497a816132e3565b92915050565b600060208284031215614996576149956132ad565b5b60006149a48482850161496b565b91505092915050565b7f4e487b7100000000000000000000000000000000000000000000000000000000600052601260045260246000fd5b60006149e7826134b8565b91506149f2836134b8565b925082614a0257614a016149ad565b5b828204905092915050565b6000614a18826134b8565b9150614a23836134b8565b925082614a3357614a326149ad565b5b828206905092915050565b6000614a49826134b8565b9150614a54836134b8565b9250817fffffffffffffffffffffffffffffffffffffffffffffffffffffffffffffffff0483118215151615614a8d57614a8c6140f7565b5b828202905092915050565b6000614aa3826134b8565b91506000821415614ab757614ab66140f7565b5b600182039050919050565b7f537472696e67733a20686578206c656e67746820696e73756666696369656e74600082015250565b6000614af860208361357f565b9150614b0382614ac2565b602082019050919050565b60006020820190508181036000830152614b2781614aeb565b905091905056fea26469706673582212208a737d2604e87561dd71d24e08eeb6a0296e04d0f98fffcf5df2d6fac0458dc364736f6c63430008090033",
  "linkReferences": {},
  "deployedLinkReferences": {}
}