{
  "_format": "hh-sol-artifact-1",
  "contractName": "ERC721Token",
  "sourceName": "contracts/ERC721Token.sol",
  "abi": [
    {
      "inputs": [
        {
          "internalType": "string",
          "name": "token_name",
          "type": "string"
        },
        {
          "internalType": "string",
          "name": "token_symbol",
          "type": "string"
        },
        {
          "internalType": "address",
          "name": "default_owner",
          "type": "address"
        },
        {
          "internalType": "contract MinimalForwarder",
          "name": "forwarder",
          "type": "address"
        }
      ],
      "stateMutability": "nonpayable",
      "type": "constructor"
    },
    {
      "anonymous": false,
      "inputs": [
        {
          "indexed": true,
          "internalType": "address",
          "name": "owner",
          "type": "address"
        },
        {
          "indexed": true,
          "internalType": "address",
          "name": "approved",
          "type": "address"
        },
        {
          "indexed": true,
          "internalType": "uint256",
          "name": "tokenId",
          "type": "uint256"
        }
      ],
      "name": "Approval",
      "type": "event"
    },
    {
      "anonymous": false,
      "inputs": [
        {
          "indexed": true,
          "internalType": "address",
          "name": "owner",
          "type": "address"
        },
        {
          "indexed": true,
          "internalType": "address",
          "name": "operator",
          "type": "address"
        },
        {
          "indexed": false,
          "internalType": "bool",
          "name": "approved",
          "type": "bool"
        }
      ],
      "name": "ApprovalForAll",
      "type": "event"
    },
    {
      "anonymous": false,
      "inputs": [
        {
          "indexed": true,
          "internalType": "address",
          "name": "previousOwner",
          "type": "address"
        },
        {
          "indexed": true,
          "internalType": "address",
          "name": "newOwner",
          "type": "address"
        }
      ],
      "name": "OwnershipTransferred",
      "type": "event"
    },
    {
      "anonymous": false,
      "inputs": [
        {
          "indexed": true,
          "internalType": "bytes32",
          "name": "role",
          "type": "bytes32"
        },
        {
          "indexed": true,
          "internalType": "bytes32",
          "name": "previousAdminRole",
          "type": "bytes32"
        },
        {
          "indexed": true,
          "internalType": "bytes32",
          "name": "newAdminRole",
          "type": "bytes32"
        }
      ],
      "name": "RoleAdminChanged",
      "type": "event"
    },
    {
      "anonymous": false,
      "inputs": [
        {
          "indexed": true,
          "internalType": "bytes32",
          "name": "role",
          "type": "bytes32"
        },
        {
          "indexed": true,
          "internalType": "address",
          "name": "account",
          "type": "address"
        },
        {
          "indexed": true,
          "internalType": "address",
          "name": "sender",
          "type": "address"
        }
      ],
      "name": "RoleGranted",
      "type": "event"
    },
    {
      "anonymous": false,
      "inputs": [
        {
          "indexed": true,
          "internalType": "bytes32",
          "name": "role",
          "type": "bytes32"
        },
        {
          "indexed": true,
          "internalType": "address",
          "name": "account",
          "type": "address"
        },
        {
          "indexed": true,
          "internalType": "address",
          "name": "sender",
          "type": "address"
        }
      ],
      "name": "RoleRevoked",
      "type": "event"
    },
    {
      "anonymous": false,
      "inputs": [
        {
          "indexed": true,
          "internalType": "address",
          "name": "from",
          "type": "address"
        },
        {
          "indexed": true,
          "internalType": "address",
          "name": "to",
          "type": "address"
        },
        {
          "indexed": true,
          "internalType": "uint256",
          "name": "tokenId",
          "type": "uint256"
        }
      ],
      "name": "Transfer",
      "type": "event"
    },
    {
      "inputs": [],
      "name": "BURNER_ROLE",
      "outputs": [
        {
          "internalType": "bytes32",
          "name": "",
          "type": "bytes32"
        }
      ],
      "stateMutability": "view",
      "type": "function"
    },
    {
      "inputs": [],
      "name": "DEFAULT_ADMIN_ROLE",
      "outputs": [
        {
          "internalType": "bytes32",
          "name": "",
          "type": "bytes32"
        }
      ],
      "stateMutability": "view",
      "type": "function"
    },
    {
      "inputs": [
        {
          "internalType": "address[]",
          "name": "burners",
          "type": "address[]"
        }
      ],
      "name": "addBurners",
      "outputs": [],
      "stateMutability": "nonpayable",
      "type": "function"
    },
    {
      "inputs": [
        {
          "internalType": "address[]",
          "name": "minters",
          "type": "address[]"
        }
      ],
      "name": "addMinters",
      "outputs": [],
      "stateMutability": "nonpayable",
      "type": "function"
    },
    {
      "inputs": [
        {
          "internalType": "address",
          "name": "to",
          "type": "address"
        },
        {
          "internalType": "uint256",
          "name": "tokenId",
          "type": "uint256"
        }
      ],
      "name": "approve",
      "outputs": [],
      "stateMutability": "nonpayable",
      "type": "function"
    },
    {
      "inputs": [
        {
          "internalType": "address",
          "name": "owner",
          "type": "address"
        }
      ],
      "name": "balanceOf",
      "outputs": [
        {
          "internalType": "uint256",
          "name": "",
          "type": "uint256"
        }
      ],
      "stateMutability": "view",
      "type": "function"
    },
    {
      "inputs": [
        {
          "internalType": "uint256",
          "name": "tokenId",
          "type": "uint256"
        }
      ],
      "name": "burn",
      "outputs": [],
      "stateMutability": "nonpayable",
      "type": "function"
    },
    {
      "inputs": [],
      "name": "contractType",
      "outputs": [
        {
          "internalType": "bytes32",
          "name": "",
          "type": "bytes32"
        }
      ],
      "stateMutability": "pure",
      "type": "function"
    },
    {
      "inputs": [],
      "name": "contractVersion",
      "outputs": [
        {
          "internalType": "uint8",
          "name": "",
          "type": "uint8"
        }
      ],
      "stateMutability": "pure",
      "type": "function"
    },
    {
      "inputs": [],
      "name": "fetchAllNFTs",
      "outputs": [
        {
          "components": [
            {
              "internalType": "uint256",
              "name": "tokenId",
              "type": "uint256"
            },
            {
              "internalType": "address",
              "name": "owner",
              "type": "address"
            },
            {
              "internalType": "uint256",
              "name": "price",
              "type": "uint256"
            }
          ],
          "internalType": "struct ERC721Token.MarketItem[]",
          "name": "",
          "type": "tuple[]"
        }
      ],
      "stateMutability": "view",
      "type": "function"
    },
    {
      "inputs": [
        {
          "internalType": "uint256",
          "name": "tokenId",
          "type": "uint256"
        }
      ],
      "name": "getApproved",
      "outputs": [
        {
          "internalType": "address",
          "name": "",
          "type": "address"
        }
      ],
      "stateMutability": "view",
      "type": "function"
    },
    {
      "inputs": [
        {
          "internalType": "bytes32",
          "name": "role",
          "type": "bytes32"
        }
      ],
      "name": "getRoleAdmin",
      "outputs": [
        {
          "internalType": "bytes32",
          "name": "",
          "type": "bytes32"
        }
      ],
      "stateMutability": "view",
      "type": "function"
    },
    {
      "inputs": [
        {
          "internalType": "bytes32",
          "name": "role",
          "type": "bytes32"
        },
        {
          "internalType": "address",
          "name": "account",
          "type": "address"
        }
      ],
      "name": "grantRole",
      "outputs": [],
      "stateMutability": "nonpayable",
      "type": "function"
    },
    {
      "inputs": [],
      "name": "hasBurnerRole",
      "outputs": [
        {
          "internalType": "bool",
          "name": "",
          "type": "bool"
        }
      ],
      "stateMutability": "view",
      "type": "function"
    },
    {
      "inputs": [],
      "name": "hasMinterRole",
      "outputs": [
        {
          "internalType": "bool",
          "name": "",
          "type": "bool"
        }
      ],
      "stateMutability": "view",
      "type": "function"
    },
    {
      "inputs": [
        {
          "internalType": "bytes32",
          "name": "role",
          "type": "bytes32"
        },
        {
          "internalType": "address",
          "name": "account",
          "type": "address"
        }
      ],
      "name": "hasRole",
      "outputs": [
        {
          "internalType": "bool",
          "name": "",
          "type": "bool"
        }
      ],
      "stateMutability": "view",
      "type": "function"
    },
    {
      "inputs": [
        {
          "internalType": "address",
          "name": "owner",
          "type": "address"
        },
        {
          "internalType": "address",
          "name": "operator",
          "type": "address"
        }
      ],
      "name": "isApprovedForAll",
      "outputs": [
        {
          "internalType": "bool",
          "name": "",
          "type": "bool"
        }
      ],
      "stateMutability": "view",
      "type": "function"
    },
    {
      "inputs": [],
      "name": "isOwner",
      "outputs": [
        {
          "internalType": "bool",
          "name": "",
          "type": "bool"
        }
      ],
      "stateMutability": "view",
      "type": "function"
    },
    {
      "inputs": [
        {
          "internalType": "address",
          "name": "forwarder",
          "type": "address"
        }
      ],
      "name": "isTrustedForwarder",
      "outputs": [
        {
          "internalType": "bool",
          "name": "",
          "type": "bool"
        }
      ],
      "stateMutability": "view",
      "type": "function"
    },
    {
      "inputs": [
        {
          "internalType": "string",
          "name": "_tokenURI",
          "type": "string"
        },
        {
          "internalType": "uint256",
          "name": "_price",
          "type": "uint256"
        }
      ],
      "name": "mint",
      "outputs": [
        {
          "internalType": "uint256",
          "name": "",
          "type": "uint256"
        }
      ],
      "stateMutability": "nonpayable",
      "type": "function"
    },
    {
      "inputs": [],
      "name": "name",
      "outputs": [
        {
          "internalType": "string",
          "name": "",
          "type": "string"
        }
      ],
      "stateMutability": "view",
      "type": "function"
    },
    {
      "inputs": [],
      "name": "owner",
      "outputs": [
        {
          "internalType": "address",
          "name": "",
          "type": "address"
        }
      ],
      "stateMutability": "view",
      "type": "function"
    },
    {
      "inputs": [
        {
          "internalType": "uint256",
          "name": "tokenId",
          "type": "uint256"
        }
      ],
      "name": "ownerOf",
      "outputs": [
        {
          "internalType": "address",
          "name": "",
          "type": "address"
        }
      ],
      "stateMutability": "view",
      "type": "function"
    },
    {
      "inputs": [
        {
          "internalType": "uint256",
          "name": "",
          "type": "uint256"
        }
      ],
      "name": "price",
      "outputs": [
        {
          "internalType": "uint256",
          "name": "",
          "type": "uint256"
        }
      ],
      "stateMutability": "view",
      "type": "function"
    },
    {
      "inputs": [
        {
          "internalType": "address[]",
          "name": "burners",
          "type": "address[]"
        }
      ],
      "name": "removeBurners",
      "outputs": [],
      "stateMutability": "nonpayable",
      "type": "function"
    },
    {
      "inputs": [
        {
          "internalType": "address[]",
          "name": "minters",
          "type": "address[]"
        }
      ],
      "name": "removeMinters",
      "outputs": [],
      "stateMutability": "nonpayable",
      "type": "function"
    },
    {
      "inputs": [],
      "name": "renounceOwnership",
      "outputs": [],
      "stateMutability": "nonpayable",
      "type": "function"
    },
    {
      "inputs": [
        {
          "internalType": "bytes32",
          "name": "role",
          "type": "bytes32"
        },
        {
          "internalType": "address",
          "name": "account",
          "type": "address"
        }
      ],
      "name": "renounceRole",
      "outputs": [],
      "stateMutability": "nonpayable",
      "type": "function"
    },
    {
      "inputs": [
        {
          "internalType": "bytes32",
          "name": "role",
          "type": "bytes32"
        },
        {
          "internalType": "address",
          "name": "account",
          "type": "address"
        }
      ],
      "name": "revokeRole",
      "outputs": [],
      "stateMutability": "nonpayable",
      "type": "function"
    },
    {
      "inputs": [
        {
          "internalType": "address",
          "name": "from",
          "type": "address"
        },
        {
          "internalType": "address",
          "name": "to",
          "type": "address"
        },
        {
          "internalType": "uint256",
          "name": "tokenId",
          "type": "uint256"
        }
      ],
      "name": "safeTransferFrom",
      "outputs": [],
      "stateMutability": "nonpayable",
      "type": "function"
    },
    {
      "inputs": [
        {
          "internalType": "address",
          "name": "from",
          "type": "address"
        },
        {
          "internalType": "address",
          "name": "to",
          "type": "address"
        },
        {
          "internalType": "uint256",
          "name": "tokenId",
          "type": "uint256"
        },
        {
          "internalType": "bytes",
          "name": "data",
          "type": "bytes"
        }
      ],
      "name": "safeTransferFrom",
      "outputs": [],
      "stateMutability": "nonpayable",
      "type": "function"
    },
    {
      "inputs": [
        {
          "internalType": "address",
          "name": "operator",
          "type": "address"
        },
        {
          "internalType": "bool",
          "name": "approved",
          "type": "bool"
        }
      ],
      "name": "setApprovalForAll",
      "outputs": [],
      "stateMutability": "nonpayable",
      "type": "function"
    },
    {
      "inputs": [
        {
          "internalType": "address",
          "name": "_newOwner",
          "type": "address"
        }
      ],
      "name": "setOwner",
      "outputs": [],
      "stateMutability": "nonpayable",
      "type": "function"
    },
    {
      "inputs": [
        {
          "internalType": "bytes4",
          "name": "interfaceId",
          "type": "bytes4"
        }
      ],
      "name": "supportsInterface",
      "outputs": [
        {
          "internalType": "bool",
          "name": "",
          "type": "bool"
        }
      ],
      "stateMutability": "view",
      "type": "function"
    },
    {
      "inputs": [],
      "name": "symbol",
      "outputs": [
        {
          "internalType": "string",
          "name": "",
          "type": "string"
        }
      ],
      "stateMutability": "view",
      "type": "function"
    },
    {
      "inputs": [
        {
          "internalType": "uint256",
          "name": "tokenId",
          "type": "uint256"
        }
      ],
      "name": "tokenURI",
      "outputs": [
        {
          "internalType": "string",
          "name": "",
          "type": "string"
        }
      ],
      "stateMutability": "view",
      "type": "function"
    },
    {
      "inputs": [
        {
          "internalType": "address",
          "name": "from",
          "type": "address"
        },
        {
          "internalType": "address",
          "name": "to",
          "type": "address"
        },
        {
          "internalType": "uint256",
          "name": "tokenId",
          "type": "uint256"
        }
      ],
      "name": "transferFrom",
      "outputs": [],
      "stateMutability": "nonpayable",
      "type": "function"
    },
    {
      "inputs": [
        {
          "internalType": "uint256",
          "name": "_id",
          "type": "uint256"
        },
        {
          "internalType": "address",
          "name": "to",
          "type": "address"
        }
      ],
      "name": "transferNFT",
      "outputs": [],
      "stateMutability": "payable",
      "type": "function"
    },
    {
      "inputs": [
        {
          "internalType": "uint256",
          "name": "_id",
          "type": "uint256"
        },
        {
          "internalType": "address",
          "name": "from",
          "type": "address"
        },
        {
          "internalType": "address",
          "name": "to",
          "type": "address"
        }
      ],
      "name": "transferNFTFrom",
      "outputs": [],
      "stateMutability": "payable",
      "type": "function"
    },
    {
      "inputs": [
        {
          "internalType": "address",
          "name": "newOwner",
          "type": "address"
        }
      ],
      "name": "transferOwnership",
      "outputs": [],
      "stateMutability": "nonpayable",
      "type": "function"
    }
  ],
  "bytecode": "0x60a06040523480156200001157600080fd5b506040516200561838038062005618833981810160405281019062000037919062000a30565b8383828073ffffffffffffffffffffffffffffffffffffffff1660808173ffffffffffffffffffffffffffffffffffffffff1681525050506200008f62000083620002c260201b60201c565b620002de60201b60201c565b8160019080519060200190620000a792919062000739565b508060029080519060200190620000c092919062000739565b50505081600a60006101000a81548173ffffffffffffffffffffffffffffffffffffffff021916908373ffffffffffffffffffffffffffffffffffffffff160217905550620001196000801b83620003a260201b60201c565b6200014b7f9f2df0fed2c77648de5860a4cc508cd0818c85b8b8a1ab4ceeef8d981c8956a683620003a260201b60201c565b6200017d7f8502233096d909befbda0999bb8ea2f3a6be3c138b9fbf003752a4c8bce86f6c83620003a260201b60201c565b620001af7f3c11d16cbaffd01df69ce1c404f6340ee057498f5f00246190ea54220576a84883620003a260201b60201c565b620001e27f8502233096d909befbda0999bb8ea2f3a6be3c138b9fbf003752a4c8bce86f6c6000620003a260201b60201c565b620002237f9f2df0fed2c77648de5860a4cc508cd0818c85b8b8a1ab4ceeef8d981c8956a662000217620002c260201b60201c565b620003a260201b60201c565b620002647f3c11d16cbaffd01df69ce1c404f6340ee057498f5f00246190ea54220576a84862000258620002c260201b60201c565b620003a260201b60201c565b620002a57f8502233096d909befbda0999bb8ea2f3a6be3c138b9fbf003752a4c8bce86f6c62000299620002c260201b60201c565b620003a260201b60201c565b620002b8826001620003b860201b60201c565b5050505062000c02565b6000620002d9620003de60201b620019291760201c565b905090565b60008060009054906101000a900473ffffffffffffffffffffffffffffffffffffffff169050816000806101000a81548173ffffffffffffffffffffffffffffffffffffffff021916908373ffffffffffffffffffffffffffffffffffffffff1602179055508173ffffffffffffffffffffffffffffffffffffffff168173ffffffffffffffffffffffffffffffffffffffff167f8be0079c531659141344cd1fd0a4f28419497f9722a3daafe3b4186f6b6457e060405160405180910390a35050565b620003b482826200042860201b60201c565b5050565b620003da620003cc620002c260201b60201c565b83836200051a60201b60201c565b5050565b6000620003f1336200068c60201b60201c565b156200040757601436033560601c905062000424565b6200041c620006c660201b6200195b1760201c565b905062000425565b5b90565b6200043a8282620006ce60201b60201c565b620005165760016008600084815260200190815260200160002060000160008373ffffffffffffffffffffffffffffffffffffffff1673ffffffffffffffffffffffffffffffffffffffff16815260200190815260200160002060006101000a81548160ff021916908315150217905550620004bb620002c260201b60201c565b73ffffffffffffffffffffffffffffffffffffffff168173ffffffffffffffffffffffffffffffffffffffff16837f2f8788117e7eff1d82e926ec794901d17c78024a50270940304540a733656f0d60405160405180910390a45b5050565b8173ffffffffffffffffffffffffffffffffffffffff168373ffffffffffffffffffffffffffffffffffffffff1614156200058c576040517f08c379a0000000000000000000000000000000000000000000000000000000008152600401620005839062000b41565b60405180910390fd5b80600660008573ffffffffffffffffffffffffffffffffffffffff1673ffffffffffffffffffffffffffffffffffffffff16815260200190815260200160002060008473ffffffffffffffffffffffffffffffffffffffff1673ffffffffffffffffffffffffffffffffffffffff16815260200190815260200160002060006101000a81548160ff0219169083151502179055508173ffffffffffffffffffffffffffffffffffffffff168373ffffffffffffffffffffffffffffffffffffffff167f17307eab39ab6107e8899845ad3d59bd9653f200f220920489ca2b5937696c31836040516200067f919062000b80565b60405180910390a3505050565b600060805173ffffffffffffffffffffffffffffffffffffffff168273ffffffffffffffffffffffffffffffffffffffff16149050919050565b600033905090565b60006008600084815260200190815260200160002060000160008373ffffffffffffffffffffffffffffffffffffffff1673ffffffffffffffffffffffffffffffffffffffff16815260200190815260200160002060009054906101000a900460ff16905092915050565b828054620007479062000bcc565b90600052602060002090601f0160209004810192826200076b5760008555620007b7565b82601f106200078657805160ff1916838001178555620007b7565b82800160010185558215620007b7579182015b82811115620007b657825182559160200191906001019062000799565b5b509050620007c69190620007ca565b5090565b5b80821115620007e5576000816000905550600101620007cb565b5090565b6000604051905090565b600080fd5b600080fd5b600080fd5b600080fd5b6000601f19601f8301169050919050565b7f4e487b7100000000000000000000000000000000000000000000000000000000600052604160045260246000fd5b620008528262000807565b810181811067ffffffffffffffff8211171562000874576200087362000818565b5b80604052505050565b600062000889620007e9565b905062000897828262000847565b919050565b600067ffffffffffffffff821115620008ba57620008b962000818565b5b620008c58262000807565b9050602081019050919050565b60005b83811015620008f2578082015181840152602081019050620008d5565b8381111562000902576000848401525b50505050565b60006200091f62000919846200089c565b6200087d565b9050828152602081018484840111156200093e576200093d62000802565b5b6200094b848285620008d2565b509392505050565b600082601f8301126200096b576200096a620007fd565b5b81516200097d84826020860162000908565b91505092915050565b600073ffffffffffffffffffffffffffffffffffffffff82169050919050565b6000620009b38262000986565b9050919050565b620009c581620009a6565b8114620009d157600080fd5b50565b600081519050620009e581620009ba565b92915050565b6000620009f882620009a6565b9050919050565b62000a0a81620009eb565b811462000a1657600080fd5b50565b60008151905062000a2a81620009ff565b92915050565b6000806000806080858703121562000a4d5762000a4c620007f3565b5b600085015167ffffffffffffffff81111562000a6e5762000a6d620007f8565b5b62000a7c8782880162000953565b945050602085015167ffffffffffffffff81111562000aa05762000a9f620007f8565b5b62000aae8782880162000953565b935050604062000ac187828801620009d4565b925050606062000ad48782880162000a19565b91505092959194509250565b600082825260208201905092915050565b7f4552433732313a20617070726f766520746f2063616c6c657200000000000000600082015250565b600062000b2960198362000ae0565b915062000b368262000af1565b602082019050919050565b6000602082019050818103600083015262000b5c8162000b1a565b9050919050565b60008115159050919050565b62000b7a8162000b63565b82525050565b600060208201905062000b97600083018462000b6f565b92915050565b7f4e487b7100000000000000000000000000000000000000000000000000000000600052602260045260246000fd5b6000600282049050600182168062000be557607f821691505b6020821081141562000bfc5762000bfb62000b9d565b5b50919050565b6080516149fa62000c1e600039600061109701526149fa6000f3fe60806040526004361061023b5760003560e01c806370a082311161012e578063a0a8e460116100ab578063cb2ef6f71161006f578063cb2ef6f71461088b578063d547741f146108b6578063e47d419b146108df578063e985e9c514610908578063f2fde38b146109455761023b565b8063a0a8e460146107a6578063a217fddf146107d1578063a22cb465146107fc578063b88d4fde14610825578063c87b56dd1461084e5761023b565b80638da5cb5b116100f25780638da5cb5b146106cc5780638f32d59b146106f75780639036c0501461072257806391d148541461073e57806395d89b411461077b5761023b565b806370a0823114610608578063715018a61461064557806371e2a6571461065c578063745fffbe146106855780638c71db58146106b05761023b565b8063282c51f3116101bc57806342842e0e1161018057806342842e0e1461051357806342966c681461053c578063572b6c05146105655780635fc1964f146105a25780636352211e146105cb5761023b565b8063282c51f3146104425780632f2ff15d1461046d57806336568abe146104965780633ab84dd9146104bf5780633f0e317b146104e85761023b565b806313af40351161020357806313af40351461034b5780631592b6071461037457806323b872dd1461039f578063248a9ca3146103c857806326a49e37146104055761023b565b806301ffc9a714610240578063056b01ce1461027d57806306fdde03146102ba578063081812fc146102e5578063095ea7b314610322575b600080fd5b34801561024c57600080fd5b50610267600480360381019061026291906131c7565b61096e565b604051610274919061320f565b60405180910390f35b34801561028957600080fd5b506102a4600480360381019061029f91906133a6565b610980565b6040516102b19190613411565b60405180910390f35b3480156102c657600080fd5b506102cf6109fb565b6040516102dc91906134b4565b60405180910390f35b3480156102f157600080fd5b5061030c600480360381019061030791906134d6565b610a8d565b6040516103199190613544565b60405180910390f35b34801561032e57600080fd5b506103496004803603810190610344919061358b565b610ad3565b005b34801561035757600080fd5b50610372600480360381019061036d91906135cb565b610beb565b005b34801561038057600080fd5b50610389610cb4565b604051610396919061320f565b60405180910390f35b3480156103ab57600080fd5b506103c660048036038101906103c191906135f8565b610cec565b005b3480156103d457600080fd5b506103ef60048036038101906103ea9190613681565b610d4c565b6040516103fc91906136bd565b60405180910390f35b34801561041157600080fd5b5061042c600480360381019061042791906134d6565b610d6c565b6040516104399190613411565b60405180910390f35b34801561044e57600080fd5b50610457610d84565b60405161046491906136bd565b60405180910390f35b34801561047957600080fd5b50610494600480360381019061048f91906136d8565b610da8565b005b3480156104a257600080fd5b506104bd60048036038101906104b891906136d8565b610dc9565b005b3480156104cb57600080fd5b506104e660048036038101906104e191906137e0565b610e4c565b005b3480156104f457600080fd5b506104fd610edc565b60405161050a9190613938565b60405180910390f35b34801561051f57600080fd5b5061053a600480360381019061053591906135f8565b61103c565b005b34801561054857600080fd5b50610563600480360381019061055e91906134d6565b61105c565b005b34801561057157600080fd5b5061058c600480360381019061058791906135cb565b611093565b604051610599919061320f565b60405180910390f35b3480156105ae57600080fd5b506105c960048036038101906105c491906137e0565b6110eb565b005b3480156105d757600080fd5b506105f260048036038101906105ed91906134d6565b611158565b6040516105ff9190613544565b60405180910390f35b34801561061457600080fd5b5061062f600480360381019061062a91906135cb565b61120a565b60405161063c9190613411565b60405180910390f35b34801561065157600080fd5b5061065a6112c2565b005b34801561066857600080fd5b50610683600480360381019061067e91906137e0565b6112d6565b005b34801561069157600080fd5b5061069a611366565b6040516106a7919061320f565b60405180910390f35b6106ca60048036038101906106c5919061395a565b61139e565b005b3480156106d857600080fd5b506106e16113d9565b6040516106ee9190613544565b60405180910390f35b34801561070357600080fd5b5061070c61143e565b604051610719919061320f565b60405180910390f35b61073c600480360381019061073791906139ad565b611482565b005b34801561074a57600080fd5b50610765600480360381019061076091906136d8565b6114c3565b604051610772919061320f565b60405180910390f35b34801561078757600080fd5b5061079061152e565b60405161079d91906134b4565b60405180910390f35b3480156107b257600080fd5b506107bb6115c0565b6040516107c89190613a09565b60405180910390f35b3480156107dd57600080fd5b506107e66115c9565b6040516107f391906136bd565b60405180910390f35b34801561080857600080fd5b50610823600480360381019061081e9190613a50565b6115d0565b005b34801561083157600080fd5b5061084c60048036038101906108479190613b31565b6115e6565b005b34801561085a57600080fd5b50610875600480360381019061087091906134d6565b611648565b60405161088291906134b4565b60405180910390f35b34801561089757600080fd5b506108a061175b565b6040516108ad91906136bd565b60405180910390f35b3480156108c257600080fd5b506108dd60048036038101906108d891906136d8565b611783565b005b3480156108eb57600080fd5b50610906600480360381019061090191906137e0565b6117a4565b005b34801561091457600080fd5b5061092f600480360381019061092a9190613bb4565b611811565b60405161093c919061320f565b60405180910390f35b34801561095157600080fd5b5061096c600480360381019061096791906135cb565b6118a5565b005b600061097982611963565b9050919050565b60007f9f2df0fed2c77648de5860a4cc508cd0818c85b8b8a1ab4ceeef8d981c8956a66109ac816119dd565b6109b660096119f1565b60006109c26009611a07565b905083600b6000838152602001908152602001600020819055506109e63082611a15565b6109f08186611bef565b809250505092915050565b606060018054610a0a90613c23565b80601f0160208091040260200160405190810160405280929190818152602001828054610a3690613c23565b8015610a835780601f10610a5857610100808354040283529160200191610a83565b820191906000526020600020905b815481529060010190602001808311610a6657829003601f168201915b5050505050905090565b6000610a9882611c63565b6005600083815260200190815260200160002060009054906101000a900473ffffffffffffffffffffffffffffffffffffffff169050919050565b6000610ade82611158565b90508073ffffffffffffffffffffffffffffffffffffffff168373ffffffffffffffffffffffffffffffffffffffff161415610b4f576040517f08c379a0000000000000000000000000000000000000000000000000000000008152600401610b4690613cc7565b60405180910390fd5b8073ffffffffffffffffffffffffffffffffffffffff16610b6e611cae565b73ffffffffffffffffffffffffffffffffffffffff161480610b9d5750610b9c81610b97611cae565b611811565b5b610bdc576040517f08c379a0000000000000000000000000000000000000000000000000000000008152600401610bd390613d59565b60405180910390fd5b610be68383611cbd565b505050565b6000801b610bf8816119dd565b610c056000801b836114c3565b610c44576040517f08c379a0000000000000000000000000000000000000000000000000000000008152600401610c3b90613dc5565b60405180910390fd5b81600a60006101000a81548173ffffffffffffffffffffffffffffffffffffffff021916908373ffffffffffffffffffffffffffffffffffffffff160217905550610cb0600a60009054906101000a900473ffffffffffffffffffffffffffffffffffffffff166118a5565b5050565b6000610ce77f9f2df0fed2c77648de5860a4cc508cd0818c85b8b8a1ab4ceeef8d981c8956a6610ce2611cae565b6114c3565b905090565b610cfd610cf7611cae565b82611d76565b610d3c576040517f08c379a0000000000000000000000000000000000000000000000000000000008152600401610d3390613e57565b60405180910390fd5b610d47838383611e0b565b505050565b600060086000838152602001908152602001600020600101549050919050565b600b6020528060005260406000206000915090505481565b7f3c11d16cbaffd01df69ce1c404f6340ee057498f5f00246190ea54220576a84881565b610db182610d4c565b610dba816119dd565b610dc48383612072565b505050565b610dd1611cae565b73ffffffffffffffffffffffffffffffffffffffff168173ffffffffffffffffffffffffffffffffffffffff1614610e3e576040517f08c379a0000000000000000000000000000000000000000000000000000000008152600401610e3590613ee9565b60405180910390fd5b610e488282612153565b5050565b7f3c11d16cbaffd01df69ce1c404f6340ee057498f5f00246190ea54220576a848610e76816119dd565b60005b8251811015610ed757610ec67f3c11d16cbaffd01df69ce1c404f6340ee057498f5f00246190ea54220576a848848381518110610eb957610eb8613f09565b5b6020026020010151612235565b80610ed090613f67565b9050610e79565b505050565b60606000610eea6009611a07565b9050600080600190505b828111610f2c57610f0481612243565b15610f1957600182610f169190613fb0565b91505b8080610f2490613f67565b915050610ef4565b5060008167ffffffffffffffff811115610f4957610f48613245565b5b604051908082528060200260200182016040528015610f8257816020015b610f6f613041565b815260200190600190039081610f675790505b509050600091506000600190505b83811161103257610fa081612243565b1561101f576040518060600160405280828152602001610fbf83611158565b73ffffffffffffffffffffffffffffffffffffffff168152602001600b60008481526020019081526020016000205481525082848151811061100457611003613f09565b5b602002602001018190525060018361101c9190613fb0565b92505b808061102a90613f67565b915050610f90565b5080935050505090565b611057838383604051806020016040528060008152506115e6565b505050565b7f3c11d16cbaffd01df69ce1c404f6340ee057498f5f00246190ea54220576a848611086816119dd565b61108f826122af565b5050565b60007f000000000000000000000000000000000000000000000000000000000000000073ffffffffffffffffffffffffffffffffffffffff168273ffffffffffffffffffffffffffffffffffffffff16149050919050565b6110f3612302565b60005b8151811015611154576111437f9f2df0fed2c77648de5860a4cc508cd0818c85b8b8a1ab4ceeef8d981c8956a683838151811061113657611135613f09565b5b6020026020010151611783565b8061114d90613f67565b90506110f6565b5050565b6000806003600084815260200190815260200160002060009054906101000a900473ffffffffffffffffffffffffffffffffffffffff169050600073ffffffffffffffffffffffffffffffffffffffff168173ffffffffffffffffffffffffffffffffffffffff161415611201576040517f08c379a00000000000000000000000000000000000000000000000000000000081526004016111f890614052565b60405180910390fd5b80915050919050565b60008073ffffffffffffffffffffffffffffffffffffffff168273ffffffffffffffffffffffffffffffffffffffff16141561127b576040517f08c379a0000000000000000000000000000000000000000000000000000000008152600401611272906140e4565b60405180910390fd5b600460008373ffffffffffffffffffffffffffffffffffffffff1673ffffffffffffffffffffffffffffffffffffffff168152602001908152602001600020549050919050565b6112ca612302565b6112d46000612380565b565b7f9f2df0fed2c77648de5860a4cc508cd0818c85b8b8a1ab4ceeef8d981c8956a6611300816119dd565b60005b8251811015611361576113507f9f2df0fed2c77648de5860a4cc508cd0818c85b8b8a1ab4ceeef8d981c8956a684838151811061134357611342613f09565b5b6020026020010151612235565b8061135a90613f67565b9050611303565b505050565b60006113997f3c11d16cbaffd01df69ce1c404f6340ee057498f5f00246190ea54220576a848611394611cae565b6114c3565b905090565b7f8502233096d909befbda0999bb8ea2f3a6be3c138b9fbf003752a4c8bce86f6c6113c8816119dd565b6113d383838661103c565b50505050565b600061140a6000801b600a60009054906101000a900473ffffffffffffffffffffffffffffffffffffffff166114c3565b611415576000611439565b600a60009054906101000a900473ffffffffffffffffffffffffffffffffffffffff165b905090565b6000611448611cae565b73ffffffffffffffffffffffffffffffffffffffff166114666113d9565b73ffffffffffffffffffffffffffffffffffffffff1614905090565b7f8502233096d909befbda0999bb8ea2f3a6be3c138b9fbf003752a4c8bce86f6c6114ac816119dd565b6114be6114b7611cae565b8385611e0b565b505050565b60006008600084815260200190815260200160002060000160008373ffffffffffffffffffffffffffffffffffffffff1673ffffffffffffffffffffffffffffffffffffffff16815260200190815260200160002060009054906101000a900460ff16905092915050565b60606002805461153d90613c23565b80601f016020809104026020016040519081016040528092919081815260200182805461156990613c23565b80156115b65780601f1061158b576101008083540402835291602001916115b6565b820191906000526020600020905b81548152906001019060200180831161159957829003601f168201915b5050505050905090565b60006001905090565b6000801b81565b6115e26115db611cae565b8383612444565b5050565b6115f76115f1611cae565b83611d76565b611636576040517f08c379a000000000000000000000000000000000000000000000000000000000815260040161162d90613e57565b60405180910390fd5b611642848484846125b1565b50505050565b606061165382611c63565b600060076000848152602001908152602001600020805461167390613c23565b80601f016020809104026020016040519081016040528092919081815260200182805461169f90613c23565b80156116ec5780601f106116c1576101008083540402835291602001916116ec565b820191906000526020600020905b8154815290600101906020018083116116cf57829003601f168201915b5050505050905060006116fd61260d565b9050600081511415611713578192505050611756565b600082511115611748578082604051602001611730929190614140565b60405160208183030381529060405292505050611756565b61175184612624565b925050505b919050565b60007f455243373231546f6b656e000000000000000000000000000000000000000000905090565b61178c82610d4c565b611795816119dd565b61179f8383612153565b505050565b6117ac612302565b60005b815181101561180d576117fc7f3c11d16cbaffd01df69ce1c404f6340ee057498f5f00246190ea54220576a8488383815181106117ef576117ee613f09565b5b6020026020010151611783565b8061180690613f67565b90506117af565b5050565b6000600660008473ffffffffffffffffffffffffffffffffffffffff1673ffffffffffffffffffffffffffffffffffffffff16815260200190815260200160002060008373ffffffffffffffffffffffffffffffffffffffff1673ffffffffffffffffffffffffffffffffffffffff16815260200190815260200160002060009054906101000a900460ff16905092915050565b6118ad612302565b600073ffffffffffffffffffffffffffffffffffffffff168173ffffffffffffffffffffffffffffffffffffffff16141561191d576040517f08c379a0000000000000000000000000000000000000000000000000000000008152600401611914906141d6565b60405180910390fd5b61192681612380565b50565b600061193433611093565b1561194857601436033560601c9050611957565b61195061195b565b9050611958565b5b90565b600033905090565b60007f7965db0b000000000000000000000000000000000000000000000000000000007bffffffffffffffffffffffffffffffffffffffffffffffffffffffff1916827bffffffffffffffffffffffffffffffffffffffffffffffffffffffff191614806119d657506119d58261268c565b5b9050919050565b6119ee816119e9611cae565b61276e565b50565b6001816000016000828254019250508190555050565b600081600001549050919050565b600073ffffffffffffffffffffffffffffffffffffffff168273ffffffffffffffffffffffffffffffffffffffff161415611a85576040517f08c379a0000000000000000000000000000000000000000000000000000000008152600401611a7c90614242565b60405180910390fd5b611a8e81612243565b15611ace576040517f08c379a0000000000000000000000000000000000000000000000000000000008152600401611ac5906142ae565b60405180910390fd5b611ada6000838361280b565b6001600460008473ffffffffffffffffffffffffffffffffffffffff1673ffffffffffffffffffffffffffffffffffffffff1681526020019081526020016000206000828254611b2a9190613fb0565b92505081905550816003600083815260200190815260200160002060006101000a81548173ffffffffffffffffffffffffffffffffffffffff021916908373ffffffffffffffffffffffffffffffffffffffff160217905550808273ffffffffffffffffffffffffffffffffffffffff16600073ffffffffffffffffffffffffffffffffffffffff167fddf252ad1be2c89b69c2b068fc378daa952ba7f163c4a11628f55a4df523b3ef60405160405180910390a4611beb60008383612959565b5050565b611bf882612243565b611c37576040517f08c379a0000000000000000000000000000000000000000000000000000000008152600401611c2e90614340565b60405180910390fd5b80600760008481526020019081526020016000209080519060200190611c5e929190613078565b505050565b611c6c81612243565b611cab576040517f08c379a0000000000000000000000000000000000000000000000000000000008152600401611ca290614052565b60405180910390fd5b50565b6000611cb8611929565b905090565b816005600083815260200190815260200160002060006101000a81548173ffffffffffffffffffffffffffffffffffffffff021916908373ffffffffffffffffffffffffffffffffffffffff160217905550808273ffffffffffffffffffffffffffffffffffffffff16611d3083611158565b73ffffffffffffffffffffffffffffffffffffffff167f8c5be1e5ebec7d5bd14f71427d1e84f3dd0314c0f7b2291e5b200ac8c7c3b92560405160405180910390a45050565b600080611d8283611158565b90508073ffffffffffffffffffffffffffffffffffffffff168473ffffffffffffffffffffffffffffffffffffffff161480611dc45750611dc38185611811565b5b80611e0257508373ffffffffffffffffffffffffffffffffffffffff16611dea84610a8d565b73ffffffffffffffffffffffffffffffffffffffff16145b91505092915050565b8273ffffffffffffffffffffffffffffffffffffffff16611e2b82611158565b73ffffffffffffffffffffffffffffffffffffffff1614611e81576040517f08c379a0000000000000000000000000000000000000000000000000000000008152600401611e78906143d2565b60405180910390fd5b600073ffffffffffffffffffffffffffffffffffffffff168273ffffffffffffffffffffffffffffffffffffffff161415611ef1576040517f08c379a0000000000000000000000000000000000000000000000000000000008152600401611ee890614464565b60405180910390fd5b611efc83838361280b565b611f07600082611cbd565b6001600460008573ffffffffffffffffffffffffffffffffffffffff1673ffffffffffffffffffffffffffffffffffffffff1681526020019081526020016000206000828254611f579190614484565b925050819055506001600460008473ffffffffffffffffffffffffffffffffffffffff1673ffffffffffffffffffffffffffffffffffffffff1681526020019081526020016000206000828254611fae9190613fb0565b92505081905550816003600083815260200190815260200160002060006101000a81548173ffffffffffffffffffffffffffffffffffffffff021916908373ffffffffffffffffffffffffffffffffffffffff160217905550808273ffffffffffffffffffffffffffffffffffffffff168473ffffffffffffffffffffffffffffffffffffffff167fddf252ad1be2c89b69c2b068fc378daa952ba7f163c4a11628f55a4df523b3ef60405160405180910390a461206d838383612959565b505050565b61207c82826114c3565b61214f5760016008600084815260200190815260200160002060000160008373ffffffffffffffffffffffffffffffffffffffff1673ffffffffffffffffffffffffffffffffffffffff16815260200190815260200160002060006101000a81548160ff0219169083151502179055506120f4611cae565b73ffffffffffffffffffffffffffffffffffffffff168173ffffffffffffffffffffffffffffffffffffffff16837f2f8788117e7eff1d82e926ec794901d17c78024a50270940304540a733656f0d60405160405180910390a45b5050565b61215d82826114c3565b156122315760006008600084815260200190815260200160002060000160008373ffffffffffffffffffffffffffffffffffffffff1673ffffffffffffffffffffffffffffffffffffffff16815260200190815260200160002060006101000a81548160ff0219169083151502179055506121d6611cae565b73ffffffffffffffffffffffffffffffffffffffff168173ffffffffffffffffffffffffffffffffffffffff16837ff6391f5c32d9c69d2a47ea670b442974b53935d1edc7fd64eb21e047a839171b60405160405180910390a45b5050565b61223f8282612072565b5050565b60008073ffffffffffffffffffffffffffffffffffffffff166003600084815260200190815260200160002060009054906101000a900473ffffffffffffffffffffffffffffffffffffffff1673ffffffffffffffffffffffffffffffffffffffff1614159050919050565b6122b88161295e565b60006007600083815260200190815260200160002080546122d890613c23565b9050146122ff576007600082815260200190815260200160002060006122fe91906130fe565b5b50565b61230a611cae565b73ffffffffffffffffffffffffffffffffffffffff166123286113d9565b73ffffffffffffffffffffffffffffffffffffffff161461237e576040517f08c379a000000000000000000000000000000000000000000000000000000000815260040161237590614504565b60405180910390fd5b565b60008060009054906101000a900473ffffffffffffffffffffffffffffffffffffffff169050816000806101000a81548173ffffffffffffffffffffffffffffffffffffffff021916908373ffffffffffffffffffffffffffffffffffffffff1602179055508173ffffffffffffffffffffffffffffffffffffffff168173ffffffffffffffffffffffffffffffffffffffff167f8be0079c531659141344cd1fd0a4f28419497f9722a3daafe3b4186f6b6457e060405160405180910390a35050565b8173ffffffffffffffffffffffffffffffffffffffff168373ffffffffffffffffffffffffffffffffffffffff1614156124b3576040517f08c379a00000000000000000000000000000000000000000000000000000000081526004016124aa90614570565b60405180910390fd5b80600660008573ffffffffffffffffffffffffffffffffffffffff1673ffffffffffffffffffffffffffffffffffffffff16815260200190815260200160002060008473ffffffffffffffffffffffffffffffffffffffff1673ffffffffffffffffffffffffffffffffffffffff16815260200190815260200160002060006101000a81548160ff0219169083151502179055508173ffffffffffffffffffffffffffffffffffffffff168373ffffffffffffffffffffffffffffffffffffffff167f17307eab39ab6107e8899845ad3d59bd9653f200f220920489ca2b5937696c31836040516125a4919061320f565b60405180910390a3505050565b6125bc848484611e0b565b6125c884848484612a7b565b612607576040517f08c379a00000000000000000000000000000000000000000000000000000000081526004016125fe90614602565b60405180910390fd5b50505050565b606060405180602001604052806000815250905090565b606061262f82611c63565b600061263961260d565b905060008151116126595760405180602001604052806000815250612684565b8061266384612c12565b604051602001612674929190614140565b6040516020818303038152906040525b915050919050565b60007f80ac58cd000000000000000000000000000000000000000000000000000000007bffffffffffffffffffffffffffffffffffffffffffffffffffffffff1916827bffffffffffffffffffffffffffffffffffffffffffffffffffffffff1916148061275757507f5b5e139f000000000000000000000000000000000000000000000000000000007bffffffffffffffffffffffffffffffffffffffffffffffffffffffff1916827bffffffffffffffffffffffffffffffffffffffffffffffffffffffff1916145b80612767575061276682612d73565b5b9050919050565b61277882826114c3565b6128075761279d8173ffffffffffffffffffffffffffffffffffffffff166014612ddd565b6127ab8360001c6020612ddd565b6040516020016127bc9291906146ba565b6040516020818303038152906040526040517f08c379a00000000000000000000000000000000000000000000000000000000081526004016127fe91906134b4565b60405180910390fd5b5050565b612816838383613019565b6128417f8502233096d909befbda0999bb8ea2f3a6be3c138b9fbf003752a4c8bce86f6c60006114c3565b15801561287b5750600073ffffffffffffffffffffffffffffffffffffffff168373ffffffffffffffffffffffffffffffffffffffff1614155b80156128b45750600073ffffffffffffffffffffffffffffffffffffffff168273ffffffffffffffffffffffffffffffffffffffff1614155b15612954576128e37f8502233096d909befbda0999bb8ea2f3a6be3c138b9fbf003752a4c8bce86f6c846114c3565b8061291457506129137f8502233096d909befbda0999bb8ea2f3a6be3c138b9fbf003752a4c8bce86f6c836114c3565b5b612953576040517f08c379a000000000000000000000000000000000000000000000000000000000815260040161294a90614740565b60405180910390fd5b5b505050565b505050565b600061296982611158565b90506129778160008461280b565b612982600083611cbd565b6001600460008373ffffffffffffffffffffffffffffffffffffffff1673ffffffffffffffffffffffffffffffffffffffff16815260200190815260200160002060008282546129d29190614484565b925050819055506003600083815260200190815260200160002060006101000a81549073ffffffffffffffffffffffffffffffffffffffff021916905581600073ffffffffffffffffffffffffffffffffffffffff168273ffffffffffffffffffffffffffffffffffffffff167fddf252ad1be2c89b69c2b068fc378daa952ba7f163c4a11628f55a4df523b3ef60405160405180910390a4612a7781600084612959565b5050565b6000612a9c8473ffffffffffffffffffffffffffffffffffffffff1661301e565b15612c05578373ffffffffffffffffffffffffffffffffffffffff1663150b7a02612ac5611cae565b8786866040518563ffffffff1660e01b8152600401612ae794939291906147b5565b602060405180830381600087803b158015612b0157600080fd5b505af1925050508015612b3257506040513d601f19601f82011682018060405250810190612b2f9190614816565b60015b612bb5573d8060008114612b62576040519150601f19603f3d011682016040523d82523d6000602084013e612b67565b606091505b50600081511415612bad576040517f08c379a0000000000000000000000000000000000000000000000000000000008152600401612ba490614602565b60405180910390fd5b805181602001fd5b63150b7a0260e01b7bffffffffffffffffffffffffffffffffffffffffffffffffffffffff1916817bffffffffffffffffffffffffffffffffffffffffffffffffffffffff191614915050612c0a565b600190505b949350505050565b60606000821415612c5a576040518060400160405280600181526020017f30000000000000000000000000000000000000000000000000000000000000008152509050612d6e565b600082905060005b60008214612c8c578080612c7590613f67565b915050600a82612c859190614872565b9150612c62565b60008167ffffffffffffffff811115612ca857612ca7613245565b5b6040519080825280601f01601f191660200182016040528015612cda5781602001600182028036833780820191505090505b5090505b60008514612d6757600182612cf39190614484565b9150600a85612d0291906148a3565b6030612d0e9190613fb0565b60f81b818381518110612d2457612d23613f09565b5b60200101907effffffffffffffffffffffffffffffffffffffffffffffffffffffffffffff1916908160001a905350600a85612d609190614872565b9450612cde565b8093505050505b919050565b60007f01ffc9a7000000000000000000000000000000000000000000000000000000007bffffffffffffffffffffffffffffffffffffffffffffffffffffffff1916827bffffffffffffffffffffffffffffffffffffffffffffffffffffffff1916149050919050565b606060006002836002612df091906148d4565b612dfa9190613fb0565b67ffffffffffffffff811115612e1357612e12613245565b5b6040519080825280601f01601f191660200182016040528015612e455781602001600182028036833780820191505090505b5090507f300000000000000000000000000000000000000000000000000000000000000081600081518110612e7d57612e7c613f09565b5b60200101907effffffffffffffffffffffffffffffffffffffffffffffffffffffffffffff1916908160001a9053507f780000000000000000000000000000000000000000000000000000000000000081600181518110612ee157612ee0613f09565b5b60200101907effffffffffffffffffffffffffffffffffffffffffffffffffffffffffffff1916908160001a90535060006001846002612f2191906148d4565b612f2b9190613fb0565b90505b6001811115612fcb577f3031323334353637383961626364656600000000000000000000000000000000600f861660108110612f6d57612f6c613f09565b5b1a60f81b828281518110612f8457612f83613f09565b5b60200101907effffffffffffffffffffffffffffffffffffffffffffffffffffffffffffff1916908160001a905350600485901c945080612fc49061492e565b9050612f2e565b506000841461300f576040517f08c379a0000000000000000000000000000000000000000000000000000000008152600401613006906149a4565b60405180910390fd5b8091505092915050565b505050565b6000808273ffffffffffffffffffffffffffffffffffffffff163b119050919050565b604051806060016040528060008152602001600073ffffffffffffffffffffffffffffffffffffffff168152602001600081525090565b82805461308490613c23565b90600052602060002090601f0160209004810192826130a657600085556130ed565b82601f106130bf57805160ff19168380011785556130ed565b828001600101855582156130ed579182015b828111156130ec5782518255916020019190600101906130d1565b5b5090506130fa919061313e565b5090565b50805461310a90613c23565b6000825580601f1061311c575061313b565b601f01602090049060005260206000209081019061313a919061313e565b5b50565b5b8082111561315757600081600090555060010161313f565b5090565b6000604051905090565b600080fd5b600080fd5b60007fffffffff0000000000000000000000000000000000000000000000000000000082169050919050565b6131a48161316f565b81146131af57600080fd5b50565b6000813590506131c18161319b565b92915050565b6000602082840312156131dd576131dc613165565b5b60006131eb848285016131b2565b91505092915050565b60008115159050919050565b613209816131f4565b82525050565b60006020820190506132246000830184613200565b92915050565b600080fd5b600080fd5b6000601f19601f8301169050919050565b7f4e487b7100000000000000000000000000000000000000000000000000000000600052604160045260246000fd5b61327d82613234565b810181811067ffffffffffffffff8211171561329c5761329b613245565b5b80604052505050565b60006132af61315b565b90506132bb8282613274565b919050565b600067ffffffffffffffff8211156132db576132da613245565b5b6132e482613234565b9050602081019050919050565b82818337600083830152505050565b600061331361330e846132c0565b6132a5565b90508281526020810184848401111561332f5761332e61322f565b5b61333a8482856132f1565b509392505050565b600082601f8301126133575761335661322a565b5b8135613367848260208601613300565b91505092915050565b6000819050919050565b61338381613370565b811461338e57600080fd5b50565b6000813590506133a08161337a565b92915050565b600080604083850312156133bd576133bc613165565b5b600083013567ffffffffffffffff8111156133db576133da61316a565b5b6133e785828601613342565b92505060206133f885828601613391565b9150509250929050565b61340b81613370565b82525050565b60006020820190506134266000830184613402565b92915050565b600081519050919050565b600082825260208201905092915050565b60005b8381101561346657808201518184015260208101905061344b565b83811115613475576000848401525b50505050565b60006134868261342c565b6134908185613437565b93506134a0818560208601613448565b6134a981613234565b840191505092915050565b600060208201905081810360008301526134ce818461347b565b905092915050565b6000602082840312156134ec576134eb613165565b5b60006134fa84828501613391565b91505092915050565b600073ffffffffffffffffffffffffffffffffffffffff82169050919050565b600061352e82613503565b9050919050565b61353e81613523565b82525050565b60006020820190506135596000830184613535565b92915050565b61356881613523565b811461357357600080fd5b50565b6000813590506135858161355f565b92915050565b600080604083850312156135a2576135a1613165565b5b60006135b085828601613576565b92505060206135c185828601613391565b9150509250929050565b6000602082840312156135e1576135e0613165565b5b60006135ef84828501613576565b91505092915050565b60008060006060848603121561361157613610613165565b5b600061361f86828701613576565b935050602061363086828701613576565b925050604061364186828701613391565b9150509250925092565b6000819050919050565b61365e8161364b565b811461366957600080fd5b50565b60008135905061367b81613655565b92915050565b60006020828403121561369757613696613165565b5b60006136a58482850161366c565b91505092915050565b6136b78161364b565b82525050565b60006020820190506136d260008301846136ae565b92915050565b600080604083850312156136ef576136ee613165565b5b60006136fd8582860161366c565b925050602061370e85828601613576565b9150509250929050565b600067ffffffffffffffff82111561373357613732613245565b5b602082029050602081019050919050565b600080fd5b600061375c61375784613718565b6132a5565b9050808382526020820190506020840283018581111561377f5761377e613744565b5b835b818110156137a857806137948882613576565b845260208401935050602081019050613781565b5050509392505050565b600082601f8301126137c7576137c661322a565b5b81356137d7848260208601613749565b91505092915050565b6000602082840312156137f6576137f5613165565b5b600082013567ffffffffffffffff8111156138145761381361316a565b5b613820848285016137b2565b91505092915050565b600081519050919050565b600082825260208201905092915050565b6000819050602082019050919050565b61385e81613370565b82525050565b61386d81613523565b82525050565b6060820160008201516138896000850182613855565b50602082015161389c6020850182613864565b5060408201516138af6040850182613855565b50505050565b60006138c18383613873565b60608301905092915050565b6000602082019050919050565b60006138e582613829565b6138ef8185613834565b93506138fa83613845565b8060005b8381101561392b57815161391288826138b5565b975061391d836138cd565b9250506001810190506138fe565b5085935050505092915050565b6000602082019050818103600083015261395281846138da565b905092915050565b60008060006060848603121561397357613972613165565b5b600061398186828701613391565b935050602061399286828701613576565b92505060406139a386828701613576565b9150509250925092565b600080604083850312156139c4576139c3613165565b5b60006139d285828601613391565b92505060206139e385828601613576565b9150509250929050565b600060ff82169050919050565b613a03816139ed565b82525050565b6000602082019050613a1e60008301846139fa565b92915050565b613a2d816131f4565b8114613a3857600080fd5b50565b600081359050613a4a81613a24565b92915050565b60008060408385031215613a6757613a66613165565b5b6000613a7585828601613576565b9250506020613a8685828601613a3b565b9150509250929050565b600067ffffffffffffffff821115613aab57613aaa613245565b5b613ab482613234565b9050602081019050919050565b6000613ad4613acf84613a90565b6132a5565b905082815260208101848484011115613af057613aef61322f565b5b613afb8482856132f1565b509392505050565b600082601f830112613b1857613b1761322a565b5b8135613b28848260208601613ac1565b91505092915050565b60008060008060808587031215613b4b57613b4a613165565b5b6000613b5987828801613576565b9450506020613b6a87828801613576565b9350506040613b7b87828801613391565b925050606085013567ffffffffffffffff811115613b9c57613b9b61316a565b5b613ba887828801613b03565b91505092959194509250565b60008060408385031215613bcb57613bca613165565b5b6000613bd985828601613576565b9250506020613bea85828601613576565b9150509250929050565b7f4e487b7100000000000000000000000000000000000000000000000000000000600052602260045260246000fd5b60006002820490506001821680613c3b57607f821691505b60208210811415613c4f57613c4e613bf4565b5b50919050565b7f4552433732313a20617070726f76616c20746f2063757272656e74206f776e6560008201527f7200000000000000000000000000000000000000000000000000000000000000602082015250565b6000613cb1602183613437565b9150613cbc82613c55565b604082019050919050565b60006020820190508181036000830152613ce081613ca4565b9050919050565b7f4552433732313a20617070726f76652063616c6c6572206973206e6f7420746f60008201527f6b656e206f776e6572206e6f7220617070726f76656420666f7220616c6c0000602082015250565b6000613d43603e83613437565b9150613d4e82613ce7565b604082019050919050565b60006020820190508181036000830152613d7281613d36565b9050919050565b7f2141444d494e0000000000000000000000000000000000000000000000000000600082015250565b6000613daf600683613437565b9150613dba82613d79565b602082019050919050565b60006020820190508181036000830152613dde81613da2565b9050919050565b7f4552433732313a2063616c6c6572206973206e6f7420746f6b656e206f776e6560008201527f72206e6f7220617070726f766564000000000000000000000000000000000000602082015250565b6000613e41602e83613437565b9150613e4c82613de5565b604082019050919050565b60006020820190508181036000830152613e7081613e34565b9050919050565b7f416363657373436f6e74726f6c3a2063616e206f6e6c792072656e6f756e636560008201527f20726f6c657320666f722073656c660000000000000000000000000000000000602082015250565b6000613ed3602f83613437565b9150613ede82613e77565b604082019050919050565b60006020820190508181036000830152613f0281613ec6565b9050919050565b7f4e487b7100000000000000000000000000000000000000000000000000000000600052603260045260246000fd5b7f4e487b7100000000000000000000000000000000000000000000000000000000600052601160045260246000fd5b6000613f7282613370565b91507fffffffffffffffffffffffffffffffffffffffffffffffffffffffffffffffff821415613fa557613fa4613f38565b5b600182019050919050565b6000613fbb82613370565b9150613fc683613370565b9250827fffffffffffffffffffffffffffffffffffffffffffffffffffffffffffffffff03821115613ffb57613ffa613f38565b5b828201905092915050565b7f4552433732313a20696e76616c696420746f6b656e2049440000000000000000600082015250565b600061403c601883613437565b915061404782614006565b602082019050919050565b6000602082019050818103600083015261406b8161402f565b9050919050565b7f4552433732313a2061646472657373207a65726f206973206e6f74206120766160008201527f6c6964206f776e65720000000000000000000000000000000000000000000000602082015250565b60006140ce602983613437565b91506140d982614072565b604082019050919050565b600060208201905081810360008301526140fd816140c1565b9050919050565b600081905092915050565b600061411a8261342c565b6141248185614104565b9350614134818560208601613448565b80840191505092915050565b600061414c828561410f565b9150614158828461410f565b91508190509392505050565b7f4f776e61626c653a206e6577206f776e657220697320746865207a65726f206160008201527f6464726573730000000000000000000000000000000000000000000000000000602082015250565b60006141c0602683613437565b91506141cb82614164565b604082019050919050565b600060208201905081810360008301526141ef816141b3565b9050919050565b7f4552433732313a206d696e7420746f20746865207a65726f2061646472657373600082015250565b600061422c602083613437565b9150614237826141f6565b602082019050919050565b6000602082019050818103600083015261425b8161421f565b9050919050565b7f4552433732313a20746f6b656e20616c7265616479206d696e74656400000000600082015250565b6000614298601c83613437565b91506142a382614262565b602082019050919050565b600060208201905081810360008301526142c78161428b565b9050919050565b7f45524337323155524953746f726167653a2055524920736574206f66206e6f6e60008201527f6578697374656e7420746f6b656e000000000000000000000000000000000000602082015250565b600061432a602e83613437565b9150614335826142ce565b604082019050919050565b600060208201905081810360008301526143598161431d565b9050919050565b7f4552433732313a207472616e736665722066726f6d20696e636f72726563742060008201527f6f776e6572000000000000000000000000000000000000000000000000000000602082015250565b60006143bc602583613437565b91506143c782614360565b604082019050919050565b600060208201905081810360008301526143eb816143af565b9050919050565b7f4552433732313a207472616e7366657220746f20746865207a65726f2061646460008201527f7265737300000000000000000000000000000000000000000000000000000000602082015250565b600061444e602483613437565b9150614459826143f2565b604082019050919050565b6000602082019050818103600083015261447d81614441565b9050919050565b600061448f82613370565b915061449a83613370565b9250828210156144ad576144ac613f38565b5b828203905092915050565b7f4f776e61626c653a2063616c6c6572206973206e6f7420746865206f776e6572600082015250565b60006144ee602083613437565b91506144f9826144b8565b602082019050919050565b6000602082019050818103600083015261451d816144e1565b9050919050565b7f4552433732313a20617070726f766520746f2063616c6c657200000000000000600082015250565b600061455a601983613437565b915061456582614524565b602082019050919050565b600060208201905081810360008301526145898161454d565b9050919050565b7f4552433732313a207472616e7366657220746f206e6f6e20455243373231526560008201527f63656976657220696d706c656d656e7465720000000000000000000000000000602082015250565b60006145ec603283613437565b91506145f782614590565b604082019050919050565b6000602082019050818103600083015261461b816145df565b9050919050565b7f416363657373436f6e74726f6c3a206163636f756e7420000000000000000000600082015250565b6000614658601783614104565b915061466382614622565b601782019050919050565b7f206973206d697373696e6720726f6c6520000000000000000000000000000000600082015250565b60006146a4601183614104565b91506146af8261466e565b601182019050919050565b60006146c58261464b565b91506146d1828561410f565b91506146dc82614697565b91506146e8828461410f565b91508190509392505050565b7f215452414e534645525f524f4c45000000000000000000000000000000000000600082015250565b600061472a600e83613437565b9150614735826146f4565b602082019050919050565b600060208201905081810360008301526147598161471d565b9050919050565b600081519050919050565b600082825260208201905092915050565b600061478782614760565b614791818561476b565b93506147a1818560208601613448565b6147aa81613234565b840191505092915050565b60006080820190506147ca6000830187613535565b6147d76020830186613535565b6147e46040830185613402565b81810360608301526147f6818461477c565b905095945050505050565b6000815190506148108161319b565b92915050565b60006020828403121561482c5761482b613165565b5b600061483a84828501614801565b91505092915050565b7f4e487b7100000000000000000000000000000000000000000000000000000000600052601260045260246000fd5b600061487d82613370565b915061488883613370565b92508261489857614897614843565b5b828204905092915050565b60006148ae82613370565b91506148b983613370565b9250826148c9576148c8614843565b5b828206905092915050565b60006148df82613370565b91506148ea83613370565b9250817fffffffffffffffffffffffffffffffffffffffffffffffffffffffffffffffff048311821515161561492357614922613f38565b5b828202905092915050565b600061493982613370565b9150600082141561494d5761494c613f38565b5b600182039050919050565b7f537472696e67733a20686578206c656e67746820696e73756666696369656e74600082015250565b600061498e602083613437565b915061499982614958565b602082019050919050565b600060208201905081810360008301526149bd81614981565b905091905056fea2646970667358221220b75792d9e4f263b98bc12d8ae098c3d7c483d71b829dc3e35ab2bc5354faff4864736f6c63430008090033",
  "linkReferences": {},
  "deployedLinkReferences": {}
}